:020000041000EA
:1000000000B5324B212058609868022188439860DF
:10001000D860186158612E4B002199600221596106
:100020000121F02299502B49196001219960352056
:1000300000F044F80222904214D00621196600F024
:1000400034F8196E01211966002018661A6600F04E
:100050002CF8196E196E196E052000F02FF8012189
:100060000842F9D1002199601B49196000215960AB
:100070001A491B48016001219960EB211966A021F2
:10008000196600F012F800219960164914480160C1
:100090000121996001BC002800D000471248134993
:1000A000086003C880F30888084703B5996A0420EC
:1000B0000142FBD001200142F8D103BD02B5186610
:1000C0001866FFF7F2FF186E186E02BD00000240BE
:1000D000000000180000070000035F00212200005C
:1000E000F4000018222000A00001001008ED00E03C
:1000F00000000000000000000000000074B24E7A12
:1001000000200420F7010010C3010010C5010010F9
:10011000C1010010C1010010C1010010C101001097
:10012000C1010010C1010010C1010010C701001081
:10013000C1010010C1010010C9010010CB01001065
:10014000CD010010CD010010CD010010CD01001037
:10015000CD010010CD010010CD010010CD01001027
:10016000CD010010CD010010CD010010CD01001017
:10017000CD010010CD010010CD010010CD01001007
:10018000CD010010CD010010CD010010CD010010F7
:10019000CD010010CD010010CD010010CD010010E7
:1001A000CD010010CD010010CD010010CD010010D7
:1001B000CD010010CD010010CD010010CD010010C7
:1001C00000BE00BE00BE00BE00BE00BE00F04BF888
:1001D000103800BEF2EB8871A0D20310C4D2031015
:1001E0003402001090A31AE700202149086006C8D5
:1001F00081F3088810471F48006800282FD10DA4FC
:100200000ECC002902D000F012F8F9E71A491B4A77
:10021000002000E001C19142FCD1194988471949E9
:1002200088471949884700BEFDE701C901C29A42C3
:10023000FBD37047C4D20310C00000203C2500202F
:1002400040F70310000004200000042040F70310D2
:1002500000100420001004200000000070470B482C
:1002600023F064FC0047EFF30580C0B27047000044
:1002700008ED00E0000000D040250020E02701202C
:10028000411F02100D030010692002105756000094
:1002900006005250ABB3605320A903100600525021
:1002A000861C030230A90310060052505422A29D5E
:1002B000DC89031005005250DE65F46840F7031036
:1002C000F8B5C04610B5064C2378002B07D1054B76
:1002D000002B02D0044800E000BF0123237010BDB2
:1002E000982C002000000000685D0310044B10B53E
:1002F000002B03D00349044800E000BF10BDC046F6
:10030000000000009C2C0020685D031010B525F053
:10031000ABFEFA20C00021F0DBF9182020F0B6FA7D
:10032000D02380221B0652045A620BF017FE0BF0FA
:1003300069FEFCE7FEE7C046F0B54E46DE4657468E
:100340004546E0B54B085C1CE60091B081468A4604
:1003500030008D000121039302F0E2FF0590002898
:1003600000D137E10121280002F0DAFF04900028D3
:1003700000D131E1039B002B12D0049852468446F1
:10038000010030004B46013A92000838624448446C
:100390001F68043A80C15F68083357609842F7D1FC
:1003A0005346DB072BD45346202B32D04022403B10
:1003B000934300D1E5E080235B009A4500D1EFE054
:1003C000884B894A5344134200D1DAE0874B884A6C
:1003D0005344134200D1D4E00AAB0093002200231F
:1003E0000021504602F0D2FD051E00D1F0E0059A32
:1003F000049902F0A5FE280002F096FF43E04D4468
:10040000039B043D2A6804999B005A505346202BB5
:10041000CCD110230AAD2B80764B01219A89802004
:10042000AA819A685B680C920B93079353462B82C0
:10043000714B06926B6102F073FF071E00D1C7E09B
:1004400000233A002800049904F0D2FE059A3B6884
:1004500094461360002353607A68083E6644326015
:100460003A0001217360059B039808320833156830
:1004700001311D60556808325D6008338842F6D846
:10048000380002F051FF5346580023F09DFE059EB0
:1004900053460694002534000F0006000890099189
:1004A0000793280023F090FE544A554B23F017FE83
:1004B00032003B0023F0F5FD23F016FF824625F0C5
:1004C00003F98046504625F011F9AB0021688246B9
:1004D00040469B4625F027F861688046504625F047
:1004E00022F8011C404625F007F84B465A46985022
:1004F000039A2B00083401359A42D2D1079B069CFF
:100500009A469C4235D2089E099F059B3D4D9C46CC
:100510004B465544AD1AED0065440393200023F08B
:1005200053FE364A364B23F0DAFD32003B0023F00F
:10053000B8FD23F0D9FE814625F0C6F8804648462E
:1005400025F0D4F8A3002968814640469B4624F054
:10055000EAFF69688046484624F0E5FF011C4046F2
:1005600024F0C7FF5A46039B01349850083DA2452A
:10057000D4D1049802F0D8FE059802F0D5FE0024EC
:1005800006E0214C049802F0CFFE059802F0CCFE64
:10059000200011B0F0BCBB46B246A946A046F0BD53
:1005A00080230AAD2B80194B80209A890121AA81D2
:1005B0009A685B680C920B93079353462B82144BFB
:1005C000C0006B61069202F0ABFE071E00D037E759
:1005D000104CD7E70F4CDBE7059802F0A5FE0D4C59
:1005E000D6E7C04600FEFFFFFFFDFFFF00F8FFFF5C
:1005F000FFF7FFFF9468031004680310182D44549C
:10060000FB210940FFFFFF1F08FCFFFF8468031068
:100610000464031016FCFFFFF0B5DE46454657465E
:100620004E46E0B591B00991842149008C4694442E
:10063000614612680C9005921A9A1D00D4002000A1
:100640000F93049102F068FE0790002D71DD0F9B5F
:10065000012B00D077E01A9B002B6ADD00230C9D54
:10066000C218E9180833C0C9C0C29C42F8D10C9E18
:10067000079A331994460893230063440693002392
:10068000B34603935B46079C06CC06C31A9B012B1B
:1006900044D05B461B68002502935B465B68019370
:1006A000039B9C46059B65449D4200DBED1A049A22
:1006B000236894469946EB0063441F6862685B6850
:1006C0004946381C90469A4624F02DFF5146061C98
:1006D000404624F028FF011C301C24F00AFF011CB6
:1006E000029824F009FF5B46514618600290484684
:1006F00024F019FF4146061C381C24F014FF011C8D
:10070000301C24F0F9FE011C019824F0F5FE5B4634
:100710005860069B083401909C42C1D108239C4636
:10072000099AE3449446039B63440393089B5B4507
:10073000A8D1079802F0F8FD11B0F0BCBB46B24654
:10074000A946A046F0BDDA0084460A92220062441F
:100750000692099A5A4300230B920E930D931A9B0B
:10076000002B6CDD0C9A0D9B9046DB0098444346B1
:10077000079A0A98069C190060C960C21B18A24219
:10078000F9D10E9B0393002308934346079C06CCA4
:1007900006C31A9B012B44D043461B6800250193D6
:1007A00043465B680293039B9C46059B6544AB42B2
:1007B00000DCED1A049A236894469A46EB006344E1
:1007C0001F6862685B68391C504691469B4624F05E
:1007D000AAFE5946061C484624F0A5FE011C301C02
:1007E00024F087FE011C019824F086FE43465946FA
:1007F00018600190504624F096FE4946061C381CAD
:1008000024F091FE011C301C24F076FE011C02989D
:1008100024F072FE43465860069B083402909C42C6
:10082000C1D10A9A0B999446E0448C46039A089BDE
:10083000624403921A9A013308939A42A5D1099906
:100840000E9A8C460D9B62440E920F9A01330D93C3
:100850009A4284D16DE7C046F0B54E46DE46574613
:100860004546E0B59FB01E00289B91461A68834616
:10087000904647465A680C005743FF0005925F4474
:10088000012A00D1FFE20833424606934B46534308
:100890009A464B467343DB000393059B0500DB0040
:1008A0000493330056469B46BA460700299B210015
:1008B0000193069B2800009332005B46FFF7CCFFB4
:1008C000039B9C46049B64449C466544AA45EDD129
:1008D0004346BB46042B00D1E5E2042B00DDF5E0E6
:1008E000022B01D100F00DFC032B01D000F000FC25
:1008F0004B462999059A8C4653432133DB006344C8
:100900005B68089209930B00842149008C4663447C
:100910009846D3004A469A46D2000A924A46DA449A
:10092000120153440B924A469946434654465D464B
:1009300003930493012A01D000F08AFD23689846AE
:10094000049B41461A685F6893466268584692461F
:1009500024F0E9FD5146061C381C24F0E4FD011C7E
:10096000301C24F0C6FD59460590504624F0DBFDAE
:100970004146061C381C24F0D6FD011C301C24F016
:10098000BBFD4A461768039A0690116856688A4666
:100990004946496850468846391C24F0C4FD414602
:1009A0008346301C24F0BFFD011C584624F0A1FDF5
:1009B00051460790404624F0B6FD391C8046301C55
:1009C00024F0B1FD011C404624F096FD05998346B4
:1009D000079824F091FD06998246584624F08CFD34
:1009E000049B039A083310328046286804930392CC
:1009F00024F050FE060050460F0024F04BFE00226B
:100A0000314B23F06CFB02000B003000390023F067
:100A100036FB23F069FC2060686824F03BFE06008A
:100A200040460F0024F036FE0022274B23F057FBF0
:100A300002000B003000390023F021FB23F054FCAE
:100A400007996060059824F054FD099F391C24F033
:100A50006AFD5946061C069824F04BFD391C24F00B
:100A600062FD5146071C286824F046FD4146286077
:100A7000686824F041FD68602068391C24F03CFD62
:100A80004B4618606068311C24F033FD4B465860BB
:100A90002068391C24F02DFD311C2060606824F092
:100AA0002BFD082294466060089B0835013B0893A3
:100AB0000834E144002B00D040E71FB0F0BCBB4637
:100AC000B246A946A046F0BD0000E03F052B00D08D
:100AD0000EE305994B460A005A43299BD20009337D
:100AE000FF3308939B1818680C9058689B181A6875
:100AF0005B680E920F93CB000A00190059448C4694
:100B00009C44049161469C44E246039161460D90E9
:100B100007919A44002AD0DD4A46012A01D000F00C
:100B20005FFD5344159300230593299B0D33FF3339
:100B300009935B46D3460693069C0899236862682E
:100B40000B930A92059B049ACF5815680998291CA3
:100B5000C458381C566824F0E6FC311C8046201C22
:100B600024F0E1FC011C404624F0C3FC391C109029
:100B7000301C24F0D8FC291C061C201C24F0D3FCBB
:100B8000011C301C24F0B8FC059B089F5D007F59B8
:100B90000399B8460E68119009984F684459311C62
:100BA000404624F0C0FC391C8146201C24F0BBFCCC
:100BB000011C484624F09DFC41461290381C24F04C
:100BC000B2FC311C071C201C24F0ADFC011C381C9D
:100BD00024F092FC079E041C3768059A089B9446F3
:100BE0006544595909988946716845598846484667
:100BF000391C24F098FC4146061C281C24F093FC68
:100C0000011C301C24F075FC4946061C404624F0AB
:100C10008AFC391C8046281C24F085FC5F46011C98
:100C2000404624F069FC3F68059BB946089F9B003D
:100C3000FF58051C3A1C5F467F68101CBA46099F86
:100C40004946FF581392B84624F06DFC5146071CE4
:100C5000404624F068FC011C381C24F04AFC13991F
:100C6000071C504624F05FFC49468246404624F06B
:100C70005AFC011C504624F03FFC10998246381C57
:100C800024F03AFC11998146504624F035FC391C79
:100C90008046109824F02DFC51461090119824F0B5
:100CA00028FC12991190301C24F026FC211C82464D
:100CB000281C24F021FC311C071C129824F019FC7C
:100CC000291C1290201C24F014FC49461390504615
:100CD00024F012FC0B9E311C24F00EFC069C4146B5
:100CE0002060381C24F008FC0A9924F005FC0C9DB7
:100CF00049466060281C24F016FC311C24F0FCFBE3
:100D00000E9E041C5146301C24F00DFC011C201CBE
:100D100024F0F2FB41461490281C24F004FC0A99AC
:100D200024F0EAFB391C041C301C24F0FCFB011CE1
:100D3000201C24F0E1FB1399051C0F9824F0F3FB11
:100D40001199041C0D9824F0EEFB011C201C24F0CA
:100D5000D3FB1099061C0D9824F0E5FB80231B069D
:100D6000C41812990F9824F0DEFB011C201C24F0FB
:100D7000C0FB311C041C149824F0BBFB049A211CFA
:100D80001060281C24F0B5FB049A14995060301CA4
:100D900024F0B2FB5B46291C1860201C24F0ACFB3D
:100DA0005D4668600E9D4946281C24F0BCFB0B99EB
:100DB00024F0A2FB0C9B041C5146181C994624F0FD
:100DC000B2FB011C201C24F097FB4146041C281C8C
:100DD00024F0A9FB0A9924F08FFB391C051C484616
:100DE00024F0A1FB011C281C24F086FB0D9B051C94
:100DF0001399181C984624F096FB11990F9F061C16
:100E0000381C24F090FB011C301C24F072FB10995C
:100E1000061C381C24F087FB1299071C404624F05E
:100E200082FB011C381C24F064FB211C071C301CB5
:100E300024F062FB03990860291C381C24F05CFB39
:100E400003994860311C201C24F053FB079E391C79
:100E50003060281C24F04DFB0399059B0831039159
:100E600008218C46069C049A08330593159B7060F4
:100E7000083408320836E3440694049207965B452A
:100E800000D059E619E64B4602005E43F600130017
:100E9000220003CA03C3A4191A009F42F7D1434694
:100EA000042B00D019E5299A059B0932FF320592DF
:100EB0004A46D2000F924A46120110924A46520008
:100EC0004A44D2001192299A0B935268DB000D928A
:100ED0004A46012A00D0A5E11A005A4494469C448F
:100EE0000492624663440693059B5C460392079313
:100EF000089328E00C9B391C181C984624F0F9FA3A
:100F0000049A311C1060281C24F0F6FA049A414619
:100F10005060381C24F0F0FA069F291C3860301C01
:100F200024F0E7FA7860049A0B9B08320492039A43
:100F3000013B08320392069A083408320B9306925A
:100F4000002B00D1B9E5059B049A196817688946FA
:100F5000516848468846391C5E6824F0E4FA4146E8
:100F6000051C301C24F0DFFA011C281C24F0C1FAF7
:100F700049460990404624F0D6FA391C051C301C1D
:100F800024F0D1FA011C281C24F0B6FA0899039A1F
:100F90000D681668A8460A904D684046311C57688F
:100FA00024F0C1FA391C8146281C24F0BCFA011C2B
:100FB000484624F09EFA41468146381C24F0B3FA94
:100FC000311C071C281C24F0AEFA011C381C24F02C
:100FD00093FA079D80462868069E834637687068A6
:100FE000391C8246584624F09EFA6E685146051C0C
:100FF000301C24F098FA011C281C24F07AFA594677
:10100000051C504624F08FFA391C8246301C24F00F
:101010008AFA011C504624F06FFA071C20684946E2
:10102000834624F066FA666841460C90301C24F032
:1010300060FAB2464946061C584624F05DFA41461D
:1010400083462060504624F057FA09998246606032
:10105000281C24F051FA0A998146381C24F04CFAD5
:10106000291C8046099824F044FA391C051C0A986A
:1010700024F03FFA4946071C584624F03AFA039AEE
:1010800041461060504624F034FA059B039A0899B3
:1010900008330593079B506010311833206808917E
:1010A0004946079324F028FA41462060606824F0FE
:1010B00023FA0D9B6060002B00D01BE70C9B381CB3
:1010C000191C984624F018FA049B291C1860301C3F
:1010D00024F00FFA049B391C5860404624F009FAAA
:1010E000069F311C3860281C24F006FA78601AE745
:1010F0004346494600935846059B299AFFF78CFAC8
:10110000DBE4059B299DDC004B46DB0003934B464B
:1011100009355E46FF355C44012B40D12368994672
:101120002B6849469B46636858469A466B68083563
:10113000984624F0F8F95146071C404624F0F3F98C
:10114000011C381C24F0D5F95946071C504624F0E0
:10115000EAF949468246404624F0E5F9011C50462A
:1011600024F0CAF9391C8046306824F0C2F92060A6
:101170007068414624F0BDF960603068391C24F085
:10118000BBF941463060706824F0B6F9059B706089
:10119000013B083408360593002BBFD18DE423684A
:1011A0009A462B68504698466368414699466B6854
:1011B0009B4624F0B8F95946071C484624F0B3F979
:1011C000011C381C24F095F95946071C504624F0A0
:1011D000AAF949468246404624F0A5F9011C50462A
:1011E00024F08AF9039B80469C463068391C65448C
:1011F00024F07FF920607068414624F07AF960603D
:101200003068391C24F078F941463060706824F069
:1012100073F9059B7060013B083408360593002B79
:10122000BDD14AE41A005A4494469C4463441900D0
:10123000059B5C46E2468B4603920693049326E0A8
:101240000C9B181C984624F054F9039D0E9E2860B0
:10125000391C301C24F050F949466860404624F09F
:101260004BF95B46391C1860301C24F042F95B4690
:101270002A00586008320392082294460B9B0834D7
:10128000013B0B93E244E344002B00D115E4059BA2
:10129000039A1D68596817688846381C291C5668C7
:1012A00024F041F941468146301C24F03CF9011CF0
:1012B000484624F01EF941460A90381C24F033F9C0
:1012C000311C071C281C24F02EF9011C381C24F0AA
:1012D00013F951460968049A8846514615684F68C3
:1012E0005168089089464046291C24F01CF949465B
:1012F000061C381C24F017F9011C301C24F0F9F8E6
:101300004946061C404624F00EF9391C8046281C2C
:1013100024F009F9011C404624F0EEF85946051C5A
:101320005846096840688946069980460F684868AB
:10133000391C0790484624F0F6F807990990404672
:1013400024F0F1F8011C099824F0D3F807990990CA
:10135000484624F0E8F841468146381C24F0E3F87A
:10136000011C484624F0C8F827688146311C381C07
:1013700024F0BFF8B8466768291C0C90381C24F08C
:10138000B8F841460E90301C24F0B6F8391C80465F
:101390002060281C24F0B0F80A9F0999079060602B
:1013A000381C24F0A9F84946061C089824F0A4F833
:1013B0000999051C381C24F09CF84946071C08981C
:1013C00024F097F8311C8146404624F092F85346A9
:1013D000291C1860079824F08CF8534658600F9821
:1013E000059B844663440593109B049A9C46119B7D
:1013F00062449C4606990492614406912068311C1F
:1014000024F07AF8291C2060606824F075F80D9BA0
:1014100049466060002B00D012E70C9B181C9846D0
:1014200024F06AF8039D0E9E2860391C301C24F0BD
:1014300060F849466860404624F05BF85B46391C1A
:101440001860301C24F058F85B462A00586011E7F9
:10145000CB46236867689846049B40461E685A68D6
:10146000311C914624F05FF849468246381C24F02E
:101470005AF8011C504624F03CF849460590404675
:1014800024F051F8391C8046301C24F04CF8011C23
:10149000404624F031F85A46594612684F68904643
:1014A000039A06901668516840468A46311C24F01B
:1014B0003AF851468146381C24F035F8011C48465C
:1014C00024F017F851468146404624F02CF8391C88
:1014D0008046301C24F027F8011C404624F00CF80C
:1014E00049468046059824F007F84146079006983B
:1014F00024F002F80A99049B8C46634404930B9BE6
:10150000039A9C46624403928246286824F0C2F8FB
:10151000060007980F0024F0BDF800222F4B22F0A0
:10152000DEFD02000B003000390022F0A8FD22F0A1
:10153000DBFE2060686824F0ADF8060050460F001E
:1015400024F0A8F80022254B22F0C9FD02000B0070
:101550003000390022F093FD22F0C6FE494660605B
:10156000059823F0C6FF099F391C23F0DCFF414694
:10157000061C069823F0BDFF391C23F0D4FF079901
:10158000071C286823F0B8FF51462860686823F0DC
:10159000B3FF68602068391C23F0AEFF5B4618601B
:1015A0006068311C23F0A5FF5B4658602068391C39
:1015B00023F09FFF311C2060606823F09DFF08220C
:1015C0009446089B6060013B083508930834E34467
:1015D000002B00D03DE7FFF770FAC0460000E03F67
:1015E000D3001B9313011A9353004B44DB001D934C
:1015F00053011C9300230B93109311930A93199397
:10160000299B0D33FF3309935B46D3460693069C13
:101610000A982368626812931392049B089A1E68C2
:101620001458099F211C3F58301C5D6823F07BFF34
:10163000391C8046281C23F076FF011C404623F00D
:1016400058FF391C1590301C23F06DFF291C061C17
:10165000201C23F068FF011C301C23F04DFF119B60
:10166000039A08991668CC58099F211C1690301CC3
:10167000FF58556823F057FF391C8046281C23F07B
:1016800052FF011C404623F034FF391C1790301CD8
:1016900023F049FF291C061C201C23F044FF011CD9
:1016A000301C23F029FF0799041C0D68109AA846E6
:1016B000089D099EAD58B6584F684046291C23F036
:1016C00032FFB146061C4946381C23F02CFF011C92
:1016D000301C23F00EFF4946061C404623F023FF32
:1016E000391C8046281C23F01EFF5F46011C404623
:1016F00023F002FF3F680B99BA46089F051C7F58EC
:101700005046B8465F467F68B946099F7F584146B4
:10171000149723F008FF1499071C484623F003FF91
:10172000011C381C23F0E5FE1499071C504623F0D9
:10173000FAFE49468246404623F0F5FE011C50461B
:1017400023F0DAFE391C8146159823F0D5FE494670
:101750008046169823F0D0FE391C8246159823F057
:10176000C8FE49461490169823F0C3FE311C15900C
:10177000179823F0C1FE291C8146201C23F0BCFED3
:10178000311C071C179823F0B4FE291C1690201C4E
:1017900023F0AFFE49461790404623F0ADFE129E5F
:1017A000311C23F0A9FE069C391C2060504623F012
:1017B000A3FE139923F0A0FE0C9D41466060281CF7
:1017C00023F0B1FE311C23F097FE4946041C0E980D
:1017D00023F0A9FE011C201C23F08EFE5146061C9E
:1017E000281C23F0A0FE139923F086FE391C041C4C
:1017F0000E9823F098FE011C201C23F07DFE159905
:10180000041C0D9823F08FFE1799051C0F9823F0E8
:101810008AFE011C281C23F06FFE80251499189065
:101820000D9823F080FE2D06169945190F9823F088
:101830007AFE011C281C23F05CFE1899051C301C44
:1018400023F057FE049B291C1860201C23F051FE36
:10185000049B18995860301C23F04EFE5E46291CEC
:101860003060201C23F048FE0E9D41467060281C0D
:1018700023F059FE129923F03FFE0C9B4946041CAD
:10188000181C994623F04FFE011C201C23F034FE47
:101890005146041C281C23F046FE139923F02CFE0D
:1018A000391C051C484623F03EFE011C281C23F071
:1018B00023FE17990D9B051C181C984623F033FE38
:1018C0000F9F1599061C381C23F02DFE011C301C9F
:1018D00023F00FFE1499061C381C23F024FE1699E1
:1018E000071C404623F01FFE011C381C23F001FE9C
:1018F000311C071C201C23F0FFFD039A391C1060CB
:10190000281C23F0F9FD039A311C5060201C23F0A1
:10191000F0FD079E391C3060281C23F0EAFD069C70
:101920001B9D083406940824A4463100E344AC46C9
:10193000049B039A199C70600A980833604408322B
:101940000831013404930392119B079119940A9072
:101950001A98109A8446634411931D9B0B999C46D8
:101960001C9B62449C46059B614410920B91A342D0
:1019700000D04CE6FFF7A1F8F0B54546DE465746E5
:101980004E4691461A68E0B5170083465D680C0024
:101990006F43FF00904697B05F44012D00D1D6E21F
:1019A000083303934B46DB000493EB009A462B006D
:1019B000060015009846209B21000193039B3000F0
:1019C00000932A004B46FEF747FF049B56449C4673
:1019D0006444B742EFD14346A8461D004346042B5A
:1019E00000D1C5E2042B00DDE2E0022B01D100F0C2
:1019F000F0FB032B00D0E3E32B00209921338C462E
:101A0000DB0063445B6808950993EB009946D94471
:101A10004B4498464C465D460931FF310391049191
:101A2000236867689946039B48461E685A68311CBC
:101A3000924623F078FD51468346381C23F073FD0F
:101A4000011C584623F055FD51460590484623F0A9
:101A50006AFD391C8146301C23F065FD011C484697
:101A600023F04AFD4246414612684F689146049A67
:101A700006901668516848468A46311C23F053FD8B
:101A800051468346381C23F04EFD011C584623F076
:101A900030FD51468346484623F045FD391C8146BA
:101AA000301C23F040FD011C484623F025FD59461B
:101AB0008146059823F020FD49460790069823F0BB
:101AC0001BFD039B049A0833103282462868039357
:101AD000049223F0DFFD060007980F0023F0DAFDE3
:101AE0000022324B22F0FBFA02000B0030003900DA
:101AF00022F0C5FA22F0F8FB2060686823F0CAFDE6
:101B0000060050460F0023F0C5FD0022274B22F0AF
:101B1000E6FA02000B003000390022F0B0FA22F0A1
:101B2000E3FB59466060059823F0E3FC099F391CEC
:101B300023F0F9FC4946061C069823F0DAFC391C10
:101B400023F0F1FC0799071C286823F0D5FC5146C7
:101B50002860686823F0D0FC68602068391C23F096
:101B6000CBFC434618606068311C23F0C2FC43463E
:101B700058602068391C23F0BCFC311C2060606870
:101B800023F0BAFC08229446089B6060013B0835AC
:101B900008930834E044002B00D041E717B0F0BCB4
:101BA000BB46B246A946A046F0BDC0460000E03F95
:101BB000052B00D004E3209AEB000932FF32089293
:101BC000D21811680C915168D2180D9111685268A1
:101BD0000E910F921A005A4494469C440492624615
:101BE0009C44E246059262469A440792002DD5DD58
:101BF0005344159300230393209B0D33FF33099324
:101C00005B46D3460693069C0899236862680A934C
:101C10000B92039B049ACC5816680998211CC7584C
:101C2000301C556823F07FFC391C8046281C23F0AB
:101C30007AFC011C404623F05CFC391C1190301CDE
:101C400023F071FC291C061C201C23F06CFC011CD9
:101C5000301C23F051FC039B0599089E12900998B3
:101C60005D0074590F684E684159381C8846211C24
:101C700023F059FC41468146301C23F054FC011CE2
:101C8000484623F036FC41461390381C23F04BFCA9
:101C9000311C071C201C23F046FC011C381C23F0BF
:101CA0002BFC079E041C3768039BB846EB18099869
:101CB000089DC158ED5889464046291C23F033FC45
:101CC00077684946061C381C23F02DFC011C301C8B
:101CD00023F00FFC4946061C404623F024FC391C27
:101CE0008046281C23F01FFC5F46011C404623F061
:101CF00003FC3F68039BBA46089F9B00FF58051CE6
:101D0000B8465F467F684146B946099F5046FF582E
:101D1000109723F008FC1099071C484623F003FC99
:101D2000011C381C23F0E5FB1099071C504623F0DA
:101D3000FAFB49468246404623F0F5FB011C50461B
:101D400023F0DAFB391C8146119823F0D5FB494674
:101D50008046129823F0D0FB391C8246119823F05C
:101D6000C8FB49461090129823F0C3FB311C119018
:101D7000139823F0C1FB291C8146201C23F0BCFBD7
:101D8000311C071C139823F0B4FB291C1290201C53
:101D900023F0AFFB49461390404623F0ADFB0A9E6B
:101DA000311C23F0A9FB069C391C2060504623F00F
:101DB000A3FB0B9923F0A0FB0C9D41466060281CFF
:101DC00023F0B1FB311C23F097FB4946041C0E980D
:101DD00023F0A9FB011C201C23F08EFB5146061C9E
:101DE000281C23F0A0FB0B9923F086FB391C041C54
:101DF0000E9823F098FB011C201C23F07DFB119909
:101E0000041C0D9823F08FFB1399051C0F9823F0E9
:101E10008AFB011C281C23F06FFB8025109914906D
:101E20000D9823F080FB2D06129945190F9823F089
:101E30007AFB011C281C23F05CFB1499051C301C48
:101E400023F057FB049A291C1060201C23F051FB3F
:101E5000049A14995060301C23F04EFB5E46291CF6
:101E60003060201C23F048FB0E9D41467060281C0A
:101E700023F059FB0A9923F03FFB0C9B4946041CB5
:101E8000181C994623F04FFB011C201C23F034FB47
:101E90005146041C281C23F046FB0B9923F02CFB15
:101EA000391C051C484623F03EFB011C281C23F06E
:101EB00023FB13990D9B051C181C984623F033FB3C
:101EC0000F9F061C1199381C23F02DFB011C301CA0
:101ED00023F00FFB1099061C381C23F024FB1299E9
:101EE000071C404623F01FFB011C381C23F001FB9C
:101EF000311C071C201C23F0FFFA05990860391CCF
:101F0000281C23F0F9FA05994860311C201C23F0A5
:101F1000F0FA079E391C3060281C23F0EAFA049A74
:101F200035000832049208229446039B069C0599CA
:101F300008330393159B083408310835E344706077
:101F40000694059107959B4500D05CE626E64B4636
:101F50004A46D9000300012A00D022E1220041CAEA
:101F600041C364189F42F9D14346042B00D039E5A0
:101F7000EB009A469946DA44D1444B4498464B4686
:101F800003935346209A209909324968FF325C46F0
:101F90000B95C34605920D9107920692049328E093
:101FA0000C9B181C984623F0A4FA049A311C10606C
:101FB000281C23F0A1FA049A391C5060404623F0F3
:101FC0009BFA5B46311C1860281C23F092FA5B4692
:101FD0005860049A0B9B08320492039A013B083222
:101FE00003920822944608340B93E344002B00D15B
:101FF000D4E5049A136857689846059B40461E68C6
:1020000059688946311C23F08EFA4946051C381C54
:1020100023F089FA011C281C23F06BFA4946099029
:10202000404623F080FA391C051C301C23F07BFA53
:10203000011C281C23F060FA039A069917680D68A2
:102040000A904868291C8046381C566823F06BFAB1
:1020500041468146301C23F066FA011C484623F0B5
:1020600048FA41468146381C23F05DFA311C071CB2
:10207000281C23F058FA5D46011C381C23F03CFA5A
:102080002D68079EAA468046356870685F46291C01
:102090000890504623F047FA7F680899061C381CC0
:1020A00023F041FA011C301C23F023FA0899061C86
:1020B000504623F038FA391C8246281C23F033FAA4
:1020C000011C504623F018FA2568071C4946281CB5
:1020D000089523F00EFA656841460C90281C23F001
:1020E00008FAAA460899051C484623F005FA514605
:1020F00008902060404623F0FFF9311C8246606062
:10210000099823F0F9F9391C81460A9823F0F4F96B
:10211000311C8046099823F0ECF9391C061C0A98FA
:1021200023F0E7F94946071C089823F0E2F9039ADF
:1021300041461060504623F0DCF9059B039A0833B2
:1021400006990593079B5060183310310793069149
:102150004946206823F0D0F941462060606823F0AA
:10216000CBF90D9B6060391C002B00D018E70C9B4D
:10217000181C984623F0C0F9049B311C1860281CD9
:1021800023F0B7F9049B391C5860404623F0B1F99D
:102190005B46311C1860281C23F0AEF95B46586082
:1021A00017E7220041CA41C364189F4200D115E4D9
:1021B000220041CA41C364189F42F2D1FFF70EFCCE
:1021C00043460121009358462B00209AFEF724FA3B
:1021D000E4E4EC0003955D46209F5C440937FF373B
:1021E00023689A463B68504698466368414699463C
:1021F0007B6808379B4623F096F95946061C4846EB
:1022000023F091F9011C301C23F073F95946061C88
:10221000504623F088F949468246404623F083F928
:10222000011C504623F068F9311C8046286823F0D1
:1022300060F920606868414623F05BF960602868B7
:10224000311C23F059F941462860686823F054F99D
:10225000039B6860013B083408350393002BBFD112
:102260009CE4C046F0B54E464546DE465746894694
:102270000100E0B5213185B0C90080460191002BF5
:1022800000D134E1002A00D1E6E10800196881425A
:1022900000D293E092461860534642461A604A467E
:1022A0005A60002A00D199E04346002B00DCD7E1B8
:1022B000404621F08DFF84235B0053449B4600235E
:1022C00006000F009946484621F082FFBC4ABD4BEC
:1022D00021F005FF32003B0021F0E3FE04000D0079
:1022E00022F024F822F000F85B4629001860200054
:1022F00022F032F821F0F8FF5B46586001239C463B
:102300000733E1449C46E344C845DCD13000390042
:1023100021F0F6FF22F0D0F80022AB4B5446060025
:102320000F0021F027FF802300220834DB0500285E
:1023300000D184E03000390021F01CFF0425002882
:1023400000D001E101239B46013302960397994691
:10235000270044462900200021F01AFC002911D151
:102360002000290021F014FC3B0004003D600833EC
:102370007860012825DD290020001F0021F008FCDD
:102380000029EDD0022D00D118E1042D00D008E184
:102390005B46234200D011E14A463A603A00E30F1F
:1023A0001B195B1008327B60032C0ADD59461700AD
:1023B0001C00194200D001E10225D1E7186000237A
:1023C0009A460E9B002B01D0019A1A60504605B028
:1023D000F0BCBB46B246A946A046F0BD4346002B22
:1023E00000DC3DE1404621F0F3FE84235B005344D2
:1023F00006000F009B46484621F0EAFE704A734BE8
:1024000021F06DFE32003B0021F04BFE04000D0078
:1024100021F08CFF21F068FF5B4629001860200046
:1024200021F09AFF21F060FF5B46586001239C4633
:102430000733E1449C46E344C845DCD166E73000FD
:10244000390021F097FE0425002858D10123029677
:1024500003979B46270044462900200021F098FB63
:10246000002935D0022D15D0042D00D0DEE05B46CA
:1024700023420FD102223A603A00E30F1B195B108E
:1024800008327B60032C9CDD594617001C00194262
:1024900000D1F2E00321200021F07AFB002900D0D6
:1024A000D5E02000033121F073FB03233B600533AB
:1024B00099460500B9447860052C00DC81E70321CA
:1024C00021F066FB002900D0D2E02C004F46032506
:1024D0002000290021F05CFB0823994604003D60A0
:1024E000B9447860012800DC6BE74F46B4E7080088
:1024F00000F012FF8246002800D162E7CCE6029687
:102500000397270044462900200021F041FB0029C1
:1025100012D12000290021F03BFB3B0004003D606C
:1025200008337860012800DC4BE71F0029002000F9
:1025300021F02EFB0029ECD0022D49D0042D6ED1C4
:102540003B0025001F00F1E70223029603979946FE
:10255000270044462900200021F01AFB002916D04C
:102560004A46AB1E93430BD00235280021F030FEC3
:1025700002000B000298039921F0FCFD0028E9D02D
:1025800025002000290021F003FB0029E8D13B00B1
:1025900004003D6008337860012800DC11E71F006B
:1025A000D8E70235280021F013FE02000B00029844
:1025B000039921F0DFFD002800D1CBE62500C9E614
:1025C000182D4454FB21194000000840FB2119C07C
:1025D0000321200021F0DCFA002914D1200003316E
:1025E00021F0D6FA03233B60053399460500B94430
:1025F0007860052C00DCE4E6032121F0C9FA4F469F
:102600002C00002932D0002205251D4B0298039989
:1026100021F0B0FD3B00002892D11F0086E7023573
:10262000280021F0D5FD02000B00EFE7023528005D
:1026300021F0CEFDB94602000B000298039921F06B
:1026400099FD002800D150E725004F4604E7B94620
:10265000002205250A4BF0E7196000239A46B0E6F0
:10266000404621F0B5FD06000F004FE6032550E778
:102670002C0000220525024BDFE7022528E7C04693
:1026800000001440F0B5DE46454657464E46E0B5DC
:1026900004000D00934697B0914201D100F00FFC69
:1026A0008368C76818007843C00081469846D944BB
:1026B000012F00D105E110239C46A44463460393F7
:1026C000FB009A46160023003A0044464F469846BF
:1026D000914643460193039B29003000009322005A
:1026E00001235644FEF7B8F80835B742F1D1434606
:1026F000A0461C0043464F46042B00D1F3E0042BB8
:1027000000DD0BE2022B01D100F0F8FB032B00D01F
:10271000EBE33B002133DB00E3185B682100099306
:10272000FB009946D9444B4498464C465D460931D6
:10273000FF31089703910491236867689946039BCA
:1027400048461E685A68311C924622F0ECFE5146FB
:102750008346381C22F0E7FE011C584622F0C9FED1
:1027600051460590484622F0DEFE391C8146301C59
:1027700022F0D9FE011C484622F0BEFE42464146E8
:1027800012684F689146049A069016685168484648
:102790008A46311C22F0C7FE51468346381C22F07F
:1027A000C2FE011C584622F0A4FE5146834648460C
:1027B00022F0B9FE391C8146301C22F0B4FE011C07
:1027C000484622F099FE59468146059822F094FE2B
:1027D00049460790069822F08FFE039B049A08331F
:1027E0001032824628680393049222F053FF0600B9
:1027F00007980F0022F04EFF0022C74B21F06FFC1C
:1028000002000B003000390021F039FC21F06CFD92
:102810002060686822F03EFF060050460F0022F05C
:1028200039FF0022BC4B21F05AFC02000B003000A3
:10283000390021F024FC21F057FD594660600598CD
:1028400022F057FE099F391C22F06DFE4946061CF6
:10285000069822F04EFE391C22F065FE0799071CEF
:10286000286822F049FE51462860686822F044FE3C
:1028700068602068391C22F03FFE4346186060689B
:10288000311C22F036FE434658602068391C22F085
:1028900030FE311C2060606822F02EFE0822944633
:1028A000089B6060013B083508930834E044002B26
:1028B00000D041E717B0F0BCBB46B246A946A046DF
:1028C000F0BD0023BC46A1461600F218E9180833F3
:1028D00090C990C29842F8D1434667464C46B346E9
:1028E000042B00D00BE784235B009C46FB009A4638
:1028F0009946DA44D1444B4498464B46A444624638
:102900000393534661680B975C460592C3460D914D
:1029100007920692049327E00C9B181C984622F01D
:10292000E8FD049A311C1060281C22F0E5FD049A91
:10293000391C5060404622F0DFFD5B46311C1860B8
:10294000281C22F0D6FD5B465860049A0B9B083287
:102950000492039A013B08320392082294460834F9
:102960000B93E344002BA5D0049A1368576898464C
:10297000059B40461E6859688946311C22F0D3FDEC
:102980004946051C381C22F0CEFD011C281C22F0F3
:10299000B0FD49460990404622F0C5FD391C051C92
:1029A000301C22F0C0FD011C281C22F0A5FD039A5A
:1029B000069917680D680A904868291C8046381CDB
:1029C000566822F0B0FD41468146301C22F0ABFD36
:1029D000011C484622F08DFD41468146381C22F0FC
:1029E000A2FD311C071C281C22F09DFD5D46011C28
:1029F000381C22F081FD2D68079EAA468046356866
:102A000070685F46291C0890504622F08CFD7F6854
:102A10000899061C381C22F086FD011C301C22F08F
:102A200068FD0899061C504622F07DFD391C82463F
:102A3000281C22F078FD011C504622F05DFD25681F
:102A4000071C4946281C089522F053FD656841463D
:102A50000C90281C22F04DFDAA460899051C4846FA
:102A600022F04AFD514608902060404622F044FD85
:102A7000311C82466060099822F03EFD391C814677
:102A80000A9822F039FD311C8046099822F031FD68
:102A9000391C061C0A9822F02CFD4946071C089890
:102AA00022F027FD039A41461060504622F021FD96
:102AB000059B039A083306990593079B50601833CA
:102AC0001031079306914946206822F015FD4146D2
:102AD0002060606822F010FD0D9B6060391C002BA7
:102AE00000D019E70C9B181C984622F005FD049BAA
:102AF000311C1860281C22F0FCFC049B391C586017
:102B0000404622F0F6FC5B46311C1860281C22F07F
:102B1000F3FC5B46586018E70000E03F052B00D04F
:102B2000E3E1842252009446A4446246FB000892EA
:102B3000D21811680C915168D2180D911168526821
:102B40000E910F921A005A4494469C440492624695
:102B50009C44E246059262469A440792002F00DCAC
:102B6000A8E653441593002303935B46D3460D34E4
:102B7000FF3409940693069C0899236862680A93B7
:102B80000B92039B049ACC5816680998211CC758CD
:102B9000301C556822F0C7FC391C8046281C22F0E6
:102BA000C2FC011C404622F0A4FC391C1190301CD0
:102BB00022F0B9FC291C061C201C22F0B4FC011CCC
:102BC000301C22F099FC039B0599089E12900998ED
:102BD0005D0074590F684E684159381C8846211CA5
:102BE00022F0A1FC41468146301C22F09CFC011CD5
:102BF000484622F07EFC41461390381C22F093FC9C
:102C0000311C071C201C22F08EFC011C381C22F0F9
:102C100073FC079E041C3768039BB846EB180998A1
:102C2000089DC158ED5889464046291C22F07BFC7E
:102C300077684946061C381C22F075FC011C301CC4
:102C400022F057FC4946061C404622F06CFC391C19
:102C50008046281C22F067FC5F46011C404622F09B
:102C60004BFC3F68039BBA46089F9B00FF58051C1E
:102C7000B8465F467F684146B946099F5046FF58AF
:102C8000109722F050FC1099071C484622F04BFC8C
:102C9000011C381C22F02DFC1099071C504622F014
:102CA00042FC49468246404622F03DFC011C50460B
:102CB00022F022FC391C8146119822F01DFC494665
:102CC0008046129822F018FC391C8246119822F096
:102CD00010FC49461090129822F00BFC311C119008
:102CE000139822F009FC291C8146201C22F004FCC8
:102CF000311C071C139822F0FCFB291C1290201C8D
:102D000022F0F7FB49461390404622F0F5FB0A9E5D
:102D1000311C22F0F1FB069C391C2060504622F049
:102D2000EBFB0B9922F0E8FB0C9D41466060281CF0
:102D300022F0F9FB311C22F0DFFB4946041C0E98FF
:102D400022F0F1FB011C201C22F0D6FB5146061C90
:102D5000281C22F0E8FB0B9922F0CEFB391C041C46
:102D60000E9822F0E0FB011C201C22F0C5FB1199FB
:102D7000041C0D9822F0D7FB1399051C0F9822F024
:102D8000D2FB011C281C22F0B7FB8025109914905F
:102D90000D9822F0C8FB2D06129945190F9822F0C4
:102DA000C2FB011C281C22F0A4FB1499051C301C3A
:102DB00022F09FFB049A291C1060201C22F099FB32
:102DC000049A14995060301C22F096FB5E46291C30
:102DD0003060201C22F090FB0E9D41467060281C44
:102DE00022F0A1FB0A9922F087FB0C9B4946041CA8
:102DF000181C994622F097FB011C201C22F07CFB3A
:102E00005146041C281C22F08EFB0B9922F074FB07
:102E1000391C051C484622F086FB011C281C22F0A8
:102E20006BFB13990D9B051C181C984622F07BFB2D
:102E30000F9F061C1199381C22F075FB011C301CD9
:102E400022F057FB1099061C381C22F06CFB1299DB
:102E5000071C404622F067FB011C381C22F049FB8E
:102E6000311C071C201C22F047FB05990860391C07
:102E7000281C22F041FB05994860311C201C22F0DF
:102E800038FB079E391C3060281C22F032FB049A64
:102E900035000832049208229446039B069C05994B
:102EA00008330393159B083408310835E3447060F8
:102EB0000694059107959B4500D05CE6FAE403680B
:102EC000D80000F029FA2300060029000833012267
:102ED0000094FEF751FD226831002800D20022F054
:102EE000FBFD300000F020FAE4E4434622000093AA
:102EF00001213B005846FDF78FFBDBE45E460934B9
:102F0000FD00FF345D4403972B689A4623685046C2
:102F100098466B6841469946636808349B4622F0A0
:102F200002FB5946071C484622F0FDFA011C381CDA
:102F300022F0DFFA5946071C504622F0F4FA4946BF
:102F40008246404622F0EFFA011C504622F0D4FAA5
:102F5000391C8046306822F0CCFA286070684146FF
:102F600022F0C7FA68603068391C22F0C5FA414681
:102F70003060706822F0C0FA039B7060013B083536
:102F800008360393002BBFD194E4C046F0B54E46FB
:102F90004546DE465746E0B51D00002387B0059341
:102FA000013316001A00024089469046034200D0C1
:102FB000ACE04410009205AB00222000FFF752F96C
:102FC00063001B19D90FC9184910C9008B46059B0E
:102FD0000C339B44002D00D19EE02B685B4500D252
:102FE0009FE05B46B2462B605346002B4FD05246C3
:102FF00051460C321A60059B2000D3184B60E1004B
:103000005B1851468B6000234946009305ABFFF7E0
:1030100029F94B46002B42D0E30F1B195B10039399
:10302000012C2FDD200021F0D3F853469B680600C9
:103030000F00994601239C46E044404621F0C8F821
:1030400032003B0021F02DF80022384B21F020F80F
:10305000374A384B21F043F804000D0021F066F99F
:1030600021F042F94B4629001860200021F074F944
:1030700021F03AF94B46586008239C46039BE144F3
:103080009845D7DB109B002B01D05A461A6050465A
:1030900007B0F0BCBB46B246A946A046F0BDE30F60
:1030A0001B195B100393012CECDD200021F090F83C
:1030B00053469B6806000F00984601239C46E14456
:1030C000484621F085F832003B0020F0EAFF00225C
:1030D000164B20F0DDFF164A174B21F000F80400D4
:1030E0000D0021F023F921F0FFF843462900186074
:1030F000200021F031F921F0F7F843465860082309
:103100009C46039BE0449945D7DBBBE70B4808F09E
:10311000D5FE00239A46BAE7584600F0FDF88246ED
:1031200062E75B462B6000239A46B0E70000E03F71
:10313000182D4454FB210940FB2109C0705D031088
:10314000F0B54E464546DE465746E0B505000068F8
:103150000E004368140087B0002B00D0B4E06A680A
:1031600031000768FFF78EFA6B68FE0098461B680F
:103170009A4643465B685046191C9B4622F0BCF9B0
:10318000A319994620605946504622F0B2F94B46A1
:103190004A461860002363605360FB0FDB195B1025
:1031A0000593012F00DC88E00823083E4344B04427
:1031B000994643460093AB6825009B46A41901231A
:1031C00008354E46A046A9460293009B35681A680A
:1031D000291C101C5C68924622F08EF97768211C2D
:1031E0000390381C22F085F951460490281C22F0E7
:1031F00080F9391C051C201C22F07EF95A46126801
:10320000041C92465A4652685146281C019222F0EC
:103210008AF90199071C201C22F085F9011C381C31
:1032200022F067F90199071C281C22F07CF951460D
:10323000051C201C22F077F9011C281C22F05CF9E7
:10324000039B041C391C181C9A4622F055F9FC21DA
:10325000890522F068F94A46049D1060291C201C4B
:1032600022F04AF9FC21890522F05DF94A46391C11
:103270005060504622F03DF9FC21890522F053F9B7
:103280004246291C1060201C22F033F9FC218905DC
:1032900022F049F942465060029A08360132029201
:1032A000009B083B009308239C46103BE344E14409
:1032B0009C46059BE0449A4287DD07B0F0BCBB46C4
:1032C000B246A946A046F0BD024808F0F7FD2868BE
:1032D00045E7C0468C5D03100020704710B51EF016
:1032E000F7F9002010BDC04610B51EF0DFFA10BD82
:1032F00010B50100014808F0E1FD10BDB45D0310F8
:1033000010B522F0C7F902000B00024808F0D6FD04
:1033100010BDC046B85D031010B522F095FB10BD7E
:1033200010B522F0A3FB10BD10B522F0C3FB10BDF9
:10333000F0B5DE4657464E464546E0B543688DB08B
:1033400000934B680A9353684A8841880088940028
:103350000790880801900320084089000690099191
:10336000012A00D07AE09B460593019BA3441B01F0
:103370009C4604935B460293069BA0469B46009A9C
:1033800062440392059B9A460A9B9946019F002F2F
:1033900060D04D460024009E3168286822F0C3F8B2
:1033A000211C22F0A9F843467168041CE85822F059
:1033B000BAF8211C22F0A0F8B168041CA86822F019
:1033C000B2F8211C22F098F8F168041CE86822F099
:1033D000AAF8211C22F090F8013F041C1035103689
:1033E000002FD9D1049D039F4D445B46002B0DD087
:1033F0005E4602CF286822F096F8011C201C22F0BD
:103400007BF8013E041C4544002EF2D1534610C304
:103410009A4604239C46029BE1449A45B6D1099AF8
:10342000009B9446029963444144059A009302919B
:10343000079B0399013B6144424407930391059222
:10344000002B9FD100200DB0F0BCBB46B246A94670
:10345000A046F0BD4D460024009FC6E79C4600985C
:10346000A4440B9363468446019904930B0163447F
:103470000593D3009B4653009B189B009A4613016B
:103480009946A046594308910B9B03930A9B0293CC
:10349000019F002F5CD00024009E029D29683068A7
:1034A00022F041F8211C22F027F84346041CE95879
:1034B000706822F038F8211C22F01EF85B46041CCC
:1034C000E958B06822F02FF8211C22F015F8534675
:1034D000041CE958F06822F026F8211C22F00CF8B0
:1034E000013F041C4D441036002FD7D1089B029D8C
:1034F0009C46059F6544069E002E0CD0296801CF8E
:1035000022F011F8011C201C21F0F6FF013E041CE2
:103510004544002EF2D1029A039B04320292049A8F
:1035200010C303939342B3D1099A009B9446049924
:10353000634441440B9A00930491079B0599013B16
:1035400061444244079305910B92002B9CD179E78B
:103550000024029D009FCEE7F8B54E46DE46574652
:103560004546E0B543680E1C9B46536842889A4620
:1035700003885A439308914698461FD05D465446A7
:103580001F002868311C21F0CEFF20606868311CC4
:1035900021F0C9FF6060A868311C21F0C4FFA06061
:1035A000E868311C21F0BFFF013FE06010351034A6
:1035B000002FE6D143461B019B449A4403234C460B
:1035C0004A461C40134219D05B46311C186821F052
:1035D000AAFF5346651E1860012C0FD05B46311CB4
:1035E000586821F0A0FF53465860012D06D05B4675
:1035F000311C986821F097FF534698600020F0BC7A
:10360000BB46B246A946A046F8BDC046F0B55746EF
:10361000DE464E4645460300E0B503275C881A881F
:10362000A3089C464068496885B093002740012A5A
:1036300036D16646CA18904662465E4312019246EB
:10364000B2009346BA00914664460A00002C11D09D
:10365000040065462668013D16606668D650A66877
:103660009660E6681034D6601032002DF2D15A46CA
:1036700050445218002F08D005003C0040CD013CBA
:103680001660D218002CF9D1484404314145DBD1F1
:10369000002005B0F0BCBB46B246A946A046F0BD2E
:1036A000CC18A346D400A2465400A4181201904698
:1036B00062461201029262465A4392000192BA0097
:1036C00003924246A400804689465E465146100059
:1036D000BA46270064464A46002C15D04446654643
:1036E000B3462668013D16606668D650A6685650F7
:1036F000E6681034D6511218002DF2D1029A5E46B7
:103700009346019AD8444A445446002C0BD045466F
:10371000B34640CD013C1660D218002CF9D1039A73
:103720005E469346D84404229346D944B145D1D14C
:10373000AEE7C046F0B5DE4657464E464546E0B5D4
:1037400085B00193030010CB03919A460B00013B17
:103750009B469B08009202936ED001339B009946D2
:1037600000235546042698462F68201C391C21F05A
:1037700011FF002802D0F31E98463C1C6F68201CE5
:10378000391C21F007FF002802D0B31E98463C1CCC
:10379000AF68201C391C21F0FDFE002802D0731EEA
:1037A00098463C1CEF68201C391C21F0F3FE0028D1
:1037B00001D0B0463C1C043610354E45D4D1029B96
:1037C0001B019A4403235D465A461D40134222D0F2
:1037D00053461E68211C301C21F0F2FE002826D121
:1037E0006E1E012D17D053465D68201C291C21F048
:1037F000D1FE002803D0039B2C1C9B1B9846012E56
:1038000009D053469D68201C291C21F0C3FE0028C6
:1038100001D0D8462C1C4246009B1C60019B1A60BC
:1038200005B0F0BCBB46B246A946A046F0BD039B1E
:10383000341C5B1B9846D3E700239846C2E7C0467A
:10384000F0B5DE4657464E464546E0B585B0019395
:10385000030010CB03919A460B00013B9B469B084B
:10386000009202936ED001339B0099460023554687
:10387000042698462F68201C391C21F0A1FE002840
:1038800002D0F31E98463C1C6F68201C391C21F0A6
:1038900097FE002802D0B31E98463C1CAF68201C3F
:1038A000391C21F08DFE002802D0731E98463C1C66
:1038B000EF68201C391C21F083FE002801D0B0469F
:1038C0003C1C043610354E45D4D1029B1B019A4452
:1038D00003235D465A461D40134222D053461E68BC
:1038E000211C301C21F056FE002826D16E1E012D11
:1038F00017D053465D68201C291C21F061FE00286A
:1039000003D0039B2C1C9B1B9846012E09D05346C9
:103910009D68201C291C21F053FE002801D0D846A8
:103920002C1C4246009B1C60019B1A6005B0F0BC39
:10393000BB46B246A946A046F0BD039B341C5B1BA8
:103940009846D3E700239846C2E7C046F0B54F46F5
:10395000D64646468B08C0B588460700924699462B
:10396000002B67D004001E0000252168013E081CC2
:1039700021F0D9FD291C21F0BFFD6168051C081C40
:1039800021F0D1FD291C21F0B7FDA168051C081C00
:1039900021F0C9FD291C21F0AFFDE168051C081CC0
:1039A00021F0C1FD291C21F0A7FD1034051C002EBB
:1039B000DBD14B461B01FF180323444642461C4003
:1039C00013421FD03968661E081C21F0ACFD011C93
:1039D000281C21F091FD051C012C13D07968081CCE
:1039E00021F0A1FD011C281C21F086FD051C012EE3
:1039F00008D0B868011C21F096FD011C281C21F09C
:103A00007BFD051C404621F0E0FD011C281C002523
:103A100021F075FD291C041C21F0CAFD00280BD0E3
:103A2000201C21F041FE53461860E0BCBA46B14666
:103A3000A846F0BD0025BFE753461D60F5E7C04628
:103A4000F0B54F46D64646469308C0B580460F00AF
:103A500092469946002B31D00D0004001E00002331
:103A6000E05E21F0B7FDE021890521F05CFD2860D2
:103A70000223E05E21F0AEFDE021890521F053FD37
:103A800068600423E05E21F0A5FDE021890521F0B6
:103A90004AFDA8600623E05E21F09CFDE021890537
:103AA00021F041FD013EE86008341035002ED6D1EA
:103AB0004B461B01FF184B46DB009844032354463A
:103AC00052461C40134222D043460020185E21F08B
:103AD00081FDE021890521F026FD651E3860012C5D
:103AE00015D043460220185E21F074FDE0218905BF
:103AF00021F019FD7860012D09D043460420185E9D
:103B000021F068FDE021890521F00DFDB860E0BCE1
:103B1000BA46B146A846F0BDF0B5C646884600B5DF
:103B200000291DD014000025238862889B089F006F
:103B3000C7193E689208B446960086193168013369
:103B40003960614601329B0092003160C3188218CF
:103B50001E68116802351960043416604545E3D3C8
:103B600080BCB846F0BDC0460388F0B59A00574601
:103B70004546DE464E468C461400E0B505006444DA
:103B8000A44695B05A086F68119292001290139152
:103B900008000F94891810976244DB0800D117E1E0
:103BA00082461B01534489468046A24693460197AC
:103BB0000E9350464246406852680390484602922F
:103BC0004A46406812680A90484604924A46C068CD
:103BD00092680C9058460B925A46414640681268CB
:103BE0004346069058468E68CC68059251465A4620
:103BF000C0681B68926809680D90181C07925546AA
:103C00000991089321F078FC4346AF680399ED6869
:103C10001860029821F070FC4346391C5860301C33
:103C200021F06AFC4346291C9860201C21F064FCAA
:103C300043460999D860089821F05BFC03990890E5
:103C4000029821F056FC391C0290301C21F051FCE6
:103C5000291C0390201C21F04CFC05990990049824
:103C600021F04AFC4B460A9D06991860281C21F059
:103C700043FC4B460B9F07995860381C21F03CFCD5
:103C80004B460D9E0C9C9860311C201C21F034FC8E
:103C90004B460499D860059821F02BFC291C049010
:103CA000069821F026FC391C051C079821F021FC00
:103CB000211C0590301C21F01CFC019F06903C68E3
:103CC0000898211C21F02FFC7E68071C311C0298EB
:103CD00021F029FC011C381C21F00EFC5346211C4C
:103CE0001860029821F01FFC311C071C089821F075
:103CF0001AFC011C381C21F0FCFB5346311C586097
:103D0000049821F010FC211C071C281C21F00BFC3E
:103D1000011C381C21F0EDFB5B46311C1860281C8F
:103D200021F001FC211C051C049821F0FCFB011C66
:103D3000281C21F0E1FB5B46019F5860BC6803989A
:103D4000211C21F0F0FBFD68061C291C099821F0BC
:103D5000EAFB011C301C21F0CFFB5346211C98606C
:103D6000099821F0E0FB291C061C039821F0DBFBDD
:103D7000011C301C21F0BDFB5346291CD86005985E
:103D800021F0D1FB211C061C069821F0CCFB011C64
:103D9000301C21F0AEFB5B46291C9860069821F090
:103DA000C2FB211C051C059821F0BDFB011C281C31
:103DB00021F0A2FB5B46D86010239C461037019788
:103DC0000E9BE044E144E344E244984500D0F0E631
:103DD0006B4644229B181C88109A210013980223DA
:103DE00000F03AFC129B21005A680F98022300F061
:103DF00033FC15B0F0BCBB46B246A946A046F0BDA8
:103E0000F0B5DE4657464E4645468C460388E0B53B
:103E10005B089E00B4446746B4446546B4446246B9
:103E2000A5B00C682290029540682D685B08199037
:103E30000791201C291C0392219321F05DFB291C72
:103E40000190201C21F055FB079C029D64686D6861
:103E50008246291C201C21F04FFB291C8146201C76
:103E600021F047FB3B00039A1D6814687F68834676
:103E70000199281CB8460593576821F03DFB211C89
:103E800021F03AFB0799059B086008311D914846CF
:103E9000596821F031FB039A516821F02DFB0799F5
:103EA00048605146404621F027FB391C21F021FB98
:103EB000059B291C1A001860083258461B9221F0F5
:103EC00018FB211C21F018FB059A291C5060019851
:103ED00021F00FFB211C21F00CFB029B1900083183
:103EE00018601C914846414621F003FB391C21F023
:103EF00000FB029948604146504621F0FAFA391C0D
:103F000021F0FAFA039F59463A0038600832281C1B
:103F10001A9221F0F1FA211C21F0EBFA786019983D
:103F2000219B0100023B08311F91183008315C08C9
:103F300020911E90239400D112E23300BB460C3B2B
:103F40009B4408235B4204930433082206931033F6
:103F50009846D9460D940C900B910192019B079EB7
:103F6000F458029E201CF558291C21F0C5FA291C82
:103F7000071C201C21F0BDFA4146079A7658555877
:103F80000890311C281C21F0B7FA311C041C281C95
:103F900021F0AFFA4146059D039A695809908B4676
:103FA0004146515858468A46089921F0A5FA51468B
:103FB00021F09FFA019B039AEE58D558311C0E90C0
:103FC000099821F096FA291C21F096FA311C0F90DD
:103FD000381C21F08EFA291C21F08BFA59461090DA
:103FE000201C21F086FA514621F083FA594611909F
:103FF000089821F07EFA514621F07EFA0999129034
:10400000301C21F079FA291C21F073FA391C139025
:10401000301C21F071FA291C21F06EFA4146019BF7
:10402000079E059DF0506958201C21F065FA414615
:10403000039F4446795821F05FFA30512E00049DC9
:1040400074597D59201C291C21F056FA291C08900E
:10405000201C21F04EFA069A0399B5588E58071C79
:10406000311C281C140021F047FA311C0990281C2F
:1040700021F03FFA4946029E0A9035598C68281C67
:10408000211C21F036FA391C061C21F035FA149057
:10409000029A04990A9851588B46494649688A46BB
:1040A000594621F026FA514621F026FA5946159034
:1040B000089821F01EFA514621F01BFA291C16908F
:1040C000099821F016FA211C21F013FA391C1790D7
:1040D000301C21F00EFA59461890504621F009FA8A
:1040E0000A9921F006FA0999071C281C21F004FA04
:1040F000211C21F001FA069A059C049D029EA05005
:104100007159089821F0F8F94946496821F0F4F905
:104110001999019B6051CC584346CD580E9B211CE8
:10412000181C9A4621F0FFF90F9B061C291C181C2D
:104130009B4621F0F8F9011C301C21F0DDF9019BB0
:104140000599C850211C584621F0EDF9291C061C80
:10415000504621F0E8F9011C301C21F0CAF9434611
:104160000599C850159B291C181C9A4621F0DBF9AB
:10417000149B061C211C181C9B4621F0D4F9011C21
:10418000301C21F0B6F9069A029E291CB050584600
:1041900021F0C9F9211C051C504621F0C4F9011C6D
:1041A000281C21F0A9F9049D0B9970510C68109BF3
:1041B0004D6810310B91181C211C9A4621F0B3F95F
:1041C000119B061C291C181C9B4621F0ACF9011CF4
:1041D000301C21F091F9029E019B211CF0505846A1
:1041E00021F0A1F9291C061C504621F09CF9011C64
:1041F000301C21F07EF94146029E179B70508026AC
:104200003606B446190061440800211C9A4621F084
:104210008AF9169B061C291C181C9B4621F083F961
:10422000011C301C21F065F9069A039E291CB05030
:10423000504621F078F9211C051C584621F073F9ED
:10424000011C281C21F055F9049D0C9970510C6833
:10425000129B4D6818310C91181C211C9A4621F0B4
:1042600062F9139B061C291C181C9B4621F05BF964
:10427000011C301C21F040F9019B039E211CF050D1
:10428000584621F050F9291C061C504621F04BF9E4
:10429000011C301C21F02DF94146039E7050291C51
:1042A000381C21F040F9189B061C211C181C9A464A
:1042B00021F039F9011C301C21F01BF949468860B6
:1042C000291C504621F02FF9211C051C381C21F017
:1042D0002AF9011C281C21F00FF9494648600820E2
:1042E000019B40420833844601930823E1449C46E5
:1042F0000D99069A049D013912182D180D91E0446C
:1043000006920495002900D028E61D99239A8C4630
:10431000D3009C4461461D911F9920988C469C4473
:1043200061461F911B998C469C44614684461B91B3
:10433000110012019444624620921C9A94469C44B7
:1043400062468C461C924A001E9962448C46D200FA
:10435000944462461E921A9A94469C4463461A9369
:104360001D9E1C9F34683D68201C291C21F0C4F848
:10437000291C0190201C21F0BCF874687D688146DE
:10438000291C201C21F0B8F8291C8346201C21F090
:10439000B0F81B9C061C6368494698461A9B404629
:1043A0005F6821F0A9F8391C21F0A3F81A9B256851
:1043B0001C680490291C301C21F09BF8211C21F062
:1043C0009BF8291C8246019821F093F8211C21F0CA
:1043D00090F841460690584621F08BF8391C21F0A0
:1043E00088F841460890484621F083F8391C21F0AE
:1043F00083F8311C8046281C21F07EF8211C21F016
:1044000078F80199071C281C21F076F8211C21F06E
:1044100073F81D9E1B9C30606168584621F06CF853
:104420001A9B596821F068F81F997060049B0E6808
:104430004D68181C311C9B4621F075F8291C041C82
:10444000504621F070F8011C201C21F055F81B9CEF
:10445000311C2060504621F066F8291C041C584687
:1044600021F061F8011C201C21F043F81B9C2099CD
:104470006060069B0E684D68181C311C9A4621F03E
:1044800052F8089B041C291C181C994621F04BF873
:10449000011C201C21F030F81C9A311C1060484689
:1044A00021F041F8291C041C504621F03CF8011C65
:1044B000201C21F01EF81C9A50601E9A4046166877
:1044C0005568311C21F02FF8291C041C381C21F0E0
:1044D0002AF8011C201C21F00FF81A9B311C1860CF
:1044E000381C21F020F8291C041C404621F01BF840
:1044F000011C201C20F0FDFF1A9B842258606B4693
:104500009B181C88199A21000798042300F0A4F82E
:10451000229D21006B6805980193019A042300F005
:104520009BF86B6821000193019A0298042300F024
:1045300093F8042321006A68039800F08DF825B0F1
:10454000F0BCBB46B246A946A046F0BDF0B5D64683
:104550004F4646460C00804691469A46C0B50588AF
:10456000012A66D080235B009D425DD01AD980234A
:104570001B019D4258D04AD980235B019D4206D140
:104580004246012329002000526800F065F8534696
:10459000002B13D14B46012B19D0E0BCBA46B146D3
:1045A000A846F0BD402DEBD03AD9802DEFD12100A7
:1045B0004046FFF7D9FA5346002BEBD04346200084
:1045C0009A689989FFF7A8FA4B46012BE5D1280094
:1045D00020F0FBFF011CFE20800520F090FF071C4F
:1045E000002DDAD000262068391C20F09CFF8022A4
:1045F000120694466368206063441800391C20F05A
:1046000092FF013660600834B542ECD8C5E78023DC
:104610009B009D42B4D08023DB009D42C7D0B6E70B
:10462000102DC4D0202DB2D121004046FFF7E8FB69
:10463000ADE70431002D0BD00027802212069446EE
:104640000B68013763440B600831BD42F5D889E738
:104650005346002BA1D0B1E7F0B5DE4657464E4693
:104660004546E0B5B5B0319303000433059313001C
:10467000199104333393199B02901B913292DA08FB
:104680009446DB001A9353006344DB009C46029976
:1046900054016144A446039161448C4617939300EE
:1046A000D31A1B01634401911900D0001493130124
:1046B0008C46159303006344844630921A1A111DE8
:1046C00062441393131A099304330C930023A346F3
:1046D0001291111D16900B92049100930A935A4661
:1046E000029B009F9E58DD59311C281C20F004FFBE
:1046F000041C281C5D46311C20F0FBFE149A0D9012
:10470000D6595759301C391C20F0F6FE391C051CAF
:10471000301C20F0EEFE5946139A009E57589659C9
:10472000391C0E90301C20F0E7FE391C8046301CEE
:1047300020F0DFFE039A019B176819680F90381C60
:10474000894620F0D9FE4946061C381C20F0D1FECF
:1047500041461090201C20F0CCFE4146071C201C36
:1047600020F0CAFE311C041C281C20F0C2FE311CA3
:104770001190281C20F0C0FE051C011C201C20F0FC
:10478000BBFE009E02998851291C201C20F0B1FE1E
:104790005D465B46029C6051059DAC59ED58201C5E
:1047A000291C20F0A9FE291C8046201C20F0A1FE17
:1047B0005946129B06909C595D58201C291C20F0DC
:1047C0009BFE291C8246201C20F093FE5B46049928
:1047D000041C8D59CE58281C311C20F08DFE311C34
:1047E0008146281C20F085FE039A019955684E6881
:1047F0000790311C281C20F07FFE311C0890281CDB
:1048000020F077FE4946051C404620F072FE4946DE
:10481000061C404620F070FE08998146504620F064
:1048200068FE08998046504620F066FE8246011CCC
:10483000484620F061FE009B0599C8505146484605
:1048400020F057FE5B460599C8504146381C20F0C1
:1048500053FE0B9A009B4146D050381C20F049FE75
:104860005B460B9FF850119B301C191C994620F099
:1048700040FE049F009B311CF850484620F03CFE4F
:104880005E46109BB8519A46191C0E9B181C984600
:1048900020F02FFE7F4920F046FE514681464046DB
:1048A00020F02AFE7B4920F03EFE291C061C201C1D
:1048B00020F01FFE774920F036FE291C071C201C23
:1048C00020F01AFE734920F02EFE0D9C82464946C8
:1048D000201C20F00EFE49468046201C20F00CFED5
:1048E0000F9D8146311C281C20F003FE311C041C46
:1048F000281C20F001FE391C061C069820F0F9FD4A
:10490000391C051C069820F0F7FD5146071C079836
:1049100020F0EFFD51460690079820F0EDFD011CB8
:104920008246484620F0E8FD009B0999C850514650
:10493000484620F0DEFD069B019999460860191C47
:10494000404620F0D9FD5B46099A4946D050404682
:1049500020F0CFFD039A311C1060381C20F0C9FDF7
:10496000009B0C99C850391C301C20F0C5FD019FDC
:10497000211C7860281C20F0BCFD5E460C998851F3
:10498000291C201C20F0B8FD19990A9C8C461A9904
:1049900064448C46009B039A634400931B9B5060C5
:1049A000674462440A9403920197E344A34200D906
:1049B00095E63098072800D8DCE2169B1599083355
:1049C0002E930B00179A08332D9313009446083347
:1049D0002C93099B63448C461A1D11920201069385
:1049E0009B1A181D63442A90181D9B1A2890181DA5
:1049F000634427902593181D9B1A9C441090181D02
:104A000063469A1A191D0893131D269301232B93AD
:104A10000023299007912F93319B2F999C46614445
:104A20008C46329CC80023580E0127000B93A359D3
:104A30002F911C934B006344DD0062591B011D92B2
:104A40004A019046A2580C928A006244D200A458AF
:104A5000411A1E94FC58C9001F947C58339F0D9432
:104A6000BC59FB5820947C59BA5821944446385874
:104A70003C5923937B5822920E900F9424932B9BA6
:104A8000DA0000922C9A0A9303922D9A04922E9A9D
:104A9000019201E0F304353F029B069A009FDD5925
:104AA000D659281C311C20F027FD311C041C281C61
:104AB00020F01FFD029B069A019E09909D5997596F
:104AC000281C391C20F018FD391C061C281C20F05D
:104AD00010FD049A029B06999D588F581290391C1C
:104AE000281C20F009FD391C8046281C20F001FDFF
:104AF000069A0399029B13905D585358281C191C61
:104B0000994620F0F9FC4946071C281C20F0F1FCCE
:104B100041461490201C20F0ECFC4146051C201C52
:104B200020F0EAFC391C041C301C20F0E2FC391C8B
:104B30001590301C20F0E0FC061C011C201C20F00D
:104B4000DBFC029B009F311CD851201C20F0D1FCC3
:104B5000059B119ADE59D759041C391C301C20F0D2
:104B6000CBFC391C8046301C20F0C3FC059B119AFD
:104B7000019E16909F599659381C311C20F0BCFCA0
:104B8000B146061C4946381C20F0B3FC2A9A009F07
:104B90002899D759049A17908A58381C111C9246A4
:104BA00020F0AAFC51468146381C20F0A2FC019A54
:104BB000279F0399BF581890BA46109F50467958BE
:104BC0008B4620F099FC5946071C504620F091FC7A
:104BD00049468346404620F08CFC49468246404682
:104BE00020F08AFC391C8046301C20F082FC391CE5
:104BF0008146301C20F080FC4946071C281C20F010
:104C00007BFC4946061C281C20F073FC391C051C43
:104C1000404620F071FC009B0599C850391C404665
:104C200020F067FC159B8046191C5046994620F0E1
:104C300060FC5146071C484620F05EFC211C814662
:104C40000C9820F070FC414682460F9820F06BFCD7
:104C5000011C504620F050FC259A009B4146D05044
:104C60000C9820F060FC211C80460F9820F05BFC23
:104C7000011C404620F03DFC109C009B311CE05084
:104C80001C9B181C984620F04EFC209B041C391CD1
:104C9000181C9A4620F047FC011C201C20F02CFC1C
:104CA0000299049C0851391C404620F03CFC311C00
:104CB000041C504620F037FC011C201C20F019FC7D
:104CC000299E009B291CF0501F9B181C984620F021
:104CD0002AFC239B4946041C181C9A4620F023FCFE
:104CE000011C201C20F008FC049F089E4946F0513E
:104CF000404620F018FC291C041C504620F013FCF0
:104D0000011C201C20F0F5FB079D149BE851129D0F
:104D1000191C281C984620F0ECFB9A4920F003FC53
:104D20004146061C281C20F0E7FB964920F0FBFBBF
:104D3000179B051C5946181C984620F0DAFB914930
:104D400020F0F1FB5946071C404620F0D5FB8D4969
:104D500020F0E9FB099B041C311C181C9A4620F02A
:104D6000C8FB311C8046504620F0C6FB139B824690
:104D7000291C181C994620F0BCFB291C09904846A8
:104D800020F0BAFB169B061C391C181C994620F013
:104D9000B0FB391C051C484620F0AEFB189B071CD5
:104DA000211C181C9B4620F0A4FB211C8146584660
:104DB00020F0A2FB8346011C504620F09DFB594683
:104DC000041C504620F095FB49468246404620F0A0
:104DD00093FB49468346404620F08BFB311C8146BD
:104DE000381C20F086FB391C8046301C20F084FBE8
:104DF0000999071C281C20F07CFB291C061C09981B
:104E000020F07AFB211C051C0B9820F08CFB4146FE
:104E100009900E9820F087FB011C099820F06CFB8C
:104E2000019A0299885041460B9820F07CFB211C86
:104E300080460E9820F077FB011C404620F059FB7D
:104E4000019A059C5146A0500D9820F06CFB249BC4
:104E5000041C391C181C984620F065FB011C201C02
:104E600020F04AFB089A039C391C10510D9820F041
:104E70005AFB5146041C404620F055FB011C201CE7
:104E800020F037FB079A1E9B039C59461051181CB3
:104E90009A4620F048FB229B041C311C181C9846A3
:104EA00020F041FB011C201C20F026FB089A019FEA
:104EB000311CD051504620F036FB5946041C404668
:104EC00020F031FB011C201C20F013FB079A4946FF
:104ED000D0511D9B3E00181C9A4620F024FB219BBC
:104EE000041C291C181C984620F01DFB011C201CCA
:104EF00020F002FB039C02990851291C504620F027
:104F000012FB4946041C404620F00DFB011C201CEE
:104F100020F0EFFA269A009BD051199A0A989446ED
:104F20001A9A6044944663440093039B049F63442D
:104F300003931B9B664467440A900196049783423F
:104F400000D9A9E52E9A2B9B08322E922D9A013377
:104F500008322D922C9A2B9308322C92309A9A4236
:104F600000D059E5319B1992DB009BB231931300BD
:104F7000FFF785FB35B0F0BCBB46B246A946A0465C
:104F8000F0BDC046F304353FF0B5DE464E4645461B
:104F90005746E0B50C000388096887B0013B4769B4
:104FA000081C1500039320F0A7FA6168061C081C72
:104FB00020F0A2FA8046011C301C20F09DFAFC2152
:104FC000890520F0B0FA41462860301C20F091FAA3
:104FD000FC21890520F0A7FA039B0837DB009946DE
:104FE000A144083426002C000834B8464F46A14698
:104FF00068603B6841469A46336842469B4649682A
:10500000126873685046059159460292019320F048
:1050100070FA7D68041C0199281C049520F06CFA34
:105020005946051C504620F067FA211C824602981A
:1050300020F079FA011C504620F05EFA059B82466A
:10504000291C181C9B4620F06EFA011C504620F0CB
:1050500053FAFC21890520F066FA4B460499186042
:10506000019820F046FA211C8246584620F05BFA4F
:10507000011C504620F040FA291C041C029820F024
:1050800052FA011C201C20F034FAFC21890520F082
:105090004AFA08224B4694465860039B0836013B67
:1050A000083F0393E144E044002BA2DC07B0F0BCCE
:1050B000BB46B246A946A046F0BDC046F0B5DE46A6
:1050C00057464E464546E0B506884769731E9846E2
:1050D0000B6887B099464B680C004846191C1500B0
:1050E0009A4620F009FAFC21890520F01CFA514665
:1050F0002860484620F0FDF9FC21890520F013FACC
:105100004346DB009B4608239946434608376860C0
:10511000A344A144002B63DD2C00B8464F46F600A3
:10512000AB19083405935B465D681B684146994698
:105130003B6842469A46496812687B68504604912B
:1051400049460292019320F0D4F90199061C281CCB
:10515000039520F0D1F95146051C484620F0CCF9C2
:10516000311C8146029820F0DEF9011C484620F0EF
:10517000C0F9049B8146291C181C9A4620F0D3F9DB
:10518000011C484620F0B5F9FC21890520F0CBF937
:1051900003992060019820F0ACF9311C81465046FB
:1051A00020F0C1F9011C484620F0A6F9291C061C74
:1051B000029820F0B8F9011C301C20F09AF9FC216B
:1051C000890520F0B0F908235B429C461033E34484
:1051D0009C46059B606008340837E044A342A2D196
:1051E00007B0F0BCBB46B246A946A046F0BDC046DB
:1051F000F8B504000D0016001F1E08D0FFF75EFF73
:1052000001233A0031002000FFF7A0F9F8BD012387
:105210000022FFF79BF9320029002000FFF7B4FEBF
:10522000F4E7C046102803D8024B8000C0587047EE
:105230000148FCE748690310A4680310F8B515009D
:105240001C000022002306000F001EF08BFF002828
:1052500003D000232B602360F8BD2200300039000A
:1052600030F04AFD0022124B1EF039FF1FF0D4F837
:105270001FF00EF8002918DC13D080231B0698427B
:1052800007D023681F3302DA002300202360286040
:10529000E2E70029F5D180202368C00501332360AF
:1052A000F0E780231B069842E7D92CF0B1F8C046FE
:1052B0000000E041F0B5C6460400802000B582B091
:1052C000009201930A9B00069846089B0D00D84067
:1052D0001EF07EFF009A019B06000F0020002900AF
:1052E0001EF0FDFE02000B00300039001EF0F7FE3C
:1052F0002A4A2B4B04000D001EF052FF061E17D148
:10530000002220002900274B1EF04AFF00282ED043
:1053100000220023200029001EF024FF002809D0CD
:10532000099B1E6043461E6002B080BCB846F0BDBB
:105330001A4C1B4D42462000290030F0DDFC0022B3
:10534000194B1EF0CCFE1FF067F81EF0A1FF0029DC
:105350000DDC1ED080231B06984210D043461B68EC
:105360001A001F3205DB099A1060002BDCDA2CF0E2
:105370004FF8002342461360099A1360D4E70029CE
:10538000ECD14346424680201B68C00501331360C0
:10539000E6E780231B069842DCD9E8E70000C0FF5F
:1053A000FFFFDF410000F03F0000E041F8B5CE46CE
:1053B000012381464746180098464B46984080B5E1
:1053C000013816000F001EF003FF4B46F21A20238F
:1053D0005B4204000D00D31826D4414699400126B3
:1053E000300090401EF048FF0B0002002900200012
:1053F0001EF075FE20235B4204000D00FB1818D43C
:10540000310099400120B8401EF036FF02000B0029
:10541000200029001EF045FE1FF04EF81EF0F0FEA1
:10542000C0BCB946B046F8BD202341469B1AD940BE
:10543000D5E720233100DB1BD940E3E70B6810B52B
:1054400002CB002A0EDB8A420CDA9200D1580029E6
:1054500008DB8368002B02D08801181810BD036D8B
:105460009847FBE70020F9E74B6810B502CB002A0C
:105470000EDB91420CDD9200D158002908DB8368D5
:10548000002B02D08801181810BD036D9847FBE768
:105490000020F9E70B6810B502CB002A0EDB8A4228
:1054A0000CDA9200D158002908DB8368002B02D067
:1054B0008801181810BD036D9847FBE70020F9E735
:1054C000F0B5CE46474680B51C00CB68050098462F
:1054D000D36883B09946002C2BD0404620F0DAF8F0
:1054E000060048460F0020F0D5F802000B003000FF
:1054F00039001EF0F4FD0600E0680F0020F0CAF845
:1055000002000B00300039001EF0B9FD0A9B0600B6
:10551000D8684C0020F0BEF8640802000B00300090
:1055200021001EF0BEFD1C4A1C4B1EF029FE002867
:1055300021D0494640461FF0F6FF0021041C20F010
:1055400037F8002822D0201C20F0A4F80A9B040081
:10555000D8680D0020F09EF80B0002002900200002
:105560001EF09FFD0B9B18605960002003B0C0BC6B
:10557000B946B046F0BD0A4B0093A2236C695B00AC
:105580002800084A0849A0470120EFE7074B00938D
:1055900052236C69FF33F3E77B14AE47E17A943F03
:1055A000E46903108C690310CC690310086A0310C6
:1055B000F0B5C64600B514781D0082B0032C38D073
:1055C000092C1ED0072C0FD1354E364CD3681769E5
:1055D000984601291DD0032933D002294ED0089BBB
:1055E0002C6000201E6008E02F4B304A0093C2233D
:1055F00044692F495B00A047012002B080BCB84637
:10560000F0BD8024D3687F2698461769644201293B
:10561000E1D1191C00201FF072FF20F0B1F81FF03B
:10562000FBFFC719A74207DB089B2F601E60002005
:10563000E3E7FF260024C9E72700089B2F601E60D0
:10564000F5E7191C00201FF05AFF20F099F81FF011
:10565000E3FFC019A04200DA200041462860154847
:105660001FF04DFF20F08CF81FF0D6FFC719B7428E
:1056700000DD3700089B00201F60BEE7191C0E48A4
:105680001FF03DFF20F07CF81FF0C6FFC019A042BC
:1056900000DA20002860FE2041468005E0E7C04691
:1056A000FF7F00000080FFFF246A03108C69031055
:1056B000CC6903100000C040000080BFF0B5574621
:1056C0004E464546DE469A463023E0B5CF5C0400A0
:1056D0000D0016008FB0012F14D02F3B0393BE4B4B
:1056E00002970193BD4BBE4A00934569E023BD4933
:1056F000A847012738000FB0F0BCBB46B246A94608
:10570000A046F0BDD35C012B0BD00293B24B0397A4
:105710000193B54BB24A00934569E223B149A847CA
:10572000E8E7536B002B00D1E7E01A689046002AA7
:1057300000D1CCE01168012922DDFD202A78073A4A
:10574000024208D0A94B200000936569F223A44AC5
:10575000A749A847CEE73278092A00D0BFE0209AAF
:105760008A4200D1D1E0A34B03920193A24B029154
:1057700000932000F5236569994A9A49A847B9E73B
:10578000189BE868DF68209B002B30DD1FF082FF4C
:1057900006900791381C1FF07DFF0DAB9B465A46C3
:1057A0000CABA946A346002744461D00B046160090
:1057B0000490059160681FF06DFF069A079B1EF02C
:1057C0008EFC049A059B1EF06CFC33002A00FFF748
:1057D00035FD1E9A0C99BB00D1501F9A0D990137C7
:1057E000D150209BBB42E5DC5C464D4646462B78BB
:1057F000032B05D0092B5FD0072B5DD0002779E75D
:10580000EB689846F36899465346002B2DD04046E6
:105810001FF040FF060048460F001FF03BFF02004C
:105820000B00300039001EF05AFC53460600D868C1
:105830000F001FF02FFF02000B00300039001EF098
:105840001EFC189B0700D8684E001FF023FF760847
:1058500002000B00380031001EF023FC674A684B41
:105860001EF08EFC002800D1A0E0494640461FF003
:105870005AFE0021061C1FF09BFE002800D1A0E06C
:10588000301C1FF007FF189B0600D8680F001FF0A0
:1058900001FF02000B00300039001EF002FC1A9AD2
:1058A0000DABFFF7CBFC0D9B1B9A5B4213602B7873
:1058B000092B01D0032B9FD1199B200019781D9B28
:1058C000189A00931C9BFFF773FE070012E74D4BDD
:1058D000434A00934569EE234549A8470AE709234F
:1058E0000393494B02920193484B20000093656952
:1058F000F4233B4A3B49A847FCE6454B384A009312
:105900004569ED233A49A847F4E6B2689B68944696
:105910009B0063445B68209A9A420CD003933D4BF2
:1059200002920193334B200000936569F6232C4AC1
:105930002C49A847DEE64346E868043304931FF089
:10594000A9FE189B08900991D8681FF0A3FE0023B8
:1059500098460DAB9B460CAB0027994606900791E5
:105960000A940B964446D846AB46089D099E049B74
:105970000134D8591FF08EFE2A0033001EF0AFFB11
:10598000069A079B1EF08DFB43464A46FFF756FCDE
:105990001E9B0C9ADA511F9B0D9ADA51209B0437FB
:1059A000A342E4DC5D460A9C0B9E20E71A4B2000D4
:1059B0000093A22365690A4A0D495B00A8470127A5
:1059C00098E6164B2000009352236569044A084963
:1059D000FF33A84701278DE6486A0310646A031065
:1059E0008C6903102C6A0310806A0310CC6A0310C0
:1059F000CC690310246B0310346B03107B14AE4787
:105A0000E17A943FB06A0310086B0310146B031023
:105A10009C6A0310586B0310E4690310086A0310B2
:105A200010B53421836B984710BDC046F0B5DE46F3
:105A300057464E4645460A6889469446E0B5E04BCF
:105A4000EBB01B68040007939B0063445968436DE7
:105A500098474A461268DB4B94461B68050007933B
:105A60009B00634459682000636D98474B461B6850
:105A700083461A680027032A09D1D34A20001268F6
:105A8000079292009B185968636D984707004A4631
:105A90005268CE4B94461B68200007939B006344DA
:105AA0005968636D98472B7A027A0600934213D0A7
:105AB0000293C74B03920193C64B20000093656984
:105AC000C54BC64AC649A84701206BB0F0BCBB46CF
:105AD000B246A946A046F0BD5A46107A984205D073
