:020000041000EA
:1000000000B5324B212058609868022188439860DF
:10001000D860186158612E4B002199600221596106
:100020000121F02299502B49196001219960352056
:1000300000F044F80222904214D00621196600F024
:1000400034F8196E01211966002018661A6600F04E
:100050002CF8196E196E196E052000F02FF8012189
:100060000842F9D1002199601B49196000215960AB
:100070001A491B48016001219960EB211966A021F2
:10008000196600F012F800219960164914480160C1
:100090000121996001BC002800D000471248134993
:1000A000086003C880F30888084703B5996A0420EC
:1000B0000142FBD001200142F8D103BD02B5186610
:1000C0001866FFF7F2FF186E186E02BD00000240BE
:1000D000000000180000070000035F00212200005C
:1000E000F4000018222000A00001001008ED00E03C
:1000F00000000000000000000000000074B24E7A12
:1001000000200420F7010010C3010010C5010010F9
:10011000C1010010C1010010C1010010C101001097
:10012000C1010010C1010010C1010010C701001081
:10013000C1010010C1010010C9010010CB01001065
:10014000CD010010CD010010CD010010CD01001037
:10015000CD010010CD010010CD010010CD01001027
:10016000CD010010CD010010CD010010CD01001017
:10017000CD010010CD010010CD010010CD01001007
:10018000CD010010CD010010CD010010CD010010F7
:10019000CD010010CD010010CD010010CD010010E7
:1001A000CD010010CD010010CD010010CD010010D7
:1001B000CD010010CD010010CD010010CD010010C7
:1001C00000BE00BE00BE00BE00BE00BE00F04BF888
:1001D000103800BEF2EB88718CFF0710B8FF0710D3
:1001E0003402001090A31AE700202149086006C8D5
:1001F00081F3088810471F48006800282FD10DA4FC
:100200000ECC002902D000F012F8F9E71A491B4A77
:10021000002000E001C19142FCD1194988471949E9
:1002200088471949884700BEFDE701C901C29A42C3
:10023000FBD37047B8FF0710C0000020FC2500204A
:10024000F42408100000042000000420F424081006
:1002500000100420001004200000000070470B482C
:1002600023F0D2F80047EFF30580C0B270470000DA
:1002700008ED00E0000000D000260020B837032081
:10028000991D0210FD030010551D02105756000065
:1002900006005250ABB36053EC24071006005250D6
:1002A000861C0302FC240710060052505422A29D13
:1002B000CCC2061005005250DE65F468F424081024
:1002C000F8B5C04610B5064C2378002B07D1054B76
:1002D000002B02D0044800E000BF0123237010BDB2
:1002E000E827002000000000C0C20610044B10B533
:1002F000002B03D00349044800E000BF10BDC046F6
:1003000000000000EC270020C0C2061010B5012834
:1003100000D010BD034B9942FBD10CF0DDF8024B2D
:100320001860F6E7FFFF00000428002010B50CF06D
:10033000D3F804001F4A204920480BF06BFC0CF056
:100340002FFC002825D00CF007FC002825D00DF04C
:10035000F9F8002825D00CF0ABFB002825D0236845
:100360009B682000984723685B682000984780239B
:100370002268D35804212000984720000AF062FE2A
:100380000F4C20600F480BF045FC20681AF022FE4D
:1003900010BD0D480BF03EFCD5E70C480BF03AFCC5
:1003A000D5E70B480BF036FCD5E70A480BF032FCDA
:1003B000D5E7C046C0C20610CCC20610D8C206108F
:1003C0002C330020B4C3061014C3061044C3061017
:1003D00064C3061090C3061010B5FFF7A7FF0BF01B
:1003E0000DFC0100FF29FAD0034B18681BF09EFC9E
:1003F0000BF004FC0100F5E72C33002000B583B0BE
:1004000019201FF0A9FED0231B06802292045A62F5
:100410005A6126F033F8002027F0B2FF0028FAD006
:10042000D0231B06802292049A618022002301932C
:10043000013300930023D200034904482BF08AFBC8
:100440002BF0F0FBFEE7C046E0C30610D903001016
:1004500010B504480BF0DEFB034B044AAD21044801
:1004600021F07CFC7CC40610F8C306108CC4061076
:1004700034C4061010B502490120FFF747FF10BD34
:10048000FFFF0000FEE70000F0B5CE4600B592B0D9
:1004900003900F001500189C6608721C9A4200D049
:1004A000E4E08C4200D22700A74242D000239946C4
:1004B0004B46002B40D00E930EAB00221A73012343
:1004C0000F9310940E98002800D1CAE04B46002BE1
:1004D0003BD0202C17D0402C15D0802C13D080235B
:1004E0005B009C420FD00133FF339C420BD0802332
:1004F000DB009C4207D080231B019C4203D0802359
:100500005B019C422FD1202C43D080235B009C4276
:1005100051D0574F002F61D00E98002804D00EAB59
:100520001B7B002B00D09EE0380012B080BCB94687
:10053000F0BD039B9946BBE7A000012101F034FA0E
:100540000E900EAB01221A73B9E7BB0099461A0050
:10055000039925F0D1FD0E984844E21B920000213A
:1005600025F0C4FDB5E70E9E08AB009300230022E2
:100570000021200001F016F8041E08D02A003100E6
:1005800001F0ECF8200001F013FA0027C4E7394F1E
:10059000C2E708AB10221A8000220992364A9189DC
:1005A000998191680A915268099220221A82334AED
:1005B0000D920027AEE708AB80221A800022099234
:1005C0002F4A9189998191680A91526809928022F3
:1005D00052001A822B4A0D9200279BE7A0000121AE
:1005E00001F0E2F9020004AB0490012119730591B6
:1005F0000694002811D000230E9908A802F0DFFF0E
:1006000004990B682B6000226A60F300EB184968BC
:1006100019605A600121022015E0002802D0CBB2F7
:10062000002B01D1134F77E701F0C2F9FAE7049AE2
:10063000CB00EB188400A4581C60441CA400A258F2
:100640005A60023001318E42F1D80498002800D15E
:1006500062E704AB1B7B002B00D15DE701F0A8F93A
:100660005AE7044F58E701F0A3F95DE7064F5BE74F
:1006700008FCFFFF16FCFFFF84D00610F4CF061025
:1006800074D00610F4CB061011FCFFFFF0B5DE4667
:1006900057464E464546E0B585B080460D004C08AD
:1006A000631C0293D8008E00012101F07DF982467F
:1006B000002800D1AFE00121300001F075F981463A
:1006C000002801D0002312E0504601F071F9534B8D
:1006D000039398E0D9009A004846464676588650DB
:1006E000EA1A013A920041444968815001339C4220
:1006F000F0D8EB0707D5A400494BEB189B004A46FE
:1007000041465B5813510095029B524629004846CA
:10071000FFF7BAFE0390002834D10024029BA342C5
:1007200037D9200023F0B8F93E4A3F4B23F03FF978
:1007300006000F00680023F0AFF902000B00300044
:10074000390023F016F923F037FA061CE700574466
:100750003B689B4625F034FA011C584625F04BF9BE
:1007600083467F68301C25F03FFA011C381C25F0B9
:1007700042F9011CA6004644584625F021F9306094
:100780000134CBE7484601F013F9504601F010F967
:1007900039E0AC4231D2200023F07EF9214A224BCD
:1007A00023F005F906000F00680023F075F9020038
:1007B0000B003000390023F0DCF823F0FDF9071CB2
:1007C0002E1BF600564433689B4625F0F9F9011CB0
:1007D000584625F010F983467668381C25F004FA4F
:1007E000011C301C25F007F9011CA60046445846A0
:1007F00025F0E1F830600134CBE7484601F0D8F845
:10080000504601F0D5F8039805B0F0BCBB46B2469F
:10081000A946A046F0BD014B0393F4E716FCFFFF89
:10082000FFFFFF3F182D4454FB210940F0B5DE4681
:1008300057464E464546E0B585B0040001919946BD
:100840000932FF321700DD0045192B689A463B68D4
:100850009846191C504625F0CEF8061C6B687A683D
:100860009346111C0093181C25F0C5F8011C301C80
:1008700025F0A1F8061C02905946504625F0BBF819
:1008800082460099404625F0B6F8011C504625F0F6
:1008900097F880460390019BDB00FF18311C20680D
:1008A00025F089F828604146606825F084F8686082
:1008B000311C206825F084F820604146606825F0EE
:1008C0007FF860600835083401235B429C46E144B0
:1008D0004B46002BB9D105B0F0BCBB46B246A94689
:1008E000A046F0BDF0B5DE4657464E464546E0B55B
:1008F0009BB005000C910D920293842149008C4617
:10090000624493460793009201921FE04146089B80
:100910009946181C25F04FF852461060391C099E64
:10092000301C25F04DF8524650604146484625F0AF
:1009300047F82060391C301C25F03DF86060083510
:10094000079B013B0793002B00D1FAE0029BDB00E1
:100950009A46AA44524617685A461468211C381C05
:1009600025F049F88146524656685A4652689046E4
:10097000111C301C25F03FF8011C484625F01BF8DF
:1009800003900E904146381C25F035F8071C311CA9
:10099000201C25F030F8011C381C25F011F80A90B5
:1009A0000F90029B1E01AE1930688046019A1468B0
:1009B000211C25F020F804907768019A5168894637
:1009C000381C25F018F8011C049824F0F4FF04905A
:1009D00010904946404625F00EF88046391C201CF0
:1009E00025F009F8011C404624F0EAFF059011901B
:1009F000029B5C009C466444E4002C192768009B21
:100A000018688046011C0697381C24F0F4FF071C68
:100A100063689946009B5B680893191C484624F05C
:100A2000EAFF011C381C24F0C6FF071C129008992D
:100A3000069824F0E0FF06904946404624F0DBFF8C
:100A4000011C069824F0BCFF069013902B68984672
:100A50000499181C24F0AFFF089018906B68994611
:100A60000599181C24F0A7FF099019904146049895
:100A700024F0A6FF0B9028604946059824F0A0FFBB
:100A80006860391C039824F09BFF04901490069929
:100A90000A9B9846181C24F093FF81461590391C38
:100AA000039824F088FF071C16900699404624F00E
:100AB00082FF8046179004990B9824F07CFF3060E9
:100AC0004946686824F077FF70600C9AD3009B4415
:100AD0001301019884469C4460460190530094465B
:100AE0006344DB00009A94469C4462460092049959
:100AF000286824F065FF28604946686824F060FF94
:100B000068600D9A52680392002A00D0FEE64146C2
:100B1000089B9946181C24F053FF53461860391C53
:100B2000099E301C24F047FF534658604146484612
:100B300024F041FF2060391C301C24F041FF60602C
:100B4000FDE61BB0F0BCBB46B246A946A046F0BDD0
:100B5000F0B5DE4657464E464546E0B595B007002F
:100B60000791180005930B00434308A92133DB00CC
:100B7000D31830CB30C184235B009A469244D346CD
:100B8000049053460293059BDC003C192268914671
:100B90005A461668311C484624F02DFF051C626831
:100BA00090465A4652689246111C404624F023FF54
:100BB000011C281C24F0FFFE051C0C9051464846E1
:100BC00024F019FF81464146301C24F014FF011C1B
:100BD000484624F0F5FE00900D90059B1B019946B8
:100BE000B9444B461B689A46029B19688846504692
:100BF00024F001FF061C49464868029B596806918B
:100C0000039024F0F8FE011C301C24F0D4FE061CD6
:100C10000E900699504624F0EEFE82460399404617
:100C200024F0E9FE011C504624F0CAFE80460F90D5
:100C3000311C281C24F0C4FE8246109041460098C6
:100C400024F0BEFE03901190311C281C24F0B3FE4A
:100C5000051C0A904146009824F0ADFE80460B909A
:100C60000798C3009B440301029A94469C44634640
:100C70000293386824F088FF00900191504624F0D8
:100C800083FF00222D4B22F092FE02000B00009801
:100C9000019922F05CFE22F08FFF2060786824F03A
:100CA00073FF00900191039824F06EFF0022234B04
:100CB00022F07DFE02000B000098019922F047FE11
:100CC00022F07AFF6060099E311C281C24F093FEFC
:100CD000051C0A90311C404624F08DFE061C0B902A
:100CE0005146386824F06CFE38600399786824F027
:100CF00067FE78602168301C24F062FE4B46186065
:100D0000291C606824F057FE4B465860311C20684F
:100D100024F051FE2060291C606824F051FE6060C0
:100D20000837049B013B0493002B00D02BE715B040
:100D3000F0BCBB46B246A946A046F0BD0000E03F6D
:100D4000F0B5DE4657464E464546E0B5B3B0804660
:100D500013911800129314000934FF3404940B000B
:100D60004343DA00A446624416A960CA60C11B016D
:100D7000634414AA12CB12C2C3004344009303017C
:100D800043440393430084466344DB0043449B464F
:100D9000430143449A460023029353460193474636
:100DA000DEE118AC21003B0021CB21C11193009B57
:100DB00019688846139D02925543EB00049A9146A8
:100DC000994449460E68311C404624F014FE0590B3
:100DD000009B59688A46494649688946504624F02E
:100DE0000AFE011C059824F0E6FD0590A060494626
:100DF000404624F000FE80465146301C24F0FBFDA6
:100E0000011C404624F0DCFD0690E060039A166861
:100E1000B0462B010499894699444E463668311CE8
:100E2000404624F0E8FD0790039A51688A464946F7
:100E300049688946504624F0DEFD011C079824F0DD
:100E4000BAFD079020614946404624F0D4FD804613
:100E50005146301C24F0CFFD011C404624F0B0FD6B
:100E60000A9060615E463668B1466B005B19DB0034
:100E7000049882469A4451460E68311C484624F034
:100E8000BAFD0890594649688846514649688A46DD
:100E9000404624F0B0FD011C089824F08CFD0B9016
:100EA000A0615146484624F0A6FD81464146301CCB
:100EB00024F0A1FD011C484624F082FD061CE061DF
:100EC00001990B6898466D0104988246554428683C
:100ED0008146011C181C24F08EFD089001994B6876
:100EE0009A466D68291C181C24F085FD011C089881
:100EF00024F061FD08902062291C404624F07BFD0F
:100F0000051C5146484624F076FD011C281C24F09F
:100F100057FD051C6062089A9046111C059A92467E
:100F2000101C24F04DFD0590A063291C06988146F5
:100F300024F046FD0690E0634146504624F03BFD18
:100F400008902065291C484624F035FD099060650D
:100F50000B9B9946191C079B9846181C24F030FDE2
:100F6000051C2064311C0A9B9A46181C24F028FD9D
:100F7000079060644946404624F01DFD0B90A06434
:100F8000311C504624F017FD0C90E0643E680A9531
:100F9000291C059A9046101C24F012FD011C301CDF
:100FA00024F00EFD38607D68079B9946191C069851
:100FB00024F006FD011CAA46281C24F001FD7860DF
:100FC000169F391C404624F016FD011C0F96301C5C
:100FD00024F0F6FC051C149EB046311C0A9824F03F
:100FE0000AFD011C281C24F0EBFC0D90A062391CAA
:100FF000069824F000FD011C55461095504624F03B
:10100000DFFC051C311C484624F0F5FC011C281CA3
:1010100024F0D6FC051CE062179EB146311C0998ED
:1010200024F0E9FC061C15998A460C9824F0E3FC90
:10103000011C301C24F0C4FC0E9020634946089823
:1010400024F0D9FC80210906461851460B9824F05B
:10105000D2FC011C301C24F0AEFC061C60630E990F
:101060000D9824F0A8FC009B1860311C281C24F06B
:10107000A2FC009B58600E990D9824F0A1FC0199E8
:101080000860311C281C24F09BFC019948604146F3
:10109000059824F0B0FC011C0F9824F091FC051C6D
:1010A000391C0A9824F0A7FC011C281C24F088FC99
:1010B000051CA0654146069824F09DFC011C109873
:1010C00024F07EFC061C391C079824F094FC011CBB
:1010D000301C24F075FC061CE06549460C9824F091
:1010E0008AFC071C5146099824F085FC011C381C19
:1010F00024F061FC071C20665146089824F07BFC14
:10110000804649460B9824F076FC011C404624F0AA
:1011100052FC80466066391C281C24F051FC039C5C
:1011200020604146301C24F04BFC6060391C281CB8
:1011300024F041FC5D4628604146301C24F03BFC15
:101140006860119F009B08330093083403940823C0
:101150009C46E344019908310191029A531C029381
:10116000029A129B9A4200DA1BE633B0F0BCBB46EF
:10117000B246A946A046F0BDF0B5C64600B505008A
:10118000884622F08DFC22F023FD23F027F906008B
:101190000F0004241AE0032400E00224200022F0BF
:1011A0007FFC32003B0022F063FC00280ED02C00B4
:1011B0000CE02100280022F053F9050043461C6092
:1011C00008334246506001280CDD98462100280073
:1011D00022F046F90029ECD0022CDCD0042CDCD023
:1011E0000234DBE780BCB846F0BDF0B5DE465746BA
:1011F0004E464546E0B58FB00A9006910993842388
:101200005B009C4694446346049313680593189BC3
:10121000D80000F0C5FB029000230B9367E00B9B06
:101220000893002307934EE0FB00029A91469944ED
:101230004B461B689A46E500049B9C4665442B6818
:101240009846191C504624F0D6FB01904B465B682B
:1012500099466B689B46191C484624F0CCFB011C40
:10126000019824F0A8FB051C0C905946504624F028
:10127000C2FB82464946404624F0BDFB011C504655
:1012800024F09EFB80460D90291C306824F098FBCA
:1012900030604146706824F093FB70600137189B02
:1012A0009F4208DA069B039A5343E418059BA34226
:1012B000BADCE41AB8E7089B099A94466344089399
:1012C000079B01330793079B189A93420CDA089BFC
:1012D0000393DE000A9B9C4666443300029A03CACD
:1012E00003C300240127DAE70B9B01330B930B9810
:1012F000099FB84210DA0021029B9C460A9B98463F
:10130000189CA1428BDAC2004244CB00634460CAFD
:1013100060C3C0190131F4E7029800F049FB0FB037
:10132000F0BCBB46B246A946A046F0BDF0B5DE46CD
:1013300057464E464546E0B585B003900C00150073
:101340001F000E9B1A689146082293469B445B68D7
:101350009A464B4652465343DB0080469844012A46
:1013600023D0039E0F9B01935B4600933B004A46AC
:101370006A4321003000FFF7D9FF2B007B43DB00DD
:10138000E4185346DB00F618B045EBD14B46042B6E
:101390002FD018DC022B1FD0032B31D153460F9ACC
:1013A00029000398FFF7D4FB1CE00300414622000C
:1013B00041CA41C31A002B007B43DB00E418130031
:1013C0009142F4D1E2E7052B1AD153460F9A290036
:1013D0000398FFF7B5FC05E053460F9A29000398E0
:1013E000FFF724FA05B0F0BCBB46B246A946A046BA
:1013F000F0BD53460F9A29000398FFF773FAF1E7FF
:101400004B46009353460F9A29000398FFF7EDFED1
:10141000E8E70000F0B5D6464F464646C0B58046E0
:101420000C0001002131C9008A46002B11D0002A8E
:1014300014D01968514514D35146196091464B4652
:10144000002B40D042461A605C60002C6CD0002714
:1014500032E0080000F0A4FA8146F0E719609146F6
:1014600031E052461A60002399462CE0380022F001
:1014700017FB2F4A2F4B22F09AFA04000D0040462A
:1014800022F00EFB02000B002000290022F071FA6E
:1014900004000D0022F0B2FB4E460936FF36FB0079
:1014A000F61822F089FB30602000290022F0BCFBF6
:1014B00022F082FB706001374745D7DB494608318F
:1014C0004046FFF759FE089B002B01D052461A6098
:1014D0004846E0BCBA46B146A846F0BD200022F01E
:1014E000DFFA134A144B22F062FA06000F0040465E
:1014F00022F0D6FA02000B003000390022F039FA4F
:1015000006000F0022F07AFB4D460935FF35E30057
:10151000ED1822F051FB28603000390022F084FBE6
:1015200022F04AFB686001344445D7DBC6E7C04679
:10153000182D4454FB211940FB2119C0F0B5C646B3
:1015400000B582B004000F0015001E0091420CD0BF
:101550000300083301900093330001222800FFF7B5
:10156000E5FE02B080BCB846F0BD0368D80000F0CC
:1015700017FA8046230008330194009333000122B8
:101580003900FFF7D3FE2268D2004146280024F03C
:10159000B3FD404600F00CFAE3E710B50123FFF776
:1015A000CDFF10BDF0B5DE4657464E464546E0B588
:1015B00085B00D0016001F000023039301331A00AD
:1015C00002409046034234D144100023009303AB01
:1015D00000222000FFF71EFF63001B19DA0FD2184C
:1015E0005210D200039B9C4662440C239A469244BC
:1015F000002F24D03B68534526D353463B60B14669
:101600004B46002B22D04A460C321A60039BD3185B
:1016100049464B60E1005B1849468B60002300930C
:1016200003AB29002000FFF7F5FE002D00D185E077
:1016300041E045480AF0EEFA0023994645E050465D
:1016400000F0AEF98146DBE753463B600023994644
:101650003BE043465D1C280022F022FA06000F0002
:10166000200022F01DFA02000B003000390022F0A9
:1016700080F90022354B22F073F9354A354B22F0C0
:1016800096F906000F0022F0B9FA4346DB009846AF
:101690004B469B6843449B4622F08EFA5B4618609B
:1016A0003000390022F0C0FA4B469E68464422F0D2
:1016B00083FA7060A846E30F1B195B104345C8DC32
:1016C0000E9B002B01D052461A60484605B0F0BC74
:1016D000BB46B246A946A046F0BD6B1C9846180012
:1016E00022F0DEF906000F00200022F0D9F90200F6
:1016F0000B003000390022F03CF90022134B22F09D
:101700002FF9134A144B22F052F906000F0022F071
:1017100075FAED004B469B689B46AB4422F04CFAB1
:101720005B4618603000390022F07EFA4B469B6819
:101730009C46654422F040FA68604546E30F1B1959
:101740005B10AB42C9DCBBE7C4C406100000E03F3D
:10175000182D4454FB210940FB2109C0F0B5DE4699
:1017600057464E464546E0B593B081460C00009280
:1017700003685B68002B23D14B4618680368059308
:101780004A4652682100FFF708FF4A4653681D6821
:1017900006955E680796311C281C24F011F9009FFD
:1017A0003860059BDC00BC466444311C281C24F0D6
:1017B00002F9206000237B60636001231C008FE03E
:1017C0004F480AF027FAD7E74B465B68E2000192E0
:1017D0009A180EA8824660CA60C00D1BED005B1906
:1017E0001F6810975E68802109068C466644119632
:1017F0000E998846381C24F0E3F802900C9050466D
:1018000040688246011C301C24F0DAF803900D90E9
:10181000391C404624F0CFF880460A90311C5046CF
:1018200024F0C9F8071C0B90364EA619F6004B465B
:101830009B689C46664433689A46191C404624F0CF
:10184000DAF804907668B346311C381C24F0D3F8DB
:10185000011C049824F0AFF8061C08905946404635
:1018600024F0C9F880465146381C24F0C4F8011C05
:10187000404624F0A5F8071C0990311C029B9B46AA
:10188000181C24F09DF8019B009A944663449846E6
:10189000FC21890524F0AFF843461860391C039BEE
:1018A0009A46181C24F08CF8FC21890524F0A3F832
:1018B00043465860311C584624F07DF8009A9446FF
:1018C0006544FC21890524F096F828605146381CAF
:1018D00024F071F8FC21890524F08DF8686001344A
:1018E0000599CB0F8C4663445B10A34200DB6BE78A
:1018F00013B0F0BCBB46B246A946A046F0BDC046F8
:10190000E0C40610FFFFFF1F0020704710B51FF056
:1019100071FD002010BD000010B51FF007FE00296A
:1019200007DB0CD0FA229200002321F003FE0021F5
:1019300010BD054B054A3F21054820F00FFAFA215A
:10194000890021F0B5FDF2E708C5061024C5061090
:101950005CC5061010B51FF0E9FD002900DB10BDC5
:10196000024B034A3F21034820F0F8F908C506104E
:1019700024C506105CC5061010B5010001480AF028
:1019800049F910BDA4C5061010B524F0FDF80200F9
:101990000B0002480AF03EF910BDC046A8C506106B
:1019A00010B524F02DFB10BD10B524F047FB10BD81
:1019B00010B524F083FB10BDF0B5DE4657464E4609
:1019C0004546E0B589B00B00079144680294496828
:1019D0000391526806925B8842889246028805927B
:1019E0000022049299466EE02168286824F003F8EA
:1019F000011C301C23F0E4FF061C4B469F00E41939
:101A00002168686823F0F7FF011C301C23F0D8FF21
:101A1000061CE4192168A86823F0EDFF011C301CA6
:101A200023F0CEFF061CE41910239C46AC44634609
:101A30000093E868216823F0DEFF011C301C23F0CE
:101A4000BFFF061CE419012252429446E044009D67
:101A50004346002BC8D1032753461F400CE001CD5D
:101A6000216823F0C8FF011C301C23F0A9FF061CCD
:101A70004B469B00E418013F002FF0D1019B40C36F
:101A8000012252429446E3444A465946541AA4005D
:101A9000039A94466444002906D0019353469B0858
:101AA0009846029D0026D3E7049B4B44049353467B
:101AB0009B00029A94469C4463460293059B013B1B
:101AC0000593002B09D0049B9B00069A944663441F
:101AD0000193079B5C68CB46E0E7002009B0F0BCAF
:101AE000BB46B246A946A046F0BDF8B5CE4647462D
:101AF00080B50E1C44685568038847885F43B94623
:101B0000BF081BE0311C206823F075FF2860311CE2
:101B1000606823F070FF6860311CA06823F06BFFE1
:101B2000A86010239846A044E0682C001034311CB3
:101B300023F061FFE860013F25004446002FE1D11A
:101B400003374B461F4005E001CC311C23F053FF07
:101B500001C5013F002FF7D10020C0BCB946B046F7
:101B6000F8BDF0B5CE46474680B5030042684968E7
:101B70008C4600885E8805000023984620E01168A6
:101B8000196081005B1854681C605B1894681C60C5
:101B90005B18D4681C605B18013F1032002FEED137
:101BA0000321314004E080CA1F608700DB1901393E
:101BB0000029F8D101239946C844013D002D04D0E5
:101BC00043469B006344B708E8E70020C0BCB94621
:101BD000B046F0BDF0B5DE4657464E464546E0B548
:101BE00083B08A4600920193040020CC01235B421B
:101BF00053449B469F0800260023984602E0043683
:101C0000013F4C46002F2ED023689946191C281CF2
:101C100023F02AFF002802D0731C98464D466368C3
:101C20009946191C281C23F01FFF002802D0B31C62
:101C300098464D46A3689946191C281C23F014FFAA
:101C4000002802D0F31C98464D4610239946A14423
:101C5000E468211C281C23F007FF0028CFD0331D87
:101C60009846251CCBE703265B461E4000E0013E5C
:101C7000002E0BD080CC391C281C23F0F5FE002848
:101C8000F5D053469B1B98463D1CF0E7009B1D601A
:101C9000019B42461A6003B0F0BCBB46B246A9465F
:101CA000A046F0BDF0B5DE4657464E464546E0B587
:101CB00083B08A4600920193040020CC01235B424A
:101CC00053449B469F0800260023984602E00436B2
:101CD000013F4C46002F2ED023689946191C281C22
:101CE00023F0D8FE002802D0731C98464D46636846
:101CF0009946191C281C23F0CDFE002802D0B31CE5
:101D000098464D46A3689946191C281C23F0C2FE2C
:101D1000002802D0F31C98464D4610239946A14452
:101D2000E468211C281C23F0B5FE0028CFD0331D09
:101D30009846251CCBE703265B461E4000E0013E8B
:101D4000002E0BD080CC391C281C23F0A3FE0028C9
:101D5000F5D053469B1B98463D1CF0E7009B1D6049
:101D6000019B42461A6003B0F0BCBB46B246A9468E
:101D7000A046F0BDF8B5CE46474680B5040089467A
:101D800090468F08002523E02168081C23F033FECD
:101D9000291C23F015FE051C6168081C23F02BFE8E
:101DA000291C23F00DFE051CA168081C23F023FE4E
:101DB000291C23F005FE051C26001036E068011CD6
:101DC00023F019FE291C23F0FBFD051C013F340004
:101DD000002FD9D103374B461F4009E001CC011C2D
:101DE00023F009FE011C281C23F0EAFD051C013F1D
:101DF000002FF3D1484623F05EFE011C281C23F07F
:101E0000E4FD041C002123F03DFE002808D0201C26
:101E100023F0C4FE43461860C0BCB946B046F8BDC6
:101E2000002342461360F7E7F8B5CE46474680B533
:101E300005000C00904696082BE00023E85E23F096
:101E40003FFEE021890523F0D6FD20600223E85EF5
:101E500023F036FEE021890523F0CDFD60600423E8
:101E6000E85E23F02DFEE021890523F0C4FDA0608B
:101E700008239946A9440623E85E23F021FE2700A3
:101E80001037E021890523F0B6FDE060013E4D46A4
:101E90003C00002ED1D10322474617400BE0AE1C78
:101EA0000023E85E23F00CFEE021890523F0A3FD6A
:101EB00001C4013F3500002FF1D1C0BCB946B04686
:101EC000F8BDF0B5C64600B5884600251BE06B009E
:101ED0009C5AA4086B1C5B009B5A9B08A700C7195F
:101EE0003E68B4469E0086193168396061463160AB
:101EF0000134A4000419266801339B00C318196833
:101F000021601E600235A845E1D880BCB846F0BD0E
:101F1000F0B5DE4657464E464546E0B5A5B005004D
:101F20001290080013912B889A000C008C46624492
:101F3000110010926A6890465A0811929200851812
:101F40008A469244DB080093894657462EE123686F
:101F50009A462093636801932193A2680292229289
:101F6000E168039123914846006883461C904846E7
:101F7000406804901D904E46B66805961E964B46E6
:101F8000DE681F962B680C9318936A680D9219925D
:101F9000A96806911A91E8680E901B903B68079318
:101FA00014937A6808921592B96809911691F868A5
:101FB0000A9017905946504623F002FD206004997C
:101FC000019823F0FDFC60600599029823F0F8FC6D
:101FD000A06010239C46A44463460F93311C0398D1
:101FE00023F0EEFCE0605946504623F0E4FC0B90F1
:101FF0001C900499019823F0DEFC01901D90059936
:10200000029823F0D8FC02901E90311C039823F014
:10201000D2FC061C1F9007990C9B9B46181C23F0B2
:10202000CFFC286008990D9B9A46181C23F0C8FC29
:1020300068600999069823F0C3FCA86010229446B2
:10204000AC44624604920A990E9C201C23F0B8FC12
:10205000E8605946079823F0AEFC83461490514639
:10206000089823F0A8FC824615900699099823F059
:10207000A2FC03901690211C0A9823F09CFC05906A
:10208000179041460C684D68211C0B9823F0B3FC57
:102090000690291C019823F0AEFC0790211C0198A2
:1020A00023F0A9FC0190291C0B9823F0A4FC0890B4
:1020B0000799069823F084FC49460860089901981E
:1020C00023F079FC49464860291C584623F093FCCC
:1020D0000190211C504623F08EFC0690291C50468E
:1020E00023F089FC051C211C584623F084FC041CA9
:1020F0000699019823F05FFC3860211C281C23F00E
:102100005FFC786041468C68102141448A46414614
:10211000CD68211C029823F06EFC8046291C301CDF
:1021200023F069FC8346211C301C23F064FC061C50
:10213000291C029823F05FFC01905946404623F089
:102140003FFC4946886010234B449B460199301C54
:1021500023F031FC4946C860291C039823F04BFC4E
:10216000061C211C059A9146101C23F044FC804655
:10217000291C484623F03FFC051C211C039823F032
:102180003AFC041C4146301C23F015FCB8603E00AC
:102190001036211C281C23F013FCF860009B013B27
:1021A0000093D046D9463700049D0F9C009B002B1E
:1021B00000D0CCE66B4644229B181C88129D6B68AD
:1021C00000930223009A2100139800F033FC6A6800
:1021D00002232100109800F02DFC25B0F0BCBB4676
:1021E000B246A946A046F0BDF0B5DE4657464E467B
:1021F0004546E0B5AFB0050021900C0003885B08B0
:102200009A008C46944466469444614694446046E1
:10221000371F01970F1F02971C90071F0397BC469B
:10222000624404926A6893465A0820921D94246876
:102230000F000D68291C201C23F0C2FB8246291CBC
:10224000201C23F0B8FB80461D9C64681F977D68A6
:10225000291C201C23F0B4FB0590291C201C23F012
:10226000AAFB814675684146281C23F0A9FB1C9BEC
:102270005C68211C23F09FFB07902A901E9637680C
:10228000391C484623F097FB1C9B1E68311C23F029
:1022900097FB08902B90391C52460692504623F02B
:1022A0008AFB311C23F087FB82462690291C059867
:1022B00023F081FB211C23F07EFB09902790291C31
:1022C000404623F078FB011C201C23F079FB051C01
:1022D00022904946381C23F073FB311C23F06BFB22
:1022E000041C23900699381C23F06AFB011C301C47
:1022F00023F066FB1D9E30601E9F7868069005994E
:1023000023F05EFB1C9B5B6805930836191C23F0C9
:1023100057FB1D9A5060079939600820BC466044FD
:102320008046089979601F9F514639600821BC4654
:1023300061448A46099979601C98056008218446A1
:102340006144446008235B44139310235B4414935B
:1023500008331593209A931E5B08059344468846DC
:10236000D146DEE135684B461F68391C281C23F036
:1023700027FB0690391C281C23F01DFB824675683C
:102380004B465F68391C281C23F01AFB0790391C48
:10239000281C23F010FB051C63689B4653460893DA
:1023A0005146584623F00CFB43465B689A46191C7D
:1023B00023F001FB09902A902768391C0D95281CF1
:1023C00023F0F9FA42461568291C23F0F9FA0A901D
:1023D0002B90391C069823F0EEFA291C23F0EBFA17
:1023E0000B9026905946079823F0E5FA514623F0C2
:1023F000E2FA179027905946089823F0DCFA011C5E
:10240000504623F0DDFA0C9022900D99381C23F0F1
:10241000D7FA291C23F0CFFA189023900699381C7C
:1024200023F0CEFA011C281C23F0CAFA3060079969
:10243000606823F0C5FA08218C46B44461461691C1
:102440004546696823F0BCFA7060019D2E1F35680F
:10245000039B181F83460768391C281C23F0B0FA19
:102460000D90391C281C23F0A6FA0E90019D2D68B2
:10247000039B1F68391C281C23F0A2FA0F90391CFB
:10248000281C23F098FA8246029F3968081C049A97
:102490001568291C069023F08EFA0E991A9023F0E5
:1024A0008FFA10902C90043F396807915346199386
:1024B000504623F080FA049A131F9A461B6808932B
:1024C000191C23F07DFA11902D9007990D9823F097
:1024D00072FA089923F06FFA1B90289006990F98CA
:1024E00023F069FA291C23F066FA129029900E99BC
:1024F0001A9823F060FA0E9024900799089823F018
:102500005AFA199923F057FA199025900F990698BD
:1025100023F056FA011C281C23F052FA019D286072
:102520000D99386823F04CFA083D01955546296805
:1025300023F046FA306013980568060008360696C0
:102540004668291C099823F056FA0790311C0A980E
:1025500023F051FA0890291C0A9823F04CFA0A90AB
:10256000311C099823F047FA09900899079823F03D
:1025700027FA206008218C46A444614607910999F6
:102580000A9823F018FA6060311C119823F033FA8E
:10259000041C291C109823F02EFA0890311C109866
:1025A00023F029FA061C291C119823F024FA051C93
:1025B0000899201C23F0FFF9029A1060083A029251
:1025C000291C301C23F0FCF93860149F3D687C689E
:1025D00010371497291C0B9823F00DFA0890211C32
:1025E000179F381C23F007FA0990291C381C23F088
:1025F00002FA061C211C0B9823F0FDF9071C09990F
:10260000089823F0DDF949460860082149440891FB
:10261000391C301C23F0CFF94F46786080273F06E5
:10262000129EB44667443800291C23F0E4F9061CC6
:10263000211C1B9FB946381C23F0DDF9071C291CFF
:10264000484623F0D8F9051C211C129823F0D3F931
:10265000041C391C301C23F0AEF9039B1860083BA6
:102660000393291C201C23F0A6F95F463860159FB0
:102670003C687D6818371597211C0C9823F0BBF92E
:102680008346291C189F381C23F0B5F98146211C6C
:10269000381C23F0B0F9061C291C0C9823F0ABF968
:1026A000071C4946584623F08BF943461860082317
:1026B00043449946391C301C23F07DF94746786025
:1026C000291C199A9346101C23F095F9061C211C0D
:1026D0000E9B9846181C23F08EF9071C291C4046B7
:1026E00023F089F9051C211C584623F084F9041CA9
:1026F000391C301C23F05FF90499086008390E007A
:10270000211C281C23F05CF957463860059F013FC7
:102710000597C84608998946079C06981390049621
:10272000169E059B002B00D01CE6CA46C146A0465B
:10273000346853461D68291C201C23F041F9019080
:10274000291C201C23F037F90290746853465D68F9
:10275000291C201C23F034F90390291C201C23F091
:102760002AF9071C43465B689B460299181C23F014
:1027700027F94B465D68291C23F01DF904902A9027
:1027800042461468211C0797381C23F014F94A4666
:102790001768391C23F014F905902B90211C01981F
:1027A00023F009F9391C23F006F9069026905946C2
:1027B000039823F000F9291C23F0FDF808902790D6
:1027C0005946029823F0F7F8011C281C23F0F8F86A
:1027D000834622900799201C23F0F2F8391C23F03D
:1027E000EAF8029023900199201C23F0E9F8011CDB
:1027F000381C23F0E5F8306003994046406823F028
:10280000DFF84946496823F0DBF8706013990E68D9
:102810004F68311C049823F0EEF8041C391C05980D
:1028200023F0E9F8051C311C059823F0E4F8061C98
:10283000391C049823F0DFF8071C291C201C23F006
:10284000BFF841460860391C301C23F0B4F84146FB
:10285000486014990E684F68311C069823F0CBF835
:10286000041C391C089A9046101C23F0C4F8051C5F
:10287000311C404623F0BFF8061C391C069823F093
:10288000BAF8071C291C201C23F09AF8534618603C
:10289000391C301C23F08FF853465860159B1E6876
:1028A0005F68311C584623F0A6F8041C391C029BB3
:1028B0009846181C23F09FF8051C311C404623F055
:1028C0009AF8061C391C584623F095F8071C291C59
:1028D000201C23F075F84B461860391C301C23F07F
:1028E0006AF84B4658606B4680229B181C88219DD5
:1028F0006B6801930423019A21001D9800F09AF857
:102900006B6801930423019A21001E9800F092F84D
:102910006B6801930423019A21001F9800F08AF844
:102920006A68042321001C9800F084F82FB0F0BCE2
:10293000BB46B246A946A046F0BDF0B5D6464F46C6
:102940004646C0B580460C0091469A4605882F0041
:10295000012A14D080235B009D4222D026D8402D2E
:102960002DD01AD9802D3AD05346002B3CD14B465E
:10297000012B40D0E0BCBA46B146A846F0BD0431B8
:10298000002307E00A6880200006844662440A604B
:1029900008310133BB42F5D3DCE7102D1FD0202DC9
:1029A000E2D121004046FFF71FFCDDE780231B0139
:1029B0009D42F6D00BD980235B019D42D4D10123E7
:1029C000424652682900200000F034F8CCE780230A
:1029D0009B009D42F3D08023DB009D42C4D12100A7
:1029E0004046FFF795FABFE743469A689989200069
:1029F000FFF767FABBE7280023F05DF8011CFE2013
:102A0000800522F0E2FF061C002510E0311C206842
:102A100022F0F1FF2060636880221206944663442E
:102A20001800311C22F0E7FF606008340135BD4218
:102A3000ECD39FE7F0B5DE4657464E464546E0B537
:102A4000B1B02F922E93239122918046229BDB08D6
:102A500021930023019301980100219A9446614437
:102A6000894617004F44D51953199C4461461600F6
:102A7000059166449446B44462460992C2000392AA
:102A8000140044442268DB000493190041448A4640
:102A90000B689B46191C0292101C22F091FF1090AB
:102AA0005946029822F087FF02904B46DB009B4676
:102AB00043465B440A931A689146059BDB000593E5
:102AC0001A0042440B9211680691484622F078FFA2
:102AD00011900699484622F06EFF1290FF0006976B
:102AE00047440C973F68F600079646440D963168B8
:102AF0008946381C22F064FF061C4946381C22F027
:102B00005AFF1390ED00089545440E952F680999DA
:102B1000C900099141440F910A689146111C381C63
:102B200022F04EFF051C4946381C22F044FF149049
:102B3000311C109B9946181C22F03DFF1590311C4A
:102B4000484622F03DFF061C291C119B9946181C83
:102B500022F031FF1690291C484622F031FF051C57
:102B6000011C301C22F02CFF2060291C301C22F09C
:102B700022FF54462060039C043444442568049F8B
:102B80003B1D9C46C444674610973E68311C281C78
:102B900022F016FF0390311C281C22F00CFF049039
:102BA0005A46131D9C46C444624611921568059B03
:102BB00004339A46C24457463E68311C281C22F012
:102BC000FFFE0590311C281C22F0F5FE1790069B95
:102BD0001F1D47443D68079B1E1D464433689946A8
:102BE000191C281C22F0ECFE06904946281C22F0F5
:102BF000E2FE0790089D0435AB46C3445D462D6850
:102C0000099A131D9946C144494609680991281C2F
:102C100022F0D6FE08900999281C22F0CCFE0990DB
:102C20000699039822F0C7FE051C0699039822F026
:102C3000C7FE03900899059822F0BDFE06900899FA
:102C4000059822F0BDFE0590011C039822F0B8FE05
:102C500020600599039822F0AEFE109C2060069932
:102C6000159C201C22F0ACFE0C9B18600699201CC1
:102C700022F0A1FE0D9B1860169C211C281C22F03E
:102C80009AFE3860291C201C22F09AFE3060149EA7
:102C9000311C129C201C22F08EFE634922F0ABFEF8
:102CA000051C311C201C22F08BFE5F4922F0A3FE84
:102CB000041C0999179F381C22F07DFE5A4922F006
:102CC0009AFE061C0999381C22F07AFE564922F019
:102CD00092FE0390291C029822F06DFE071C291C0D
:102CE000029822F06DFE0290211C139D281C22F0F8
:102CF00062FE0590211C281C22F062FE051C311C7E
:102D0000049822F058FE041C311C049822F058FE4E
:102D1000061C0399079822F04EFE04900399079829
:102D200022F04EFE0390011C029822F049FE0A9BFD
:102D300018600399029822F03EFE0F9908600499EA
:102D4000381C22F03DFE0B9A10600499381C22F0CA
:102D500032FE0E9B1860291C301C22F02CFE119AAA
:102D60001060311C281C22F02BFE4B461860059D7C
:102D7000291C201C22F01FFE53461860211C281C11
:102D800022F01EFE5B4618600198229B9C46604420
:102D90000190239B834200D95DE6219B072B00D83D
:102DA000DCE201232C9300232D93C3462D9D2E9B03
:102DB0009C4665442D956B00AC466344E818291881
:102DC0006A18A8469044EE002F9FBC5908942D0124
:102DD0007C590994DB009C46FC582494C0003C5864
:102DE0000A94C9007C582594D200BC5826944346C6
:102DF000DC003B590B930436BB590C9304357B59CB
:102E0000279363460433FB582893043038580D90B9
:102E10000431795829910432BA582A9204343B5922
:102E20002B932C9B019301E0F304353F01980100A3
:102E3000219A94466144894617004F44D519531985
:102E40009046984416004644B44462460392C20039
:102E5000049214005C4421688A46DB0005931A0042
:102E60005A440E9211680291504622F0A9FD179023
:102E70000299504622F09FFD19904946C9000691DB
:102E800059440F910B6899464346DB0007935B4416
:102E9000109318688246011C484622F091FD804636
:102EA0005146484622F087FD1A90FF00BA465F4619
:102EB000574411973F68F60012965E4413963068A7
:102EC0008146011C381C22F07BFD061C4946381C3B
:102ED00022F071FD1B90ED0014952F005F441597B3
:102EE0003D68039FFF00BC46DC44604616900168C5
:102EF0008946281C22F064FD03904946281C22F0D4
:102F00005AFD1C90311C179B9946181C22F053FD4A
:102F10000290311C484622F053FD061C039B994643
:102F2000191C404622F047FD1D904946404622F0BC
:102F300047FD051C011C301C22F042FD2060291CAD
:102F4000301C22F038FD0390049C251D5D442E6842
:102F5000059B1C1D5C4422689046111C301C22F00D
:102F60002FFD1E904146301C22F025FD1F90069B30
:102F700004339C46DC44634617931E68079B043366
:102F80009C46DC446346189319688846301C22F03E
:102F900017FD04904146301C22F00DFD2090514653
:102FA0000E1D5E4431688946129B04339846D8440E
:102FB000414609688A46484622F002FD059051467E
:102FC000484622F0F8FC0690149B04339A46DA44F3
:102FD0005146096889463B1D9C46DC44674612976A
:102FE0003F68391C484622F0EBFC0790391C4846E4
:102FF00022F0E1FC149005991E9F381C22F0DBFCA6
:1030000081460599381C22F0DBFC071C07990498BF
:1030100022F0D1FC05900799049822F0D1FC04908D
:103020000599029822F0CCFC07900599029822F0AD
:10303000C2FC02900499381C22F0C2FC286004995A
:10304000381C22F0B8FC04901D9D291C484622F033
:10305000B2FC071C4946281C22F0B2FC051C03994F
:103060000A9822F0C8FC814604990D9822F0C3FC0E
:10307000059004990A9822F0BEFC049003990D98DB
:1030800022F0B9FC03900599484622F099FC0E9A6B
:1030900010600399049822F08EFC2060079909982B
:1030A00022F0A9FC041C391C279B9946181C22F00D
:1030B000A2FC0390391C099822F09DFC071C07997B
:1030C000484622F098FC81460399201C22F078FCA7
:1030D000119C20604946381C22F06DFC306002993A
:1030E000269F381C22F087FC041C291C2A9B994629
:1030F000181C22F080FC061C291C381C22F07BFCCA
:10310000051C0299484622F076FC071C311C201C45
:1031100022F056FC139E3060391C281C22F04BFC18
:10312000444620601C9B9846191C1A9C201C22F0C7
:1031300042FC8E4922F05FFC061C4146201C22F016
:103140003FFC8A4922F057FC051C149B9846191C29
:10315000209C201C22F02FFC844922F04CFC071CF0
:103160004146201C22F02CFC804922F044FC041C27
:10317000311C199B9946181C22F01DFC8046311CFD
:10318000484622F01DFC0290291C1B9E301C22F098
:1031900012FC0390291C301C22F012FC061C391C66
:1031A0001F9B9946181C22F006FC051C391C48463A
:1031B00022F006FC071C211C069822F0FCFB81462D
:1031C000211C069822F0FCFB0490011C029822F0BE
:1031D000F7FB041C0499029822F0EDFB029049468B
:1031E000404622F0EDFB04904946404622F0E3FBC6
:1031F0008146311C381C22F0DEFB8046391C301C15
:1032000022F0DEFB071C0399281C22F0D4FB061CCD
:10321000291C039822F0D4FB0390211C089822F06B
:10322000EAFB051C41460C9822F0E5FB059041465F
:10323000089822F0E0FB8046211C0C9822F0DBFB72
:10324000041C0599281C22F0BBFB0F990860211C67
:10325000404622F0B0FB179B186002990B9822F0B1
:10326000CAFB041C391C2B9B9846181C22F0C3FB7C
:10327000051C391C0B9822F0BEFB071C0299404626
:1032800022F0B9FB8046291C201C22F099FB1699DC
:1032900008604146381C22F08EFB129908600499A0
:1032A000259F381C22F0A7FB041C311C299B984643
:1032B000181C22F0A0FB051C311C381C22F09BFBC3
:1032C000061C0499404622F096FB071C291C201C72
:1032D00022F076FB109A1060391C301C22F06BFB38
:1032E000189B18604946249F381C22F084FB041C5C
:1032F000039E311C289B9846181C22F07CFB051C61
:10330000311C381C22F077FB061C4946404622F04F
:1033100072FB071C291C201C22F052FB159D286003
:10332000391C301C22F047FB534618600198229B41
:103330009C4660440190239B834200D976E52C9BF8
:1033400001332C93219A9A4200D92FE5D8462E9B1F
:10335000DB009BB22E932292FFF778FB31B0F0BCDA
:10336000BB46B246A946A046F0BDC046F304353F71
:10337000F0B5DE4657464E464546E0B587B00C00F0
:10338000150043690288013A00924F680821884677
:1033900098442168081C22F013FB061C391C381CB9
:1033A00022F00EFB071C011C301C22F009FBFC2143
:1033B000890522F020FB2860391C301C22F0FBFA22
:1033C0002F000837FC21890522F015FB6860009B5F
:1033D000DE00A6190834B1464646A0461D004B46FD
:1033E0005C681A68434619685B68009330688346D6
:1033F00070688246083604910392101C22F0DBFAB2
:10340000019000990294201C22F0DAFA041C019920
:10341000584622F0F0FA05900199504622F0EBFA56
:103420000190211C584622F0E6FA8346211C5046A2
:1034300022F0E1FA041C0499039822F0C1FA0599DC
:1034400022F0BEFA211C22F0BBFAFC21890522F0F1
:10345000D2FA38600299009822F0ADFA019922F070
:10346000AFFA594622F0A7FA3C000837FC2189053B
:1034700022F0C1FA606008239C46E044103B9C4661
:10348000E144013D002DAADC07B0F0BCBB46B246CA
:10349000A946A046F0BDF0B5DE4657464E46454625
:1034A000E0B589B00D00160044690388013B9946D8
:1034B0000F684B6898460834191C381C22F080FAB3
:1034C000FC21890522F097FA30604146381C22F031
:1034D00072FA08239846B044FC21890522F08BFA41
:1034E00070604B46DF00EF1908353B002F00464661
:1034F00098465AE043465B680193424612683D682D
:10350000796802912068824608208446A444604677
:10351000059063689B460392111C0495281C22F0B9
:103520004AFA051C0299019822F04AFA041C291C47
:10353000504622F060FA0690211C584622F05BFAB1
:103540000790291C584622F056FA051C211C5046AB
:1035500022F051FA041C0499039822F031FA0699DA
:1035600022F029FA079922F026FAFC21890522F097
:1035700042FA30600199029822F01DFA291C22F0CB
:103580001FFA211C22F017FA35000835FC218905A5
:1035900022F031FA7060083708235B429C46E04411
:1035A00007339C46E144059C2E004B46002BA1DCD2
:1035B00009B0F0BCBB46B246A946A046F0BDF8B57E
:1035C00004000E0017001D1E08D0FFF764FF012342
:1035D0002A0039002000FFF7B0F9F8BD01232A00C6
:1035E000FFF7ABF93A0031002000FFF7C1FEF4E726
:1035F000102823D88000134B1B589F461248704751
:103600001248FCE71248FAE71248F8E71248F6E7D2
:103610001248F4E71248F2E71248F0E71248EEE7E2
:103620001248ECE71248EAE71248E8E71248E6E7F2
:103630001248E4E71248E2E71248E0E71248DEE702
:103640001248DCE738D1061030D10610ACD0061095
:10365000B4D00610BCD00610C4D00610CCD00610D2
:10366000D4D00610DCD00610E4D00610ECD0061042
:10367000F8D0061004D106100CD1061014D1061093
:103680001CD1061028D1061094D00610A4D0061024
:10369000F0B583B004000D0017001E0000220023C7
:1036A00020F0C8F9002804D000233B60336003B049
:1036B000F0BD32002000290068F0D2FD00221D4B31
:1036C00020F075F920F03CFE20F04AFA04000D1EAF
:1036D00014DC00290ED080231B069C4210D0002D44
:1036E00026DC21D033681F3302DA00233360002444
:1036F0003C60DCE780231B069842ECD95AF080FB43
:10370000002DECD1EA0F002312196B411C001300AD
:10371000E10700930194520811430C00019B5D10D6
:10372000336801333360DAE780231B069C42D9D328
:103730005AF066FB0000E041F8B506000F001500E6
:103740001C000022094B20F093F9002809D0230027
:103750002A0030003900FFF79BFF2368002B02DBB3
:10376000F8BD5AF04DFB5AF04BFBC0460000F03F4D
:1037700030B585B020F01BF904000D008020000654
:10378000089BD84020F08CF922002B0020F00FF984
:1037900000900191094A0A4B0292039320F068F9C4
:1037A000002808D16B46186859680A9B099AFFF7E8
:1037B000C3FF05B030BD02ABF5E7C0460000C0FF57
:1037C000FFFFDF41F0B5C64600B503000C00012045
:1037D00098400138D21A20235B42D3182BD40125FC
:1037E0009D4001239340984620F05AF906000F00AF
:1037F0004046290020F0A8F902000B0030003900F3
:1038000020F0D5F806000F0020235B42E31817D400
:10381000012199400120A04020F096F902000B0000
:103820003000390020F0A5F820F0D8FD20F050F944
:1038300080BCB846F0BD20239B1A0125DD40D0E7AF
:1038400020231B1B0121D940E4E7000030B58BB0D9
:1038500001910092DD681C690395049401280AD047
:10386000032820D0022845D00E9B019A1A600F9B96
:10387000009A1A6013E0291C002022F0A6F822F01A
:103880008DFA22F03FF924180594019BA34208DB2E
:1038900001AB1B680E9A13600F9B009A1A600BB065
:1038A00030BD05ABF5E7291C002022F08EF822F090
:1038B00075FA22F027F920180690019B834215DB48
:1038C00001AB1B680E9A1360291C1E4822F07DF87C
:1038D00022F064FA22F016F924180794009BA34200
:1038E00006DC6B461B680F9A1360D8E706ABE8E767
:1038F00007ABF7E7291C144822F067F822F04EFACC
:1039000022F000F920180890019B834216DB01ABDE
:103910001B680E9A1360291CFE20800522F055F8C2
:1039200022F03CFA22F0EEF824180994009BA342FE
:1039300006DC6B461B680F9A1360B0E708ABE7E73D
:1039400009ABF7E70000C040000080BF10B50B686E
:1039500002CB002A10DB8A4210DA920099584B1CE5
:103960000ED000290EDB8368002B02D088011818C6
:1039700010BD036D9847FBE70020F9E70020F7E74B
:103980000020F5E70020F3E710B54B6802CB002AD2
:1039900010DB914210DD920099584B1C0ED000298B
:1039A0000EDB8368002B02D08801181810BD036D50
:1039B0009847FBE70020F9E70020F7E70020F5E74C
:1039C0000020F3E710B5FFF7C1FF10BDF0B5C64604
:1039D00000B582B080461D00C868D16822F00BF89F
:1039E000041C22F0D1F806000F000021201C22F058
:1039F00049F8002810D0E86822F0C6F802000B0051
:103A0000300039001FF0B5FF089B18605960002096
:103A100002B080BCB846F0BD43465C695223044AFC
:103A20000092FF33034A04494046A0470120EFE7D4
:103A30000CD206107CD10610F4D10610F0B5C646A3
:103A400000B584B080460D0016001C000A9FC868AF
:103A500022F09AF802900391F06822F095F80200A3
:103A60000B00029803991FF0A2FF02900391002C13
:103A70001AD0E06822F088F802000B00029803993F
:103A80001FF065FF02904C006408F86822F07CF893
:103A900002000B00029821001FF06BFF0E4A0F4B33
:103AA0001FF0D6FF00280BD00B9B00933B00320089
:103AB00029004046FFF78AFF04B080BCB846F0BD3D
:103AC00043465C69A223064A00925B00054A064908
:103AD0004046A0470120EFE77B14AE47E17A943FD0
:103AE00028D206107CD10610F4D1061030B583B070
:103AF0000D0014001278032A0DD0092A0ED0072ACF
:103B000019D04469C2230D4A00925B000C4A0D494A
:103B1000A04701200DE0FF22002102E07F2280214A
:103B2000494206980190009323002800FFF78EFE7B
:103B3000002003B030BD044A0449F2E74CD206101D
:103B40007CD10610F4D10610FF7F00000080FFFF3B
:103B5000F0B5DE4657464E464546E0B58DB004000A
:103B60000D00049205933023CE5C012E14D04569DC
:103B70002F3B039302967E4B01937E4B0093E023F1
:103B80007D4A7E49A847012630000DB0F0BCBB46F7
:103B9000B246A946A046F0BD3023049AD75C012F57
:103BA0000CD045692F3B03930297714B0193744BE3
:103BB0000093E223704A7149A847E5E7049B5B6BD9
:103BC000002B15D01A689146002A1AD01268934625
:103BD000012A5DDD0A78092A1CD0072A1AD0456916
:103BE000684B0093F223644A6749A8473E00CBE73D
:103BF0004569664B0093ED235F4A6349A8473E0041
:103C0000C2E74569624B0093EE235B4A5E49A847D1
:103C10003E00B9E7049A1278092A0ED06569092393
:103C2000039302925B4B01935B4B0093F423524A44
:103C300052492000A8473E00A6E71E9A93450ED0A1
:103C4000656903925B460293544B0193544B009376
:103C5000F523494A49492000A8473E0094E7049AC1
:103C6000926806929B689B00944663445B681E9A28
:103C700093420DD06569039302924A4B0193474BDF
:103C80000093F6233C4A3D492000A8473E007BE7CD
:103C9000EB680693169BDB689A464B460433079302
:103CA00000235F461E00A346A84623E04B46586803
:103CB00021F06AFF04000D00069821F065FF220044
:103CC0002B001FF074FE04000D00504621F05CFF35
:103CD00002000B00200029001FF04BFE0AAB09AACE
:103CE000FFF7D6FCB3001C9A0999D1501D9A0A9986
:103CF000D15001361E9B9E4205DA012FD6DDB3005E
:103D0000079AD058D4E75C4645462B78032B08D059
:103D10002B78092B21D0032B1FD0072B1DD0002679
:103D200032E7002200230A920B930AAB0193169B01
:103D30000093059B049A41465846FFF77FFE061EF6
:103D400000D021E709AB189A0A980B99FFF7A0FC5D
:103D5000099B5B42199A1360DAE7179B19781B9B42
:103D600000931A9B169A2000FFF7C0FE06000BE78F
:103D700070D206108CD206107CD1061054D20610D8
:103D8000A8D20610F4D20610F4D10610C4D2061040
:103D9000D8D2061030D306103CD306104CD30610F0
:103DA0005CD3061080D3061070B582B005000E1EDD
:103DB0000DD0941B01940F2C0ED82868012C14D020
:103DC000002C14D02200310022F096F90FE091422D
:103DD000EFD00B483AF0F2FF002201A9280045F08D
:103DE000AFFF2860019BAB60E7E733780370019A6F
:103DF0006A602B689B1800221A7002B070BDC04622
:103E0000C0D3061010B5002801D0006810BD59F0CD
:103E1000F7FF002800D00068704710B5002801D0D7
:103E2000006810BD59F0ECFF002800D00068704712
:103E300010B5002801D0006810BD59F0E1FF00283E
:103E400000D00068704770470840704708417047CD
:103E500040187047C043704710B5002802D00020BA
:103E6000FFF7F8FF10BD10B50123884200DB0023E7
:103E70001800FFF7F1FF10BD10B50123884200DCE8
:103E800000231800FFF7E8FF10BD0000012808D04C
:103E900003280BD002280ED00A4B0B600A4B13608C
:103EA00003E000230B60084B1360704700230B6096
:103EB000064B1360F9E7064B0B60FE239B0513606E
:103EC000F3E7C046FFFF7FFFFFFF7F7F0000C0409A
:103ED000000080BF10B5002801D0006810BD59F067
:103EE0008FFF10B5836B002B02D03421984710BD93
:103EF00059F086FFF0B5DE4657464E464546E0B5DA
:103F0000A3B00F0003929B462D9B0A21425E1392A1
:103F10000C21425E14920E21425E05921021425EF7
:103F20000A920221425E15920421425E1692026BB1
:103F30001092426B0E923A68042A00D080E05A46F2
:103F40001268042A7ED12F9A12680092042A7BD12B
:103F50003A68002A7ADD052A7ADD7A6812682F9994
:103F60000968002976DD052976DD2F9949680968F9
:103F7000914274D121922F990968002971DD052998
:103F800071DD2F994968096820918A426EDC21AA67
:103F9000126817923A68032A6ADD052A6ADD7A6890
:103FA000D26859460968032966DD052966DD594648
:103FB0004968C968914264D11F925946096803292A
:103FC00061DD052961DD59464968C9681E918A424B
:103FD0005EDC1FAA126802925A461268002A59DD56
:103FE000052A59DD5A46526812682F990968032933
:103FF00055DD052955DD2F994968C968914253D18E
:104000001D922F990968032950DD052950DD2F994C
:104010004968C9681C918A424DDC1DAA12680F923A
:104020002E9A002A4ED01868052846DD5B680022CB
:104030000121904243DD9400E45861430132F8E7E6
:1040400059F0DEFE59F0DCFE59F0DAFE59F0D8FEE8
:104050007A6884E759F0D4FE2F99496888E759F0C7
:10406000CFFE59F0CDFE2F9949688DE720AA8FE742
:1040700059F0C6FE3A6994E759F0C2FE59460969FB
:1040800098E759F0BDFE59F0BBFE594609699DE716
:104090001EAA9FE759F0B4FE5A465268A5E759F0A8
:1040A000AFFE2F990969A9E759F0AAFE59F0A8FEB9
:1040B0002F990969AEE71CAAB0E70433B7E70F9B55
:1040C0008B423AD13B68012B39DD052B39DD7B680A
:1040D0005B6808933B68022B36DD052B36DD7B6879
:1040E0009B6807935B461B68012B32DD052B32DD95
:1040F0005B465B685B6809935B461B68022B2EDDA1
:10410000052B2EDD5B465B689B6804932F9B1B6829
:10411000012B2ADD052B2ADD2F9B5B685B68129340
:104120002F9B1B68022B26DD052B26DD2F9B5B6852
:104130009B681193002300933DE159F061FE59F013
:104140005FFEBB680893C5E759F05AFEFB6807930A
:10415000C8E759F055FE5B469B680993CCE759F0D8
:104160004FFE5B46DB680493D0E759F049FE2F9B76
:104170009B681293D4E759F043FE2F9BDB681193A1
:10418000D8E759F03DFE59F03BFE59F039FE59F0A1
:1041900037FE59F035FE59F033FE59F031FE59F033
:1041A0002FFE59F02DFE59F02BFE4346B046AB468C
:1041B0001E000136049B9E4266DA059D7543069BF0
:1041C000ED18F6D4079B9D42F3DA4B46002BF0DB4B
:1041D000089B9945EDDA0024320046465B46AB4623
:1041E0001D009046029B9C42DFDA3B68042BC8D13D
:1041F000009B002BC7DB7A689342C4DA4B46002B46
:10420000C3DBBB689945C0DA5A46002ABFDBF968B0
:104210008B45BCDA002CBCDB3A699442B9DA0098D1
:1042200043434B444B435B445343E3189B00039A83
:1042300098582B68042BAED1002EAEDB6B689E42E3
:10424000ABDA5346002BAADBAB689A45A7DA4246A5
:10425000002AA6DBE9688845A3DA002CA3DB2A69DB
:104260009442A0DA734353444B4343445343E3180B
:104270009B002C9A995821F0BEFB011C019821F05B
:104280009FFB01900134ADE701239C46E244099B6A
:104290009A4507DA0A9B524653430B9A9146994432
:1042A000002687E72E9B002B54D043469B002E9A76
:1042B000D158019821F084FB2F9B1B680193042B9C
:1042C0004AD1009B002B49DB2F9A526801929342FE
:1042D00044DA0C9B002B43DB2F9A9568AB423FDA04
:1042E0000D9B002B3EDB2F9AD1688B423ADA434676
:1042F000002B39DB2F9B1A69904535DA009B5D4313
:104300000C9B9C4665444D430D9B9C466544554320
:104310004544AD00309B9C466544199010991A9114
:104320000E9B1B9321F0A0FB00281FD119AC216824
:104330000E9821F099FB00281AD123682B600123E5
:104340009C46E0440F9B984514DA00239A460023CC
:1043500001939CE70021ACE759F052FD59F050FD64
:1043600059F04EFD59F04CFD59F04AFD1AACDEE70C
:104370001BACE2E70D9B01330D930D9A119B9A4202
:1043800007DA139B5343159A9B1A0693002398460A
:10439000D8E70C9B01330C930C9A129B9A4207DAD4
:1043A000149B5343169A9B1A0B9300230D93E4E737
:1043B000009B01330093009B179A934202DA00237B
:1043C0000C93E9E723B0F0BCBB46B246A946A04631
:1043D000F0BD000030B5044B020032CB32C232CB0C
:1043E00032C212CB12C230BD28D60610F0B5DE465E
:1043F00057464E464546E0B5A7B0139114921E00AD
:10440000319D339B426902920A21425E17920C2130
:10441000425E18920E21425E04921021425E099281
:104420000221425E19920421425E1A92C2691292DE
:10443000816A1F91C26A1E92914276DC3268042A18
:1044400075D12A68042A74D1359A12680092042A18
:1044500071D13268002A70DD052A70DD7268126839
:104460003599096800296CDD05296CDD35994968A5
:10447000096891426AD1259235990968002967DD5A
:10448000052967DD35994968096824918A4264DC09
:1044900025AA12681B923268032A60DD052A60DDB6
:1044A0007268D268296803295DDD05295DDD6968C8
:1044B000C96891425BD123922968032959DD0529F6
:1044C00059DD6968C96822918A4256DC23AA1268BC
:1044D00001922A68002A52DD052A52DD6A681268B4
:1044E0003599096803294EDD05294EDD359949685E
:1044F000C96891424CD1219235990968032949DD57
:10450000052949DD35994968C96820918A4246DC08
:1045100021AA12681192349A002A4DD018680528F1
:104520003FDD5B680022012141E059F069FC59F050
:1045300067FC59F065FC59F063FC59F061FC726846
:104540008EE759F05DFC3599496892E759F058FCBF
:1045500059F056FC3599496897E724AA99E759F02C
:104560004FFC32699EE759F04BFC2969A1E759F0ED
:1045700047FC59F045FC2969A5E722AAA7E759F0AD
:104580003FFC6A68ACE759F03BFC35990969B0E734
:1045900059F036FC59F034FC35990969B5E720AA81
:1045A000B7E70433BEE79400E45861430132904218
:1045B000F9DC119B8B4238D13368012B37DD052B99
:1045C00037DD73685B6807933368022B34DD052B96
:1045D00034DD73689B6806932B68012B31DD052B56
:1045E00031DD6B685B6808932B68022B2EDD052B91
:1045F0002EDD6B689B680393359B1B68012B2ADDBE
:10460000052B2ADD359B5B685B681693359B1B6821
:10461000022B26DD052B26DD359B5B689B681593F9
:10462000002733003E001F00D6E159F0E9FB59F0A6
:10463000E7FBB3680793C7E759F0E2FBF36806931B
:10464000CAE759F0DDFBAB680893CDE759F0D8FB1A
:10465000EB680393D0E759F0D3FB359B9B68169327
:10466000D4E759F0CDFB359BDB681593D8E759F0BB
:10467000C7FB59F0C5FB59F0C3FB59F0C1FB59F01A
:10468000BFFB59F0BDFB59F0BBFB59F0B9FB59F02A
:10469000B7FB59F0B5FBB146464680466046009BE5
:1046A0009C460130039B98426BDA04994143059B79
:1046B000C918F6D4069B9942F3DA002EF1DB079B6A
:1046C0009E42EEDA00220B0061460091844640468D
:1046D000B0464E469946019B9A42DCDA3B68042B71
:1046E000C5D100990029C4DB7B689942C1DA4346F1
:1046F000002BC0DBBB689845BDDA4C46002CBCDB08
:10470000FC68A246A145B8DA002AB8DB3C69A2429F
:10471000B5DA00994B43434451464B434B44634302
:10472000D3183099CC562B68042BAAD10028AADBC9
:104730006B689842A7DA002EA7DBAB689E42A4DA2A
:1047400061460029A3DBE9688B468C459FDA002A85
:104750009FDB29698A468A429BDA4343F31859460C
:104760004B43634451464B43D3183299CB5602997D
:104770008A4654445C431D9B9A4654441D9401321E
:10478000A9E701239A46D144089B994507DA099E77
:104790004B465E430E9B9A465644002082E766468F
:1047A00044463195349B002B06D0A300349A9B5885
:1047B0001D9A944663441D931D98A300139AD258E2
:1047C0001499CB58191E00DAB1E0002B00DCB0E0E0
:1047D00000239A468840824200D1ADE000239846EB
:1047E000C117D31721F0CAF802000B1E00DAADE0A2
:1047F0008021C9050A91C9170B910A980B991218C3
:104800004B41D917490049080C9100210D910C9892
:104810000D9912184B4111005B00CA0F13439946C2
:104820004346002B00D093E05346002B00DA92E081
:104830001F2B00DD96E0012098400138FFF703FBB5
:1048400080460020FFF7FFFA00900120FFF7FBFAF7
:10485000834641464846FFF7F7FA050001214046E6
:10486000FFF7F4FA804600994846FFF7FCFA5946EC
:10487000FFF7EAFA01004046FFF7EAFA80465146A0
:104880004846FFF7E3FA814641462800FFF7F4FA6D
:104890005946FFF7D9FA01004846FFF7D9FA1D90AB
:1048A000129B9C4660441D901F9B984261DB1DAB90
:1048B0001B681D931E9A93425DDC1DAB1A681D9206
:1048C000359B1B680093042B57D1002E57DB359B7B
:1048D0005B6800939E4252DA0F99002951DB359BA9
:1048E0009B6899424DDA109900294CDB3598C068D5
:1048F000814248DA002C48DB359909698C4244DA58
:1049000073430F9DAC46634443431098844663440D
:104910004B43E3183699CA540134119B9C4236DA52
:1049200000231D939946B446A046319D2CE70021F3
:104930004BE75B429A464DE780231B06984202D024
:10494000002398464CE70123984649E7294951E757
:10495000294B994668E7B321284B294A4900294841
:104960001DF0FCF96821284B254AFF3125481DF030
:10497000F5F91FAB9CE71EABA0E759F041FA59F0DF
:104980003FFA59F03DFA59F03BFA59F039FAB3467B
:10499000319D109B01331093109A159B9A4209DAAE
:1049A000179B5343199A9B1A059300235E461C00DC
:1049B0003195B2E75E460F9B01330F930F9A169B1A
:1049C0009A4208DA189B53431A9A9B1A0E930023B3
:1049D0001093B346E0E701361B9B9E4202DA0023A8
:1049E0000F93EBE727B0F0BCBB46B246A946A04602
:1049F000F0BDC046010000C0FFFFFF7FECD30610F2
:104A0000FCD3061058D40610D0D40610F0B5DE46FC
:104A100057464E464546E0B5CFB005000F00A64BC1
:104A20001B6800284BD000294BD09B000A68944695
:104A300063445968436D98470600A04B1B68002DDE
:104A400041D0002F41D09B003A6894466344596896
:104A500028006B6D984780463B681B68032B36D057
:104A600000239946964B1B68002D44D0002F44D05C
:104A70009B007A6894466344596828006B6D984798
:104A80000400796900293AD03F69002F39D0307A83
:104A9000237A984237D06C6903930290894B019333
:104AA000894B0093894B8A4A8A492800A0470120F4
:104AB0004FB0F0BCBB46B246A946A046F0BD59F087
:104AC0009FF959F09DF959F09BF959F099F9824BEA
:104AD0001B68002D0BD0002F0BD09B003A6894462A
:104AE0006344596828006B6D98478146BAE759F0CE
:104AF00087F959F085F959F083F959F081F959F09E
:104B00007FF959F07DF943461B7A984205D06B69CD
:104B10007249280098470120CAE701280BD00928CC
:104B20006ED06C69FEF764FD0200337A6C49280090
:104B3000A0470120BCE73A000AA800F005FB3100BD
:104B400018A801F037FB3000FFF75CF982464146B8
:104B50001EA801F02FFB4046FFF754F9070024ADD3
:104B60004946280001F026FB4846FFF74BF98046EE
:104B70002AAE2100300001F01DFB2000FFF749F9AB
:104B8000814630AC0021200001F014FB0023069385
:104B900005944B4604930396434602930195009770
:104BA0001EAB524618A90AA8FFF7A4F9309B052BA3
:104BB00004DD3198002801D021F0B0FA2A9B052BA2
:104BC00004DD2B98002801D021F0A8FA249B052BA6
:104BD00004DD2598002801D021F0A0FA1E9B052BAA
:104BE00004DD1F98002801D021F098FA189B052BAE
:104BF00004DD1998002801D021F090FA002057E731
:104C00003A000AA800F06EF87B6A9A46BB6A9B4697
:104C1000310036A801F0CEFA3000FFF7FEF8099017
:104C20003CAF4146380001F0C5FA4046FFF7F5F8C1
:104C3000804642AD4946280001F0BCFA4846FFF7DD
:104C400049F9814648AE2100300001F0B3FA200056
:104C5000FFF7EAF8069005964B4604930395434602
:104C600002930197099B009336AB5A4651460AA816
:104C7000FFF7BCFB489B052B04DD4998002801D0B9
:104C800021F04CFA429B052B04DD4398002801D00B
:104C900021F044FA3C9B052B04DD3D98002801D00F
:104CA00021F03CFA369B052B04DD3798002801D013
:104CB00021F034FA0020FBE6DCD70610E4D706101A
:104CC000E0D7061050D5061060D506108A06000001
:104CD000E0D4061054D20610D8D706106CD50610B2
:104CE0000CD6061070B504000E00150013695B4267
:104CF000436153695B4283619369C361D369036212
:104D0000136A5B424362087801F07CFA20706B689A
:104D1000A3802B686380B368A38173686381736920
:104D200023823369E381EB6AA3622B6BE362200089
:104D300070BD0000F0B5DE4657464E464546E0B52C
:104D400093B004000D0016001F0021AB1B780B93DD
:104D50000B681B68032B0AD0022B08D04569834BD4
:104D600000935623824A8349A847012011E06B68CB
:104D70001B68012B14D065690122039202937E4BBC
:104D800001937E4B00935723794A7D492000A84721
:104D9000012013B0F0BCBB46B246A946A046F0BD08
:104DA00033789A46B36899467368984673699B4608
:104DB00033690D931D9A501E584301304346002B12
:104DC00017D05346012B04D0022B0AD000230C939A
:104DD00010E038004044013841461EF041FB0C9081
:104DE00008E03B004344181A41461EF039FB0C9082
:104DF00000E00C931E9B581E5B46584301304B4607
:104E0000002B14D05346012B03D0022B08D00020D6
:104E10000EE01C984844013849461EF021FB07E08B
:104E20001C9B4B44181A49461EF01AFB00E04846EA
:104E30001E9B013B5A465343013301384A465043B7
:104E40001B181C9A9B1A4AD401211940DA0FD31857
:104E50005B100F9311911D9B013B0D9A534301333E
:104E60000C980138424650431B18DB1B39D40121F2
:104E70001940DA0FD3185B100EAA0E931091229BE3
:104E800083CA83C312681A60002229002000FEF73B
:104E90005DFD8046002826D0012229002000FEF773
:104EA00055FD8146002828D0022229002000FEF767
:104EB00089FD0700002229002000FEF765FD051E80
:104EC00025D00B9B012B2CD143461B69229A1361E1
:104ED0004B461B6953612B699361002059E70023FE
:104EE000B2E70023C3E76569264B00936123204A9C
:104EF00020492000A84701204BE76569224B009319
:104F000063231B4A1B492000A847012041E765692C
:104F10001E4B00936723164A16492000A84701201C
:104F200037E74B469B685B680C36229A926A0B9275
:104F300008930792229B5B6A0B930693229B303364
:104F40000593229B2C330493229B20330393229BB3
:104F50001C330293019600903B004A4641462000D4
:104F6000FEF7F6FD0028AFD013E7C046C0D6061006
:104F700048D60610F4D10610EC3A0710E4D6061015
:104F800054D20610F8D606100CD7061020D70610FB
:104F9000F0B5DE4657464E464546E0B58FB00400B4
:104FA0000D000F69002F4CD04B699946002B4AD059
:104FB0000022FEF7E9FC8246002846D000222900A4
:104FC0002000FEF7C3FC061E50D00122290020005D
:104FD000FEF7BCFC8046002852D0B368DA6809921C
:104FE0009B680A938368DA680B929A680C9252461F
:104FF0009268D1680D91926893465B689B009A46CF
:1050000019002000A36B9847786251462000A36BDB
:105010009847B8623378092B6CD1302241468E5CB8
:10502000012E37D06569083B039302963B4B0193F1
:105030003B4B00939F233B4A3B492000A847012656
:105040000CE058F0DDFE58F0DBFE6569374B00934D
:105050008723344A36492000A847012630000FB084
:10506000F0BCBB46B246A946A046F0BD6569314BCF
:10507000009389232B4A2E492000A8470136EDE7EB
:1050800065692D4B00938B23264A29492000A847A8
:105090000126E3E74A6B002A16D01168002915D0D3
:1050A0005068002814D00A68012A13D04146896844
:1050B00049688A420ED06569204B0093A823194A9B
:1050C0001B492000A847C9E758F09AFE58F098FEFF
:1050D00058F096FE01688A420CD0656903910292ED
:1050E000174B0193174B0093AC230E4A0E49200037
:1050F000A847B3E7069705935B4604930D9B03937C
:105100000C9B02930B9B01930A9B0093099B4A46BD
:1051100029002000FFF70EFE06009FE770D2061060
:10512000A8D2061048D6061054D2061020D7061072
:10513000F4D10610F8D606100CD7061034D7061096
:10514000B0D706105CD3061070B504000D00160031
:10515000087B2200343221003031FEF797FE287898
:1051600001F050F82070336863807368A3806B6827
:105170006381AB68A3812B69E3816B692382200083
:1051800070BD10B5002801D0006810BD58F038FE81
:1051900010B5002802D01EF02BF910BD2020FCE72E
:1051A00030B50400C5170800C91700196941002966
:1051B0000BDB0122002312184B41D80F002180186D
:1051C0005941CB074008184330BD01225242D31742
:1051D000F1E7000070B50A00884219D00024C11719
:1051E000D31720F0CBFB02000B1E19DB8025ED0549
:1051F0002800E91712184B41DD176D0068080021DF
:10520000801859414B00C00F1843002C0AD170BDC3
:1052100080210906884201D00024E0E70124DEE76E
:10522000014DE5E70148F2E7010000C0FFFFFF7F05
:1052300010B5FEF70DFE10BD70B50A00884219D0FA
:105240000024C117D31720F099FB02000B1E19DBB5
:105250008025ED052800E91712184B41DD176D0078
:1052600068080021801859414B00C00F1843002CDA
:105270000AD170BD80210906884201D00024E0E7F0
:105280000124DEE7014DE5E70148F2E7010000C037
:10529000FFFFFF7F7047401A704710B5FFF7FBFF15
:1052A00010BD000010B50200C31701208840C117CF
:1052B00020F064FB03004A1C09DB4A1C03D00029D0
:1052C0000CDC07D010BD802212069042F7D280205D
:1052D0000006F7E7802212069342F3D30048F1E775
:1052E000FFFFFF7F4840704770B504001600FEF7CF
:1052F000ABFD05002000FEF7ADFD3100FEF7A4FD7B
:1053000001002800FFF7EEFF70BD0000F0B5C646B3
:1053100000B5040080200006FEF795FD0600124847
:10532000FEF791FD80461148FEF78DFD010020003B
:10533000FEF7A2FD07000E48FEF785FD01002000E4
:10534000FEF791FD050002212000FFF7ABFF0200F0
:1053500041463800FFF7C8FF020031002800FFF780
:10536000C3FF80BCB846F0BDFFFFFF7FFFFFFF1FFC
:10537000010000E010B5FFF7C9FF10BDF0B5C6464B
:1053800000B5040080200006FEF75DFD060012480F
:10539000FEF759FD80461148FEF755FD010020003B
:1053A000FEF76AFD07000E48FEF74DFD01002000E4
:1053B000FEF759FD050001212000FFF773FF0200F1
:1053C00041463800FFF790FF020031002800FFF748
:1053D0008BFF80BCB846F0BDFFFFFF7FFFFFFF3FA4
:1053E000010000C010B5FFF7C9FF10BDF0B5D646EB
:1053F0004F464646C0B504005048FEF724FD010064
:105400002000FFF7CDFE06000020FEF71CFD050082
:105410000020FEF718FD80460120FEF714FD040071
:10542000474F29003800FEF70FFD81460121280073
:10543000FEF70CFD050041463800FEF714FD210083
:10544000FEF702FD01002800FEF702FD8046002164
:105450003800FEF7FBFC050041464846FEF70CFD10
:105460002100FEF7F1FC01002800FEF7F1FCFEF739
:10547000EAFC82460020FEF7E6FC05000020FEF76D
:10548000E2FC81460120FEF7DEFC04002D4F2900DE
:105490003800FEF7D9FC804601212800FEF7D6FC33
:1054A000050049463800FEF7DEFC2100FEF7CCFC83
:1054B00001002800FEF7CCFC814600213800FEF7F1
:1054C000C5FC050049464046FEF7D6FC2100FEF724
:1054D000BBFC01002800FEF7BBFCFEF7B4FC01009A
:1054E0003000FFF777FE01005046FFF7A1FE0400F1
:1054F000002517E021003000FFF76CFE0700802038
:105500008005FEF7A0FC3900FFF7C7FE0100200070
:10551000FFF792FEFFF72EFF01002000FFF788FE45
:1055200004000135022DE5DD2000FFF7B3FEFFF793
:1055300059FFE0BCBA46B146A846F0BDFFFFFF7F69
:105540005A5A5A5AC4C3C3C310B5836B002B02D036
:105550002021984710BD58F053FC0000F0B5D64606
:105560004F4680B587B005000C000B699946002BAB
:105570002DD04B699A46002B2BD0394B1A68FEF779
:10558000E5F9061E27D0374B1A6821002800FEF7E0
:10559000DDF9071E2DD0344B1A6821002800FEF7D4
:1055A00011FA0590314B1A6821002800FEF7ECF93A
:1055B000041E29D03078237898422FD13B78984226
:1055C00040D06B692A492800984701200CE058F028
:1055D00017FC58F015FC6C69264B0093264B274AA4
:1055E00027492800A047012007B0C0BCBA46B146F1
:1055F000F0BD6C69A323234A0092DB001F4A2049B7
:105600002800A0470120EFE76C691F4B00931F4B58
:105610001A4A1B492800A0470120E5E76F69FDF7FA
:10562000E7FF06002078FDF7E3FF03900296184B92
:105630000193184B0093184B104A18492800B8479B
:105640000120D1E7534619784B4603930294059BFA
:105650000193009733000200280000F06CFDC3E7BF
:1056600050D9061058D906104CD9061054D9061036
:1056700080D80610F8D6061015050000E8D70610E9
:10568000F4D106100CD7061020D706101C05000018
:1056900050D5061060D506101E05000064D806100F
:1056A00030B5044B020032CB32C232CB32C212CB05
:1056B00012C230BD2CD90610F0B5DE4657464E4614
:1056C0004546E0B593B090461C9A91461F990268F2
:1056D00092464268934682680C92C26808920269B8
:1056E000099244691194806910901A68012A2DDD8D
:1056F0000D68022D2CD184422CDC086800282BDD9B
:1057000005282BDD486800680D900868012828DD11
:10571000052828DD496849680791911E26D4186834
:10572000814225DA052825DD890058684158079807
:10573000814223DB013A23D419688A4222DA0529FF
:1057400022DD5B6892009C580027F8E058F058FB77
:1057500058F056FB58F054FB58F052FB48680D9037
:10576000D3E758F04DFB89680791D6E758F048FB1E
:1057700058F046FB890059184968D8E758F040FBB3
:1057800058F03EFB58F03CFB92009A185468DBE757
:1057900023007B439B184946CB5621006943891857
:1057A00040464156711853444B430F998C4663440D
:1057B0000F930132A242EBDBB3461E9B002B06D0B7
:1057C000AB001E9A9B580F9A944663440F930F9810
:1057D000099A131E00DA88E0099A002A00DC86E0A4
:1057E000002204929840089B834200D182E000236B
:1057F0000593C117089AD31720F0C0F802000B1EBA
:1058000000DA81E08021C9050091C9170191009853
:10581000019912184B41D9174900490802910021FA
:1058200003910298039912184B415E00D20F164360
:10583000059B002B6AD1049B002B69DB049B1F2B6B
:105840006DDC0120049B98400138FEF7FCFA0590BE
:105850000020FEF7F8FA0A900120FEF7F4FA06900D
:1058600005993000FEF7F0FA0B9001210598FEF73C
:10587000EDFA05900A993000FEF7F5FA0699FEF761
:10588000E3FA01000598FEF7E3FA05900499300069
:10589000FEF7DCFA060005990B98FEF7EDFA06997B
:1058A000FEF7D2FA01003000FEF7D2FA0F900C9BFF
:1058B0009C4660440F90119B984237DB0FAB1B68EE
:1058C0000F93109A934233DC0FAB1A680F92079B29
:1058D0007B435B192099CA540135079B9D4229DA05
:1058E00000230F9300225E4664E7002374E75242D0
:1058F000049277E780231B06984202D00023059389
:1059000077E70123059374E715497DE7154E92E784
:10591000B321154B154A490015481CF01FFA6821A0
:10592000144B124AFF3112481CF018FA11ABC6E7AB
:1059300010ABCAE743461C93C846994601370D9BF6
:105940009F4205DA00254B461C93C1469846C4E7A2
:1059500013B0F0BCBB46B246A946A046F0BDC04657
:10596000010000C0FFFFFF7FECD30610FCD3061040
:1059700058D40610D0D40610F0B5DE4657464E4631
:105980004546E0B595B090461E001E9B9946219D68
:1059900003689A4643689B4683680C93C3680893E0
:1059A0000369099343691193816910913768012F45
:1059B00012DD2A68002A11DD8B4211DC2868013AC9
:1059C00010D482420EDA05280EDD6C680023012116
:1059D000AC46250014000DE058F012FA58F010FA09
:1059E00058F00EFA58F00CFA2C1DEFE79A00AA585E
:1059F00051430133984203DD9C42F7D10122F7E77E
:105A000022000D916546BB1E30D431688B422FDADF
:105A100005292FDD9B007168CB58002A2EDB2968F1
:105A20008A422DDA05292DDD910068684158994296
:105A30002CD11393002A2BDB29688A422ADA052904
:105A40002ADD696892008A581292934228DC13ABCF
:105A50001B680793013F25D433689F4224DA052B46
:105A600024DD7368BF00DC590027FAE058F0C8F95C
:105A700058F0C6F99B00F3185B68CEE758F0C0F900
:105A800058F0BEF9910069184968D0E758F0B8F9A4
:105A900058F0B6F958F0B4F99200AA185268D3E752
:105AA00012ABD5E758F0ACF958F0AAF9BF00F719D6
:105AB0007C68D9E723007B439B184946CB5C2100D7
:105AC000694389184046415C711853444B430F9910
:105AD0008C4663440F930132A242EBDBB346209B1A
