:020000041000EA
:1000000000B5324B212058609868022188439860DF
:10001000D860186158612E4B002199600221596106
:100020000121F02299502B49196001219960352056
:1000300000F044F80222904214D00621196600F024
:1000400034F8196E01211966002018661A6600F04E
:100050002CF8196E196E196E052000F02FF8012189
:100060000842F9D1002199601B49196000215960AB
:100070001A491B48016001219960EB211966A021F2
:10008000196600F012F800219960164914480160C1
:100090000121996001BC002800D000471248134993
:1000A000086003C880F30888084703B5996A0420EC
:1000B0000142FBD001200142F8D103BD02B5186610
:1000C0001866FFF7F2FF186E186E02BD00000240BE
:1000D000000000180000070000035F00212200005C
:1000E000F4000018222000A00001001008ED00E03C
:1000F00000000000000000000000000074B24E7A12
:1001000000200420F7010010C3010010C5010010F9
:10011000C1010010C1010010C1010010C101001097
:10012000C1010010C1010010C1010010C701001081
:10013000C1010010C1010010C9010010CB01001065
:10014000CD010010CD010010CD010010CD01001037
:10015000CD010010CD010010CD010010CD01001027
:10016000CD010010CD010010CD010010CD01001017
:10017000CD010010CD010010CD010010CD01001007
:10018000CD010010CD010010CD010010CD010010F7
:10019000CD010010CD010010CD010010CD010010E7
:1001A000CD010010CD010010CD010010CD010010D7
:1001B000CD010010CD010010CD010010CD010010C7
:1001C00000BE00BE00BE00BE00BE00BE00F04BF888
:1001D000103800BEF2EB887194930810C093081099
:1001E0003402001090A31AE700202149086006C8D5
:1001F00081F3088810471F48006800282FD10DA4FC
:100200000ECC002902D000F012F8F9E71A491B4A77
:10021000002000E001C19142FCD1194988471949E9
:1002200088471949884700BEFDE701C901C29A42C3
:10023000FBD37047C0930810C00000208C2700201B
:100240008CBA081000000420000004208CBA0810AA
:1002500000100420001004200000000070470B482C
:1002600023F09AF80047EFF30580C0B27047000012
:1002700008ED00E0000000D090270020283F032078
:10028000291D0210FD030010E51C02105756000046
:1002900006005250ABB36053F4B80710060052503A
:1002A000861C030204B90710060052505422A29D76
:1002B0005CC2061005005250DE65F4688CBA081066
:1002C000F8B5C04610B5064C2378002B07D1054B76
:1002D000002B02D0044800E000BF0123237010BDB2
:1002E000782900200000000050C20610044B10B511
:1002F000002B03D00349044800E000BF10BDC046F6
:10030000000000007C29002050C2061010B5012812
:1003100000D010BD034B9942FBD10CF0DFF8024B2B
:100320001860F6E7FFFF00009429002010B50CF0DC
:10033000D5F804001F4A204920480BF06DFC0CF052
:1003400031FC002825D00CF009FC002825D00DF048
:10035000FBF8002825D00CF0ADFB002825D0236841
:100360009B682000984723685B682000984780239B
:100370002268D35804212000984720000AF076FE16
:100380000F4C20600F480BF047FC20681AF0FEFD70
:1003900010BD0D480BF040FCD5E70C480BF03CFCC1
:1003A000D5E70B480BF038FCD5E70A480BF034FCD6
:1003B000D5E7C04650C206105CC2061068C20610DF
:1003C000BC34002044C30610A4C20610D4C20610D8
:1003D000F4C2061020C3061010B5FFF7A7FF0BF0FC
:1003E0000FFC0100FF29FAD0034B18681BF07AFCC0
:1003F0000BF006FC0100F5E7BC34002000B583B02B
:1004000019201FF07BFED0231B06802292045A6223
:100410005A6125F0FBFF002027F07AFF0028FAD070
:10042000D0231B06802292049A618022002301932C
:10043000013300930023D200034904482BF052FB00
:100440002BF0B8FBFEE7C04670C30610D9030010BE
:1004500010B504480BF0E0FB034B044AAD210448FF
:1004600021F044FC0CC4061088C306101CC40610FE
:10047000C4C3061010B502490120FFF747FF10BDA5
:10048000FFFF0000FEE70000F0B5CE4600B592B0D9
:1004900003900D001600189C67087A1C9A4200D041
:1004A000CCE08C4200D22500A54261D000239946C1
:1004B0004B46002B5FD00E930EAB00221A73012324
:1004C0000F9310940E98002800D1B2E04B46002BF9
:1004D0005AD0202C17D0402C15D0802C13D080233C
:1004E0005B009C420FD00133FF339C420BD0802332
:1004F000DB009C4207D080231B019C4203D0802359
:100500005B019C424ED180235B009C4200D08EE078
:1005100008AB80221A8000220992494A9189998168
:1005200091680A9152680992802252001A82454AC3
:100530000D92A000012101F02CFA020004AB0490FE
:100540000121197305910694002841D000230E99CA
:1005500008A803F02AF804990B683360002272603F
:10056000FB00F318496819605A600121022045E038
:10057000039B99469CE7A000012101F00AFA0E9026
:100580000EAB01221A739AE7AB0099461A00039941
:1005900025F07AFD0E984844621B9200002125F058
:1005A0006DFD96E70E9D08AB00930023002200210D
:1005B000200000F0DBFF041E08D03200290001F00B
:1005C000B1F8200001F0E9F9002421E01E4C1FE001
:1005D000002802D0CBB2002B01D11B4C18E001F057
:1005E000DCF9FAE7049DCB00F318820052591A6037
:1005F000441CA40062595A60023001318F42F1D884
:100600000498002803D004AB1B7B002B0CD10024E2
:100610000E98002803D00EAB1B7B002B0BD12000C3
:1006200012B080BCB946F0BD01F0B7F9EFE7074C56
:10063000EEE7054CECE701F0B0F9F0E7044CEEE72B
:10064000DCCE0610DCCA061016FCFFFF08FCFFFF1C
:1006500011FCFFFFF0B5DE4657464E464546E0B575
:1006600085B080460D004C08631C0293D8008E00B4
:10067000012101F08EF98246002800D1AFE001216E
:10068000300001F086F98146002801D0002312E0F5
:10069000504601F082F9534B039398E0D9009A0039
:1006A0004846464676588650EA1A013A9200414436
:1006B0004968815001339C42F0D8EB0707D5A4006C
:1006C000494BEB189B004A4641465B581351009535
:1006D000029B524629004846FFF7D6FE03900028A9
:1006E00034D10024029BA34237D9200023F09CF987
:1006F0003E4A3F4B23F023F906000F00680023F029
:1007000093F902000B003000390023F0FAF823F0CF
:100710001BFA061CE70057443B689B4625F018FA75
:10072000011C584625F02FF983467F68301C25F0C0
:1007300023FA011C381C25F026F9011CA6004644AA
:10074000584625F005F930600134CBE7484601F002
:1007500024F9504601F021F939E0AC4231D22000B1
:1007600023F062F9214A224B23F0E9F806000F003A
:10077000680023F059F902000B003000390023F023
:10078000C0F823F0E1F9071C2E1BF600564433682D
:100790009B4625F0DDF9011C584625F0F4F8834608
:1007A0007668381C25F0E8F9011C301C25F0EBF8C0
:1007B000011CA6004644584625F0C5F830600134B7
:1007C000CBE7484601F0E9F8504601F0E6F8039817
:1007D00005B0F0BCBB46B246A946A046F0BD014BF1
:1007E0000393F4E716FCFFFFFFFFFF3F182D44546F
:1007F000FB210940F0B5DE4657464E464546E0B57A
:1008000085B00400019199460932FF321700DD00DE
:1008100045192B689A463B689846191C504625F0A6
:10082000B2F8061C6B687A689346111C0093181C7A
:1008300025F0A9F8011C301C25F085F8061C029053
:100840005946504625F09FF882460099404625F0CB
:100850009AF8011C504625F07BF880460390019BD6
:10086000DB00FF18311C206825F06DF82860414638
:10087000606825F068F86860311C206825F068F829
:1008800020604146606825F063F8606008350834F0
:1008900001235B429C46E1444B46002BB9D105B095
:1008A000F0BCBB46B246A946A046F0BDF0B5DE4658
:1008B00057464E464546E0B59BB005000C910D925B
:1008C0000293842149008C46624493460793009228
:1008D00001921FE04146089B9946181C25F033F809
:1008E00052461060391C099E301C25F031F85246E2
:1008F00050604146484625F02BF82060391C301CDA
:1009000025F021F860600835079B013B0793002B19
:1009100000D1FAE0029BDB009A46AA4452461768CF
:100920005A461468211C381C25F02DF88146524681
:1009300056685A4652689046111C301C25F023F820
:10094000011C484624F0FFFF03900E904146381CDE
:1009500025F019F8071C311C201C25F014F8011C87
:10096000381C24F0F5FF0A900F90029B1E01AE196F
:1009700030688046019A1468211C25F004F8049020
:100980007768019A51688946381C24F0FCFF011CE5
:10099000049824F0D8FF049010904946404624F073
:1009A000F2FF8046391C201C24F0EDFF011C40465C
:1009B00024F0CEFF05901190029B5C009C4664449D
:1009C000E4002C192768009B18688046011C0697D4
:1009D000381C24F0D8FF071C63689946009B5B68AD
:1009E0000893191C484624F0CEFF011C381C24F043
:1009F000AAFF071C12900899069824F0C4FF0690DD
:100A00004946404624F0BFFF011C069824F0A0FF91
:100A1000069013902B6898460499181C24F093FFB5
:100A2000089018906B6899460599181C24F08BFF64
:100A3000099019904146049824F08AFF0B90286091
:100A40004946059824F084FF6860391C039824F017
:100A50007FFF0490149006990A9B9846181C24F076
:100A600077FF81461590391C039824F06CFF071C12
:100A700016900699404624F066FF80461790049928
:100A80000B9824F060FF30604946686824F05BFFF3
:100A900070600C9AD3009B441301019884469C44D7
:100AA00060460190530094466344DB00009A9446EC
:100AB0009C44624600920499286824F049FF28600B
:100AC0004946686824F044FF68600D9A52680392B2
:100AD000002A00D0FEE64146089B9946181C24F0E7
:100AE00037FF53461860391C099E301C24F02BFF39
:100AF000534658604146484624F025FF2060391C83
:100B0000301C24F025FF6060FDE61BB0F0BCBB4646
:100B1000B246A946A046F0BDF0B5DE4657464E4661
:100B20004546E0B595B007000791180005930B0006
:100B3000434308A92133DB00D31830CB30C18423D1
:100B40005B009A469244D346049053460293059B19
:100B5000DC003C19226891465A461668311C48460A
:100B600024F011FF051C626890465A46526892466E
:100B7000111C404624F007FF011C281C24F0E3FE52
:100B8000051C0C905146484624F0FDFE8146414626
:100B9000301C24F0F8FE011C484624F0D9FE0090D9
:100BA0000D90059B1B019946B9444B461B689A461C
:100BB000029B19688846504624F0E5FE061C49460B
:100BC0004868029B59680691039024F0DCFE011CE2
:100BD000301C24F0B8FE061C0E900699504624F0F6
:100BE000D2FE82460399404624F0CDFE011C5046B9
:100BF00024F0AEFE80460F90311C281C24F0A8FE85
:100C0000824610904146009824F0A2FE0390119075
:100C1000311C281C24F097FE051C0A9041460098C0
:100C200024F091FE80460B900798C3009B4403017B
:100C3000029A94469C4463460293386824F06CFF01
:100C400000900191504624F067FF00222D4B22F0C6
:100C500076FE02000B000098019922F040FE22F07F
:100C600073FF2060786824F057FF0090019103988B
:100C700024F052FF0022234B22F061FE02000B0001
:100C80000098019922F02BFE22F05EFF6060099E21
:100C9000311C281C24F077FE051C0A90311C4046AC
:100CA00024F071FE061C0B905146386824F050FE6B
:100CB00038600399786824F04BFE78602168301C16
:100CC00024F046FE4B461860291C606824F03BFE69
:100CD0004B465860311C206824F035FE2060291CEA
:100CE000606824F035FE60600837049B013B049384
:100CF000002B00D02BE715B0F0BCBB46B246A9468E
:100D0000A046F0BD0000E03FF0B5DE4657464E4637
:100D10004546E0B5B3B08046139118001293140015
:100D20000934FF3404940B004343DA00A4466244C0
:100D300016A960CA60C11B01634414AA12CB12C277
:100D4000C300434400930301434403934300844698
:100D50006344DB0043449B46430143449A460023DB
:100D60000293534601934746DEE118AC21003B0055
:100D700021CB21C11193009B19688846139D0292D3
:100D80005543EB00049A9146994449460E68311C3C
:100D9000404624F0F8FD0590009B59688A46494674
:100DA00049688946504624F0EEFD011C059824F060
:100DB000CAFD0590A0604946404624F0E4FD804607
:100DC0005146301C24F0DFFD011C404624F0C0FDDC
:100DD0000690E060039A1668B0462B010499894694
:100DE00099444E463668311C404624F0CCFD0790AD
:100DF000039A51688A46494649688946504624F014
:100E0000C2FD011C079824F09EFD07902061494611
:100E1000404624F0B8FD80465146301C24F0B3FD16
:100E2000011C404624F094FD0A9060615E463668DD
:100E3000B1466B005B19DB00049882469A44514628
:100E40000E68311C484624F09EFD089059464968BA
:100E50008846514649688A46404624F094FD011C64
:100E6000089824F070FD0B90A0615146484624F08C
:100E70008AFD81464146301C24F085FD011C484610
:100E800024F066FD061CE06101990B6898466D012F
:100E900004988246554428688146011C181C24F099
:100EA00072FD089001994B689A466D68291C181CC0
:100EB00024F069FD011C089824F045FD089020628B
:100EC000291C404624F05FFD051C5146484624F08D
:100ED0005AFD011C281C24F03BFD051C6062089A89
:100EE0009046111C059A9246101C24F031FD059085
:100EF000A063291C0698814624F02AFD0690E06331
:100F00004146504624F01FFD08902065291C4846A4
:100F100024F019FD099060650B9B9946191C079BED
:100F20009846181C24F014FD051C2064311C0A9BF3
:100F30009A46181C24F00CFD079060644946404610
:100F400024F001FD0B90A064311C504624F0FBFC02
:100F50000C90E0643E680A95291C059A9046101C86
:100F600024F0F6FC011C301C24F0F2FC38607D6893
:100F7000079B9946191C069824F0EAFC011CAA4616
:100F8000281C24F0E5FC7860169F391C404624F0AC
:100F9000FAFC011C0F96301C24F0DAFC051C149E90
:100FA000B046311C0A9824F0EEFC011C281C24F0E9
:100FB000CFFC0D90A062391C069824F0E4FC011CC3
:100FC00055461095504624F0C3FC051C311C48467C
:100FD00024F0D9FC011C281C24F0BAFC051CE0629A
:100FE000179EB146311C099824F0CDFC061C1599BA
:100FF0008A460C9824F0C7FC011C301C24F0A8FC85
:101000000E9020634946089824F0BDFC8021090613
:10101000461851460B9824F0B6FC011C301C24F0F5
:1010200092FC061C60630E990D9824F08CFC009BCA
:101030001860311C281C24F086FC009B58600E9917
:101040000D9824F085FC01990860311C281C24F0BF
:101050007FFC019948604146059824F094FC011CEE
:101060000F9824F075FC051C391C0A9824F08BFCA1
:10107000011C281C24F06CFC051CA0654146069848
:1010800024F081FC011C109824F062FC061C391C21
:10109000079824F078FC011C301C24F059FC061C35
:1010A000E06549460C9824F06EFC071C51460998EF
:1010B00024F069FC011C381C24F045FC071C206648
:1010C0005146089824F05FFC804649460B9824F06E
:1010D0005AFC011C404624F036FC80466066391CF0
:1010E000281C24F035FC039C20604146301C24F071
:1010F0002FFC6060391C281C24F025FC5D4628600C
:101100004146301C24F01FFC6860119F009B08338F
:1011100000930834039408239C46E3440199083162
:101120000191029A531C0293029A129B9A4200DA8E
:101130001BE633B0F0BCBB46B246A946A046F0BDA4
:10114000F0B5C64600B50500884622F071FC22F0D5
:1011500007FD23F00BF906000F0004241AE0032416
:1011600000E00224200022F063FC32003B0022F069
:1011700047FC00280ED02C000CE02100280022F0B3
:1011800037F9050043461C60083342465060012889
:101190000CDD98462100280022F02AF90029ECD025
:1011A000022CDCD0042CDCD00234DBE780BCB84657
:1011B000F0BDF0B5DE4657464E464546E0B58FB029
:1011C0000A900691099384235B009C4694446346ED
:1011D000049313680593189BD80000F0C5FB029098
:1011E00000230B9367E00B9B0893002307934EE0CB
:1011F000FB00029A914699444B461B689A46E500CB
:10120000049B9C4665442B689846191C504624F064
:10121000BAFB01904B465B6899466B689B46191C6C
:10122000484624F0B0FB011C019824F08CFB051CFF
:101230000C905946504624F0A6FB8246494640464B
:1012400024F0A1FB011C504624F082FB80460D9047
:10125000291C306824F07CFB30604146706824F023
:1012600077FB70600137189B9F4208DA069B039A50
:101270005343E418059BA342BADCE41AB8E7089B81
:10128000099A944663440893079B01330793079B8D
:10129000189A93420CDA089B0393DE000A9B9C4643
:1012A00066443300029A03CA03C300240127DAE725
:1012B0000B9B01330B930B98099FB84210DA002166
:1012C000029B9C460A9B9846189CA1428BDAC2005E
:1012D0004244CB00634460CA60C3C0190131F4E7E3
:1012E000029800F05AFB0FB0F0BCBB46B246A946CC
:1012F000A046F0BDF0B5DE4657464E464546E0B541
:1013000085B003900C0015001F000E9B1A689146D3
:10131000082293469B445B689A464B465246534389
:10132000DB0080469844012A23D0039E0F9B019343
:101330005B4600933B004A466A4321003000FFF7BA
:10134000D9FF2B007B43DB00E4185346DB00F61883
:10135000B045EBD14B46042B2FD018DC022B1FD00D
:10136000032B31D153460F9A29000398FFF7D4FB82
:101370001CE003004146220041CA41C31A002B0071
:101380007B43DB00E41813009142F4D1E2E7052B24
:101390001AD153460F9A29000398FFF7B5FC05E0D0
:1013A00053460F9A29000398FFF724FA05B0F0BCC2
:1013B000BB46B246A946A046F0BD53460F9A290047
:1013C0000398FFF773FAF1E74B46009353460F9AE1
:1013D00029000398FFF7EDFEE8E70000F0B5D646D8
:1013E0004F464646C0B580460C0001002131C90079
:1013F0008A46002B11D0002A14D01968514514D305
:101400005146196091464B46002B40D042461A6027
:101410005C60002C6CD0002732E0080000F0A4FAD9
:101420008146F0E71960914631E052461A60002388
:1014300099462CE0380022F0FBFA2F4A2F4B22F07D
:101440007EFA04000D00404622F0F2FA02000B0082
:101450002000290022F055FA04000D0022F096FB2E
:101460004E460936FF36FB00F61822F06DFB306061
:101470002000290022F0A0FB22F066FB70600137FB
:101480004745D7DB494608314046FFF759FE089BE0
:10149000002B01D052461A604846E0BCBA46B1461D
:1014A000A846F0BD200022F0C3FA134A144B22F0E4
:1014B00046FA06000F00404622F0BAFA02000B007E
:1014C0003000390022F01DFA06000F0022F05EFB0A
:1014D0004D460935FF35E300ED1822F035FB286055
:1014E0003000390022F068FB22F02EFB68600134E6
:1014F0004445D7DBC6E7C046182D4454FB211940AC
:10150000FB2119C0F0B5C64600B582B004000F003B
:1015100015001E0091420CD0030008330190009387
:10152000330001222800FFF7E5FE02B080BCB84678
:10153000F0BD0368D80000F017FA80462300083396
:1015400001940093330001223900FFF7D3FE226893
:10155000D2004146280024F097FD404600F01DFAD5
:10156000E3E710B50123FFF7CDFF10BDF0B5DE4670
:1015700057464E464546E0B585B00D0016001F00A3
:101580000023039301331A0002409046034234D1F2
:1015900044100023009303AB00222000FFF71EFF3E
:1015A00063001B19DA0FD2185210D200039B9C461D
:1015B00062440C239A469244002F24D03B68534542
:1015C00026D353463B60B1464B46002B22D04A46B9
:1015D0000C321A60039BD31849464B60E1005B183C
:1015E00049468B600023009303AB29002000FFF7DE
:1015F000F5FE002D00D185E041E045480AF00CFBE6
:101600000023994645E0504600F0AEF98146DBE7FD
:1016100053463B60002399463BE043465D1C28004F
:1016200022F006FA06000F00200022F001FA020064
:101630000B003000390022F064F90022354B22F013
:1016400057F9354A354B22F07AF906000F0022F09F
:101650009DFA4346DB0098464B469B6843449B46B5
:1016600022F072FA5B4618603000390022F0A4FACA
:101670004B469E68464422F067FA7060A846E30F26
:101680001B195B104345C8DC0E9B002B01D0524652
:101690001A60484605B0F0BCBB46B246A946A04613
:1016A000F0BD6B1C9846180022F0C2F906000F002E
:1016B000200022F0BDF902000B003000390022F0BA
:1016C00020F90022134B22F013F9134A144B22F095
:1016D00036F906000F0022F059FAED004B469B68E0
:1016E0009B46AB4422F030FA5B461860300039006C
:1016F00022F062FA4B469B689C46654422F024FA2D
:1017000068604546E30F1B195B10AB42C9DCBBE7C1
:1017100054C406100000E03F182D4454FB2109403A
:10172000FB2109C0F0B5DE4657464E464546E0B5BA
:1017300093B081460C00009203685B68002B23D1B4
:101740004B461868036805934A4652682100FFF724
:1017500008FF4A4653681D6806955E680796311C67
:10176000281C24F0F5F8009F3860059BDC00BC467F
:101770006444311C281C24F0E6F8206000237B60C0
:10178000636001231C008FE04F480AF045FAD7E759
:101790004B465B68E20001929A180EA8824660CA26
:1017A00060C00D1BED005B191F6810975E688021FB
:1017B00009068C46664411960E998846381C24F01A
:1017C000C7F802900C90504640688246011C301CBD
:1017D00024F0BEF803900D90391C404624F0B3F875
:1017E00080460A90311C504624F0ADF8071C0B903F
:1017F000364EA619F6004B469B689C4666443368F5
:101800009A46191C404624F0BEF804907668B34608
:10181000311C381C24F0B7F8011C049824F093F80C
:10182000061C08905946404624F0ADF880465146C3
:10183000381C24F0A8F8011C404624F089F8071C45
:101840000990311C029B9B46181C24F081F8019BD7
:10185000009A944663449846FC21890524F093F845
:1018600043461860391C039B9A46181C24F070F8F4
:10187000FC21890524F087F843465860311C5846FE
:1018800024F061F8009A94466544FC21890524F00F
:101890007AF828605146381C24F055F8FC21890557
:1018A00024F071F8686001340599CB0F8C466344CD
:1018B0005B10A34200DB6BE713B0F0BCBB46B24643
:1018C000A946A046F0BDC04670C40610FFFFFF1F2A
:1018D0000020704710B52AF00DFB002010BD00005D
:1018E00010B51FF0EBFD002907DB0CD0FA229200A7
:1018F000002321F0E7FD002110BD054B054A3F21E3
:10190000054820F0F3F9FA21890021F099FDF2E76A
:1019100098C40610B4C40610ECC4061010B51FF02D
:10192000CDFD002900DB10BD024B034A3F210348D7
:1019300020F0DCF998C40610B4C40610ECC40610FC
:1019400010B5010001480AF067F910BD34C5061052
:1019500010B524F0E1F802000B0002480AF05CF92F
:1019600010BDC04638C5061010B52AF0DFFE10BD08
:1019700070B500290AD0484304002AF0D7FE051E9E
:1019800005D02200002124F079FB00E0002528008A
:1019900070BD10B5FFF7ECFF10BD10B52AF050FF79
:1019A00010BDF0B5DE4657464E464546E0B589B017
:1019B0000B000791446802944968039152680692AB
:1019C0005B884288924602880592002204929946DA
:1019D0006EE02168286823F0D6FF011C301C23F03C
:1019E000B7FF061C4B469F00E4192168686823F086
:1019F000CAFF011C301C23F0ABFF061CE419216850
:101A0000A86823F0C0FF011C301C23F0A1FF061CB6
:101A1000E41910239C46AC4463460093E8682168AF
:101A200023F0B1FF011C301C23F092FF061CE419C7
:101A3000012252429446E044009D4346002BC8D107
:101A4000032753461F400CE001CD216823F09BFF84
:101A5000011C301C23F07CFF061C4B469B00E41845
:101A6000013F002FF0D1019B40C301225242944616
:101A7000E3444A465946541AA400039A94466444DF
:101A8000002906D0019353469B089846029D0026E4
:101A9000D3E7049B4B44049353469B00029A94461D
:101AA0009C4463460293059B013B0593002B09D0A0
:101AB000049B9B00069A944663440193079B5C68D1
:101AC000CB46E0E7002009B0F0BCBB46B246A946D1
:101AD000A046F0BDF8B5CE46474680B50E1C44681A
:101AE0005568038847885F43B946BF081BE0311C2F
:101AF000206823F048FF2860311C606823F043FF12
:101B00006860311CA06823F03EFFA860102398464F
:101B1000A044E0682C001034311C23F034FFE8604E
:101B2000013F25004446002FE1D103374B461F40BB
:101B300005E001CC311C23F026FF01C5013F002F39
:101B4000F7D10020C0BCB946B046F8BDF0B5CE46CE
:101B5000474680B50300426849688C4600885E8825
:101B600005000023984620E01168196081005B1889
:101B700054681C605B1894681C605B18D4681C6017
:101B80005B18013F1032002FEED10321314004E0F9
:101B900080CA1F608700DB1901390029F8D10123B1
:101BA0009946C844013D002D04D043469B00634440
:101BB000B708E8E70020C0BCB946B046F0BDF0B5B4
:101BC000DE4657464E464546E0B583B08A4600920B
:101BD0000193040020CC01235B4253449B469F08A1
:101BE00000260023984602E00436013F4C46002FB1
:101BF0002ED023689946191C281C23F0FDFE0028CE
:101C000002D0731C98464D4663689946191C281CDF
:101C100023F0F2FE002802D0B31C98464D46A3687C
:101C20009946191C281C23F0E7FE002802D0F31C5B
:101C300098464D4610239946A144E468211C281C6F
:101C400023F0DAFE0028CFD0331D9846251CCBE7C1
:101C500003265B461E4000E0013E002E0BD080CCE8
:101C6000391C281C23F0C8FE0028F5D053469B1BC6
:101C700098463D1CF0E7009B1D60019B42461A60A0
:101C800003B0F0BCBB46B246A946A046F0BDF0B5D5
:101C9000DE4657464E464546E0B583B08A4600923A
:101CA0000193040020CC01235B4253449B469F08D0
:101CB00000260023984602E00436013F4C46002FE0
:101CC0002ED023689946191C281C23F0ABFE00284F
:101CD00002D0731C98464D4663689946191C281C0F
:101CE00023F0A0FE002802D0B31C98464D46A368FE
:101CF0009946191C281C23F095FE002802D0F31CDD
:101D000098464D4610239946A144E468211C281C9E
:101D100023F088FE0028CFD0331D9846251CCBE742
:101D200003265B461E4000E0013E002E0BD080CC17
:101D3000391C281C23F076FE0028F5D053469B1B47
:101D400098463D1CF0E7009B1D60019B42461A60CF
:101D500003B0F0BCBB46B246A946A046F0BDF8B5FC
:101D6000CE46474680B50400894690468F08002538
:101D700023E02168081C23F006FE291C23F0E8FD5F
:101D8000051C6168081C23F0FEFD291C23F0E0FD02
:101D9000051CA168081C23F0F6FD291C23F0D8FDC2
:101DA000051C26001036E068011C23F0ECFD291C00
:101DB00023F0CEFD051C013F3400002FD9D103379D
:101DC0004B461F4009E001CC011C23F0DCFD011C47
:101DD000281C23F0BDFD051C013F002FF3D1484610
:101DE00023F031FE011C281C23F0B7FD041C002148
:101DF00023F010FE002808D0201C23F097FE434655
:101E00001860C0BCB946B046F8BD00234246136016
:101E1000F7E7F8B5CE46474680B505000C0090467A
:101E200096082BE00023E85E23F012FEE0218905EE
:101E300023F0A9FD20600223E85E23F009FEE021E3
:101E4000890523F0A0FD60600423E85E23F000FE16
:101E5000E021890523F097FDA06008239946A94455
:101E60000623E85E23F0F4FD27001037E021890502
:101E700023F089FDE060013E4D463C00002ED1D1AB
:101E80000322474617400BE0AE1C0023E85E23F018
:101E9000DFFDE021890523F076FD01C4013F350017
:101EA000002FF1D1C0BCB946B046F8BDF0B5C6466A
:101EB00000B5884600251BE06B009C5AA4086B1CEB
:101EC0005B009B5A9B08A700C7193E68B4469E005A
:101ED000861931683960614631600134A400041903
:101EE000266801339B00C318196821601E60023503
:101EF000A845E1D880BCB846F0BDF0B5DE465746EF
:101F00004E464546E0B5A5B0050012900800139175
:101F10002B889A000C008C466244110010926A686B
:101F200090465A081192920085188A469244DB081E
:101F30000093894657462EE123689A4620936368AA
:101F400001932193A26802922292E1680391239166
:101F50004846006883461C904846406804901D909F
:101F60004E46B66805961E964B46DE681F962B6851
:101F70000C9318936A680D921992A96806911A91A8
:101F8000E8680E901B903B68079314937A68089258
:101F90001592B96809911691F8680A9017905946F8
:101FA000504623F0D5FC20600499019823F0D0FC22
:101FB00060600599029823F0CBFCA06010239C463A
:101FC000A44463460F93311C039823F0C1FCE060E6
:101FD0005946504623F0B7FC0B901C900499019889
:101FE00023F0B1FC01901D900599029823F0ABFC01
:101FF00002901E90311C039823F0A5FC061C1F9034
:1020000007990C9B9B46181C23F0A2FC286008999A
:102010000D9B9A46181C23F09BFC68600999069852
:1020200023F096FCA86010229446AC4462460492C9
:102030000A990E9C201C23F08BFCE86059460798F7
:1020400023F081FC834614905146089823F07BFCD2
:10205000824615900699099823F075FC0390169016
:10206000211C0A9823F06FFC0590179041460C68DC
:102070004D68211C0B9823F086FC0690291C0198C2
:1020800023F081FC0790211C019823F07CFC019037
:10209000291C0B9823F077FC08900799069823F0E9
:1020A00057FC494608600899019823F04CFC4946C2
:1020B0004860291C584623F066FC0190211C5046BC
:1020C00023F061FC0690291C504623F05CFC051CA3
:1020D000211C584623F057FC041C0699019823F054
:1020E00032FC3860211C281C23F032FC7860414609
:1020F0008C68102141448A464146CD68211C0298D3
:1021000023F041FC8046291C301C23F03CFC834614
:10211000211C301C23F037FC061C291C029823F0DC
:1021200032FC01905946404623F012FC4946886033
:1021300010234B449B460199301C23F004FC494674
:10214000C860291C039823F01EFC061C211C059A5C
:102150009146101C23F017FC8046291C484623F0AA
:1021600012FC051C211C039823F00DFC041C4146A5
:10217000301C23F0E8FBB8603E001036211C281C00
:1021800023F0E6FBF860009B013B0093D046D94664
:102190003700049D0F9C009B002B00D0CCE66B46C3
:1021A00044229B181C88129D6B6800930223009A9E
:1021B0002100139800F034FC6A6802232100109873
:1021C00000F02EFC25B0F0BCBB46B246A946A046A6
:1021D000F0BDF0B5DE4657464E464546E0B5AFB0D9
:1021E000050021900C0003885B089A008C469444FB
:1021F00066469444614694446046371F01970F1F1A
:1022000002971C90071F0397BC46624404926A68B9
:1022100093465A0820921D9424680F000D68291CCB
:10222000201C23F095FB8246291C201C23F08BFBED
:1022300080461D9C64681F977D68291C201C23F024
:1022400087FB0590291C201C23F07DFB81467568C7
:102250004146281C23F07CFB1C9B5C68211C23F05E
:1022600072FB07902A901E963768391C484623F067
:102270006AFB1C9B1E68311C23F06AFB08902B90A4
:10228000391C52460692504623F05DFB311C23F068
:102290005AFB82462690291C059823F054FB211CEA
:1022A00023F051FB09902790291C404623F04BFB5B
:1022B000011C201C23F04CFB051C22904946381CB5
:1022C00023F046FB311C23F03EFB041C23900699AF
:1022D000381C23F03DFB011C301C23F039FB1D9EF4
:1022E00030601E9F78680690059923F031FB1C9B97
:1022F0005B6805930836191C23F02AFB1D9A506071
:10230000079939600820BC46604480460899796086
:102310001F9F514639600821BC4661448A4609998D
:1023200079601C9805600821844661444460082354
:102330005B44139310235B44149308331593209A42
:10234000931E5B08059344468846D146DEE1356816
:102350004B461F68391C281C23F0FAFA0690391CDA
:10236000281C23F0F0FA824675684B465F68391CDA
:10237000281C23F0EDFA0790391C281C23F0E3FAFF
:10238000051C63689B46534608935146584623F004
:10239000DFFA43465B689A46191C23F0D4FA099089
:1023A0002A902768391C0D95281C23F0CCFA424648
:1023B0001568291C23F0CCFA0A902B90391C06983A
:1023C00023F0C1FA291C23F0BEFA0B90269059463F
:1023D000079823F0B8FA514623F0B5FA17902790E2
:1023E0005946089823F0AFFA011C504623F0B0FA82
:1023F0000C9022900D99381C23F0AAFA291C23F086
:10240000A2FA189023900699381C23F0A1FA011C17
:10241000281C23F09DFA30600799606823F098FA31
:1024200008218C46B444614616914546696823F0FC
:102430008FFA7060019D2E1F3568039B181F83461D
:102440000768391C281C23F083FA0D90391C281CBE
:1024500023F079FA0E90019D2D68039B1F68391CAB
:10246000281C23F075FA0F90391C281C23F06BFAF6
:102470008246029F3968081C049A1568291C069038
:1024800023F061FA0E991A9023F062FA10902C90C2
:10249000043F3968079153461993504623F053FA85
:1024A000049A131F9A461B680893191C23F050FACC
:1024B00011902D9007990D9823F045FA089923F073
:1024C00042FA1B90289006990F9823F03CFA291C99
:1024D00023F039FA129029900E991A9823F033FAC2
:1024E0000E9024900799089823F02DFA199923F05B
:1024F0002AFA199025900F99069823F029FA011CC1
:10250000281C23F025FA019D28600D99386823F0D6
:102510001FFA083D01955546296823F019FA3060E5
:10252000139805680600083606964668291C09981F
:1025300023F029FA0790311C0A9823F024FA089016
:10254000291C0A9823F01FFA0A90311C099823F0DD
:102550001AFA09900899079823F0FAF920600821DF
:102560008C46A4446146079109990A9823F0EBF937
:102570006060311C119823F006FA041C291C109885
:1025800023F001FA0890311C109823F0FCF9061C86
:10259000291C119823F0F7F9051C0899201C23F039
:1025A000D2F9029A1060083A0292291C301C23F0DA
:1025B000CFF93860149F3D687C6810371497291C48
:1025C0000B9823F0E0F90890211C179F381C23F08A
:1025D000DAF90990291C381C23F0D5F9061C211CB6
:1025E0000B9823F0D0F9071C0999089823F0B0F94B
:1025F00049460860082149440891391C301C23F0E1
:10260000A2F94F46786080273F06129EB446674481
:102610003800291C23F0B7F9061C211C1B9FB94662
:10262000381C23F0B0F9071C291C484623F0ABF9ED
:10263000051C211C129823F0A6F9041C391C301C1F
:1026400023F081F9039B1860083B0393291C201C8D
:1026500023F079F95F463860159F3C687D6818372C
:102660001597211C0C9823F08EF98346291C189F7E
:10267000381C23F088F98146211C381C23F083F98B
:10268000061C291C0C9823F07EF9071C4946584665
:1026900023F05EF943461860082343449946391CE9
:1026A000301C23F050F947467860291C199A93464C
:1026B000101C23F068F9061C211C0E9B9846181C60
:1026C00023F061F9071C291C404623F05CF9051C26
:1026D000211C584623F057F9041C391C301C23F0E8
:1026E00032F90499086008390E00211C281C23F0D7
:1026F0002FF957463860059F013F0597C84608994E
:102700008946079C069813900496169E059B002BFD
:1027100000D01CE6CA46C146A046346853461D6830
:10272000291C201C23F014F90190291C201C23F0E3
:102730000AF90290746853465D68291C201C23F036
:1027400007F90390291C201C23F0FDF8071C4346C1
:102750005B689B460299181C23F0FAF84B465D68AB
:10276000291C23F0F0F804902A9042461468211C9A
:102770000797381C23F0E7F84A461768391C23F0FE
:10278000E7F805902B90211C019823F0DCF8391C08
:1027900023F0D9F8069026905946039823F0D3F8F1
:1027A000291C23F0D0F8089027905946029823F06E
:1027B000CAF8011C281C23F0CBF883462290079905
:1027C000201C23F0C5F8391C23F0BDF8029023909B
:1027D0000199201C23F0BCF8011C381C23F0B8F828
:1027E000306003994046406823F0B2F84946496892
:1027F00023F0AEF8706013990E684F68311C04988E
:1028000023F0C1F8041C391C059823F0BCF8051C02
:10281000311C059823F0B7F8061C391C049823F0E6
:10282000B2F8071C291C201C23F092F841460860CE
:10283000391C301C23F087F84146486014990E6813
:102840004F68311C069823F09EF8041C391C089A26
:102850009046101C23F097F8051C311C404623F0CD
:1028600092F8061C391C069823F08DF8071C291CC9
:10287000201C23F06DF853461860391C301C23F0DF
:1028800062F853465860159B1E685F68311C5846B5
:1028900023F079F8041C391C029B9846181C23F07D
:1028A00072F8051C311C404623F06DF8061C391CDB
:1028B000584623F068F8071C291C201C23F048F810
:1028C0004B461860391C301C23F03DF84B465860CD
:1028D0006B4680229B181C88219D6B680193042302
:1028E000019A21001D9800F09BF86B680193042366
:1028F000019A21001E9800F093F86B68019304235D
:10290000019A21001F9800F08BF86A6804232100C7
:102910001C9800F085F82FB0F0BCBB46B246A94623
:10292000A046F0BDF0B5D6464F464646C0B58046F7
:102930000C0091469A4605882F00012A14D0802366
:102940005B009D4222D026D8402D2DD01AD9802D53
:102950003AD05346002B3CD14B46012B40D0E0BC33
:10296000BA46B146A846F0BD0431002307E00A6824
:1029700080200006844662440A6008310133BB426D
:10298000F5D3DCE7102D1FD0202DE2D121004046E9
:10299000FFF71FFCDDE780231B019D42F6D00BD91A
:1029A00080235B019D42D4D1012342465268290015
:1029B000200000F035F8CCE780239B009D42F3D047
:1029C0008023DB009D42C4D121004046FFF795FAE9
:1029D000BFE743469A6899892000FFF767FABBE78B
:1029E000280023F030F8011CFE20800522F0B5FFFE
:1029F000061C002510E0311C206822F0C4FF206076
:102A0000636880221206944663441800311C22F049
:102A1000BAFF606008340135BD42ECD39FE7000087
:102A2000F0B5DE4657464E464546E0B5B1B02F926A
:102A30002E93239122918046229BDB082193002331
:102A4000019301980100219A944661448946170038
:102A50004F44D51953199C446146160005916644AC
:102A60009446B44462460992C2000392140044445E
:102A70002268DB000493190041448A460B689B4698
:102A8000191C0292101C22F063FF10905946029804
:102A900022F059FF02904B46DB009B4643465B44C5
:102AA0000A931A689146059BDB0005931A0042447D
:102AB0000B9211680691484622F04AFF1190069940
:102AC000484622F040FF1290FF00069747440C97BB
:102AD0003F68F600079646440D9631688946381CD3
:102AE00022F036FF061C4946381C22F02CFF1390BA
:102AF000ED00089545440E952F680999C900099184
:102B000041440F910A689146111C381C22F020FFA5
:102B1000051C4946381C22F016FF1490311C109BEE
:102B20009946181C22F00FFF1590311C484622F0E0
:102B30000FFF061C291C119B9946181C22F003FF4D
:102B40001690291C484622F003FF051C011C301C6E
:102B500022F0FEFE2060291C301C22F0F4FE5446B8
:102B60002060039C043444442568049F3B1D9C461C
:102B7000C444674610973E68311C281C22F0E8FECA
:102B80000390311C281C22F0DEFE04905A46131DCF
:102B90009C46C444624611921568059B04339A46CC
:102BA000C24457463E68311C281C22F0D1FE0590D5
:102BB000311C281C22F0C7FE1790069B1F1D47449E
:102BC0003D68079B1E1D464433689946191C281C06
:102BD00022F0BEFE06904946281C22F0B4FE079063
:102BE000089D0435AB46C3445D462D68099A131D04
:102BF0009946C144494609680991281C22F0A8FE5B
:102C000008900999281C22F09EFE099006990398C5
:102C100022F099FE051C0699039822F099FE039074
:102C20000899059822F08FFE06900899059822F0E1
:102C30008FFE0590011C039822F08AFE2060059902
:102C4000039822F080FE109C20600699159C201CA1
:102C500022F07EFE0C9B18600699201C22F073FE69
:102C60000D9B1860169C211C281C22F06CFE3860FD
:102C7000291C201C22F06CFE3060149E311C129C1A
:102C8000201C22F060FE634922F07DFE051C311CF1
:102C9000201C22F05DFE5F4922F075FE041C09999C
:102CA000179F381C22F04FFE5A4922F06CFE061C7A
:102CB0000999381C22F04CFE564922F064FE03901C
:102CC000291C029822F03FFE071C291C029822F0C2
:102CD0003FFE0290211C139D281C22F034FE05901B
:102CE000211C281C22F034FE051C311C049822F003
:102CF0002AFE041C311C049822F02AFE061C0399AB
:102D0000079822F020FE04900399079822F020FEF5
:102D10000390011C029822F01BFE0A9B1860039985
:102D2000029822F010FE0F9908600499381C22F0D6
:102D30000FFE0B9A10600499381C22F004FE0E9BC3
:102D40001860291C301C22F0FEFD119A1060311C05
:102D5000281C22F0FDFD4B461860059D291C201CF7
:102D600022F0F1FD53461860211C281C22F0F0FDD2
:102D70005B4618600198229B9C4660440190239B0F
:102D8000834200D95DE6219B072B00D8DCE20123BA
:102D90002C9300232D93C3462D9D2E9B9C4665446A
:102DA0002D956B00AC466344E81829186A18A846AC
:102DB0009044EE002F9FBC5908942D017C59099432
:102DC000DB009C46FC582494C0003C580A94C9007F
:102DD0007C582594D200BC5826944346DC003B59CD
:102DE0000B930436BB590C9304357B5927936346E8
:102DF0000433FB582893043038580D900431795827
:102E000029910432BA582A9204343B592B932C9BB3
:102E1000019301E0F304353F01980100219A9446A3
:102E20006144894617004F44D51953199046984478
:102E300016004644B44462460392C2000492140051
:102E40005C4421688A46DB0005931A005A440E92BE
:102E500011680291504622F07BFD1790029950466E
:102E600022F071FD19904946C900069159440F910D
:102E70000B6899464346DB0007935B441093186840
:102E80008246011C484622F063FD80465146484672
:102E900022F059FD1A90FF00BA465F465744119739
:102EA0003F68F60012965E44139630688146011C16
:102EB000381C22F04DFD061C4946381C22F043FD0B
:102EC0001B90ED0014952F005F4415973D68039FFC
:102ED000FF00BC46DC446046169001688946281C09
:102EE00022F036FD03904946281C22F02CFD1C9050
:102EF000311C179B9946181C22F025FD0290311CAD
:102F0000484622F025FD061C039B9946191C4046A5
:102F100022F019FD1D904946404622F019FD051C7E
:102F2000011C301C22F014FD2060291C301C22F0F2
:102F30000AFD0390049C251D5D442E68059B1C1D05
:102F40005C4422689046111C301C22F001FD1E904A
:102F50004146301C22F0F7FC1F90069B04339C4630
:102F6000DC44634617931E68079B04339C46DC448D
:102F70006346189319688846301C22F0E9FC0490D7
:102F80004146301C22F0DFFC209051460E1D5E446D
:102F900031688946129B04339846D84441460968F3
:102FA0008A46484622F0D4FC05905146484622F015
:102FB000CAFC0690149B04339A46DA4451460968C9
:102FC00089463B1D9C46DC44674612973F68391C86
:102FD000484622F0BDFC0790391C484622F0B3FC5D
:102FE000149005991E9F381C22F0ADFC814605996E
:102FF000381C22F0ADFC071C0799049822F0A3FCB2
:1030000005900799049822F0A3FC04900599029872
:1030100022F09EFC07900599029822F094FC029001
:103020000499381C22F094FC28600499381C22F082
:103030008AFC04901D9D291C484622F084FC071C34
:103040004946281C22F084FC051C03990A9822F0AA
:103050009AFC814604990D9822F095FC05900499FC
:103060000A9822F090FC049003990D9822F08BFCB2
:1030700003900599484622F06BFC0E9A1060039964
:10308000049822F060FC20600799099822F07BFCEC
:10309000041C391C279B9946181C22F074FC0390D1
:1030A000391C099822F06FFC071C0799484622F04A
:1030B0006AFC81460399201C22F04AFC119C206086
:1030C0004946381C22F03FFC30600299269F381C8C
:1030D00022F059FC041C291C2A9B9946181C22F03A
:1030E00052FC061C291C381C22F04DFC051C0299C0
:1030F000484622F048FC071C311C201C22F028FC0A
:10310000139E3060391C281C22F01DFC44462060B0
:103110001C9B9846191C1A9C201C22F014FC8E49FA
:1031200022F031FC061C4146201C22F011FC8A4989
:1031300022F029FC051C149B9846191C209C201C7D
:1031400022F001FC844922F01EFC071C4146201C91
:1031500022F0FEFB804922F016FC041C311C199B56
:103160009946181C22F0EFFB8046311C484622F09D
:10317000EFFB0290291C1B9E301C22F0E4FB039005
:10318000291C301C22F0E4FB061C391C1F9B9946AD
:10319000181C22F0D8FB051C391C484622F0D8FB2D
:1031A000071C211C069822F0CEFB8146211C0698A4
:1031B00022F0CEFB0490011C029822F0C9FB041CF3
:1031C0000499029822F0BFFB02904946404622F043
:1031D000BFFB04904946404622F0B5FB8146311CB6
:1031E000381C22F0B0FB8046391C301C22F0B0FBAA
:1031F000071C0399281C22F0A6FB061C291C039817
:1032000022F0A6FB0390211C089822F0BCFB051CB1
:1032100041460C9822F0B7FB05904146089822F0F1
:10322000B2FB8046211C0C9822F0ADFB041C0599D2
:10323000281C22F08DFB0F990860211C404622F0CB
:1032400082FB179B186002990B9822F09CFB041CD0
:10325000391C2B9B9846181C22F095FB051C391C29
:103260000B9822F090FB071C0299404622F08BFB42
:103270008046291C201C22F06BFB169908604146F1
:10328000381C22F060FB129908600499259F381CB5
:1032900022F079FB041C311C299B9846181C22F053
:1032A00072FB051C311C381C22F06DFB061C0499B6
:1032B000404622F068FB071C291C201C22F048FB1A
:1032C000109A1060391C301C22F03DFB189B1860CE
:1032D0004946249F381C22F056FB041C039E311CD7
:1032E000289B9846181C22F04EFB051C311C381CEC
:1032F00022F049FB061C4946404622F044FB071CCD
:10330000291C201C22F024FB159D2860391C301C30
:1033100022F019FB534618600198229B9C4660449A
:103320000190239B834200D976E52C9B01332C939B
:10333000219A9A4200D92FE5D8462E9BDB009BB2FA
:103340002E932292FFF778FB31B0F0BCBB46B24619
:10335000A946A046F0BDC046F304353FF0B5DE46B1
:1033600057464E464546E0B587B00C001500436908
:103370000288013A00924F680821884698442168E3
:10338000081C22F0E5FA061C391C381C22F0E0FA71
:10339000071C011C301C22F0DBFAFC21890522F0FD
:1033A000F2FA2860391C301C22F0CDFA2F000837C1
:1033B000FC21890522F0E7FA6860009BDE00A6196F
:1033C0000834B1464646A0461D004B465C681A6864
:1033D000434619685B68009330688346706882468C
:1033E000083604910392101C22F0ADFA0190009966
:1033F0000294201C22F0ACFA041C0199584622F0D9
:10340000C2FA05900199504622F0BDFA0190211CA4
:10341000584622F0B8FA8346211C504622F0B3FAEF
:10342000041C0499039822F093FA059922F090FA6B
:10343000211C22F08DFAFC21890522F0A4FA3860C3
:103440000299009822F07FFA019922F081FA5946F8
:1034500022F079FA3C000837FC21890522F093FA22
:10346000606008239C46E044103B9C46E144013DDB
:10347000002DAADC07B0F0BCBB46B246A946A04668
:10348000F0BDF0B5DE4657464E464546E0B589B03C
:103490000D00160044690388013B99460F684B688C
:1034A00098460834191C381C22F052FAFC21890570
:1034B00022F069FA30604146381C22F044FA0823B1
:1034C0009846B044FC21890522F05DFA70604B46B5
:1034D000DF00EF1908353B002F00464698465AE0BA
:1034E00043465B680193424612683D6879680291E1
:1034F0002068824608208446A4446046059063689C
:103500009B460392111C0495281C22F01CFA051CF2
:103510000299019822F01CFA041C291C504622F042
:1035200032FA0690211C584622F02DFA0790291CE9
:10353000584622F028FA051C211C504622F023FA96
:10354000041C0499039822F003FA069922F0FBF96F
:10355000079922F0F8F9FC21890522F014FA30606D
:103560000199029822F0EFF9291C22F0F1F9211CAF
:1035700022F0E9F935000835FC21890522F003FA2B
:103580007060083708235B429C46E04407339C4642
:10359000E144059C2E004B46002BA1DC09B0F0BC99
:1035A000BB46B246A946A046F0BDF8B504000E00E1
:1035B00017001D1E08D0FFF764FF01232A00390001
:1035C0002000FFF7AFF9F8BD01232A00FFF7AAF9A1
:1035D0003A0031002000FFF7C1FEF4E7102823D89D
:1035E0008000134B1B589F46124870471248FCE757
:1035F0001248FAE71248F8E71248F6E71248F4E7EB
:103600001248F2E71248F0E71248EEE71248ECE7FA
:103610001248EAE71248E8E71248E6E71248E4E70A
:103620001248E2E71248E0E71248DEE71248DCE71A
:1036300090CF061088CF061004CF06100CCF0610CE
:1036400014CF06101CCF061024CF06102CCF061066
:1036500034CF06103CCF061044CF061050CF0610D2
:103660005CCF061064CF06106CCF061074CF061026
:1036700080CF0610ECCE0610FCCE0610F0B583B05D
:1036800004000D0017001E000022002320F09AF90C
:10369000002804D000233B60336003B0F0BD32004B
:1036A0002000290068F0A4FD00221D4B20F047F9FE
:1036B00020F00EFE20F01CFA04000D1E14DC002980
:1036C0000ED080231B069C4210D0002D26DC21D07A
:1036D00033681F3302DA0023336000243C60DCE7E8
:1036E00080231B069842ECD95AF052FB002DECD1F6
:1036F000EA0F002312196B411C001300E10700932D
:103700000194520811430C00019B5D103368013392
:103710003360DAE780231B069C42D9D35AF038FB8A
:103720000000E041F8B506000F0015001C00002263
:10373000094B20F065F9002809D023002A00300049
:103740003900FFF79BFF2368002B02DBF8BD5AF01E
:103750001FFB5AF01DFBC0460000F03F30B585B09E
:1037600020F0EDF804000D0080200006089BD840F2
:1037700020F05EF922002B0020F0E1F8009001918A
:10378000094A0A4B0292039320F03AF9002808D123
:103790006B46186859680A9B099AFFF7C3FF05B082
:1037A00030BD02ABF5E7C0460000C0FFFFFFDF41C0
:1037B000F0B5C64600B503000C0001209840013862
:1037C000D21A20235B42D3182BD401259D4001231C
:1037D0009340984620F02CF906000F00404629003F
:1037E00020F07AF902000B003000390020F0A7F831
:1037F00006000F0020235B42E31817D401219940F3
:103800000120A04020F068F902000B0030003900D0
:1038100020F077F820F0AAFD20F022F980BCB8460D
:10382000F0BD20239B1A0125DD40D0E720231B1B80
:103830000121D940E4E7000030B58BB0019100923E
:10384000DD681C690395049401280AD0032820D060
:10385000022845D00E9B019A1A600F9B009A1A60AD
:1038600013E0291C002022F078F822F05FFA22F001
:1038700011F924180594019BA34208DB01AB1B68D6
:103880000E9A13600F9B009A1A600BB030BD05AB07
:10389000F5E7291C002022F060F822F047FA22F018
:1038A000F9F820180690019B834215DB01AB1B68D9
:1038B0000E9A1360291C1E4822F04FF822F036FAA7
:1038C00022F0E8F824180794009BA34206DC6B461C
:1038D0001B680F9A1360D8E706ABE8E707ABF7E77A
:1038E000291C144822F039F822F020FA22F0D2F8EC
:1038F00020180890019B834216DB01AB1B680E9ACF
:103900001360291CFE20800522F027F822F00EFA11
:1039100022F0C0F824180994009BA34206DC6B46F1
:103920001B680F9A1360B0E708ABE7E709ABF7E74E
:103930000000C040000080BF10B50B6802CB002A19
:1039400010DB8A4210DA920099584B1C0ED00029E5
:103950000EDB8368002B02D08801181810BD036DA0
:103960009847FBE70020F9E70020F7E70020F5E79C
:103970000020F3E710B54B6802CB002A10DB914220
:1039800010DD920099584B1C0ED000290EDB836885
:10399000002B02D08801181810BD036D9847FBE773
:1039A0000020F9E70020F7E70020F5E70020F3E723
:1039B00010B5FFF7C1FF10BDF0B5C64600B582B027
:1039C00080461D00C868D16821F0DDFF041C22F08C
:1039D000A3F806000F000021201C22F01BF800288D
:1039E00010D0E86822F098F802000B00300039008F
:1039F0001FF087FF089B18605960002002B080BC50
:103A0000B846F0BD43465C695223044A0092FF3336
:103A1000034A04494046A0470120EFE764D006105E
:103A2000D4CF06104CD00610F0B5C64600B584B011
:103A300080460D0016001C000A9FC86822F06CF832
:103A400002900391F06822F067F802000B000298E0
:103A500003991FF074FF02900391002C1AD0E068C4
:103A600022F05AF802000B00029803991FF037FF6A
:103A700002904C006408F86822F04EF802000B0037
:103A8000029821001FF03DFF0E4A0F4B1FF0A8FFC8
:103A900000280BD00B9B00933B00320029004046CE
:103AA000FFF78AFF04B080BCB846F0BD43465C69AE
:103AB000A223064A00925B00054A06494046A047F9
:103AC0000120EFE77B14AE47E17A943F80D00610E7
:103AD000D4CF06104CD0061030B583B00D001400C2
:103AE0001278032A0DD0092A0ED0072A19D044696A
:103AF000C2230D4A00925B000C4A0D49A0470120E9
:103B00000DE0FF22002102E07F2280214942069839
:103B10000190009323002800FFF78EFE002003B0E1
:103B200030BD044A0449F2E7A4D00610D4CF0610F1
:103B30004CD00610FF7F00000080FFFFF0B5DE468E
:103B400057464E464546E0B58DB004000D00049240
:103B500005933023CE5C012E14D045692F3B03938F
:103B600002967E4B01937E4B0093E0237D4A7E4973
:103B7000A847012630000DB0F0BCBB46B246A946AE
:103B8000A046F0BD3023049AD75C012F0CD04569C4
:103B90002F3B03930297714B0193744B0093E223E5
:103BA000704A7149A847E5E7049B5B6B002B15D071
:103BB0001A689146002A1AD012689346012A5DDDE0
:103BC0000A78092A1CD0072A1AD04569684B009345
:103BD000F223644A6749A8473E00CBE74569664B34
:103BE0000093ED235F4A6349A8473E00C2E7456959
:103BF000624B0093EE235B4A5E49A8473E00B9E75B
:103C0000049A1278092A0ED0656909230393029257
:103C10005B4B01935B4B0093F423524A52492000C3
:103C2000A8473E00A6E71E9A93450ED06569039209
:103C30005B460293544B0193544B0093F523494A3E
:103C400049492000A8473E0094E7049A92680692EA
:103C50009B689B00944663445B681E9A93420DD018
:103C60006569039302924A4B0193474B0093F623F5
:103C70003C4A3D492000A8473E007BE7EB6806939D
:103C8000169BDB689A464B460433079300235F4636
:103C90001E00A346A84623E04B46586821F03CFF8F
:103CA00004000D00069821F037FF22002B001FF0C2
:103CB00046FE04000D00504621F02EFF02000B00CE
:103CC000200029001FF01DFE0AAB09AAFFF7D6FC51
:103CD000B3001C9A0999D1501D9A0A99D150013606
:103CE0001E9B9E4205DA012FD6DDB300079AD058FD
:103CF000D4E75C4645462B78032B08D02B78092B5C
:103D000021D0032B1FD0072B1DD0002632E7002225
:103D100000230A920B930AAB0193169B0093059B19
:103D2000049A41465846FFF77FFE061E00D021E761
:103D300009AB189A0A980B99FFF7A0FC099B5B4204
:103D4000199A1360DAE7179B19781B9B00931A9B4B
:103D5000169A2000FFF7C0FE06000BE7C8D0061039
:103D6000E4D00610D4CF0610ACD0061000D1061057
:103D70004CD106104CD006101CD1061030D10610C4
:103D800088D1061094D10610A4D10610B4D1061023
:103D9000D8D1061070B582B005000E1E0DD0941B50
:103DA00001940F2C0ED82868012C14D0002C14D0AC
:103DB0002200310022F068F90FE09142EFD00B4869
:103DC0003AF0C4FF002201A9280045F081FF2860D5
:103DD000019BAB60E7E733780370019A6A602B6858
:103DE0009B1800221A7002B070BDC04618D206108F
:103DF00010B5002801D0006810BD59F0C9FF002897
:103E000000D00068704710B5002801D0006810BDD0
:103E100059F0BEFF002800D00068704710B5002898
:103E200001D0006810BD59F0B3FF002800D0006831
:103E30007047704708407047084170474018704706
:103E4000C043704710B5002802D00020FFF7F8FFEC
:103E500010BD10B50123884200DB00231800FFF7D6
:103E6000F1FF10BD10B50123884200DC00231800CB
:103E7000FFF7E8FF10BD0000012808D003280BD091
:103E800002280ED00A4B0B600A4B136003E000239C
:103E90000B60084B1360704700230B60064B1360E8
:103EA000F9E7064B0B60FE239B051360F3E7C04662
:103EB000FFFF7FFFFFFF7F7F0000C040000080BF4B
:103EC00010B5002801D0006810BD59F061FF10B591
:103ED000836B002B02D03421984710BD59F058FF56
:103EE000F0B5DE4657464E464546E0B5A3B00F0056
:103EF00003929B462D9B0A21425E13920C21425E47
:103F000014920E21425E05921021425E0A92022115
:103F1000425E15920421425E1692026B1092426B31
:103F20000E923A68042A00D080E05A461268042AA9
:103F30007ED12F9A12680092042A7BD13A68002A17
:103F40007ADD052A7ADD7A6812682F9909680029D6
:103F500076DD052976DD2F9949680968914274D18B
:103F600021922F990968002971DD052971DD2F99AA
:103F70004968096820918A426EDC21AA126817926A
:103F80003A68032A6ADD052A6ADD7A68D2685946EA
:103F90000968032966DD052966DD59464968C9684F
:103FA000914264D11F9259460968032961DD0529B0
:103FB00061DD59464968C9681E918A425EDC1FAAC4
:103FC000126802925A461268002A59DD052A59DD04
:103FD0005A46526812682F990968032955DD052948
:103FE00055DD2F994968C968914253D11D922F9987
:103FF0000968032950DD052950DD2F994968C968F2
:104000001C918A424DDC1DAA12680F922E9A002A3A
:104010004ED01868052846DD5B68002201219042D9
:1040200043DD9400E45861430132F8E759F0B0FEF3
:1040300059F0AEFE59F0ACFE59F0AAFE7A6884E75A
:1040400059F0A6FE2F99496888E759F0A1FE59F06A
:104050009FFE2F9949688DE720AA8FE759F098FEB7
:104060003A6994E759F094FE5946096998E759F07E
:104070008FFE59F08DFE594609699DE71EAA9FE7FC
:1040800059F086FE5A465268A5E759F081FE2F99ED
:104090000969A9E759F07CFE59F07AFE2F99096960
:1040A000AEE71CAAB0E70433B7E70F9B8B423AD1C7
:1040B0003B68012B39DD052B39DD7B685B68089394
:1040C0003B68022B36DD052B36DD7B689B6807934A
:1040D0005B461B68012B32DD052B32DD5B465B68DE
:1040E0005B6809935B461B68022B2EDD052B2EDDDA
:1040F0005B465B689B6804932F9B1B68012B2ADD42
:10410000052B2ADD2F9B5B685B6812932F9B1B6836
:10411000022B26DD052B26DD2F9B5B689B68119308
:10412000002300933DE159F033FE59F031FEBB68A6
:104130000893C5E759F02CFEFB680793C8E759F0D0
:1041400027FE5B469B680993CCE759F021FE5B464E
:10415000DB680493D0E759F01BFE2F9B9B681293FA
:10416000D4E759F015FE2F9BDB681193D8E759F07F
:104170000FFE59F00DFE59F00BFE59F009FE59F0F3
:1041800007FE59F005FE59F003FE59F001FE59F003
:10419000FFFD59F0FDFD4346B046AB461E0001361B
:1041A000049B9E4266DA059D7543069BED18F6D486
:1041B000079B9D42F3DA4B46002BF0DB089B9945A9
:1041C000EDDA0024320046465B46AB461D009046C1
:1041D000029B9C42DFDA3B68042BC8D1009B002B7A
:1041E000C7DB7A689342C4DA4B46002BC3DBBB685B
:1041F0009945C0DA5A46002ABFDBF9688B45BCDA1C
:10420000002CBCDB3A699442B9DA009843434B4432
:104210004B435B445343E3189B00039A98582B6825
:10422000042BAED1002EAEDB6B689E42ABDA534658
:10423000002BAADBAB689A45A7DA4246002AA6DB28
:10424000E9688845A3DA002CA3DB2A699442A0DA46
:10425000734353444B4343445343E3189B002C9A0A
:10426000995821F090FB011C019821F071FB0190FD
:104270000134ADE701239C46E244099B9A4507DAE5
:104280000A9B524653430B9A91469944002687E76E
:104290002E9B002B54D043469B002E9AD158019858
:1042A00021F056FB2F9B1B680193042B4AD1009BE6
:1042B000002B49DB2F9A52680192934244DA0C9BFF
:1042C000002B43DB2F9A9568AB423FDA0D9B002B06
:1042D0003EDB2F9AD1688B423ADA4346002B39DB1A
:1042E0002F9B1A69904535DA009B5D430C9B9C46D9
:1042F00065444D430D9B9C46654455434544AD0084
:10430000309B9C466544199010991A910E9B1B9303
:1043100021F072FB00281FD119AC21680E9821F002
:104320006BFB00281AD123682B6001239C46E044D4
:104330000F9B984514DA00239A46002301939CE7CB
:104340000021ACE759F024FD59F022FD59F020FD81
:1043500059F01EFD59F01CFD1AACDEE71BACE2E77C
:104360000D9B01330D930D9A119B9A4207DA139B13
:104370005343159A9B1A069300239846D8E70C9B43
:1043800001330C930C9A129B9A4207DA149B534305
:10439000169A9B1A0B9300230D93E4E7009B0133BD
:1043A0000093009B179A934202DA00230C93E9E7EB
:1043B00023B0F0BCBB46B246A946A046F0BD000003
:1043C00030B5044B020032CB32C232CB32C212CBF8
:1043D00012C230BD80D40610F0B5DE4657464E46B8
:1043E0004546E0B5A7B0139114921E00319D339B52
:1043F000426902920A21425E17920C21425E189293
:104400000E21425E04921021425E09920221425E18
:1044100019920421425E1A92C2691292816A1F9116
:10442000C26A1E92914276DC3268042A75D12A68EB
:10443000042A74D1359A12680092042A71D1326824
:10444000002A70DD052A70DD7268126835990968E6
:1044500000296CDD05296CDD3599496809689142B0
:104460006AD1259235990968002967DD052967DD3C
:1044700035994968096824918A4264DC25AA126842
:104480001B923268032A60DD052A60DD7268D268FB
:10449000296803295DDD05295DDD6968C9689142E8
:1044A0005BD123922968032959DD052959DD696803
:1044B000C96822918A4256DC23AA126801922A68AE
:1044C000002A52DD052A52DD6A68126835990968AA
:1044D00003294EDD05294EDD35994968C9689142A9
:1044E0004CD1219235990968032949DD052949DD17
:1044F00035994968C96820918A4246DC21AA126828
:104500001192349A002A4DD0186805283FDD5B6867
:104510000022012141E059F03BFC59F039FC59F0EF
:1045200037FC59F035FC59F033FC72688EE759F0CE
:104530002FFC3599496892E759F02AFC59F028FC7C
:104540003599496897E724AA99E759F021FC32691F
:104550009EE759F01DFC2969A1E759F019FC59F0B3
:1045600017FC2969A5E722AAA7E759F011FC6A6898
:10457000ACE759F00DFC35990969B0E759F008FC32
:1045800059F006FC35990969B5E720AAB7E7043365
:10459000BEE79400E458614301329042F9DC119B7C
:1045A0008B4238D13368012B37DD052B37DD73683B
:1045B0005B6807933368022B34DD052B34DD7368A9
:1045C0009B6806932B68012B31DD052B31DD6B6871
:1045D0005B6808932B68022B2EDD052B2EDD6B68A4
:1045E0009B680393359B1B68012B2ADD052B2ADD75
:1045F000359B5B685B681693359B1B68022B26DD39
:10460000052B26DD359B5B689B68159300273300DF
:104610003E001F00D6E159F0BBFB59F0B9FBB3686F
:104620000793C7E759F0B4FBF3680693CAE759F05C
:10463000AFFBAB680893CDE759F0AAFBEB68039397
:10464000D0E759F0A5FB359B9B681693D4E759F04A
:104650009FFB359BDB681593D8E759F099FB59F020
:1046600097FB59F095FB59F093FB59F091FB59F0EA
:104670008FFB59F08DFB59F08BFB59F089FB59F0FA
:1046800087FBB146464680466046009B9C4601300B
:10469000039B98426BDA04994143059BC918F6D4F1
:1046A000069B9942F3DA002EF1DB079B9E42EEDA7D
:1046B00000220B006146009184464046B0464E46BB
:1046C0009946019B9A42DCDA3B68042BC5D10099DC
:1046D0000029C4DB7B689942C1DA4346002BC0DB6A
:1046E000BB689845BDDA4C46002CBCDBFC68A24692
:1046F000A145B8DA002AB8DB3C69A242B5DA0099D4
:104700004B43434451464B434B446343D318309986
:10471000CC562B68042BAAD10028AADB6B689842E0
:10472000A7DA002EA7DBAB689E42A4DA6146002917
:10473000A3DBE9688B468C459FDA002A9FDB296959
:104740008A468A429BDA4343F31859464B436344F3
:1047500051464B43D3183299CB5602998A4654445A
:104760005C431D9B9A4654441D940132A9E70123E2
:104770009A46D144089B994507DA099E4B465E4309
:104780000E9B9A465644002082E766464446319581
:10479000349B002B06D0A300349A9B581D9A944654
:1047A00063441D931D98A300139AD2581499CB58B3
:1047B000191E00DAB1E0002B00DCB0E000239A46BD
:1047C0008840824200D1ADE000239846C117D3173C
:1047D00021F09CF802000B1E00DAADE08021C90533
:1047E0000A91C9170B910A980B9912184B41D917C6
:1047F000490049080C9100210D910C980D9912184F
:104800004B4111005B00CA0F134399464346002BEE
:1048100000D093E05346002B00DA92E01F2B00DD1E
:1048200096E0012098400138FFF703FB8046002006
:10483000FFF7FFFA00900120FFF7FBFA834641469D
:104840004846FFF7F7FA050001214046FFF7F4FA62
:10485000804600994846FFF7FCFA5946FFF7EAFA06
:1048600001004046FFF7EAFA804651464846FFF706
:10487000E3FA814641462800FFF7F4FA5946FFF76C
:10488000D9FA01004846FFF7D9FA1D90129B9C46C1
:1048900060441D901F9B984261DB1DAB1B681D93FC
:1048A0001E9A93425DDC1DAB1A681D92359B1B68F6
:1048B0000093042B57D1002E57DB359B5B68009388
:1048C0009E4252DA0F99002951DB359B9B68994231
:1048D0004DDA109900294CDB3598C068814248DADE
:1048E000002C48DB359909698C4244DA73430F9DEB
:1048F000AC46634443431098844663444B43E318F7
:104900003699CA540134119B9C4236DA00231D9318
:104910009946B446A046319D2CE700214BE75B4207
:104920009A464DE780231B06984202D00023984602
:104930004CE70123984649E7294951E7294B994615
:1049400068E7B321284B294A490029481DF0CEF9D0
:104950006821284B254AFF3125481DF0C7F91FABB8
:104960009CE71EABA0E759F013FA59F011FA59F081
:104970000FFA59F00DFA59F00BFAB346319D109B1E
:1049800001331093109A159B9A4209DA179B5343EF
:10499000199A9B1A059300235E461C003195B2E7D5
:1049A0005E460F9B01330F930F9A169B9A4208DACB
:1049B000189B53431A9A9B1A0E9300231093B346E5
:1049C000E0E701361B9B9E4202DA00230F93EBE7E0
:1049D00027B0F0BCBB46B246A946A046F0BDC046D3
:1049E000010000C0FFFFFF7F44D2061054D2061022
:1049F000B0D2061028D30610F0B5DE4657464E4614
:104A00004546E0B5CFB005000F00A64B1B68002857
:104A10004BD000294BD09B000A68944663445968E8
:104A2000436D98470600A04B1B68002D41D0002F16
:104A300041D09B003A6894466344596828006B6DE6
:104A4000984780463B681B68032B36D00023994665
:104A5000964B1B68002D44D0002F44D09B007A68F1
:104A600094466344596828006B6D9847040079693F
:104A700000293AD03F69002F39D0307A237A984202
:104A800037D06C6903930290894B0193894B009353
:104A9000894B8A4A8A492800A04701204FB0F0BCC0
:104AA000BB46B246A946A046F0BD59F071F959F08F
:104AB0006FF959F06DF959F06BF9824B1B68002DB5
:104AC0000BD0002F0BD09B003A6894466344596882
:104AD00028006B6D98478146BAE759F059F959F0AB
:104AE00057F959F055F959F053F959F051F959F06E
:104AF0004FF943461B7A984205D06B6972492800EA
:104B000098470120CAE701280BD009286ED06C69AC
:104B1000FEF764FD0200337A6C492800A0470120AB
:104B2000BCE73A000AA800F005FB310018A801F024
:104B300037FB3000FFF75CF9824641461EA801F0C2
:104B40002FFB4046FFF754F9070024AD49462800E3
:104B500001F026FB4846FFF74BF980462AAE2100BC
:104B6000300001F01DFB2000FFF749F9814630AC11
:104B70000021200001F014FB0023069305944B460E
:104B80000493039643460293019500971EAB524649
:104B900018A90AA8FFF7A4F9309B052B04DD31986A
:104BA000002801D021F082FA2A9B052B04DD2B98E6
:104BB000002801D021F07AFA249B052B04DD2598EA
:104BC000002801D021F072FA1E9B052B04DD1F98EE
:104BD000002801D021F06AFA189B052B04DD1998F2
:104BE000002801D021F062FA002057E73A000AA815
:104BF00000F06EF87B6A9A46BB6A9B46310036A885
:104C000001F0CEFA3000FFF7FEF809903CAF4146C4
:104C1000380001F0C5FA4046FFF7F5F8804642AD8E
:104C20004946280001F0BCFA4846FFF749F9814699
:104C300048AE2100300001F0B3FA2000FFF7EAF897
:104C4000069005964B4604930395434602930197BD
:104C5000099B009336AB5A4651460AA8FFF7BCFBA6
:104C6000489B052B04DD4998002801D021F01EFA4D
:104C7000429B052B04DD4398002801D021F016FA51
:104C80003C9B052B04DD3D98002801D021F00EFA55
:104C9000369B052B04DD3798002801D021F006FA59
:104CA0000020FBE634D606103CD6061038D6061097
:104CB000A8D30610B8D306108A06000038D3061011
:104CC000ACD0061030D60610C4D3061064D406103B
:104CD00070B504000E00150013695B42436153690F
:104CE0005B4283619369C361D3690362136A5B4268
:104CF0004362087801F07CFA20706B68A3802B680F
:104D00006380B368A38173686381736923823369A5
:104D1000E381EB6AA3622B6BE362200070BD0000AD
:104D2000F0B5DE4657464E464546E0B593B0040022
:104D30000D0016001F0021AB1B780B930B681B683E
:104D4000032B0AD0022B08D04569834B00935623CE
:104D5000824A8349A847012011E06B681B68012B38
:104D600014D065690122039202937E4B01937E4B1E
:104D700000935723794A7D492000A847012013B0AA
:104D8000F0BCBB46B246A946A046F0BD33789A4671
:104D9000B36899467368984673699B4633690D9367
:104DA0001D9A501E584301304346002B17D05346DE
:104DB000012B04D0022B0AD000230C9310E0380002
:104DC0004044013841461EF013FB0C9008E03B00C4
:104DD0004344181A41461EF00BFB0C9000E00C9364
:104DE0001E9B581E5B46584301304B46002B14D087
:104DF0005346012B03D0022B08D000200EE01C9854
:104E00004844013849461EF0F3FA07E01C9B4B4426
:104E1000181A49461EF0ECFA00E048461E9B013B7A
:104E20005A465343013301384A4650431B181C9AD3
:104E30009B1A4AD401211940DA0FD3185B100F9343
:104E400011911D9B013B0D9A534301330C9801387E
:104E5000424650431B18DB1B39D401211940DA0F9D
:104E6000D3185B100EAA0E931091229B83CA83C3A2
:104E700012681A60002229002000FEF75DFD8046BE
:104E8000002826D0012229002000FEF755FD81468A
:104E9000002828D0022229002000FEF789FD070003
:104EA000002229002000FEF765FD051E25D00B9B82
:104EB000012B2CD143461B69229A13614B461B6977
:104EC00053612B699361002059E70023B2E7002367
:104ED000C3E76569264B00936123204A20492000DF
:104EE000A84701204BE76569224B009363231B4AC7
:104EF0001B492000A847012041E765691E4B00932C
:104F00006723164A16492000A847012037E74B4679
:104F10009B685B680C36229A926A0B920893079200
:104F2000229B5B6A0B930693229B30330593229B53
:104F30002C330493229B20330393229B1C33029334
:104F4000019600903B004A4641462000FEF7F6FDE0
:104F50000028AFD013E7C04618D50610A0D406101D
:104F60004CD00610F4CE07103CD50610ACD006107D
:104F700050D5061064D5061078D50610F0B5DE467B
:104F800057464E464546E0B58FB004000D000F6908
:104F9000002F4CD04B699946002B4AD00022FEF7D7
:104FA000E9FC8246002846D0002229002000FEF7B6
:104FB000C3FC061E50D0012229002000FEF7BCFCD5
:104FC0008046002852D0B368DA6809929B680A9339
:104FD0008368DA680B929A680C9252469268D1689C
:104FE0000D91926893465B689B009A4619002000D9
:104FF000A36B9847786251462000A36B9847B8622C
:105000003378092B6CD1302241468E5C012E37D08B
:105010006569083B039302963B4B01933B4B00931E
:105020009F233B4A3B492000A84701260CE058F04B
:10503000AFFE58F0ADFE6569374B00938723344AC5
:1050400036492000A847012630000FB0F0BCBB460F
:10505000B246A946A046F0BD6569314B009389234D
:105060002B4A2E492000A8470136EDE765692D4BF4
:1050700000938B23264A29492000A8470126E3E70D
:105080004A6B002A16D01168002915D050680028F4
:1050900014D00A68012A13D04146896849688A42B7
:1050A0000ED06569204B0093A823194A1B492000A4
:1050B000A847C9E758F06CFE58F06AFE58F068FE41
:1050C00001688A420CD0656903910292174B0193E3
:1050D000174B0093AC230E4A0E492000A847B3E7B4
:1050E000069705935B4604930D9B03930C9B0293D9
:1050F0000B9B01930A9B0093099B4A4629002000C1
:10510000FFF70EFE06009FE7C8D0061000D106107C
:10511000A0D40610ACD0061078D506104CD00610DE
:1051200050D5061064D506108CD5061008D606108A
:10513000B4D1061070B504000D001600087B2200E3
:10514000343221003031FEF797FE287801F050F814
:105150002070336863807368A3806B686381AB6879
:10516000A3812B69E3816B692382200070BD10B598
:10517000002801D0006810BD58F00AFE10B50028C4
:1051800002D01EF0FDF810BD2020FCE730B5040071
:10519000C5170800C9170019694100290BDB012256
:1051A000002312184B41D80F002180185941CB071A
:1051B0004008184330BD01225242D317F1E70000E6
:1051C00070B50A00884219D00024C117D31720F007
:1051D0009DFB02000B1E19DB8025ED052800E91759
:1051E00012184B41DD176D006808002180185941E5
:1051F0004B00C00F1843002C0AD170BD8021090656
:10520000884201D00024E0E70124DEE7014DE5E714
:105210000148F2E7010000C0FFFFFF7F10B5FEF775
:105220000DFE10BD70B50A00884219D00024C117C8
:10523000D31720F06BFB02000B1E19DB8025ED0558
:105240002800E91712184B41DD176D00680800218E
:10525000801859414B00C00F1843002C0AD170BD73
:1052600080210906884201D00024E0E70124DEE71E
:10527000014DE5E70148F2E7010000C0FFFFFF7FB5
:105280007047401A704710B5FFF7FBFF10BD0000D4
:1052900010B50200C31701208840C11720F036FB6B
:1052A00003004A1C09DB4A1C03D000290CDC07D090
:1052B00010BD802212069042F7D280200006F7E748
:1052C000802212069342F3D30048F1E7FFFFFF7FED
:1052D0004840704770B504001600FEF7ABFD0500AE
:1052E0002000FEF7ADFD3100FEF7A4FD010028000F
:1052F000FFF7EEFF70BD0000F0B5C64600B5040034
:1053000080200006FEF795FD06001248FEF791FD8D
:1053100080461148FEF78DFD01002000FEF7A2FD3A
:1053200007000E48FEF785FD01002000FEF791FD05
:10533000050002212000FFF7ABFF020041463800C4
:10534000FFF7C8FF020031002800FFF7C3FF80BC51
:10535000B846F0BDFFFFFF7FFFFFFF1F010000E029
:1053600010B5FFF7C9FF10BDF0B5C64600B5040083
:1053700080200006FEF75DFD06001248FEF759FD8D
:1053800080461148FEF755FD01002000FEF76AFD3A
:1053900007000E48FEF74DFD01002000FEF759FD05
:1053A000050001212000FFF773FF0200414638008D
:1053B000FFF790FF020031002800FFF78BFF80BC51
:1053C000B846F0BDFFFFFF7FFFFFFF3F010000C0B9
:1053D00010B5FFF7C9FF10BDF0B5D6464F4646469B
:1053E000C0B504005048FEF724FD01002000FFF77F
:1053F000CDFE06000020FEF71CFD05000020FEF794
:1054000018FD80460120FEF714FD0400474F2900D7
:105410003800FEF70FFD814601212800FEF70CFD44
:10542000050041463800FEF714FD2100FEF702FD9D
:1054300001002800FEF702FD804600213800FEF73B
:10544000FBFC050041464846FEF70CFD2100FEF737
:10545000F1FC01002800FEF7F1FCFEF7EAFC8246B1
:105460000020FEF7E6FC05000020FEF7E2FC814686
:105470000120FEF7DEFC04002D4F29003800FEF766
:10548000D9FC804601212800FEF7D6FC05004946DC
:105490003800FEF7DEFC2100FEF7CCFC01002800FE
:1054A000FEF7CCFC814600213800FEF7C5FC050064
:1054B00049464046FEF7D6FC2100FEF7BBFC010042
:1054C0002800FEF7BBFCFEF7B4FC01003000FFF73C
:1054D00077FE01005046FFF7A1FE0400002517E00B
:1054E00021003000FFF76CFE070080208005FEF7EA
:1054F000A0FC3900FFF7C7FE01002000FFF792FE75
:10550000FFF72EFF01002000FFF788FE04000135A1
:10551000022DE5DD2000FFF7B3FEFFF759FFE0BCE9
:10552000BA46B146A846F0BDFFFFFF7F5A5A5A5A05
:10553000C4C3C3C310B5836B002B02D0202198478E
:1055400010BD58F025FC0000F0B5D6464F4680B59A
:1055500087B005000C000B699946002B2DD04B69D4
:105560009A46002B2BD0394B1A68FEF7E5F9061E38
:1055700027D0374B1A6821002800FEF7DDF9071EF7
:105580002DD0344B1A6821002800FEF711FA05903F
:10559000314B1A6821002800FEF7ECF9041E29D0CF
:1055A0003078237898422FD13B78984240D06B696D
:1055B0002A492800984701200CE058F0E9FB58F0F0
:1055C000E7FB6C69264B0093264B274A27492800A6
:1055D000A047012007B0C0BCBA46B146F0BD6C6917
:1055E000A323234A0092DB001F4A20492800A0473A
:1055F0000120EFE76C691F4B00931F4B1A4A1B49B0
:105600002800A0470120E5E76F69FDF7E7FF0600E6
:105610002078FDF7E3FF03900296184B0193184B97
:105620000093184B104A18492800B8470120D1E7C9
:10563000534619784B4603930294059B01930097B8
:1056400033000200280000F06CFDC3E7A8D7061065
:10565000B0D70610A4D70610ACD70610D8D60610BF
:1056600050D506101505000040D606104CD0061087
:1056700064D5061078D506101C050000A8D30610C6
:10568000B8D306101E050000BCD6061030B5044B7A
:10569000020032CB32C232CB32C212CB12C230BD88
:1056A00084D70610F0B5DE4657464E464546E0B56F
:1056B00093B090461C9A91461F99026892464268A0
:1056C000934682680C92C268089202690992446902
:1056D0001194806910901A68012A2DDD0D68022D41
:1056E0002CD184422CDC086800282BDD05282BDD1A
:1056F000486800680D900868012828DD052828DD25
:10570000496849680791911E26D41868814225DAB4
:10571000052825DD8900586841580798814223DB18
:10572000013A23D419688A4222DA052922DD5B680E
:1057300092009C580027F8E058F02AFB58F028FB0C
:1057400058F026FB58F024FB48680D90D3E758F03A
:105750001FFB89680791D6E758F01AFB58F018FB31
:10576000890059184968D8E758F012FB58F010FB27
:1057700058F00EFB92009A185468DBE723007B4335
:105780009B184946CB56210069438918404641562B
:10579000711853444B430F998C4663440F93013265
:1057A000A242EBDBB3461E9B002B06D0AB001E9A39
:1057B0009B580F9A944663440F930F98099A131EAF
:1057C00000DA88E0099A002A00DC86E000220492D0
:1057D0009840089B834200D182E000230593C117C3
:1057E000089AD31720F092F802000B1E00DA81E02D
:1057F0008021C9050091C9170191009801991218DB
:105800004B41D917490049080291002103910298A0
:10581000039912184B415E00D20F1643059B002BD3
:105820006AD1049B002B69DB049B1F2B6DDC0120DC
:10583000049B98400138FEF7FCFA05900020FEF723
:10584000F8FA0A900120FEF7F4FA06900599300064
:10585000FEF7F0FA0B9001210598FEF7EDFA05909E
:105860000A993000FEF7F5FA0699FEF7E3FA01000F
:105870000598FEF7E3FA059004993000FEF7DCFA8C
:10588000060005990B98FEF7EDFA0699FEF7D2FA95
:1058900001003000FEF7D2FA0F900C9B9C4660444A
:1058A0000F90119B984237DB0FAB1B680F93109A38
:1058B000934233DC0FAB1A680F92079B7B435B1953
:1058C0002099CA540135079B9D4229DA00230F9382
:1058D00000225E4664E7002374E75242049277E7B1
:1058E00080231B06984202D00023059377E701230B
:1058F000059374E715497DE7154E92E7B321154BE3
:10590000154A490015481CF0F1F96821144B124A58
:10591000FF3112481CF0EAF911ABC6E710ABCAE739
:1059200043461C93C846994601370D9B9F4205DAB2
:1059300000254B461C93C1469846C4E713B0F0BC03
:10594000BB46B246A946A046F0BDC046010000C015
:10595000FFFFFF7F44D2061054D20610B0D20610CB
:1059600028D30610F0B5DE4657464E464546E0B50C
:1059700095B090461E001E9B9946219D03689A464D
:1059800043689B4683680C93C36808930369099333
:1059900043691193816910913768012F12DD2A68DC
:1059A000002A11DD8B4211DC2868013A10D48242B2
:1059B0000EDA05280EDD6C6800230121AC462500B7
:1059C00014000DE058F0E4F958F0E2F958F0E0F96D
:1059D00058F0DEF92C1DEFE79A00AA585143013325
:1059E000984203DD9C42F7D10122F7E722000D9196
:1059F0006546BB1E30D431688B422FDA05292FDD76
:105A00009B007168CB58002A2EDB29688A422DDA68
:105A100005292DDD91006868415899422CD11393D6
:105A2000002A2BDB29688A422ADA05292ADD6968DF
:105A300092008A581292934228DC13AB1B6807939A
:105A4000013F25D433689F4224DA052B24DD736897
:105A5000BF00DC590027FAE058F09AF958F098F99D
:105A60009B00F3185B68CEE758F092F958F090F974
:105A7000910069184968D0E758F08AF958F088F918
:105A800058F086F99200AA185268D3E712ABD5E70E
:105A900058F07EF958F07CF9BF00F7197C68D9E717
:105AA00023007B439B184946CB5C2100694389183E
:105AB0004046415C711853444B430F998C466344F4
:105AC0000F930132A242EBDBB346209B002B06D0A2
:105AD000AB00209A9B580F9A944663440F930F98FB
