:020000041000EA
:1000000000B5324B212058609868022188439860DF
:10001000D860186158612E4B002199600221596106
:100020000121F02299502B49196001219960352056
:1000300000F044F80222904214D00621196600F024
:1000400034F8196E01211966002018661A6600F04E
:100050002CF8196E196E196E052000F02FF8012189
:100060000842F9D1002199601B49196000215960AB
:100070001A491B48016001219960EB211966A021F2
:10008000196600F012F800219960164914480160C1
:100090000121996001BC002800D000471248134993
:1000A000086003C880F30888084703B5996A0420EC
:1000B0000142FBD001200142F8D103BD02B5186610
:1000C0001866FFF7F2FF186E186E02BD00000240BE
:1000D000000000180000070000035F00212200005C
:1000E000F4000018222000A00001001008ED00E03C
:1000F00000000000000000000000000074B24E7A12
:1001000000200420F7010010C3010010C5010010F9
:10011000C1010010C1010010C1010010C101001097
:10012000C1010010C1010010C1010010C701001081
:10013000C1010010C1010010C9010010CB01001065
:10014000CD010010CD010010CD010010CD01001037
:10015000CD010010CD010010CD010010CD01001027
:10016000CD010010CD010010CD010010CD01001017
:10017000CD010010CD010010CD010010CD01001007
:10018000CD010010CD010010CD010010CD010010F7
:10019000CD010010CD010010CD010010CD010010E7
:1001A000CD010010CD010010CD010010CD010010D7
:1001B000CD010010CD010010CD010010CD010010C7
:1001C00000BE00BE00BE00BE00BE00BE00F04BF888
:1001D000103800BEF2EB887110DD031034DD03101F
:1001E0003402001090A31AE700202149086006C8D5
:1001F00081F3088810471F48006800282FD10DA4FC
:100200000ECC002902D000F012F8F9E71A491B4A77
:10021000002000E001C19142FCD1194988471949E9
:1002200088471949884700BEFDE701C901C29A42C3
:10023000FBD3704734DD0310C0000020CC24002025
:1002400040010410000004200000042040010410BC
:1002500000100420001004200000000070470B482C
:1002600021F04AFB0047EFF30580C0B27047000061
:1002700008ED00E0000000D0D0240020602701201D
:100280006D0202100D0300102902021057560000E3
:1002900006005250ABB36053CCAB03100600525073
:1002A000861C0302DCAB0310060052505422A29DB0
:1002B000DC7C031005005250DE65F4684001041038
:1002C000F8B5C04610B5064C2378002B07D1054B76
:1002D000002B02D0044800E000BF0123237010BDB2
:1002E000B026002000000000804B0310044B10B526
:1002F000002B03D00349044800E000BF10BDC046F6
:1003000000000000B4260020804B031010B524F03C
:10031000FDFAFA20C0001FF02DFB18201EF0F2F9A4
:10032000D0231B06802252045A620BF0CFFA0BF046
:1003300017FBFCE7FEE70000F0B5CE4600B592B033
:1003400003900F001500189C6608721C9A4200D09A
:10035000E4E08C4200D22700A74242D00023994615
:100360004B46002B40D00E930EAB00221A73012394
:100370000F9310940E98002800D1CAE04B46002B32
:100380003BD0202C17D0402C15D0802C13D08023AC
:100390005B009C420FD00133FF339C420BD0802383
:1003A000DB009C4207D080231B019C4203D08023AA
:1003B0005B019C422FD1202C43D080235B009C42C8
:1003C00051D0574F002F61D00E98002804D00EABAB
:1003D0001B7B002B00D09EE0380012B080BCB946D9
:1003E000F0BD039B9946BBE7A000012101F016FA7E
:1003F0000E900EAB01221A73B9E7BB0099461A00A2
:10040000039924F0B1F80E984844E21B92000021B1
:1004100024F0A4F8B5E70E9E08AB00930023002259
:100420000021200001F016F8041E08D02A00310037
:1004300001F0ECF8200001F0F5F90027C4E7394F8E
:10044000C2E708AB10221A8000220992364A91892D
:10045000998191680A915268099220221A82334A3E
:100460000D920027AEE708AB80221A800022099285
:100470002F4A9189998191680A9152680992802244
:1004800052001A822B4A0D9200279BE7A0000121FF
:1004900001F0C4F9020004AB049001211973059125
:1004A0000694002811D000230E9908A802F0C1FF7D
:1004B00004990B682B6000226A60F300EB1849680E
:1004C00019605A600121022015E0002802D0CBB249
:1004D000002B01D1134F77E701F0A4F9FAE7049A52
:1004E000CB00EB188400A4581C60441CA400A25844
:1004F0005A60023001318E42F1D80498002800D1B0
:1005000062E704AB1B7B002B00D15DE701F08AF9A9
:100510005AE7044F58E701F085F95DE7064F5BE7BE
:1005200008FCFFFF16FCFFFF40570310B0560310F6
:1005300030570310B052031011FCFFFFF0B5DE4638
:1005400057464E464546E0B585B080460D004C08FE
:10055000631C0293D8008E00012101F05FF98246EE
:10056000002800D1AFE00121300001F057F98146A9
:10057000002801D0002312E0504601F053F9534BFC
:10058000039398E0D9009A0048464646765886502C
:10059000EA1A013A920041444968815001339C4271
:1005A000F0D8EB0707D5A400494BEB189B004A464F
:1005B00041465B5813510095029B5246290048461C
:1005C000FFF7BAFE0390002834D10024029BA34217
:1005D00037D9200021F0D8FC3E4A3F4B21F05FFC88
:1005E00006000F00680021F0CFFC02000B00300075
:1005F000390021F036FC21F057FD061CE700574476
:100600003B689B4623F048FD011C584623F06BFCD9
:1006100083467F68301C23F053FD011C381C23F0F7
:1006200062FC011CA6004644584623F041FC3060A1
:100630000134CBE7484601F0F5F8504601F0F2F8F6
:1006400039E0AC4231D2200021F09EFC214A224BFD
:1006500021F025FC06000F00680021F095FC020047
:100660000B003000390021F0FCFB21F01DFD071CC0
:100670002E1BF600564433689B4623F00DFD011CEB
:10068000584623F030FC83467668381C23F018FD6A
:10069000011C301C23F027FC011CA60046445846D0
:1006A00023F001FC30600134CBE7484601F0BAF892
:1006B000504601F0B7F8039805B0F0BCBB46B2460F
:1006C000A946A046F0BD014B0393F4E716FCFFFFDB
:1006D000FFFFFF3F182D4454FB210940F0B5DE46D3
:1006E00057464E464546E0B585B00400019199460F
:1006F0000932FF321700DD0045192B689A463B6826
:100700009846191C504623F0EEFB061C6B687A686D
:100710009346111C0093181C23F0E5FB011C301CB0
:1007200023F0C1FB061C02905946504623F0DBFB28
:1007300082460099404623F0D6FB011C504623F028
:10074000B7FB80460390019BDB00FF18311C20683B
:1007500023F0A9FB28604146606823F0A4FB686091
:10076000311C206823F0A4FB20604146606823F020
:100770009FFB60600835083401235B429C46E144DE
:100780004B46002BB9D105B0F0BCBB46B246A946DA
:10079000A046F0BDF0B5DE4657464E464546E0B5AC
:1007A0009BB005000C910D920293842149008C4668
:1007B000624493460793009201921FE04146089BD2
:1007C0009946181C23F06FFB52461060391C099E95
:1007D000301C23F06DFB524650604146484623F0E2
:1007E00067FB2060391C301C23F05DFB606008351E
:1007F000079B013B0793002B00D1FAE0029BDB0033
:100800009A46AA44524617685A461468211C381C56
:1008100023F069FB8146524656685A465268904614
:10082000111C301C23F05FFB011C484623F03BFBEE
:1008300003900E904146381C23F055FB071C311CD9
:10084000201C23F050FB011C381C23F031FB0A90C4
:100850000F90029B1E01AE1930688046019A146801
:10086000211C23F040FB04907768019A5168894667
:10087000381C23F038FB011C049823F014FB04906F
:1008800010904946404623F02EFB8046391C201C20
:1008900023F029FB011C404623F00AFB0590119030
:1008A000029B5C009C466444E4002C192768009B72
:1008B00018688046011C0697381C23F014FB071C9F
:1008C00063689946009B5B680893191C484623F0AF
:1008D0000AFB011C381C23F0E6FA071C1290089949
:1008E000069823F000FB06904946404623F0FBFAA9
:1008F000011C069823F0DCFA069013902B689846AA
:100900000499181C23F0CFFA089018906B68994648
:100910000599181C23F0C7FA0990199041460498CC
:1009200023F0C6FA0B9028604946059823F0C0FAD8
:100930006860391C039823F0BBFA04901490069960
:100940000A9B9846181C23F0B3FA81461590391C6F
:10095000039823F0A8FA071C16900699404623F046
:10096000A2FA8046179004990B9823F09CFA306005
:100970004946686823F097FA70600C9AD3009B444C
:100980001301019884469C446046019053009446AC
:100990006344DB00009A94469C44624600920499AA
:1009A000286823F085FA28604946686823F080FAB1
:1009B00068600D9A52680392002A00D0FEE6414614
:1009C000089B9946181C23F073FA53461860391C8B
:1009D000099E301C23F067FA53465860414648464A
:1009E00023F061FA2060391C301C23F061FA60604A
:1009F000FDE61BB0F0BCBB46B246A946A046F0BD22
:100A0000F0B5DE4657464E464546E0B595B0070080
:100A10000791180005930B00434308A92133DB001D
:100A2000D31830CB30C184235B009A469244D3461E
:100A3000049053460293059BDC003C1922689146C2
:100A40005A461668311C484623F04DFA051C626868
:100A500090465A4652689246111C404623F043FA8B
:100A6000011C281C23F01FFA051C0C905146484617
:100A700023F039FA81464146301C23F034FA011C38
:100A8000484623F015FA00900D90059B1B019946EE
:100A9000B9444B461B689A46029B196888465046E3
:100AA00023F021FA061C49464868029B59680691C2
:100AB000039023F018FA011C301C23F0F4F9061CF3
:100AC0000E900699504623F00EFA8246039940464E
:100AD00023F009FA011C504623F0EAF980460F90F2
:100AE000311C281C23F0E4F98246109041460098FE
:100AF00023F0DEF903901190311C281C23F0D3F968
:100B0000051C0A904146009823F0CDF980460B90D1
:100B10000798C3009B440301029A94469C44634691
:100B20000293386823F09CFA00900191504623F01C
:100B300097FA00222D4B21F0B2F902000B00009829
:100B4000019921F07CF921F0AFFA2060786823F058
:100B500087FA00900191039823F082FA0022234B38
:100B600021F09DF902000B000098019921F067F92E
:100B700021F09AFA6060099E311C281C23F0B3F919
:100B8000051C0A90311C404623F0ADF9061C0B9061
:100B90005146386823F08CF938600399786823F05F
:100BA00087F978602168301C23F082F94B46186081
:100BB000291C606823F077F94B465860311C206887
:100BC00023F071F92060291C606823F071F96060DE
:100BD0000837049B013B0493002B00D02BE715B092
:100BE000F0BCBB46B246A946A046F0BD0000E03FBF
:100BF000F0B5DE4657464E464546E0B5B3B08046B2
:100C000013911800129314000934FF3404940B005C
:100C10004343DA00A446624416A960CA60C11B01BE
:100C2000634414AA12CB12C2C300434400930301CD
:100C300043440393430084466344DB0043449B46A0
:100C4000430143449A460023029353460193474687
:100C5000DEE118AC21003B0021CB21C11193009BA8
:100C600019688846139D02925543EB00049A9146F9
:100C7000994449460E68311C404623F034F90590EA
:100C8000009B59688A46494649688946504623F080
:100C90002AF9011C059823F006F90590A060494641
:100CA000404623F020F980465146301C23F01BF9C2
:100CB000011C404623F0FCF80690E060039A166899
:100CC000B0462B010499894699444E463668311C3A
:100CD000404623F008F90790039A51688A4649462E
:100CE00049688946504623F0FEF8011C079823F016
:100CF000DAF8079020614946404623F0F4F8804630
:100D00005146301C23F0EFF8011C404623F0D0F888
:100D10000A9060615E463668B1466B005B19DB0085
:100D2000049882469A4451460E68311C484623F086
:100D3000DAF80890594649688846514649688A4613
:100D4000404623F0D0F8011C089823F0ACF80B9033
:100D5000A0615146484623F0C6F881464146301C02
:100D600023F0C1F8011C484623F0A2F8061CE061FC
:100D700001990B6898466D0104988246554428688D
:100D80008146011C181C23F0AEF8089001994B68AD
:100D90009A466D68291C181C23F0A5F8011C0898B8
:100DA00023F081F808902062291C404623F09BF82C
:100DB000051C5146484623F096F8011C281C23F0D8
:100DC00077F8051C6062089A9046111C059A9246B5
:100DD000101C23F06DF80590A063291C069881462D
:100DE00023F066F80690E0634146504623F05BF836
:100DF00008902065291C484623F055F80990606545
:100E00000B9B9946191C079B9846181C23F050F819
:100E1000051C2064311C0A9B9A46181C23F048F8D4
:100E2000079060644946404623F03DF80B90A0646B
:100E3000311C504623F037F80C90E0643E680A9568
:100E4000291C059A9046101C23F032F8011C301C16
:100E500023F02EF838607D68079B9946191C069888
:100E600023F026F8011CAA46281C23F021F87860FC
:100E7000169F391C404623F036F8011C0F96301C93
:100E800023F016F8051C149EB046311C0A9823F076
:100E90002AF8011C281C23F00BF80D90A062391CC5
:100EA000069823F020F8011C55461095504622F074
:100EB000FFFF051C311C484623F015F8011C281CB7
:100EC00022F0F6FF051CE062179EB146311C09981E
:100ED00023F009F8061C15998A460C9823F003F8AC
:100EE000011C301C22F0E4FF0E9020634946089854
:100EF00022F0F9FF80210906461851460B9822F08E
:100F0000F2FF011C301C22F0CEFF061C60630E991C
:100F10000D9822F0C8FF009B1860311C281C22F09D
:100F2000C2FF009B58600E990D9822F0C1FF0199F5
:100F30000860311C281C22F0BBFF01994860414623
:100F4000059822F0D0FF011C0F9822F0B1FF051C7C
:100F5000391C0A9822F0C7FF011C281C22F0A8FFA8
:100F6000051CA0654146069822F0BDFF011C1098A3
:100F700022F09EFF061C391C079822F0B4FF011CCA
:100F8000301C22F095FF061CE06549460C9822F0C3
:100F9000AAFF071C5146099822F0A5FF011C381C26
:100FA00022F081FF071C20665146089822F09BFF23
:100FB000804649460B9822F096FF011C404622F0DD
:100FC00072FF80466066391C281C22F071FF039C6A
:100FD00020604146301C22F06BFF6060391C281CE9
:100FE00022F061FF5D4628604146301C22F05BFF25
:100FF0006860119F009B0833009308340394082312
:101000009C46E344019908310191029A531C0293D2
:10101000029A129B9A4200DA1BE633B0F0BCBB4640
:10102000B246A946A046F0BDF0B5C64600B50500DB
:10103000884620F0ADFF21F043F821F047FC060080
:101040000F0004241AE0032400E00224200020F012
:101050009FFF32003B0020F083FF00280ED02C00C1
:101060000CE02100280020F073FC050043461C60C2
:1010700008334246506001280CDD984621002800C4
:1010800020F066FC0029ECD0022CDCD0042CDCD053
:101090000234DBE780BCB846F0BDF0B5DE4657460B
:1010A0004E464546E0B58FB00A90069109938423D9
:1010B0005B009C4694446346049313680593189B15
:1010C000D80000F0A7FB029000230B9367E00B9B76
:1010D0000893002307934EE0FB00029A914699443F
:1010E0004B461B689A46E500049B9C4665442B686A
:1010F0009846191C504622F0F6FE01904B465B685C
:1011000099466B689B46191C484622F0ECFE011C70
:10111000019822F0C8FE051C0C905946504622F05A
:10112000E2FE82464946404622F0DDFE011C504662
:1011300022F0BEFE80460D90291C306822F0B8FED9
:1011400030604146706822F0B3FE70600137189B32
:101150009F4208DA069B039A5343E418059BA34277
:10116000BADCE41AB8E7089B099A944663440893EA
:10117000079B01330793079B189A93420CDA089B4D
:101180000393DE000A9B9C4666443300029A03CA1E
:1011900003C300240127DAE70B9B01330B930B9861
:1011A000099FB84210DA0021029B9C460A9B984690
:1011B000189CA1428BDAC2004244CB00634460CA4F
:1011C00060C3C0190131F4E7029800F02BFB0FB0A7
:1011D000F0BCBB46B246A946A046F0BDF0B5DE461F
:1011E00057464E464546E0B585B003900C001500C5
:1011F0001F000E9B1A689146082293469B445B6829
:101200009A464B4652465343DB0080469844012A97
:1012100023D0039E0F9B01935B4600933B004A46FD
:101220006A4321003000FFF7D9FF2B007B43DB002E
:10123000E4185346DB00F618B045EBD14B46042BBF
:101240002FD018DC022B1FD0032B31D153460F9A1D
:1012500029000398FFF7D4FB1CE00300414622005D
:1012600041CA41C31A002B007B43DB00E418130082
:101270009142F4D1E2E7052B1AD153460F9A290087
:101280000398FFF7B5FC05E053460F9A2900039831
:10129000FFF724FA05B0F0BCBB46B246A946A0460B
:1012A000F0BD53460F9A29000398FFF773FAF1E750
:1012B0004B46009353460F9A29000398FFF7EDFE23
:1012C000E8E70000F0B5D6464F464646C0B5804632
:1012D0000C0001002131C9008A46002B11D0002AE0
:1012E00014D01968514514D35146196091464B46A4
:1012F000002B40D042461A605C60002C6CD0002766
:1013000032E0080000F086FA8146F0E71960914665
:1013100031E052461A60002399462CE0380020F054
:1013200037FE2F4A2F4B20F0BAFD04000D00404637
:1013300020F02EFE02000B002000290020F091FD7D
:1013400004000D0020F0D2FE4E460936FF36FB00A9
:10135000F61820F0A9FE30602000290020F0DCFE05
:1013600020F0A2FE706001374745D7DB49460831BF
:101370004046FFF759FE089B002B01D052461A60E9
:101380004846E0BCBA46B146A846F0BD200020F071
:10139000FFFD134A144B20F082FD06000F0040466B
:1013A00020F0F6FD02000B003000390020F059FD5E
:1013B00006000F0020F09AFE4D460935FF35E30088
:1013C000ED1820F071FE28603000390020F0A4FEF6
:1013D00020F06AFE686001344445D7DBC6E7C046AA
:1013E000182D4454FB211940FB2119C0F0B5C64605
:1013F00000B582B004000F0015001E0091420CD011
:101400000300083301900093330001222800FFF706
:10141000E5FE02B080BCB846F0BD0368D80000F01D
:10142000F9F9804623000833019400933300012228
:101430003900FFF7D3FE2268D2004146280023F08E
:1014400093F8404600F0EEF9E3E710B50123FFF70B
:10145000CDFF10BDF0B5DE4657464E464546E0B5D9
:1014600085B00D0016001F000023039301331A00FE
:1014700002409046034234D144100023009303AB52
:1014800000222000FFF71EFF63001B19DA0FD2189D
:101490005210D200039B9C4662440C239A4692440D
:1014A000002F24D03B68534526D353463B60B146BA
:1014B0004B46002B22D04A460C321A60039BD318AD
:1014C00049464B60E1005B1849468B60002300935E
:1014D00003AB29002000FFF7F5FE002D00D185E0C9
:1014E00041E045480AF0AEF90023994645E05046F0
:1014F00000F090F98146DBE753463B6000239946B4
:101500003BE043465D1C280020F042FD06000F0032
:10151000200020F03DFD02000B003000390020F0DB
:10152000A0FC0022354B20F093FC354A354B20F0CF
:10153000B6FC06000F0020F0D9FD4346DB009846BC
:101540004B469B6843449B4620F0AEFD5B461860CB
:101550003000390020F0E0FD4B469E68464420F004
:10156000A3FD7060A846E30F1B195B104345C8DC60
:101570000E9B002B01D052461A60484605B0F0BCC5
:10158000BB46B246A946A046F0BD6B1C9846180063
:1015900020F0FEFC06000F00200020F0F9FC020005
:1015A0000B003000390020F05CFC0022134B20F0CF
:1015B0004FFC134A144B20F072FC06000F0020F081
:1015C00095FDED004B469B689B46AB4420F06CFDBF
:1015D0005B4618603000390020F09EFD4B469B684A
:1015E0009C46654420F060FD68604546E30F1B198A
:1015F0005B10AB42C9DCBBE7804B03100000E03F4F
:10160000182D4454FB210940FB2109C0F0B5DE46EA
:1016100057464E464546E0B593B081460C000092D1
:1016200003685B68002B23D14B4618680368059359
:101630004A4652682100FFF708FF4A4653681D6872
:1016400006955E680796311C281C22F031FC009F2D
:101650003860059BDC00BC466444311C281C22F029
:1016600022FC206000237B60636001231C008FE06C
:101670004F480AF0E7F8D7E74B465B68E200019273
:101680009A180EA8824660CA60C00D1BED005B1957
:101690001F6810975E68802109068C466644119683
:1016A0000E998846381C22F003FC02900C9050469C
:1016B00040688246011C301C22F0FAFB03900D901A
:1016C000391C404622F0EFFB80460A90311C504600
:1016D00022F0E9FB071C0B90364EA619F6004B468C
:1016E0009B689C46664433689A46191C404622F023
:1016F000FAFB04907668B346311C381C22F0F3FBE9
:10170000011C049822F0CFFB061C08905946404665
:1017100022F0E9FB80465146381C22F0E4FB011C14
:10172000404622F0C5FB071C0990311C029B9B46DA
:10173000181C22F0BDFB019B009A94466344984616
:10174000FC21890522F0CFFB43461860391C039B1E
:101750009A46181C22F0ACFBFC21890522F0C3FB41
:1017600043465860311C584622F09DFB009A94462F
:101770006544FC21890522F0B6FB28605146381CDF
:1017800022F091FBFC21890522F0ADFB6860013459
:101790000599CB0F8C4663445B10A34200DB6BE7DB
:1017A00013B0F0BCBB46B246A946A046F0BDC04649
:1017B0009C4B0310FFFFFF1F0020704710B51EF069
:1017C000D9F8002010BD000010B51EF06FF90029F7
:1017D00000DB10BD024B034A3F2103481EF028FDE9
:1017E000C44B0310E04B0310184C031010B501005C
:1017F00001480AF027F810BD604C031010B522F024
:101800002FFC02000B0002480AF01CF810BDC04675
:10181000644C031010B522F05FFE10BD10B522F02D
:101820006DFE10BD10B522F08DFE10BDF0B5DE4688
:1018300057464E464546E0B589B00B0007914468CF
:10184000029449680391526806925B8842889246E6
:10185000028805920022049299466EE02168286869
:1018600022F041FB011C301C22F022FB061C4B46DF
:101870009F00E4192168686822F035FB011C301CC8
:1018800022F016FB061CE4192168A86822F02BFB45
:10189000011C301C22F00CFB061CE41910239C4692
:1018A000AC4463460093E868216822F01CFB011CED
:1018B000301C22F0FDFA061CE41901225242944623
:1018C000E044009D4346002BC8D1032753461F40E8
:1018D0000CE001CD216822F006FB011C301C22F037
:1018E000E7FA061C4B469B00E418013F002FF0D19D
:1018F000019B40C3012252429446E3444A46594662
:10190000541AA400039A94466444002906D0019313
:1019100053469B089846029D0026D3E7049B4B4400
:10192000049353469B00029A94469C446346029358
:10193000059B013B0593002B09D0049B9B00069A55
:10194000944663440193079B5C68CB46E0E7002024
:1019500009B0F0BCBB46B246A946A046F0BDF8B5FA
:10196000CE46474680B50E1C4468556803884788B4
:101970005F43B946BF081BE0311C206822F0B3FA70
:101980002860311C606822F0AEFA6860311CA068E3
:1019900022F0A9FAA86010239846A044E0682C0021
:1019A0001034311C22F09FFAE860013F25004446C4
:1019B000002FE1D103374B461F4005E001CC311C1D
:1019C00022F091FA01C5013F002FF7D10020C0BCE1
:1019D000B946B046F8BDF0B5CE46474680B50300DF
:1019E000426849688C4600885E8805000023984656
:1019F00020E01168196081005B1854681C605B1856
:101A000094681C605B18D4681C605B18013F10323E
:101A1000002FEED10321314004E080CA1F6087000F
:101A2000DB1901390029F8D101239946C844013D49
:101A3000002D04D043469B006344B708E8E700202C
:101A4000C0BCB946B046F0BDF0B5DE4657464E467E
:101A50004546E0B583B08A4600920193040020CC4D
:101A600001235B4253449B469F080026002398466F
:101A700002E00436013F4C46002F2ED023689946E1
:101A8000191C281C22F068FA002802D0731C984602
:101A90004D4663689946191C281C22F05DFA0028FF
:101AA00002D0B31C98464D46A3689946191C281CC1
:101AB00022F052FA002802D0F31C98464D4610231B
:101AC0009946A144E468211C281C22F045FA00280C
:101AD000CFD0331D9846251CCBE703265B461E401E
:101AE00000E0013E002E0BD080CC391C281C22F0D7
:101AF00033FA0028F5D053469B1B98463D1CF0E76F
:101B0000009B1D60019B42461A6003B0F0BCBB46BF
:101B1000B246A946A046F0BDF0B5DE4657464E4651
:101B20004546E0B583B08A4600920193040020CC7C
:101B300001235B4253449B469F080026002398469E
:101B400002E00436013F4C46002F2ED02368994610
:101B5000191C281C22F016FA002802D0731C984683
:101B60004D4663689946191C281C22F00BFA002880
:101B700002D0B31C98464D46A3689946191C281CF0
:101B800022F000FA002802D0F31C98464D4610239C
:101B90009946A144E468211C281C22F0F3F900288E
:101BA000CFD0331D9846251CCBE703265B461E404D
:101BB00000E0013E002E0BD080CC391C281C22F006
:101BC000E1F90028F5D053469B1B98463D1CF0E7F1
:101BD000009B1D60019B42461A6003B0F0BCBB46EF
:101BE000B246A946A046F0BDF8B5CE46474680B5F8
:101BF0000400894690468F08002523E02168081CD0
:101C000022F071F9291C22F053F9051C6168081CA7
:101C100022F069F9291C22F04BF9051CA168081C67
:101C200022F061F9291C22F043F9051C2600103628
:101C3000E068011C22F057F9291C22F039F9051C33
:101C4000013F3400002FD9D103374B461F4009E034
:101C500001CC011C22F047F9011C281C22F028F9B4
:101C6000051C013F002FF3D1484622F090F9011CDA
:101C7000281C22F022F9041C002122F07BF9002804
:101C800008D0201C22F0F6F943461860C0BCB946C3
:101C9000B046F8BD002342461360F7E7F8B5CE46DC
:101CA000474680B505000C00904696082BE00023BF
:101CB000E85E22F071F9E021890522F014F9206034
:101CC0000223E85E22F068F9E021890522F00BF991
:101CD00060600423E85E22F05FF9E021890522F0CC
:101CE00002F9A06008239946A9440623E85E22F081
:101CF00053F927001037E021890522F0F4F8E0605D
:101D0000013E4D463C00002ED1D1032247461740EC
:101D10000BE0AE1C0023E85E22F03EF9E0218905CD
:101D200022F0E1F801C4013F3500002FF1D1C0BC21
:101D3000B946B046F8BDF0B5C64600B588460025A0
:101D40001BE06B009C5AA4086B1C5B009B5A9B0811
:101D5000A700C7193E68B4469E00861931683960ED
:101D6000614631600134A4000419266801339B00E8
:101D7000C318196821601E600235A845E1D880BCEF
:101D8000B846F0BDF0B5DE4657464E464546E0B58E
:101D9000A5B005001290080013912B889A000C0042
:101DA0008C466244110010926A6890465A0811925B
:101DB000920085188A469244DB080093894657466C
:101DC0002EE123689A462093636801932193A268C9
:101DD00002922292E168039123914846006883466B
:101DE0001C904846406804901D904E46B668059683
:101DF0001E964B46DE681F962B680C9318936A68F4
:101E00000D921992A96806911A91E8680E901B909C
:101E10003B68079314937A6808921592B968099100
:101E20001691F8680A9017905946504622F040F8EB
:101E300020600499019822F03BF8606005990298AF
:101E400022F036F8A06010239C46A44463460F930A
:101E5000311C039822F02CF8E0605946504622F0DD
:101E600022F80B901C900499019822F01CF8019024
:101E70001D900599029822F016F802901E90311CD0
:101E8000039822F010F8061C1F9007990C9B9B46A4
:101E9000181C22F00DF8286008990D9B9A46181C12
:101EA00022F006F868600999069822F001F8A86007
:101EB00010229446AC44624604920A990E9C201C5F
:101EC00021F0F6FFE8605946079821F0ECFF8346C1
:101ED00014905146089821F0E6FF82461590069925
:101EE000099821F0E0FF03901690211C0A9821F038
:101EF000DAFF0590179041460C684D68211C0B983D
:101F000021F0F1FF0690291C019821F0ECFF0790C9
:101F1000211C019821F0E7FF0190291C0B9821F06A
:101F2000E2FF08900799069821F0C2FF4946086031
:101F30000899019821F0B7FF49464860291C584686
:101F400021F0D1FF0190211C504621F0CCFF0690DA
:101F5000291C504621F0C7FF051C211C584621F0C2
:101F6000C2FF041C0699019821F09DFF3860211CD6
:101F7000281C21F09DFF786041468C681021414467
:101F80008A464146CD68211C029821F0ACFF80466C
:101F9000291C301C21F0A7FF8346211C301C21F096
:101FA000A2FF061C291C029821F09DFF01905946B2
:101FB000404621F07DFF4946886010234B449B46F4
:101FC0000199301C21F06FFF4946C860291C039815
:101FD00021F089FF061C211C059A9146101C21F056
:101FE00082FF8046291C484621F07DFF051C211CEC
:101FF000039821F078FF041C4146301C21F053FF68
:10200000B8603E001036211C281C21F051FFF860FA
:10201000009B013B0093D046D9463700049D0F9C9E
:10202000009B002B00D0CCE66B4644229B181C88FA
:10203000129D6B6800930223009A2100139800F010
:1020400033FC6A6802232100109800F02DFC25B0B3
:10205000F0BCBB46B246A946A046F0BDF0B5DE4690
:1020600057464E464546E0B5AFB0050021900C00FE
:1020700003885B089A008C46944466469444614603
:1020800094446046371F01970F1F02971C90071F4B
:102090000397BC46624404926A6893465A082092A9
:1020A0001D9424680F000D68291C201C21F000FFDE
:1020B0008246291C201C21F0F6FE80461D9C646887
:1020C0001F977D68291C201C21F0F2FE0590291C19
:1020D000201C21F0E8FE814675684146281C21F04D
:1020E000E7FE1C9B5C68211C21F0DDFE07902A9016
:1020F0001E963768391C484621F0D5FE1C9B1E6889
:10210000311C21F0D5FE08902B90391C52460692C6
:10211000504621F0C8FE311C21F0C5FE82462690B3
:10212000291C059821F0BFFE211C21F0BCFE09905E
:102130002790291C404621F0B6FE011C201C21F0EE
:10214000B7FE051C22904946381C21F0B1FE311C17
:1021500021F0A9FE041C23900699381C21F0A8FE4A
:10216000011C301C21F0A4FE1D9E30601E9F78686B
:102170000690059921F09CFE1C9B5B680593083630
:10218000191C21F095FE1D9A5060079939600820AE
:10219000BC4660448046089979601F9F514639606B
:1021A0000821BC4661448A46099979601C980560FB
:1021B000082184466144446008235B441393102340
:1021C0005B44149308331593209A931E5B08059380
:1021D00044468846D146DEE135684B461F68391CC7
:1021E000281C21F065FE0690391C281C21F05BFE9E
:1021F000824675684B465F68391C281C21F058FEE2
:102200000790391C281C21F04EFE051C63689B4674
:10221000534608935146584621F04AFE43465B68B0
:102220009A46191C21F03FFE09902A902768391C14
:102230000D95281C21F037FE42461568291C21F017
:1022400037FE0A902B90391C069821F02CFE291C91
:1022500021F029FE0B9026905946079821F023FE85
:10226000514621F020FE179027905946089821F0FA
:102270001AFE011C504621F01BFE0C9022900D9975
:10228000381C21F015FE291C21F00DFE189023901A
:102290000699381C21F00CFE011C281C21F008FEB8
:1022A00030600799606821F003FE08218C46B44431
:1022B000614616914546696821F0FAFD7060019DFE
:1022C0002E1F3568039B181F83460768391C281C7E
:1022D00021F0EEFD0D90391C281C21F0E4FD0E903C
:1022E000019D2D68039B1F68391C281C21F0E0FD0F
:1022F0000F90391C281C21F0D6FD8246029F3968B8
:10230000081C049A1568291C069021F0CCFD0E9932
:102310001A9021F0CDFD10902C90043F3968079160
:1023200053461993504621F0BEFD049A131F9A4656
:102330001B680893191C21F0BBFD11902D90079983
:102340000D9821F0B0FD089921F0ADFD1B9028906B
:1023500006990F9821F0A7FD291C21F0A4FD1290E9
:1023600029900E991A9821F09EFD0E9024900799BD
:10237000089821F098FD199921F095FD1990259064
:102380000F99069821F094FD011C281C21F090FD66
:10239000019D28600D99386821F08AFD083D01955E
:1023A0005546296821F084FD3060139805680600C1
:1023B000083606964668291C099821F094FD079076
:1023C000311C0A9821F08FFD0890291C0A9821F0F1
:1023D0008AFD0A90311C099821F085FD0990089921
:1023E000079821F065FD206008218C46A4446146D1
:1023F000079109990A9821F056FD6060311C1198E7
:1024000021F071FD041C291C109821F06CFD08902E
:10241000311C109821F067FD061C291C119821F031
:1024200062FD051C0899201C21F03DFD029A1060F8
:10243000083A0292291C301C21F03AFD3860149FA2
:102440003D687C6810371497291C0B9821F04BFDD0
:102450000890211C179F381C21F045FD0990291C6C
:10246000381C21F040FD061C211C0B9821F03BFD7F
:10247000071C0999089821F01BFD494608600821AE
:1024800049440891391C301C21F00DFD4F467860FD
:1024900080273F06129EB44667443800291C21F06D
:1024A00022FD061C211C1B9FB946381C21F01BFD78
:1024B000071C291C484621F016FD051C211C1298FA
:1024C00021F011FD041C391C301C21F0ECFC039B95
:1024D0001860083B0393291C201C21F0E4FC5F4694
:1024E0003860159F3C687D6818371597211C0C983B
:1024F00021F0F9FC8346291C189F381C21F0F3FCBD
:102500008146211C381C21F0EEFC061C291C0C986D
:1025100021F0E9FC071C4946584621F0C9FC434616
:102520001860082343449946391C301C21F0BBFC39
:1025300047467860291C199A9346101C21F0D3FC59
:10254000061C211C0E9B9846181C21F0CCFC071C75
:10255000291C404621F0C7FC051C211C584621F0CF
:10256000C2FC041C391C301C21F09DFC049908603D
:1025700008390E00211C281C21F09AFC57463860AF
:10258000059F013F0597C84608998946079C06980C
:1025900013900496169E059B002B00D01CE6CA469D
:1025A000C146A046346853461D68291C201C21F0F2
:1025B0007FFC0190291C201C21F075FC029074689E
:1025C00053465D68291C201C21F072FC0390291CD5
:1025D000201C21F068FC071C43465B689B4602995F
:1025E000181C21F065FC4B465D68291C21F05BFC42
:1025F00004902A9042461468211C0797381C21F049
:1026000052FC4A461768391C21F052FC05902B9069
:10261000211C019821F047FC391C21F044FC069054
:1026200026905946039821F03EFC291C21F03BFCE2
:10263000089027905946029821F035FC011C281C6F
:1026400021F036FC834622900799201C21F030FCB3
:10265000391C21F028FC029023900199201C21F0C4
:1026600027FC011C381C21F023FC306003994046F4
:10267000406821F01DFC4946496821F019FC706052
:1026800013990E684F68311C049821F02CFC041C2F
:10269000391C059821F027FC051C311C059821F0F8
:1026A00022FC061C391C049821F01DFC071C291C67
:1026B000201C21F0FDFB41460860391C301C21F034
:1026C000F2FB4146486014990E684F68311C069829
:1026D00021F009FC041C391C089A9046101C21F0BA
:1026E00002FC051C311C404621F0FDFB061C391C78
:1026F000069821F0F8FB071C291C201C21F0D8FBB0
:1027000053461860391C301C21F0CDFB53465860ED
:10271000159B1E685F68311C584621F0E4FB041CC1
:10272000391C029B9846181C21F0DDFB051C311C4E
:10273000404621F0D8FB061C391C584621F0D3FB3B
:10274000071C291C201C21F0B3FB4B461860391CC8
:10275000301C21F0A8FB4B4658606B4680229B182A
:102760001C88219D6B6801930423019A21001D9808
:1027700000F09AF86B6801930423019A21001E98D7
:1027800000F092F86B6801930423019A21001F98CE
:1027900000F08AF86A68042321001C9800F084F88D
:1027A0002FB0F0BCBB46B246A946A046F0BDF0B57E
:1027B000D6464F464646C0B580460C0091469A46DE
:1027C00005882F00012A14D080235B009D4222D06F
:1027D00026D8402D2DD01AD9802D3AD05346002B23
:1027E0003CD14B46012B40D0E0BCBA46B146A8468E
:1027F000F0BD0431002307E00A688020000684460B
:1028000062440A6008310133BB42F5D3DCE7102D86
:102810001FD0202DE2D121004046FFF71FFCDDE74D
:1028200080231B019D42F6D00BD980235B019D4282
:10283000D4D10123424652682900200000F034F828
:10284000CCE780239B009D42F3D08023DB009D4298
:10285000C4D121004046FFF795FABFE743469A6886
:1028600099892000FFF767FABBE7280021F08FFB6A
:10287000011CFE20800521F020FB061C002510E035
:10288000311C206821F02FFB206063688022120633
:10289000944663441800311C21F025FB6060083425
:1028A0000135BD42ECD39FE7F0B5DE4657464E46B4
:1028B0004546E0B5B1B02F922E93239122918046E8
:1028C000229BDB0821930023019301980100219AA8
:1028D00094466144894617004F44D51953199C44C6
:1028E00061461600059166449446B44462460992D6
:1028F000C2000392140044442268DB0004931900D0
:1029000041448A460B689B46191C0292101C21F018
:10291000CFFA10905946029821F0C5FA02904B4622
:10292000DB009B4643465B440A931A689146059B2D
:10293000DB0005931A0042440B9211680691484649
:1029400021F0B6FA11900699484621F0ACFA12909F
:10295000FF00069747440C973F68F60007964644E9
:102960000D9631688946381C21F0A2FA061C4946AA
:10297000381C21F098FA1390ED00089545440E9507
:102980002F680999C900099141440F910A6891463D
:10299000111C381C21F08CFA051C4946381C21F00A
:1029A00082FA1490311C109B9946181C21F07BFA76
:1029B0001590311C484621F07BFA061C291C119BFE
:1029C0009946181C21F06FFA1690291C484621F0F0
:1029D0006FFA051C011C301C21F06AFA2060291CCA
:1029E000301C21F060FA54462060039C04344444B7
:1029F0002568049F3B1D9C46C444674610973E686B
:102A0000311C281C21F054FA0390311C281C21F0A1
:102A10004AFA04905A46131D9C46C44462461192D9
:102A20001568059B04339A46C24457463E68311CDC
:102A3000281C21F03DFA0590311C281C21F033FAA6
:102A40001790069B1F1D47443D68079B1E1D46446B
:102A500033689946191C281C21F02AFA0690494629
:102A6000281C21F020FA0790089D0435AB46C3448A
:102A70005D462D68099A131D9946C1444946096867
:102A80000991281C21F014FA08900999281C21F0BA
:102A90000AFA09900699039821F005FA051C06998F
:102AA000039821F005FA03900899059821F0FBF9A5
:102AB00006900899059821F0FBF90590011C0398F0
:102AC00021F0F6F920600599039821F0ECF9109CAB
:102AD00020600699159C201C21F0EAF90C9B1860D7
:102AE0000699201C21F0DFF90D9B1860169C211C13
:102AF000281C21F0D8F93860291C201C21F0D8F9B5
:102B00003060149E311C129C201C21F0CCF96349CA
:102B100021F0E9F9051C311C201C21F0C9F95F499D
:102B200021F0E1F9041C0999179F381C21F0BBF929
:102B30005A4921F0D8F9061C0999381C21F0B8F936
:102B4000564921F0D0F90390291C029821F0ABF9E5
:102B5000071C291C029821F0ABF90290211C139D3F
:102B6000281C21F0A0F90590211C281C21F0A0F9B7
:102B7000051C311C049821F096F9041C311C0498A2
:102B800021F096F9061C0399079821F08CF904901E
:102B90000399079821F08CF90390011C029821F009
:102BA00087F90A9B18600399029821F07CF90F9924
:102BB00008600499381C21F07BF90B9A1060049985
:102BC000381C21F070F90E9B1860291C301C21F074
:102BD0006AF9119A1060311C281C21F069F94B46E2
:102BE0001860059D291C201C21F05DF953461860D2
:102BF000211C281C21F05CF95B4618600198229B7F
:102C00009C4660440190239B834200D95DE6219B52
:102C1000072B00D8DCE201232C9300232D93C3461D
:102C20002D9D2E9B9C4665442D956B00AC466344C0
:102C3000E81829186A18A8469044EE002F9FBC593E
:102C400008942D017C590994DB009C46FC5824947F
:102C5000C0003C580A94C9007C582594D200BC5846
:102C600026944346DC003B590B930436BB590C9326
:102C700004357B59279363460433FB58289304306B
:102C800038580D900431795829910432BA582A9253
:102C900004343B592B932C9B019301E0F304353F03
:102CA00001980100219A94466144894617004F44D7
:102CB000D51953199046984416004644B4446246C8
:102CC0000392C200049214005C4421688A46DB002F
:102CD00005931A005A440E9211680291504621F051
:102CE000E7F817900299504621F0DDF8199049460F
:102CF000C900069159440F910B6899464346DB0081
:102D000007935B44109318688246011C484621F0E3
:102D1000CFF880465146484621F0C5F81A90FF008A
:102D2000BA465F46574411973F68F60012965E44D4
:102D3000139630688146011C381C21F0B9F8061C36
:102D40004946381C21F0AFF81B90ED0014952F0078
:102D50005F4415973D68039FFF00BC46DC44604616
:102D6000169001688946281C21F0A2F80390494674
:102D7000281C21F098F81C90311C179B9946181CB0
:102D800021F091F80290311C484621F091F8061C80
:102D9000039B9946191C404621F085F81D90494631
:102DA000404621F085F8051C011C301C21F080F8FC
:102DB0002060291C301C21F076F80390049C251D0E
:102DC0005D442E68059B1C1D5C4422689046111CC6
:102DD000301C21F06DF81E904146301C21F063F844
:102DE0001F90069B04339C46DC44634617931E6881
:102DF000079B04339C46DC44634618931968884655
:102E0000301C21F055F804904146301C21F04BF85D
:102E1000209051460E1D5E4431688946129B043352
:102E20009846D844414609688A46484621F040F809
:102E300005905146484621F036F80690149B04331D
:102E40009A46DA445146096889463B1D9C46DC4453
:102E5000674612973F68391C484621F029F80790C9
:102E6000391C484621F01FF8149005991E9F381C04
:102E700021F019F881460599381C21F019F8071C32
:102E80000799049821F00FF805900799049821F00C
:102E90000FF804900599029821F00AF80790059917
:102EA000029821F000F802900499381C21F000F8F3
:102EB00028600499381C20F0F6FF04901D9D291C01
:102EC000484620F0F0FF071C4946281C20F0F0FF80
:102ED000051C03990A9821F006F8814604990D987B
:102EE00021F001F8059004990A9820F0FCFF049065
:102EF00003990D9820F0F7FF03900599484620F0BC
:102F0000D7FF0E9A10600399049820F0CCFF206040
:102F10000799099820F0E7FF041C391C279B994664
:102F2000181C20F0E0FF0390391C099820F0DBFF0B
:102F3000071C0799484620F0D6FF81460399201CBC
:102F400020F0B6FF119C20604946381C20F0ABFFF2
:102F500030600299269F381C20F0C5FF041C291CF4
:102F60002A9B9946181C20F0BEFF061C291C381C01
:102F700020F0B9FF051C0299484620F0B4FF071C59
:102F8000311C201C20F094FF139E3060391C281C3B
:102F900020F089FF444620601C9B9846191C1A9C0F
:102FA000201C20F080FF8E4920F09DFF061C41462A
:102FB000201C20F07DFF8A4920F095FF051C149B02
:102FC0009846191C209C201C20F06DFF844920F09D
:102FD0008AFF071C4146201C20F06AFF804920F030
:102FE00082FF041C311C199B9946181C20F05BFFC2
:102FF0008046311C484620F05BFF0290291C1B9E36
:10300000301C20F050FF0390291C301C20F050FF92
:10301000061C391C1F9B9946181C20F044FF051CF8
:10302000391C484620F044FF071C211C069820F05C
:103030003AFF8146211C069820F03AFF0490011CBB
:10304000029820F035FF041C0499029820F02BFF11
:1030500002904946404620F02BFF049049464046E6
:1030600020F021FF8146311C381C20F01CFF8046D7
:10307000391C301C20F01CFF071C0399281C20F071
:1030800012FF061C291C039820F012FF0390211C3C
:10309000089820F028FF051C41460C9820F023FFDB
:1030A00005904146089820F01EFF8046211C0C9890
:1030B00020F019FF041C0599281C20F0F9FE0F9937
:1030C0000860211C404620F0EEFE179B1860029914
:1030D0000B9820F008FF041C391C2B9B9846181CE9
:1030E00020F001FF051C391C0B9820F0FCFE071C8A
:1030F0000299404620F0F7FE8046291C201C20F053
:10310000D7FE169908604146381C20F0CCFE129973
:1031100008600499259F381C20F0E5FE041C311C32
:10312000299B9846181C20F0DEFE051C311C381C1B
:1031300020F0D9FE061C0499404620F0D4FE071C5E
:10314000291C201C20F0B4FE109A1060391C301C81
:1031500020F0A9FE189B18604946249F381C20F0D7
:10316000C2FE041C039E311C289B9846181C20F0AC
:10317000BAFE051C311C381C20F0B5FE061C494661
:10318000404620F0B0FE071C291C201C20F090FEB9
:10319000159D2860391C301C20F085FE53461860B0
:1031A0000198229B9C4660440190239B834200D956
:1031B00076E52C9B01332C93219A9A4200D92FE576
:1031C000D8462E9BDB009BB22E932292FFF778FB12
:1031D00031B0F0BCBB46B246A946A046F0BDC046E1
:1031E000F304353FF0B5DE4657464E464546E0B55A
:1031F00087B00C00150043690288013A00924F68BD
:103200000821884698442168081C20F051FE061CBD
:10321000391C381C20F04CFE071C011C301C20F00F
:1032200047FEFC21890520F05EFE2860391C301C19
:1032300020F039FE2F000837FC21890520F053FECD
:103240006860009BDE00A6190834B1464646A046D9
:103250001D004B465C681A68434619685B6800931A
:103260003068834670688246083604910392101CC9
:1032700020F019FE019000990294201C20F018FE05
:10328000041C0199584620F02EFE059001995046E5
:1032900020F029FE0190211C584620F024FE834690
:1032A000211C504620F01FFE041C0499039820F0B6
:1032B000FFFD059920F0FCFD211C20F0F9FDFC210B
:1032C000890520F010FE38600299009820F0EBFD8F
:1032D000019920F0EDFD594620F0E5FD3C0008374E
:1032E000FC21890520F0FFFD606008239C46E04436
:1032F000103B9C46E144013D002DAADC07B0F0BC28
:10330000BB46B246A946A046F0BDF0B5DE465746DC
:103310004E464546E0B589B00D0016004469038865
:10332000013B99460F684B6898460834191C381CB5
:1033300020F0BEFDFC21890520F0D5FD306041461E
:10334000381C20F0B0FD08239846B044FC218905C4
:1033500020F0C9FD70604B46DF00EF1908353B00D7
:103360002F00464698465AE043465B680193424622
:1033700012683D6879680291206882460820844678
:10338000A4446046059063689B460392111C049513
:10339000281C20F088FD051C0299019820F088FD6A
:1033A000041C291C504620F09EFD0690211C584606
:1033B00020F099FD0790291C584620F094FD051C2B
:1033C000211C504620F08FFD041C0499039820F026
:1033D0006FFD069920F067FD079920F064FDFC2140
:1033E000890520F080FD30600199029820F05BFD96
:1033F000291C20F05DFD211C20F055FD350008350D
:10340000FC21890520F06FFD7060083708235B42BE
:103410009C46E04407339C46E144059C2E004B4605
:10342000002BA1DC09B0F0BCBB46B246A946A046C1
:10343000F0BDF8B504000E0017001D1E08D0FFF700
:1034400064FF01232A0039002000FFF7B0F9F8BD1E
:1034500001232A00FFF7ABF93A0031002000FFF703
:10346000C1FEF4E7102823D88000134B1B589F4659
:10347000124870471248FCE71248FAE71248F8E78A
:103480001248F6E71248F4E71248F2E71248F0E76C
:103490001248EEE71248ECE71248EAE71248E8E77C
:1034A0001248E6E71248E4E71248E2E71248E0E78C
:1034B0001248DEE71248DCE7F4570310EC5703101C
:1034C0006857031070570310785703108057031084
:1034D000885703109057031098570310A0570310F4
:1034E000A8570310B4570310C0570310C857031050
:1034F000D0570310D8570310E45703105057031048
:1035000060570310F0B583B004000D0017001E00D3
:10351000002200231EF006FD002804D000233B609B
:10352000336003B0F0BD32002000290031F0F8FA1A
:1035300000221D4B1EF0B3FC1FF07AF91EF088FD2F
:1035400004000D1E14DC00290ED080231B069C42B3
:1035500010D0002D26DC21D033681F3302DA00237F
:10356000336000243C60DCE780231B069842ECD9E2
:103570002CF0BEFD002DECD1EA0F002312196B4197
:103580001C001300E10700930194520811430C0042
:10359000019B5D10336801333360DAE780231B063B
:1035A0009C42D9D32CF0A4FD0000E041F8B5060000
:1035B0000F0015001C000022094B1EF0D1FC002852
:1035C00009D023002A0030003900FFF79BFF236851
:1035D000002B02DBF8BD2CF08BFD2CF089FDC046E2
:1035E0000000F03F30B585B01EF059FC04000D001E
:1035F00080200006089BD8401EF0CAFC22002B0049
:103600001EF04DFC00900191094A0A4B029203936F
:103610001EF0A6FC002808D16B46186859680A9B62
:10362000099AFFF7C3FF05B030BD02ABF5E7C0460E
:103630000000C0FFFFFFDF41F0B5C64600B5030044
:103640000C00012098400138D21A20235B42D31885
:103650002BD401259D400123934098461EF098FCF1
:1036600006000F00404629001EF0E6FC02000B0099
:10367000300039001EF013FC06000F0020235B42CF
:10368000E31817D4012199400120A0401EF0D4FC7A
:1036900002000B00300039001EF0E3FB1FF016F9AA
:1036A0001EF08EFC80BCB846F0BD20239B1A01257D
:1036B000DD40D0E720231B1B0121D940E4E70000B7
:1036C00030B58BB001910092DD681C6903950494BC
:1036D00001280AD0032820D0022845D00E9B019A49
:1036E0001A600F9B009A1A6013E0291C002020F03A
:1036F000E4FB20F0BFFD20F071FC24180594019B31
:10370000A34208DB01AB1B680E9A13600F9B009A63
:103710001A600BB030BD05ABF5E7291C002020F086
:10372000CCFB20F0A7FD20F059FC20180690019B4F
:10373000834215DB01AB1B680E9A1360291C1E48DF
:1037400020F0BBFB20F096FD20F048FC24180794E5
:10375000009BA34206DC6B461B680F9A1360D8E7F8
:1037600006ABE8E707ABF7E7291C144820F0A5FBF8
:1037700020F080FD20F032FC20180890019B83424D
:1037800016DB01AB1B680E9A1360291CFE20800516
:1037900020F093FB20F06EFD20F020FC241809940B
:1037A000009BA34206DC6B461B680F9A1360B0E7D0
:1037B00008ABE7E709ABF7E70000C040000080BFB7
:1037C00010B50B6802CB002A10DB8A4210DA920097
:1037D00099584B1C0ED000290EDB8368002B02D0B9
:1037E0008801181810BD036D9847FBE70020F9E722
:1037F0000020F7E70020F5E70020F3E710B54B685D
:1038000002CB002A10DB914210DD920099584B1C2C
:103810000ED000290EDB8368002B02D08801181817
:1038200010BD036D9847FBE70020F9E70020F7E79C
:103830000020F5E70020F3E710B5FFF7C1FF10BD4A
:10384000F0B5C64600B582B080461D00C868D16894
:1038500020F049FB041C20F003FC06000F000021AF
:10386000201C20F087FB002810D0E86820F0F8FB2F
:1038700002000B00300039001EF0F3FA089B1860BC
:103880005960002002B080BCB846F0BD43465C6978
:103890005223044A0092FF33034A04494046A0479A
:1038A0000120EFE7C858031038580310B058031030
:1038B000F0B5C64600B584B080460D0016001C0069
:1038C0000A9FC86820F0CCFB02900391F06820F0BA
:1038D000C7FB02000B00029803991EF0E0FA029069
:1038E0000391002C1AD0E06820F0BAFB02000B0014
:1038F000029803991EF0A3FA02904C006408F8683D
:1039000020F0AEFB02000B00029821001EF0A9FA85
:103910000E4A0F4B1EF014FB00280BD00B9B00939C
:103920003B00320029004046FFF78AFF04B080BC0C
:10393000B846F0BD43465C69A223064A00925B008C
:10394000054A06494046A0470120EFE77B14AE47F1
:10395000E17A943FE458031038580310B05803102C
:1039600030B583B00D0014001278032A0DD0092A57
:103970000ED0072A19D04469C2230D4A00925B0079
:103980000C4A0D49A04701200DE0FF22002102E072
:103990007F2280214942069801900093230028004D
:1039A000FFF78EFE002003B030BD044A0449F2E761
:1039B0000859031038580310B0580310FF7F000057
:1039C0000080FFFFF0B5DE4657464E464546E0B55F
:1039D0008DB004000D00049205933023CE5C012EBF
:1039E00014D045692F3B039302967E4B01937E4B87
:1039F0000093E0237D4A7E49A847012630000DB0A0
:103A0000F0BCBB46B246A946A046F0BD3023049A9E
:103A1000D75C012F0CD045692F3B03930297714B64
:103A20000193744B0093E223704A7149A847E5E77C
:103A3000049B5B6B002B15D01A689146002A1AD0A4
:103A400012689346012A5DDD0A78092A1CD0072AEC
:103A50001AD04569684B0093F223644A6749A84726
:103A60003E00CBE74569664B0093ED235F4A63490F
:103A7000A8473E00C2E74569624B0093EE235B4ACC
:103A80005E49A8473E00B9E7049A1278092A0ED089
:103A900065690923039302925B4B01935B4B00938F
:103AA000F423524A52492000A8473E00A6E71E9A36
:103AB00093450ED0656903925B460293544B019384
:103AC000544B0093F523494A49492000A8473E003A
:103AD00094E7049A926806929B689B00944663441C
:103AE0005B681E9A93420DD06569039302924A4B1C
:103AF0000193474B0093F6233C4A3D492000A847D9
:103B00003E007BE7EB680693169BDB689A464B46C4
:103B10000433079300235F461E00A346A84623E014
:103B20004B46586820F09CFA04000D00069820F0DF
:103B300097FA22002B001EF0B2F904000D00504647
:103B400020F08EFA02000B00200029001EF089F9F7
:103B50000AAB09AAFFF7D6FCB3001C9A0999D15009
:103B60001D9A0A99D15001361E9B9E4205DA012FFB
:103B7000D6DDB300079AD058D4E75C4645462B788B
:103B8000032B08D02B78092B21D0032B1FD0072B18
:103B90001DD0002632E7002200230A920B930AABC5
:103BA0000193169B0093059B049A41465846FFF7E4
:103BB0007FFE061E00D021E709AB189A0A980B99E0
:103BC000FFF7A0FC099B5B42199A1360DAE7179B89
:103BD00019781B9B00931A9B169A2000FFF7C0FED2
:103BE00006000BE72C5903104859031038580310EE
:103BF0001059031064590310B0590310B058031042
:103C00008059031094590310EC590310F85903100C
:103C1000085A0310185A03103C5A031070B582B0AA
:103C200005000E1E0DD0941B01940F2C0ED8286891
:103C3000012C14D0002C14D02200310020F094FC70
:103C40000FE09142EFD00B4824F03EF9002201A989
:103C5000280024F057FA2860019BAB60E7E733782F
:103C60000370019A6A602B689B1800221A7002B0D8
:103C700070BDC0467C5A031010B5002801D0006802
:103C800010BD2CF035FA002800D00068704710B540
:103C9000002801D0006810BD2CF02AFA002800D0BE
:103CA0000068704710B5002801D0006810BD2CF0E6
:103CB0001FFA002800D0006870477047084070471E
:103CC0000841704740187047C043704710B500283E
:103CD00002D00020FFF7F8FF10BD10B50123884285
:103CE00000DB00231800FFF7F1FF10BD10B5012322
:103CF000884200DC00231800FFF7E8FF10BD000039
:103D0000012808D003280BD002280ED00A4B0B60E4
:103D10000A4B136003E000230B60084B13607047ED
:103D200000230B60064B1360F9E7064B0B60FE2384
:103D30009B051360F3E7C046FFFF7FFFFFFF7F7F18
:103D40000000C040000080BF10B5002801D000680E
:103D500010BD2CF0CDF910B5836B002B02D03421AF
:103D6000984710BD2CF0C4F9F0B5DE4657464E46D4
:103D70004546E0B5A3B00F0003929B462D9B0A2158
:103D8000425E13920C21425E14920E21425E059215
:103D90001021425E0A920221425E15920421425E87
:103DA0001692026B1092426B0E923A68042A00D06F
:103DB00080E05A461268042A7ED12F9A1268009237
:103DC000042A7BD13A68002A7ADD052A7ADD7A68EE
:103DD00012682F990968002976DD052976DD2F996B
:103DE00049680968914274D121922F990968002984
:103DF00071DD052971DD2F994968096820918A4292
:103E00006EDC21AA126817923A68032A6ADD052A35
:103E10006ADD7A68D26859460968032966DD052992
:103E200066DD59464968C968914264D11F92594676
:103E30000968032961DD052961DD59464968C968BA
:103E40001E918A425EDC1FAA126802925A461268CC
:103E5000002A59DD052A59DD5A46526812682F9901
:103E60000968032955DD052955DD2F994968C96879
:103E7000914253D11D922F990968032950DD0529DC
:103E800050DD2F994968C9681C918A424DDC1DAAF2
:103E900012680F922E9A002A4ED01868052846DD27
:103EA0005B6800220121904243DD9400E4586143A5
:103EB0000132F8E72CF01CF92CF01AF92CF018F963
:103EC0002CF016F97A6884E72CF012F92F994968DA
:103ED00088E72CF00DF92CF00BF92F9949688DE744
:103EE00020AA8FE72CF004F93A6994E72CF000F946
:103EF0005946096998E72CF0FBF82CF0F9F8594677
:103F000009699DE71EAA9FE72CF0F2F85A4652680D
:103F1000A5E72CF0EDF82F990969A9E72CF0E8F84E
:103F20002CF0E6F82F990969AEE71CAAB0E7043334
:103F3000B7E70F9B8B423AD13B68012B39DD052B4C
:103F400039DD7B685B6808933B68022B36DD052B07
:103F500036DD7B689B6807935B461B68012B32DD6F
:103F6000052B32DD5B465B685B6809935B461B682B
:103F7000022B2EDD052B2EDD5B465B689B680493D0
:103F80002F9B1B68012B2ADD052B2ADD2F9B5B68ED
:103F90005B6812932F9B1B68022B26DD052B26DD09
:103FA0002F9B5B689B681193002300933DE12CF0ED
:103FB0009FF82CF09DF8BB680893C5E72CF098F8A3
:103FC000FB680793C8E72CF093F85B469B6809935E
:103FD000CCE72CF08DF85B46DB680493D0E72CF03F
:103FE00087F82F9B9B681293D4E72CF081F82F9BC6
:103FF000DB681193D8E72CF07BF82CF079F82CF0E3
:1040000077F82CF075F82CF073F82CF071F82CF090
:104010006FF82CF06DF82CF06BF82CF069F8434633
:10402000B046AB461E000136049B9E4266DA059DF3
:104030007543069BED18F6D4079B9D42F3DA4B4679
:10404000002BF0DB089B9945EDDA00243200464650
:104050005B46AB461D009046029B9C42DFDA3B6804
:10406000042BC8D1009B002BC7DB7A689342C4DACB
:104070004B46002BC3DBBB689945C0DA5A46002A81
:10408000BFDBF9688B45BCDA002CBCDB3A69944293
:10409000B9DA009843434B444B435B445343E31822
:1040A0009B00039A98582B68042BAED1002EAEDBF0
:1040B0006B689E42ABDA5346002BAADBAB689A458D
:1040C000A7DA4246002AA6DBE9688845A3DA002C75
:1040D000A3DB2A699442A0DA734353444B4343441D
:1040E0005343E3189B002C9A99581FF0FCFE011CC7
:1040F00001981FF0DDFE01900134ADE701239C46DD
:10410000E244099B9A4507DA0A9B524653430B9AAD
:1041100091469944002687E72E9B002B54D04346B6
:104120009B002E9AD15801981FF0C2FE2F9B1B684E
:104130000193042B4AD1009B002B49DB2F9A526834
:104140000192934244DA0C9B002B43DB2F9A956833
:10415000AB423FDA0D9B002B3EDB2F9AD1688B429E
:104160003ADA4346002B39DB2F9B1A69904535DA42
:10417000009B5D430C9B9C4665444D430D9B9C46B8
:10418000654455434544AD00309B9C4665441990B9
:1041900010991A910E9B1B931FF0DEFE00281FD171
:1041A00019AC21680E981FF0D7FE00281AD1236899
:1041B0002B6001239C46E0440F9B984514DA0023B2
:1041C0009A46002301939CE70021ACE72BF090FF77
:1041D0002BF08EFF2BF08CFF2BF08AFF2BF088FF4B
:1041E0001AACDEE71BACE2E70D9B01330D930D9A91
:1041F000119B9A4207DA139B5343159A9B1A069315
:1042000000239846D8E70C9B01330C930C9A129B21
:104210009A4207DA149B5343169A9B1A0B93002376
:104220000D93E4E7009B01330093009B179A9342A0
:1042300002DA00230C93E9E723B0F0BCBB46B24698
:10424000A946A046F0BD000030B5044B020032CBB9
:1042500032C232CB32C212CB12C230BDE45C031088
:10426000F0B5DE4657464E464546E0B5A7B0139139
:1042700014921E00319D339B426902920A21425ED4
:1042800017920C21425E18920E21425E0492102178
:10429000425E09920221425E19920421425E1A9204
:1042A000C2691292816A1F91C26A1E92914276DCA3
:1042B0003268042A75D12A68042A74D1359A1268A2
:1042C0000092042A71D13268002A70DD052A70DD5F
:1042D000726812683599096800296CDD05296CDD62
:1042E00035994968096891426AD1259235990968DA
:1042F000002967DD052967DD35994968096824913A
:104300008A4264DC25AA12681B923268032A60DDA7
:10431000052A60DD7268D268296803295DDD0529F8
:104320005DDD6968C96891425BD1239229680329E0
:1043300059DD052959DD6968C96822918A4256DC30
:1043400023AA126801922A68002A52DD052A52DD4A
:104350006A6812683599096803294EDD05294EDD22
:1043600035994968C96891424CD1219235990968BB
:10437000032949DD052949DD35994968C968209136
:104380008A4246DC21AA12681192349A002A4DD042
:10439000186805283FDD5B680022012141E02BF011
:1043A000A7FE2BF0A5FE2BF0A3FE2BF0A1FE2BF019
:1043B0009FFE72688EE72BF09BFE3599496892E765
:1043C0002BF096FE2BF094FE3599496897E724AAC6
:1043D00099E72BF08DFE32699EE72BF089FE296963
:1043E000A1E72BF085FE2BF083FE2969A5E722AA21
:1043F000A7E72BF07DFE6A68ACE72BF079FE3599D4
:104400000969B0E72BF074FE2BF072FE359909694B
:10441000B5E720AAB7E70433BEE79400E458614348
:1044200001329042F9DC119B8B4238D13368012B69
:1044300037DD052B37DD73685B6807933368022B24
:1044400034DD052B34DD73689B6806932B68012BE4
:1044500031DD052B31DD6B685B6808932B68022B1F
:104460002EDD052B2EDD6B689B680393359B1B6847
:10447000012B2ADD052B2ADD359B5B685B681693D3
:10448000359B1B68022B26DD052B26DD359B5B68E3
:104490009B681593002733003E001F00D6E12BF0E8
:1044A00027FE2BF025FEB3680793C7E72BF020FE0D
:1044B000F3680693CAE72BF01BFEAB680893CDE7C1
:1044C0002BF016FEEB680393D0E72BF011FE359B23
:1044D0009B681693D4E72BF00BFE359BDB68159396
:1044E000D8E72BF005FE2BF003FE2BF001FE2BF09E
:1044F000FFFD2BF0FDFD2BF0FBFD2BF0F9FD2BF06C
:10450000F7FD2BF0F5FD2BF0F3FDB1464646804656
:104510006046009B9C460130039B98426BDA0499ED
:104520004143059BC918F6D4069B9942F3DA002E45
:10453000F1DB079B9E42EEDA00220B006146009100
:1045400084464046B0464E469946019B9A42DCDA84
:104550003B68042BC5D100990029C4DB7B689942D4
:10456000C1DA4346002BC0DBBB689845BDDA4C4638
:10457000002CBCDBFC68A246A145B8DA002AB8DBF7
:104580003C69A242B5DA00994B43434451464B4340
:104590004B446343D3183099CC562B68042BAAD1D3
:1045A0000028AADB6B689842A7DA002EA7DBAB686D
:1045B0009E42A4DA61460029A3DBE9688B468C455C
:1045C0009FDA002A9FDB29698A468A429BDA4343A5
:1045D000F31859464B43634451464B43D318329921
:1045E000CB5602998A4654445C431D9B9A465444D8
:1045F0001D940132A9E701239A46D144089B9945AD
:1046000007DA099E4B465E430E9B9A4656440020AD
:1046100082E7664644463195349B002B06D0A300C2
:10462000349A9B581D9A944663441D931D98A30089
:10463000139AD2581499CB58191E00DAB1E0002B06
:1046400000DCB0E000239A468840824200D1ADE011
:1046500000239846C117D3171FF008FC02000B1E59
:1046600000DAADE08021C9050A91C9170B910A98BB
:104670000B9912184B41D917490049080C91002198
:104680000D910C980D9912184B4111005B00CA0F47
:10469000134399464346002B00D093E05346002B2A
:1046A00000DA92E01F2B00DD96E0012098400138EF
:1046B000FFF703FB80460020FFF7FFFA0090012080
:1046C000FFF7FBFA834641464846FFF7F7FA050035
:1046D00001214046FFF7F4FA804600994846FFF76B
:1046E000FCFA5946FFF7EAFA01004046FFF7EAFAFA
:1046F000804651464846FFF7E3FA81464146280086
:10470000FFF7F4FA5946FFF7D9FA01004846FFF7D8
:10471000D9FA1D90129B9C4660441D901F9B9842A5
:1047200061DB1DAB1B681D931E9A93425DDC1DABC4
:104730001A681D92359B1B680093042B57D1002EDD
:1047400057DB359B5B6800939E4252DA0F99002934
:1047500051DB359B9B6899424DDA109900294CDB5F
:104760003598C068814248DA002C48DB35990969E0
:104770008C4244DA73430F9DAC4663444343109824
:10478000844663444B43E3183699CA540134119B61
:104790009C4236DA00231D939946B446A046319DCB
:1047A0002CE700214BE75B429A464DE780231B062E
:1047B000984202D0002398464CE70123984649E7E7
:1047C000294951E7294B994668E7B321284B294AE3
:1047D000490029481BF02CFD6821284B254AFF3150
:1047E00025481BF025FD1FAB9CE71EABA0E72BF077
:1047F0007FFC2BF07DFC2BF07BFC2BF079FC2BF06D
:1048000077FCB346319D109B01331093109A159B92
:104810009A4209DA179B5343199A9B1A059300236E
:104820005E461C003195B2E75E460F9B01330F9345
:104830000F9A169B9A4208DA189B53431A9A9B1AAE
:104840000E9300231093B346E0E701361B9B9E4274
:1048500002DA00230F93EBE727B0F0BCBB46B24669
:10486000A946A046F0BDC046010000C0FFFFFF7F83
:10487000A85A0310B85A0310145B03108C5B031082
:10488000F0B5DE4657464E464546E0B5CFB005008A
:104890000F00A64B1B6800284BD000294BD09B0073
:1048A0000A68944663445968436D98470600A04BD4
:1048B0001B68002D41D0002F41D09B003A689446E0
:1048C0006344596828006B6D984780463B681B68B5
:1048D000032B36D000239946964B1B68002D44D0FD
:1048E000002F44D09B007A6894466344596828009E
:1048F0006B6D98470400796900293AD03F69002F11
:1049000039D0307A237A984237D06C690393029079
:10491000894B0193894B0093894B8A4A8A49280025
:10492000A04701204FB0F0BCBB46B246A946A04606
:10493000F0BD2BF0DDFB2BF0DBFB2BF0D9FB2BF0DC
:10494000D7FB824B1B68002D0BD0002F0BD09B0098
:104950003A6894466344596828006B6D98478146CD
:10496000BAE72BF0C5FB2BF0C3FB2BF0C1FB2BF000
:10497000BFFB2BF0BDFB2BF0BBFB43461B7A9842E1
:1049800005D06B697249280098470120CAE70128C1
:104990000BD009286ED06C69FEF764FD0200337AF3
:1049A0006C492800A0470120BCE73A000AA800F0A3
:1049B00005FB310018A801F037FB3000FFF75CF968
:1049C000824641461EA801F02FFB4046FFF754F9EE
:1049D000070024AD4946280001F026FB4846FFF7B2
:1049E0004BF980462AAE2100300001F01DFB20006B
:1049F000FFF749F9814630AC0021200001F014FB9B
:104A00000023069305944B46049303964346029372
:104A1000019500971EAB524618A90AA8FFF7A4F902
:104A2000309B052B04DD3198002801D01FF0AEFD2E
:104A30002A9B052B04DD2B98002801D01FF0A6FD32
:104A4000249B052B04DD2598002801D01FF09EFD36
:104A50001E9B052B04DD1F98002801D01FF096FD3A
:104A6000189B052B04DD1998002801D01FF08EFD3E
:104A7000002057E73A000AA800F06EF87B6A9A46D1
:104A8000BB6A9B46310036A801F0CEFA3000FFF732
:104A9000FEF809903CAF4146380001F0C5FA4046A7
:104AA000FFF7F5F8804642AD4946280001F0BCFA10
:104AB0004846FFF749F9814648AE2100300001F031
:104AC000B3FA2000FFF7EAF8069005964B460493E8
:104AD0000395434602930197099B009336AB5A46D0
:104AE00051460AA8FFF7BCFB489B052B04DD4998FB
:104AF000002801D01FF04AFD429B052B04DD43989E
:104B0000002801D01FF042FD3C9B052B04DD3D98A1
:104B1000002801D01FF03AFD369B052B04DD3798A5
:104B2000002801D01FF032FD0020FBE6985E031044
:104B3000A05E03109C5E03100C5C03101C5C031051
:104B40008A0600009C5B031010590310945E03104A
:104B5000285C0310C85C031070B504000E0015003B
:104B600013695B42436153695B4283619369C3612B
:104B7000D3690362136A5B424362087801F07CFAEE
:104B800020706B68A3802B686380B368A38173680F
:104B90006381736923823369E381EB6AA3622B6BC0
:104BA000E362200070BD0000F0B5DE4657464E4679
:104BB0004546E0B593B004000D0016001F0021AB80
:104BC0001B780B930B681B68032B0AD0022B08D0B1
:104BD0004569834B00935623824A8349A8470120A5
:104BE00011E06B681B68012B14D0656901220392E8
:104BF00002937E4B01937E4B00935723794A7D4964
:104C00002000A847012013B0F0BCBB46B246A9461D
:104C1000A046F0BD33789A46B368994673689846C3
:104C200073699B4633690D931D9A501E584301309A
:104C30004346002B17D05346012B04D0022B0AD039
:104C400000230C9310E038004044013841461CF02A
:104C50007FFE0C9008E03B004344181A41461CF0CC
:104C600077FE0C9000E00C931E9B581E5B46584349
:104C700001304B46002B14D05346012B03D0022B9E
:104C800008D000200EE01C984844013849461CF02A
:104C90005FFE07E01C9B4B44181A49461CF058FE67
:104CA00000E048461E9B013B5A46534301330138FE
:104CB0004A4650431B181C9A9B1A4AD4012119409A
:104CC000DA0FD3185B100F9311911D9B013B0D9AC6
:104CD000534301330C980138424650431B18DB1BE9
:104CE00039D401211940DA0FD3185B100EAA0E93A4
:104CF0001091229B83CA83C312681A600022290084
:104D00002000FEF75DFD8046002826D00122290004
:104D10002000FEF755FD8146002828D002222900F8
:104D20002000FEF789FD0700002229002000FEF781
:104D300065FD051E25D00B9B012B2CD143461B691D
:104D4000229A13614B461B6953612B6993610020C2
:104D500059E70023B2E70023C3E76569264B0093B8
:104D60006123204A20492000A84701204BE76569BC
:104D7000224B009363231B4A1B492000A8470120B4
:104D800041E765691E4B00936723164A16492000C8
:104D9000A847012037E74B469B685B680C36229A90
:104DA000926A0B9208930792229B5B6A0B9306937D
:104DB000229B30330593229B2C330493229B203378
:104DC0000393229B1C330293019600903B004A46BA
:104DD00041462000FEF7F6FD0028AFD013E7C0469D
:104DE0007C5D0310045D0310B0580310B064031021
:104DF000A05D031010590310B45D0310C85D0310CB
:104E0000DC5D0310F0B5DE4657464E464546E0B53C
:104E10008FB004000D000F69002F4CD04B699946EC
:104E2000002B4AD00022FEF7E9FC8246002846D03B
:104E3000002229002000FEF7C3FC061E50D00122EC
:104E400029002000FEF7BCFC8046002852D0B36841
:104E5000DA6809929B680A938368DA680B929A6809
:104E60000C9252469268D1680D91926893465B68A5
:104E70009B009A4619002000A36B98477862514620
:104E80002000A36B9847B8623378092B6CD130228D
:104E900041468E5C012E37D06569083B039302962C
:104EA0003B4B01933B4B00939F233B4A3B492000E4
:104EB000A84701260CE02BF01BF92BF019F96569C6
:104EC000374B00938723344A36492000A8470126F0
:104ED00030000FB0F0BCBB46B246A946A046F0BDBC
:104EE0006569314B009389232B4A2E492000A8473E
:104EF0000136EDE765692D4B00938B23264A29493E
:104F00002000A8470126E3E74A6B002A16D0116863
:104F1000002915D05068002814D00A68012A13D03F
:104F20004146896849688A420ED06569204B0093E2
:104F3000A823194A1B492000A847C9E72BF0D8F835
:104F40002BF0D6F82BF0D4F801688A420CD06569B2
:104F500003910292174B0193174B0093AC230E4A17
:104F60000E492000A847B3E7069705935B460493D4
:104F70000D9B03930C9B02930B9B01930A9B009345
:104F8000099B4A4629002000FFF70EFE06009FE716
:104F90002C59031064590310045D031010590310B9
:104FA000DC5D0310B0580310B45D0310C85D03103E
:104FB000F05D03106C5E0310185A031070B5040006
:104FC0000D001600087B2200343221003031FEF73C
:104FD00097FE287801F050F820703368638073687A
:104FE000A3806B686381AB68A3812B69E3816B69E4
:104FF0002382200070BD10B5002801D0006810BDCC
:105000002BF076F810B5002802D01CF069FC10BD1A
:105010002020FCE730B50400C5170800C9170019A7
:10502000694100290BDB0122002312184B41D80FE4
:10503000002180185941CB074008184330BD012298
:105040005242D317F1E7000070B50A00884219D028
:105050000024C117D3171EF009FF02000B1E19DB35
:105060008025ED052800E91712184B41DD176D006A
:1050700068080021801859414B00C00F1843002CCC
:105080000AD170BD80210906884201D00024E0E7E2
:105090000124DEE7014DE5E70148F2E7010000C029
:1050A000FFFFFF7F10B5FEF70DFE10BD70B50A00C3
:1050B000884219D00024C117D3171EF0D7FE020072
:1050C0000B1E19DB8025ED052800E91712184B414E
:1050D000DD176D0068080021801859414B00C00F92
:1050E0001843002C0AD170BD80210906884201D0E6
:1050F0000024E0E70124DEE7014DE5E70148F2E79F
:10510000010000C0FFFFFF7F7047401A704710B5D5
:10511000FFF7FBFF10BD000010B50200C317012010
:105120008840C1171EF0A2FE03004A1C09DB4A1C7E
:1051300003D000290CDC07D010BD8022120690425B
:10514000F7D280200006F7E7802212069342F3D3BD
:105150000048F1E7FFFFFF7F4840704770B504004B
:105160001600FEF7ABFD05002000FEF7ADFD310097
:10517000FEF7A4FD01002800FFF7EEFF70BD000060
:10518000F0B5C64600B5040080200006FEF795FD88
:1051900006001248FEF791FD80461148FEF78DFD8E
:1051A00001002000FEF7A2FD07000E48FEF785FD76
:1051B00001002000FEF791FD050002212000FFF70D
:1051C000ABFF020041463800FFF7C8FF0200310084
:1051D0002800FFF7C3FF80BCB846F0BDFFFFFF7F8C
:1051E000FFFFFF1F010000E010B5FFF7C9FF10BD72
:1051F000F0B5C64600B5040080200006FEF75DFD50
:1052000006001248FEF759FD80461148FEF755FD8D
:1052100001002000FEF76AFD07000E48FEF74DFD75
:1052200001002000FEF759FD050001212000FFF7D5
:1052300073FF020041463800FFF790FF0200310083
:105240002800FFF78BFF80BCB846F0BDFFFFFF7F53
:10525000FFFFFF3F010000C010B5FFF7C9FF10BD01
:10526000F0B5D6464F464646C0B504005048FEF756
:1052700024FD01002000FFF7CDFE06000020FEF710
:105280001CFD05000020FEF718FD80460120FEF7FA
:1052900014FD0400474F29003800FEF70FFD81463A
:1052A00001212800FEF70CFD050041463800FEF7FD
:1052B00014FD2100FEF702FD01002800FEF702FDAB
:1052C000804600213800FEF7FBFC050041464846B9
:1052D000FEF70CFD2100FEF7F1FC01002800FEF7AF
:1052E000F1FCFEF7EAFC82460020FEF7E6FC050032
:1052F0000020FEF7E2FC81460120FEF7DEFC040000
:105300002D4F29003800FEF7D9FC804601212800E6
:10531000FEF7D6FC050049463800FEF7DEFC21000A
:10532000FEF7CCFC01002800FEF7CCFC81460021F2
:105330003800FEF7C5FC050049464046FEF7D6FC9E
:105340002100FEF7BBFC01002800FEF7BBFCFEF7C6
:10535000B4FC01003000FFF777FE01005046FFF774
:10536000A1FE0400002517E021003000FFF76CFECD
:10537000070080208005FEF7A0FC3900FFF7C7FE7C
:1053800001002000FFF792FEFFF72EFF0100200032
:10539000FFF788FE04000135022DE5DD2000FFF750
:1053A000B3FEFFF759FFE0BCBA46B146A846F0BDD0
:1053B000FFFFFF7F5A5A5A5AC4C3C3C310B5836B49
:1053C000002B02D02021984710BD2AF091FE00004A
:1053D000F0B5D6464F4680B587B005000C000B6986
:1053E0009946002B2DD04B699A46002B2BD0394B78
:1053F0001A68FEF7E5F9061E27D0374B1A68210018
:105400002800FEF7DDF9071E2DD0344B1A68210065
:105410002800FEF711FA0590314B1A682100280088
:10542000FEF7ECF9041E29D03078237898422FD16A
:105430003B78984240D06B692A4928009847012060
:105440000CE02AF055FE2AF053FE6C69264B0093BF
:10545000264B274A27492800A047012007B0C0BC97
:10546000BA46B146F0BD6C69A323234A0092DB0023
:105470001F4A20492800A0470120EFE76C691F4B15
:1054800000931F4B1A4A1B492800A0470120E5E75B
:105490006F69FDF7E7FF06002078FDF7E3FF039053
:1054A0000296184B0193184B0093184B104A184959
:1054B0002800B8470120D1E7534619784B4603939B
:1054C0000294059B0193009733000200280000F02E
:1054D0006CFDC3E70C600310146003100860031038
:1054E000106003103C5F0310B45D0310150500004D
:1054F000A45E0310B0580310C85D0310DC5D0310F8
:105500001C0500000C5C03101C5C03101E05000051
:10551000205F031030B5044B020032CB32C232CBD5
:1055200032C212CB12C230BDE85F0310F0B5DE46C6
:1055300057464E464546E0B593B090461C9A914674
:105540001F99026892464268934682680C92C2682C
:1055500008920269099244691194806910901A684E
:10556000012A2DDD0D68022D2CD184422CDC086827
:1055700000282BDD05282BDD486800680D900868A1
:10558000012828DD052828DD496849680791911E12
:1055900026D41868814225DA052825DD8900586857
:1055A00041580798814223DB013A23D419688A4283
:1055B00022DA052922DD5B6892009C580027F8E07A
:1055C0002AF096FD2AF094FD2AF092FD2AF090FD33
:1055D00048680D90D3E72AF08BFD89680791D6E7DC
:1055E0002AF086FD2AF084FD890059184968D8E719
:1055F0002AF07EFD2AF07CFD2AF07AFD92009A18AE
:105600005468DBE723007B439B184946CB562100B7
:105610006943891840464156711853444B430F99CA
:105620008C4663440F930132A242EBDBB3461E9BD0
:10563000002B06D0AB001E9A9B580F9A94466344E9
:105640000F930F98099A131E00DA88E0099A002A2E
:1056500000DC86E0002204929840089B834200D13F
:1056600082E000230593C117089AD3171EF0FEFBB2
:1056700002000B1E00DA81E08021C9050091C917E4
:1056800001910098019912184B41D9174900490816
:105690000291002103910298039912184B415E0078
:1056A000D20F1643059B002B6AD1049B002B69DBAC
:1056B000049B1F2B6DDC0120049B98400138FEF7F2
:1056C000FCFA05900020FEF7F8FA0A900120FEF798
:1056D000F4FA069005993000FEF7F0FA0B900121DC
:1056E0000598FEF7EDFA05900A993000FEF7F5FAF5
:1056F0000699FEF7E3FA01000598FEF7E3FA059034
:1057000004993000FEF7DCFA060005990B98FEF7C5
:10571000EDFA0699FEF7D2FA01003000FEF7D2FA50
:105720000F900C9B9C4660440F90119B984237DB76
:105730000FAB1B680F93109A934233DC0FAB1A68C0
:105740000F92079B7B435B192099CA540135079B35
:105750009D4229DA00230F9300225E4664E700236E
:1057600074E75242049277E780231B06984202D0E6
:105770000023059377E70123059374E715497DE737
:10578000154E92E7B321154B154A490015481AF0FA
:105790004FFD6821144B124AFF3112481AF048FDA0
:1057A00011ABC6E710ABCAE743461C93C8469946FF
:1057B00001370D9B9F4205DA00254B461C93C146DD
:1057C0009846C4E713B0F0BCBB46B246A946A04613
:1057D000F0BDC046010000C0FFFFFF7FA85A0310C4
:1057E000B85A0310145B03108C5B0310F0B5DE464F
:1057F00057464E464546E0B595B090461E001E9B66
:105800009946219D03689A4643689B4683680C939A
:10581000C3680893036909934369119381691091DF
:105820003768012F12DD2A68002A11DD8B4211DC56
:105830002868013A10D482420EDA05280EDD6C6821
:1058400000230121AC46250014000DE02AF050FC95
:105850002AF04EFC2AF04CFC2AF04AFC2C1DEFE703
:105860009A00AA5851430133984203DD9C42F7D174
:105870000122F7E722000D916546BB1E30D4316846
:105880008B422FDA05292FDD9B007168CB58002A47
:105890002EDB29688A422DDA05292DDD9100686802
:1058A000415899422CD11393002A2BDB29688A4254
:1058B0002ADA05292ADD696892008A5812929342F1
:1058C00028DC13AB1B680793013F25D433689F4244
:1058D00024DA052B24DD7368BF00DC590027FAE0C9
:1058E0002AF006FC2AF004FC9B00F3185B68CEE764
:1058F0002AF0FEFB2AF0FCFB910069184968D0E70A
:105900002AF0F6FB2AF0F4FB2AF0F2FB9200AA1828
:105910005268D3E712ABD5E72AF0EAFB2AF0E8FB9E
:10592000BF00F7197C68D9E723007B439B184946E1
:10593000CB5C2100694389184046415C711853448F
:105940004B430F998C4663440F930132A242EBDB29
:10595000B346209B002B06D0AB00209A9B580F9A91
:10596000944663440F930F98099A131E00DA88E057
:10597000099A002A00DC86E0002204929840089BE5
:10598000834200D182E000230593C117089AD31700
:105990001EF06CFA02000B1E00DA81E08021C905BE
:1059A0000091C91701910098019912184B41D9171C
:1059B00049004908029100210391029803991218A5
:1059C0004B415E00D20F1643059B002B6AD1049B0E
:1059D000002B69DB049B1F2B6DDC0120049B98408E
:1059E0000138FEF76AF905900020FEF766F90A9083
:1059F0000120FEF762F9069005993000FEF75EF986
:105A00000B9001210598FEF75BF905900A9930008B
:105A1000FEF763F90699FEF751F901000598FEF7C4
:105A200051F9059004993000FEF74AF906000599EE
:105A30000B98FEF75BF90699FEF740F9010030007C
:105A4000FEF740F90F900C9B9C4660440F90119B11
:105A5000984237DB0FAB1B680F93109A934233DCED
:105A60000FAB1A680F92079B7B435B192299CA54AC
:105A70000135079B9D4229DA00230F9300225E46E1
:105A800064E7002374E75242049277E780231B0601
:105A9000984202D00023059377E70123059374E72A
:105AA00015497DE7154E92E7B321154B154A49007C
:105AB00015481AF0BDFB6821144B124AFF311248F9
:105AC0001AF0B6FB11ABC6E710ABCAE743461E930C
:105AD000C846994601370D9B9F4205DA00254B4683
