:020000041000EA
:1000000000B5324B212058609868022188439860DF
:10001000D860186158612E4B002199600221596106
:100020000121F02299502B49196001219960352056
:1000300000F044F80222904214D00621196600F024
:1000400034F8196E01211966002018661A6600F04E
:100050002CF8196E196E196E052000F02FF8012189
:100060000842F9D1002199601B49196000215960AB
:100070001A491B48016001219960EB211966A021F2
:10008000196600F012F800219960164914480160C1
:100090000121996001BC002800D000471248134993
:1000A000086003C880F30888084703B5996A0420EC
:1000B0000142FBD001200142F8D103BD02B5186610
:1000C0001866FFF7F2FF186E186E02BD00000240BE
:1000D000000000180000070000035F00212200005C
:1000E000F4000018222000A00001001008ED00E03C
:1000F00000000000000000000000000074B24E7A12
:1001000000200420F7010010C3010010C5010010F9
:10011000C1010010C1010010C1010010C101001097
:10012000C1010010C1010010C1010010C701001081
:10013000C1010010C1010010C9010010CB01001065
:10014000CD010010CD010010CD010010CD01001037
:10015000CD010010CD010010CD010010CD01001027
:10016000CD010010CD010010CD010010CD01001017
:10017000CD010010CD010010CD010010CD01001007
:10018000CD010010CD010010CD010010CD010010F7
:10019000CD010010CD010010CD010010CD010010E7
:1001A000CD010010CD010010CD010010CD010010D7
:1001B000CD010010CD010010CD010010CD010010C7
:1001C00000BE00BE00BE00BE00BE00BE00F04BF888
:1001D000103800BEF2EB88717CFF0710A8FF0710F3
:1001E0003402001090A31AE700202149086006C8D5
:1001F00081F3088810471F48006800282FD10DA4FC
:100200000ECC002902D000F012F8F9E71A491B4A77
:10021000002000E001C19142FCD1194988471949E9
:1002200088471949884700BEFDE701C901C29A42C3
:10023000FBD37047A8FF0710C0000020FC2500205A
:10024000E42408100000042000000420E424081026
:1002500000100420001004200000000070470B482C
:1002600023F0D6F80047EFF30580C0B270470000D6
:1002700008ED00E0000000D000260020B837032081
:10028000A11D0210FD0300105D1D02105756000055
:1002900006005250ABB36053DC24071006005250E6
:1002A000861C0302EC240710060052505422A29D23
:1002B000DCC2061005005250DE65F468E424081024
:1002C000F8B5C04610B5064C2378002B07D1054B76
:1002D000002B02D0044800E000BF0123237010BDB2
:1002E000E827002000000000D0C20610044B10B523
:1002F000002B03D00349044800E000BF10BDC046F6
:1003000000000000EC270020D0C2061010B5012824
:1003100000D010BD034B9942FBD10CF0CBF8024B3F
:100320001860F6E7FFFF00000428002010B50CF06D
:10033000C1F804001F4A204920480BF059FC0CF07A
:100340001DFC002825D00CF0F5FB002825D00DF071
:10035000E7F8002825D00CF099FB002825D0236869
:100360009B682000984723685B682000984780239B
:100370002268D35804212000984720000AF062FE2A
:100380000F4C20600F480BF033FC20681AF030FE51
:1003900010BD0D480BF02CFCD5E70C480BF028FCE9
:1003A000D5E70B480BF024FCD5E70A480BF020FCFE
:1003B000D5E7C046D0C20610DCC20610E8C206105F
:1003C0002C330020C4C3061024C3061054C30610E7
:1003D00074C30610A0C3061010B5FFF7A7FF0BF0FB
:1003E000FBFB0100FF29FAD0034B18681BF0ACFCA3
:1003F0000BF0F2FB0100F5E72C33002000B583B0D1
:1004000017201FF0ADFED0231B06802212045A6273
:100410005A6126F037F8002027F0B6FF0028FAD0FE
:10042000D0231B06802212049A61802200230193AC
:10043000013300930023D200034904482BF092FBC0
:100440002BF0F8FBFEE7C046F0C30610D9030010FE
:1004500010B504480BF0CCFB034B044AAD21044813
:1004600021F080FC8CC4061008C406109CC4061041
:1004700044C4061010B502490120FFF747FF10BD24
:10048000FFFF0000FEE70000F0B5CE4600B592B0D9
:1004900003900F001500189C6608721C9A4200D049
:1004A000E4E08C4200D22700A74242D000239946C4
:1004B0004B46002B40D00E930EAB00221A73012343
:1004C0000F9310940E98002800D1CAE04B46002BE1
:1004D0003BD0202C17D0402C15D0802C13D080235B
:1004E0005B009C420FD00133FF339C420BD0802332
:1004F000DB009C4207D080231B019C4203D0802359
:100500005B019C422FD1202C43D080235B009C4276
:1005100051D0574F002F61D00E98002804D00EAB59
:100520001B7B002B00D09EE0380012B080BCB94687
:10053000F0BD039B9946BBE7A000012101F034FA0E
:100540000E900EAB01221A73B9E7BB0099461A0050
:10055000039925F0D5FD0E984844E21B9200002136
:1005600025F0C8FDB5E70E9E08AB009300230022DE
:100570000021200001F016F8041E08D02A003100E6
:1005800001F0ECF8200001F013FA0027C4E7394F1E
:10059000C2E708AB10221A8000220992364A9189DC
:1005A000998191680A915268099220221A82334AED
:1005B0000D920027AEE708AB80221A800022099234
:1005C0002F4A9189998191680A91526809928022F3
:1005D00052001A822B4A0D9200279BE7A0000121AE
:1005E00001F0E2F9020004AB0490012119730591B6
:1005F0000694002811D000230E9908A802F0DFFF0E
:1006000004990B682B6000226A60F300EB184968BC
:1006100019605A600121022015E0002802D0CBB2F7
:10062000002B01D1134F77E701F0C2F9FAE7049AE2
:10063000CB00EB188400A4581C60441CA400A258F2
:100640005A60023001318E42F1D80498002800D15E
:1006500062E704AB1B7B002B00D15DE701F0A8F93A
:100660005AE7044F58E701F0A3F95DE7064F5BE74F
:1006700008FCFFFF16FCFFFF94D0061004D0061004
:1006800084D0061004CC061011FCFFFFF0B5DE4646
:1006900057464E464546E0B585B080460D004C08AD
:1006A000631C0293D8008E00012101F07DF982467F
:1006B000002800D1AFE00121300001F075F981463A
:1006C000002801D0002312E0504601F071F9534B8D
:1006D000039398E0D9009A004846464676588650DB
:1006E000EA1A013A920041444968815001339C4220
:1006F000F0D8EB0707D5A400494BEB189B004A46FE
:1007000041465B5813510095029B524629004846CA
:10071000FFF7BAFE0390002834D10024029BA342C5
:1007200037D9200023F0BCF93E4A3F4B23F043F970
:1007300006000F00680023F0B3F902000B00300040
:10074000390023F01AF923F03BFA061CE70057445E
:100750003B689B4625F038FA011C584625F04FF9B6
:1007600083467F68301C25F043FA011C381C25F0B5
:1007700046F9011CA6004644584625F025F930608C
:100780000134CBE7484601F013F9504601F010F967
:1007900039E0AC4231D2200023F082F9214A224BC9
:1007A00023F009F906000F00680023F079F9020030
:1007B0000B003000390023F0E0F823F001FA071CA9
:1007C0002E1BF600564433689B4625F0FDF9011CAC
:1007D000584625F014F983467668381C25F008FA47
:1007E000011C301C25F00BF9011CA600464458469C
:1007F00025F0E5F830600134CBE7484601F0D8F841
:10080000504601F0D5F8039805B0F0BCBB46B2469F
:10081000A946A046F0BD014B0393F4E716FCFFFF89
:10082000FFFFFF3F182D4454FB210940F0B5DE4681
:1008300057464E464546E0B585B0040001919946BD
:100840000932FF321700DD0045192B689A463B68D4
:100850009846191C504625F0D2F8061C6B687A6839
:100860009346111C0093181C25F0C9F8011C301C7C
:1008700025F0A5F8061C02905946504625F0BFF811
:1008800082460099404625F0BAF8011C504625F0F2
:100890009BF880460390019BDB00FF18311C206809
:1008A00025F08DF828604146606825F088F868607A
:1008B000311C206825F088F820604146606825F0EA
:1008C00083F860600835083401235B429C46E144AC
:1008D0004B46002BB9D105B0F0BCBB46B246A94689
:1008E000A046F0BDF0B5DE4657464E464546E0B55B
:1008F0009BB005000C910D920293842149008C4617
:10090000624493460793009201921FE04146089B80
:100910009946181C25F053F852461060391C099E60
:10092000301C25F051F8524650604146484625F0AB
:100930004BF82060391C301C25F041F86060083508
:10094000079B013B0793002B00D1FAE0029BDB00E1
:100950009A46AA44524617685A461468211C381C05
:1009600025F04DF88146524656685A4652689046E0
:10097000111C301C25F043F8011C484625F01FF8D7
:1009800003900E904146381C25F039F8071C311CA5
:10099000201C25F034F8011C381C25F015F80A90AD
:1009A0000F90029B1E01AE1930688046019A1468B0
:1009B000211C25F024F804907768019A5168894633
:1009C000381C25F01CF8011C049824F0F8FF049052
:1009D00010904946404625F012F88046391C201CEC
:1009E00025F00DF8011C404624F0EEFF0590119013
:1009F000029B5C009C466444E4002C192768009B21
:100A000018688046011C0697381C24F0F8FF071C64
:100A100063689946009B5B680893191C484624F05C
:100A2000EEFF011C381C24F0CAFF071C1290089925
:100A3000069824F0E4FF06904946404624F0DFFF84
:100A4000011C069824F0C0FF069013902B6898466E
:100A50000499181C24F0B3FF089018906B6899460D
:100A60000599181C24F0ABFF099019904146049891
:100A700024F0AAFF0B9028604946059824F0A4FFB3
:100A80006860391C039824F09FFF04901490069925
:100A90000A9B9846181C24F097FF81461590391C34
:100AA000039824F08CFF071C16900699404624F00A
:100AB00086FF8046179004990B9824F080FF3060E1
:100AC0004946686824F07BFF70600C9AD3009B4411
:100AD0001301019884469C4460460190530094465B
:100AE0006344DB00009A94469C4462460092049959
:100AF000286824F069FF28604946686824F064FF8C
:100B000068600D9A52680392002A00D0FEE64146C2
:100B1000089B9946181C24F057FF53461860391C4F
:100B2000099E301C24F04BFF53465860414648460E
:100B300024F045FF2060391C301C24F045FF606024
:100B4000FDE61BB0F0BCBB46B246A946A046F0BDD0
:100B5000F0B5DE4657464E464546E0B595B007002F
:100B60000791180005930B00434308A92133DB00CC
:100B7000D31830CB30C184235B009A469244D346CD
:100B8000049053460293059BDC003C192268914671
:100B90005A461668311C484624F031FF051C62682D
:100BA00090465A4652689246111C404624F027FF50
:100BB000011C281C24F003FF051C0C9051464846DC
:100BC00024F01DFF81464146301C24F018FF011C13
:100BD000484624F0F9FE00900D90059B1B019946B4
:100BE000B9444B461B689A46029B19688846504692
:100BF00024F005FF061C49464868029B5968069187
:100C0000039024F0FCFE011C301C24F0D8FE061CCE
:100C10000E900699504624F0F2FE82460399404613
:100C200024F0EDFE011C504624F0CEFE80460F90CD
:100C3000311C281C24F0C8FE8246109041460098C2
:100C400024F0C2FE03901190311C281C24F0B7FE42
:100C5000051C0A904146009824F0B1FE80460B9096
:100C60000798C3009B440301029A94469C44634640
:100C70000293386824F08CFF00900191504624F0D4
:100C800087FF00222D4B22F096FE02000B000098F9
:100C9000019922F060FE22F093FF2060786824F032
:100CA00077FF00900191039824F072FF0022234BFC
:100CB00022F081FE02000B000098019922F04BFE09
:100CC00022F07EFF6060099E311C281C24F097FEF4
:100CD000051C0A90311C404624F091FE061C0B9026
:100CE0005146386824F070FE38600399786824F023
:100CF0006BFE78602168301C24F066FE4B4618605D
:100D0000291C606824F05BFE4B465860311C20684B
:100D100024F055FE2060291C606824F055FE6060B8
:100D20000837049B013B0493002B00D02BE715B040
:100D3000F0BCBB46B246A946A046F0BD0000E03F6D
:100D4000F0B5DE4657464E464546E0B5B3B0804660
:100D500013911800129314000934FF3404940B000B
:100D60004343DA00A446624416A960CA60C11B016D
:100D7000634414AA12CB12C2C3004344009303017C
:100D800043440393430084466344DB0043449B464F
:100D9000430143449A460023029353460193474636
:100DA000DEE118AC21003B0021CB21C11193009B57
:100DB00019688846139D02925543EB00049A9146A8
:100DC000994449460E68311C404624F018FE0590AF
:100DD000009B59688A46494649688946504624F02E
:100DE0000EFE011C059824F0EAFD0590A06049461E
:100DF000404624F004FE80465146301C24F0FFFD9E
:100E0000011C404624F0E0FD0690E060039A16685D
:100E1000B0462B010499894699444E463668311CE8
:100E2000404624F0ECFD0790039A51688A464946F3
:100E300049688946504624F0E2FD011C079824F0D9
:100E4000BEFD079020614946404624F0D8FD80460B
:100E50005146301C24F0D3FD011C404624F0B4FD63
:100E60000A9060615E463668B1466B005B19DB0034
:100E7000049882469A4451460E68311C484624F034
:100E8000BEFD0890594649688846514649688A46D9
:100E9000404624F0B4FD011C089824F090FD0B900E
:100EA000A0615146484624F0AAFD81464146301CC7
:100EB00024F0A5FD011C484624F086FD061CE061D7
:100EC00001990B6898466D0104988246554428683C
:100ED0008146011C181C24F092FD089001994B6872
:100EE0009A466D68291C181C24F089FD011C08987D
:100EF00024F065FD08902062291C404624F07FFD07
:100F0000051C5146484624F07AFD011C281C24F09B
:100F10005BFD051C6062089A9046111C059A92467A
:100F2000101C24F051FD0590A063291C06988146F1
:100F300024F04AFD0690E0634146504624F03FFD10
:100F400008902065291C484624F039FD0990606509
:100F50000B9B9946191C079B9846181C24F034FDDE
:100F6000051C2064311C0A9B9A46181C24F02CFD99
:100F7000079060644946404624F021FD0B90A06430
:100F8000311C504624F01BFD0C90E0643E680A952D
:100F9000291C059A9046101C24F016FD011C301CDB
:100FA00024F012FD38607D68079B9946191C06984D
:100FB00024F00AFD011CAA46281C24F005FD7860D7
:100FC000169F391C404624F01AFD011C0F96301C58
:100FD00024F0FAFC051C149EB046311C0A9824F03B
:100FE0000EFD011C281C24F0EFFC0D90A062391CA2
:100FF000069824F004FD011C55461095504624F037
:10100000E3FC051C311C484624F0F9FC011C281C9B
:1010100024F0DAFC051CE062179EB146311C0998E9
:1010200024F0EDFC061C15998A460C9824F0E7FC88
:10103000011C301C24F0C8FC0E902063494608981F
:1010400024F0DDFC80210906461851460B9824F057
:10105000D6FC011C301C24F0B2FC061C60630E9907
:101060000D9824F0ACFC009B1860311C281C24F067
:10107000A6FC009B58600E990D9824F0A5FC0199E0
:101080000860311C281C24F09FFC019948604146EF
:10109000059824F0B4FC011C0F9824F095FC051C65
:1010A000391C0A9824F0ABFC011C281C24F08CFC91
:1010B000051CA0654146069824F0A1FC011C10986F
:1010C00024F082FC061C391C079824F098FC011CB3
:1010D000301C24F079FC061CE06549460C9824F08D
:1010E0008EFC071C5146099824F089FC011C381C11
:1010F00024F065FC071C20665146089824F07FFC0C
:10110000804649460B9824F07AFC011C404624F0A6
:1011100056FC80466066391C281C24F055FC039C54
:1011200020604146301C24F04FFC6060391C281CB4
:1011300024F045FC5D4628604146301C24F03FFC0D
:101140006860119F009B08330093083403940823C0
:101150009C46E344019908310191029A531C029381
:10116000029A129B9A4200DA1BE633B0F0BCBB46EF
:10117000B246A946A046F0BDF0B5C64600B505008A
:10118000884622F091FC22F027FD23F02BF906007F
:101190000F0004241AE0032400E00224200022F0BF
:1011A00083FC32003B0022F067FC00280ED02C00AC
:1011B0000CE02100280022F057F9050043461C608E
:1011C00008334246506001280CDD98462100280073
:1011D00022F04AF90029ECD0022CDCD0042CDCD01F
:1011E0000234DBE780BCB846F0BDF0B5DE465746BA
:1011F0004E464546E0B58FB00A9006910993842388
:101200005B009C4694446346049313680593189BC3
:10121000D80000F0C5FB029000230B9367E00B9B06
:101220000893002307934EE0FB00029A91469944ED
:101230004B461B689A46E500049B9C4665442B6818
:101240009846191C504624F0DAFB01904B465B6827
:1012500099466B689B46191C484624F0D0FB011C3C
:10126000019824F0ACFB051C0C905946504624F024
:10127000C6FB82464946404624F0C1FB011C50464D
:1012800024F0A2FB80460D90291C306824F09CFBC2
:1012900030604146706824F097FB70600137189BFE
:1012A0009F4208DA069B039A5343E418059BA34226
:1012B000BADCE41AB8E7089B099A94466344089399
:1012C000079B01330793079B189A93420CDA089BFC
:1012D0000393DE000A9B9C4666443300029A03CACD
:1012E00003C300240127DAE70B9B01330B930B9810
:1012F000099FB84210DA0021029B9C460A9B98463F
:10130000189CA1428BDAC2004244CB00634460CAFD
:1013100060C3C0190131F4E7029800F049FB0FB037
:10132000F0BCBB46B246A946A046F0BDF0B5DE46CD
:1013300057464E464546E0B585B003900C00150073
:101340001F000E9B1A689146082293469B445B68D7
:101350009A464B4652465343DB0080469844012A46
:1013600023D0039E0F9B01935B4600933B004A46AC
:101370006A4321003000FFF7D9FF2B007B43DB00DD
:10138000E4185346DB00F618B045EBD14B46042B6E
:101390002FD018DC022B1FD0032B31D153460F9ACC
:1013A00029000398FFF7D4FB1CE00300414622000C
:1013B00041CA41C31A002B007B43DB00E418130031
:1013C0009142F4D1E2E7052B1AD153460F9A290036
:1013D0000398FFF7B5FC05E053460F9A29000398E0
:1013E000FFF724FA05B0F0BCBB46B246A946A046BA
:1013F000F0BD53460F9A29000398FFF773FAF1E7FF
:101400004B46009353460F9A29000398FFF7EDFED1
:10141000E8E70000F0B5D6464F464646C0B58046E0
:101420000C0001002131C9008A46002B11D0002A8E
:1014300014D01968514514D35146196091464B4652
:10144000002B40D042461A605C60002C6CD0002714
:1014500032E0080000F0A4FA8146F0E719609146F6
:1014600031E052461A60002399462CE0380022F001
:101470001BFB2F4A2F4B22F09EFA04000D00404622
:1014800022F012FB02000B002000290022F075FA66
:1014900004000D0022F0B6FB4E460936FF36FB0075
:1014A000F61822F08DFB30602000290022F0C0FBEE
:1014B00022F086FB706001374745D7DB494608318B
:1014C0004046FFF759FE089B002B01D052461A6098
:1014D0004846E0BCBA46B146A846F0BD200022F01E
:1014E000E3FA134A144B22F066FA06000F00404656
:1014F00022F0DAFA02000B003000390022F03DFA47
:1015000006000F0022F07EFB4D460935FF35E30053
:10151000ED1822F055FB28603000390022F088FBDE
:1015200022F04EFB686001344445D7DBC6E7C04675
:10153000182D4454FB211940FB2119C0F0B5C646B3
:1015400000B582B004000F0015001E0091420CD0BF
:101550000300083301900093330001222800FFF7B5
:10156000E5FE02B080BCB846F0BD0368D80000F0CC
:1015700017FA8046230008330194009333000122B8
:101580003900FFF7D3FE2268D2004146280024F03C
:10159000B7FD404600F00CFAE3E710B50123FFF772
:1015A000CDFF10BDF0B5DE4657464E464546E0B588
:1015B00085B00D0016001F000023039301331A00AD
:1015C00002409046034234D144100023009303AB01
:1015D00000222000FFF71EFF63001B19DA0FD2184C
:1015E0005210D200039B9C4662440C239A469244BC
:1015F000002F24D03B68534526D353463B60B14669
:101600004B46002B22D04A460C321A60039BD3185B
:1016100049464B60E1005B1849468B60002300930C
:1016200003AB29002000FFF7F5FE002D00D185E077
:1016300041E045480AF0DCFA0023994645E050466F
:1016400000F0AEF98146DBE753463B600023994644
:101650003BE043465D1C280022F026FA06000F00FE
:10166000200022F021FA02000B003000390022F0A5
:1016700084F90022354B22F077F9354A354B22F0B8
:101680009AF906000F0022F0BDFA4346DB009846A7
:101690004B469B6843449B4622F092FA5B46186097
:1016A0003000390022F0C4FA4B469E68464422F0CE
:1016B00087FA7060A846E30F1B195B104345C8DC2E
:1016C0000E9B002B01D052461A60484605B0F0BC74
:1016D000BB46B246A946A046F0BD6B1C9846180012
:1016E00022F0E2F906000F00200022F0DDF90200EE
:1016F0000B003000390022F040F90022134B22F099
:1017000033F9134A144B22F056F906000F0022F069
:1017100079FAED004B469B689B46AB4422F050FAA9
:101720005B4618603000390022F082FA4B469B6815
:101730009C46654422F044FA68604546E30F1B1955
:101740005B10AB42C9DCBBE7D4C406100000E03F2D
:10175000182D4454FB210940FB2109C0F0B5DE4699
:1017600057464E464546E0B593B081460C00009280
:1017700003685B68002B23D14B4618680368059308
:101780004A4652682100FFF708FF4A4653681D6821
:1017900006955E680796311C281C24F015F9009FF9
:1017A0003860059BDC00BC466444311C281C24F0D6
:1017B00006F9206000237B60636001231C008FE03A
:1017C0004F480AF015FAD7E74B465B68E2000192F2
:1017D0009A180EA8824660CA60C00D1BED005B1906
:1017E0001F6810975E68802109068C466644119632
:1017F0000E998846381C24F0E7F802900C90504669
:1018000040688246011C301C24F0DEF803900D90E5
:10181000391C404624F0D3F880460A90311C5046CB
:1018200024F0CDF8071C0B90364EA619F6004B4657
:101830009B689C46664433689A46191C404624F0CF
:10184000DEF804907668B346311C381C24F0D7F8D3
:10185000011C049824F0B3F8061C08905946404631
:1018600024F0CDF880465146381C24F0C8F8011CFD
:10187000404624F0A9F8071C0990311C029B9B46A6
:10188000181C24F0A1F8019B009A944663449846E2
:10189000FC21890524F0B3F843461860391C039BEA
:1018A0009A46181C24F090F8FC21890524F0A7F82A
:1018B00043465860311C584624F081F8009A9446FB
:1018C0006544FC21890524F09AF828605146381CAB
:1018D00024F075F8FC21890524F091F86860013442
:1018E0000599CB0F8C4663445B10A34200DB6BE78A
:1018F00013B0F0BCBB46B246A946A046F0BDC046F8
:10190000F0C40610FFFFFF1F0020704710B51FF046
:1019100075FD002010BD000010B51FF00BFE002962
:1019200007DB0CD0FA229200002321F007FE0021F1
:1019300010BD054B054A3F21054820F013FAFA2156
:10194000890021F0B9FDF2E718C5061034C506106C
:101950006CC5061010B51FF0EDFD002900DB10BDB1
:10196000024B034A3F21034820F0FCF918C506103A
:1019700034C506106CC5061010B5010001480AF008
:1019800037F910BDB4C5061010B524F001F90200F6
:101990000B0002480AF02CF910BDC046B8C506106D
:1019A00010B524F031FB10BD10B524F04BFB10BD79
:1019B00010B524F087FB10BDF0B5DE4657464E4605
:1019C0004546E0B589B00B00079144680294496828
:1019D0000391526806925B8842889246028805927B
:1019E0000022049299466EE02168286824F007F8E6
:1019F000011C301C23F0E8FF061C4B469F00E41935
:101A00002168686823F0FBFF011C301C23F0DCFF19
:101A1000061CE4192168A86823F0F1FF011C301CA2
:101A200023F0D2FF061CE41910239C46AC44634605
:101A30000093E868216823F0E2FF011C301C23F0CA
:101A4000C3FF061CE419012252429446E044009D63
:101A50004346002BC8D1032753461F400CE001CD5D
:101A6000216823F0CCFF011C301C23F0ADFF061CC5
:101A70004B469B00E418013F002FF0D1019B40C36F
:101A8000012252429446E3444A465946541AA4005D
:101A9000039A94466444002906D0019353469B0858
:101AA0009846029D0026D3E7049B4B44049353467B
:101AB0009B00029A94469C4463460293059B013B1B
:101AC0000593002B09D0049B9B00069A944663441F
:101AD0000193079B5C68CB46E0E7002009B0F0BCAF
:101AE000BB46B246A946A046F0BDF8B5CE4647462D
:101AF00080B50E1C44685568038847885F43B94623
:101B0000BF081BE0311C206823F079FF2860311CDE
:101B1000606823F074FF6860311CA06823F06FFFD9
:101B2000A86010239846A044E0682C001034311CB3
:101B300023F065FFE860013F25004446002FE1D116
:101B400003374B461F4005E001CC311C23F057FF03
:101B500001C5013F002FF7D10020C0BCB946B046F7
:101B6000F8BDF0B5CE46474680B5030042684968E7
:101B70008C4600885E8805000023984620E01168A6
:101B8000196081005B1854681C605B1894681C60C5
:101B90005B18D4681C605B18013F1032002FEED137
:101BA0000321314004E080CA1F608700DB1901393E
:101BB0000029F8D101239946C844013D002D04D0E5
:101BC00043469B006344B708E8E70020C0BCB94621
:101BD000B046F0BDF0B5DE4657464E464546E0B548
:101BE00083B08A4600920193040020CC01235B421B
:101BF00053449B469F0800260023984602E0043683
:101C0000013F4C46002F2ED023689946191C281CF2
:101C100023F02EFF002802D0731C98464D466368BF
:101C20009946191C281C23F023FF002802D0B31C5E
:101C300098464D46A3689946191C281C23F018FFA6
:101C4000002802D0F31C98464D4610239946A14423
:101C5000E468211C281C23F00BFF0028CFD0331D83
:101C60009846251CCBE703265B461E4000E0013E5C
:101C7000002E0BD080CC391C281C23F0F9FE002844
:101C8000F5D053469B1B98463D1CF0E7009B1D601A
:101C9000019B42461A6003B0F0BCBB46B246A9465F
:101CA000A046F0BDF0B5DE4657464E464546E0B587
:101CB00083B08A4600920193040020CC01235B424A
:101CC00053449B469F0800260023984602E00436B2
:101CD000013F4C46002F2ED023689946191C281C22
:101CE00023F0DCFE002802D0731C98464D46636842
:101CF0009946191C281C23F0D1FE002802D0B31CE1
:101D000098464D46A3689946191C281C23F0C6FE28
:101D1000002802D0F31C98464D4610239946A14452
:101D2000E468211C281C23F0B9FE0028CFD0331D05
:101D30009846251CCBE703265B461E4000E0013E8B
:101D4000002E0BD080CC391C281C23F0A7FE0028C5
:101D5000F5D053469B1B98463D1CF0E7009B1D6049
:101D6000019B42461A6003B0F0BCBB46B246A9468E
:101D7000A046F0BDF8B5CE46474680B5040089467A
:101D800090468F08002523E02168081C23F037FEC9
:101D9000291C23F019FE051C6168081C23F02FFE86
:101DA000291C23F011FE051CA168081C23F027FE46
:101DB000291C23F009FE051C26001036E068011CD2
:101DC00023F01DFE291C23F0FFFD051C013F3400FC
:101DD000002FD9D103374B461F4009E001CC011C2D
:101DE00023F00DFE011C281C23F0EEFD051C013F15
:101DF000002FF3D1484623F062FE011C281C23F07B
:101E0000E8FD041C002123F041FE002808D0201C1E
:101E100023F0C8FE43461860C0BCB946B046F8BDC2
:101E2000002342461360F7E7F8B5CE46474680B533
:101E300005000C00904696082BE00023E85E23F096
:101E400043FEE021890523F0DAFD20600223E85EED
:101E500023F03AFEE021890523F0D1FD60600423E0
:101E6000E85E23F031FEE021890523F0C8FDA06083
:101E700008239946A9440623E85E23F025FE27009F
:101E80001037E021890523F0BAFDE060013E4D46A0
:101E90003C00002ED1D10322474617400BE0AE1C78
:101EA0000023E85E23F010FEE021890523F0A7FD62
:101EB00001C4013F3500002FF1D1C0BCB946B04686
:101EC000F8BDF0B5C64600B5884600251BE06B009E
:101ED0009C5AA4086B1C5B009B5A9B08A700C7195F
:101EE0003E68B4469E0086193168396061463160AB
:101EF0000134A4000419266801339B00C318196833
:101F000021601E600235A845E1D880BCB846F0BD0E
:101F1000F0B5DE4657464E464546E0B5A5B005004D
:101F20001290080013912B889A000C008C46624492
:101F3000110010926A6890465A0811929200851812
:101F40008A469244DB080093894657462EE123686F
:101F50009A462093636801932193A2680292229289
:101F6000E168039123914846006883461C904846E7
:101F7000406804901D904E46B66805961E964B46E6
:101F8000DE681F962B680C9318936A680D9219925D
:101F9000A96806911A91E8680E901B903B68079318
:101FA00014937A6808921592B96809911691F868A5
:101FB0000A9017905946504623F006FD2060049978
:101FC000019823F001FD60600599029823F0FCFC64
:101FD000A06010239C46A44463460F93311C0398D1
:101FE00023F0F2FCE0605946504623F0E8FC0B90E9
:101FF0001C900499019823F0E2FC01901D90059932
:10200000029823F0DCFC02901E90311C039823F010
:10201000D6FC061C1F9007990C9B9B46181C23F0AE
:10202000D3FC286008990D9B9A46181C23F0CCFC21
:1020300068600999069823F0C7FCA86010229446AE
:10204000AC44624604920A990E9C201C23F0BCFC0E
:10205000E8605946079823F0B2FC83461490514635
:10206000089823F0ACFC824615900699099823F055
:10207000A6FC03901690211C0A9823F0A0FC059062
:10208000179041460C684D68211C0B9823F0B7FC53
:102090000690291C019823F0B2FC0790211C01989E
:1020A00023F0ADFC0190291C0B9823F0A8FC0890AC
:1020B0000799069823F088FC49460860089901981A
:1020C00023F07DFC49464860291C584623F097FCC4
:1020D0000190211C504623F092FC0690291C50468A
:1020E00023F08DFC051C211C584623F088FC041CA1
:1020F0000699019823F063FC3860211C281C23F00A
:1021000063FC786041468C68102141448A46414610
:10211000CD68211C029823F072FC8046291C301CDB
:1021200023F06DFC8346211C301C23F068FC061C48
:10213000291C029823F063FC01905946404623F085
:1021400043FC4946886010234B449B460199301C50
:1021500023F035FC4946C860291C039823F04FFC46
:10216000061C211C059A9146101C23F048FC804651
:10217000291C484623F043FC051C211C039823F02E
:102180003EFC041C4146301C23F019FCB8603E00A4
:102190001036211C281C23F017FCF860009B013B23
:1021A0000093D046D9463700049D0F9C009B002B1E
:1021B00000D0CCE66B4644229B181C88129D6B68AD
:1021C00000930223009A2100139800F033FC6A6800
:1021D00002232100109800F02DFC25B0F0BCBB4676
:1021E000B246A946A046F0BDF0B5DE4657464E467B
:1021F0004546E0B5AFB0050021900C0003885B08B0
:102200009A008C46944466469444614694446046E1
:10221000371F01970F1F02971C90071F0397BC469B
:10222000624404926A6893465A0820921D94246876
:102230000F000D68291C201C23F0C6FB8246291CB8
:10224000201C23F0BCFB80461D9C64681F977D68A2
:10225000291C201C23F0B8FB0590291C201C23F00E
:10226000AEFB814675684146281C23F0ADFB1C9BE4
:102270005C68211C23F0A3FB07902A901E96376808
:10228000391C484623F09BFB1C9B1E68311C23F025
:102290009BFB08902B90391C52460692504623F027
:1022A0008EFB311C23F08BFB82462690291C05985F
:1022B00023F085FB211C23F082FB09902790291C29
:1022C000404623F07CFB011C201C23F07DFB051CF9
:1022D00022904946381C23F077FB311C23F06FFB1A
:1022E000041C23900699381C23F06EFB011C301C43
:1022F00023F06AFB1D9E30601E9F7868069005994A
:1023000023F062FB1C9B5B6805930836191C23F0C5
:102310005BFB1D9A5060079939600820BC466044F9
:102320008046089979601F9F514639600821BC4654
:1023300061448A46099979601C98056008218446A1
:102340006144446008235B44139310235B4414935B
:1023500008331593209A931E5B08059344468846DC
:10236000D146DEE135684B461F68391C281C23F036
:102370002BFB0690391C281C23F021FB8246756834
:102380004B465F68391C281C23F01EFB0790391C44
:10239000281C23F014FB051C63689B4653460893D6
:1023A0005146584623F010FB43465B689A46191C79
:1023B00023F005FB09902A902768391C0D95281CED
:1023C00023F0FDFA42461568291C23F0FDFA0A9015
:1023D0002B90391C069823F0F2FA291C23F0EFFA0F
:1023E0000B9026905946079823F0E9FA514623F0BE
:1023F000E6FA179027905946089823F0E0FA011C56
:10240000504623F0E1FA0C9022900D99381C23F0ED
:10241000DBFA291C23F0D3FA189023900699381C74
:1024200023F0D2FA011C281C23F0CEFA3060079961
:10243000606823F0C9FA08218C46B44461461691BD
:102440004546696823F0C0FA7060019D2E1F35680B
:10245000039B181F83460768391C281C23F0B4FA15
:102460000D90391C281C23F0AAFA0E90019D2D68AE
:10247000039B1F68391C281C23F0A6FA0F90391CF7
:10248000281C23F09CFA8246029F3968081C049A93
:102490001568291C069023F092FA0E991A9023F0E1
:1024A00093FA10902C90043F396807915346199382
:1024B000504623F084FA049A131F9A461B68089327
:1024C000191C23F081FA11902D9007990D9823F093
:1024D00076FA089923F073FA1B90289006990F98C2
:1024E00023F06DFA291C23F06AFA129029900E99B4
:1024F0001A9823F064FA0E9024900799089823F014
:102500005EFA199923F05BFA199025900F990698B5
:1025100023F05AFA011C281C23F056FA019D28606A
:102520000D99386823F050FA083D01955546296801
:1025300023F04AFA306013980568060008360696BC
:102540004668291C099823F05AFA0790311C0A980A
:1025500023F055FA0890291C0A9823F050FA0A90A3
:10256000311C099823F04BFA09900899079823F039
:102570002BFA206008218C46A444614607910999F2
:102580000A9823F01CFA6060311C119823F037FA86
:10259000041C291C109823F032FA0890311C109862
:1025A00023F02DFA061C291C119823F028FA051C8B
:1025B0000899201C23F003FA029A1060083A02924C
:1025C000291C301C23F000FA3860149F3D687C6899
:1025D00010371497291C0B9823F011FA0890211C2E
:1025E000179F381C23F00BFA0990291C381C23F084
:1025F00006FA061C211C0B9823F001FA071C099906
:10260000089823F0E1F949460860082149440891F7
:10261000391C301C23F0D3F94F46786080273F06E1
:10262000129EB44667443800291C23F0E8F9061CC2
:10263000211C1B9FB946381C23F0E1F9071C291CFB
:10264000484623F0DCF9051C211C129823F0D7F929
:10265000041C391C301C23F0B2F9039B1860083BA2
:102660000393291C201C23F0AAF95F463860159FAC
:102670003C687D6818371597211C0C9823F0BFF92A
:102680008346291C189F381C23F0B9F98146211C68
:10269000381C23F0B4F9061C291C0C9823F0AFF960
:1026A000071C4946584623F08FF943461860082313
:1026B00043449946391C301C23F081F94746786021
:1026C000291C199A9346101C23F099F9061C211C09
:1026D0000E9B9846181C23F092F9071C291C4046B3
:1026E00023F08DF9051C211C584623F088F9041CA1
:1026F000391C301C23F063F90499086008390E0076
:10270000211C281C23F060F957463860059F013FC3
:102710000597C84608998946079C06981390049621
:10272000169E059B002B00D01CE6CA46C146A0465B
:10273000346853461D68291C201C23F045F901907C
:10274000291C201C23F03BF90290746853465D68F5
:10275000291C201C23F038F90390291C201C23F08D
:102760002EF9071C43465B689B460299181C23F010
:102770002BF94B465D68291C23F021F904902A901F
:1027800042461468211C0797381C23F018F94A4662
:102790001768391C23F018F905902B90211C01981B
:1027A00023F00DF9391C23F00AF9069026905946BA
:1027B000039823F004F9291C23F001F908902790CD
:1027C0005946029823F0FBF8011C281C23F0FCF862
:1027D000834622900799201C23F0F6F8391C23F039
:1027E000EEF8029023900199201C23F0EDF8011CD3
:1027F000381C23F0E9F8306003994046406823F024
:10280000E3F84946496823F0DFF8706013990E68D1
:102810004F68311C049823F0F2F8041C391C059809
:1028200023F0EDF8051C311C059823F0E8F8061C90
:10283000391C049823F0E3F8071C291C201C23F002
:10284000C3F841460860391C301C23F0B8F84146F3
:10285000486014990E684F68311C069823F0CFF831
:10286000041C391C089A9046101C23F0C8F8051C5B
:10287000311C404623F0C3F8061C391C069823F08F
:10288000BEF8071C291C201C23F09EF85346186034
:10289000391C301C23F093F853465860159B1E6872
:1028A0005F68311C584623F0AAF8041C391C029BAF
:1028B0009846181C23F0A3F8051C311C404623F051
:1028C0009EF8061C391C584623F099F8071C291C51
:1028D000201C23F079F84B461860391C301C23F07B
:1028E0006EF84B4658606B4680229B181C88219DD1
:1028F0006B6801930423019A21001D9800F09AF857
:102900006B6801930423019A21001E9800F092F84D
:102910006B6801930423019A21001F9800F08AF844
:102920006A68042321001C9800F084F82FB0F0BCE2
:10293000BB46B246A946A046F0BDF0B5D6464F46C6
:102940004646C0B580460C0091469A4605882F0041
:10295000012A14D080235B009D4222D026D8402D2E
:102960002DD01AD9802D3AD05346002B3CD14B465E
:10297000012B40D0E0BCBA46B146A846F0BD0431B8
:10298000002307E00A6880200006844662440A604B
:1029900008310133BB42F5D3DCE7102D1FD0202DC9
:1029A000E2D121004046FFF71FFCDDE780231B0139
:1029B0009D42F6D00BD980235B019D42D4D10123E7
:1029C000424652682900200000F034F8CCE780230A
:1029D0009B009D42F3D08023DB009D42C4D12100A7
:1029E0004046FFF795FABFE743469A689989200069
:1029F000FFF767FABBE7280023F061F8011CFE200F
:102A0000800522F0E6FF061C002510E0311C20683E
:102A100022F0F5FF2060636880221206944663442A
:102A20001800311C22F0EBFF606008340135BD4214
:102A3000ECD39FE7F0B5DE4657464E464546E0B537
:102A4000B1B02F922E93239122918046229BDB08D6
:102A500021930023019301980100219A9446614437
:102A6000894617004F44D51953199C4461461600F6
:102A7000059166449446B44462460992C2000392AA
:102A8000140044442268DB000493190041448A4640
:102A90000B689B46191C0292101C22F095FF1090A7
:102AA0005946029822F08BFF02904B46DB009B4672
:102AB00043465B440A931A689146059BDB000593E5
:102AC0001A0042440B9211680691484622F07CFF9E
:102AD00011900699484622F072FF1290FF00069767
:102AE00047440C973F68F600079646440D963168B8
:102AF0008946381C22F068FF061C4946381C22F023
:102B00005EFF1390ED00089545440E952F680999D6
:102B1000C900099141440F910A689146111C381C63
:102B200022F052FF051C4946381C22F048FF149041
:102B3000311C109B9946181C22F041FF1590311C46
:102B4000484622F041FF061C291C119B9946181C7F
:102B500022F035FF1690291C484622F035FF051C4F
:102B6000011C301C22F030FF2060291C301C22F098
:102B700026FF54462060039C043444442568049F87
:102B80003B1D9C46C444674610973E68311C281C78
:102B900022F01AFF0390311C281C22F010FF049031
:102BA0005A46131D9C46C444624611921568059B03
:102BB00004339A46C24457463E68311C281C22F012
:102BC00003FF0590311C281C22F0F9FE1790069B8C
:102BD0001F1D47443D68079B1E1D464433689946A8
:102BE000191C281C22F0F0FE06904946281C22F0F1
:102BF000E6FE0790089D0435AB46C3445D462D684C
:102C0000099A131D9946C144494609680991281C2F
:102C100022F0DAFE08900999281C22F0D0FE0990D3
:102C20000699039822F0CBFE051C0699039822F022
:102C3000CBFE03900899059822F0C1FE06900899F2
:102C4000059822F0C1FE0590011C039822F0BCFEFD
:102C500020600599039822F0B2FE109C206006992E
:102C6000159C201C22F0B0FE0C9B18600699201CBD
:102C700022F0A5FE0D9B1860169C211C281C22F03A
:102C80009EFE3860291C201C22F09EFE3060149E9F
:102C9000311C129C201C22F092FE634922F0AFFEF0
:102CA000051C311C201C22F08FFE5F4922F0A7FE7C
:102CB000041C0999179F381C22F081FE5A4922F002
:102CC0009EFE061C0999381C22F07EFE564922F011
:102CD00096FE0390291C029822F071FE071C291C05
:102CE000029822F071FE0290211C139D281C22F0F4
:102CF00066FE0590211C281C22F066FE051C311C76
:102D0000049822F05CFE041C311C049822F05CFE46
:102D1000061C0399079822F052FE04900399079825
:102D200022F052FE0390011C029822F04DFE0A9BF5
:102D300018600399029822F042FE0F9908600499E6
:102D4000381C22F041FE0B9A10600499381C22F0C6
:102D500036FE0E9B1860291C301C22F030FE119AA2
:102D60001060311C281C22F02FFE4B461860059D78
:102D7000291C201C22F023FE53461860211C281C0D
:102D800022F022FE5B4618600198229B9C4660441C
:102D90000190239B834200D95DE6219B072B00D83D
:102DA000DCE201232C9300232D93C3462D9D2E9B03
:102DB0009C4665442D956B00AC466344E818291881
:102DC0006A18A8469044EE002F9FBC5908942D0124
:102DD0007C590994DB009C46FC582494C0003C5864
:102DE0000A94C9007C582594D200BC5826944346C6
:102DF000DC003B590B930436BB590C9304357B59CB
:102E0000279363460433FB582893043038580D90B9
:102E10000431795829910432BA582A9204343B5922
:102E20002B932C9B019301E0F304353F01980100A3
:102E3000219A94466144894617004F44D519531985
:102E40009046984416004644B44462460392C20039
:102E5000049214005C4421688A46DB0005931A0042
:102E60005A440E9211680291504622F0ADFD17901F
:102E70000299504622F0A3FD19904946C9000691D7
:102E800059440F910B6899464346DB0007935B4416
:102E9000109318688246011C484622F095FD804632
:102EA0005146484622F08BFD1A90FF00BA465F4615
:102EB000574411973F68F60012965E4413963068A7
:102EC0008146011C381C22F07FFD061C4946381C37
:102ED00022F075FD1B90ED0014952F005F441597AF
:102EE0003D68039FFF00BC46DC44604616900168C5
:102EF0008946281C22F068FD03904946281C22F0D0
:102F00005EFD1C90311C179B9946181C22F057FD42
:102F10000290311C484622F057FD061C039B99463F
:102F2000191C404622F04BFD1D904946404622F0B8
:102F30004BFD051C011C301C22F046FD2060291CA5
:102F4000301C22F03CFD0390049C251D5D442E683E
:102F5000059B1C1D5C4422689046111C301C22F00D
:102F600033FD1E904146301C22F029FD1F90069B28
:102F700004339C46DC44634617931E68079B043366
:102F80009C46DC446346189319688846301C22F03E
:102F90001BFD04904146301C22F011FD209051464B
:102FA0000E1D5E4431688946129B04339846D8440E
:102FB000414609688A46484622F006FD059051467A
:102FC000484622F0FCFC0690149B04339A46DA44EF
:102FD0005146096889463B1D9C46DC44674612976A
:102FE0003F68391C484622F0EFFC0790391C4846E0
:102FF00022F0E5FC149005991E9F381C22F0DFFC9E
:1030000081460599381C22F0DFFC071C07990498BB
:1030100022F0D5FC05900799049822F0D5FC049085
:103020000599029822F0D0FC07900599029822F0A9
:10303000C6FC02900499381C22F0C6FC2860049952
:10304000381C22F0BCFC04901D9D291C484622F02F
:10305000B6FC071C4946281C22F0B6FC051C039947
:103060000A9822F0CCFC814604990D9822F0C7FC06
:10307000059004990A9822F0C2FC049003990D98D7
:1030800022F0BDFC03900599484622F09DFC0E9A63
:1030900010600399049822F092FC20600799099827
:1030A00022F0ADFC041C391C279B9946181C22F009
:1030B000A6FC0390391C099822F0A1FC071C079973
:1030C000484622F09CFC81460399201C22F07CFC9F
:1030D000119C20604946381C22F071FC3060029936
:1030E000269F381C22F08BFC041C291C2A9B994625
:1030F000181C22F084FC061C291C381C22F07FFCC2
:10310000051C0299484622F07AFC071C311C201C41
:1031100022F05AFC139E3060391C281C22F04FFC10
:10312000444620601C9B9846191C1A9C201C22F0C7
:1031300046FC8E4922F063FC061C4146201C22F00E
:1031400043FC8A4922F05BFC051C149B9846191C21
:10315000209C201C22F033FC844922F050FC071CE8
:103160004146201C22F030FC804922F048FC041C1F
:10317000311C199B9946181C22F021FC8046311CF9
:10318000484622F021FC0290291C1B9E301C22F094
:1031900016FC0390291C301C22F016FC061C391C5E
:1031A0001F9B9946181C22F00AFC051C391C484636
:1031B00022F00AFC071C211C069822F000FC814624
:1031C000211C069822F000FC0490011C029822F0B9
:1031D000FBFB041C0499029822F0F1FB0290494683
:1031E000404622F0F1FB04904946404622F0E7FBBE
:1031F0008146311C381C22F0E2FB8046391C301C11
:1032000022F0E2FB071C0399281C22F0D8FB061CC5
:10321000291C039822F0D8FB0390211C089822F067
:10322000EEFB051C41460C9822F0E9FB0590414657
:10323000089822F0E4FB8046211C0C9822F0DFFB6A
:10324000041C0599281C22F0BFFB0F990860211C63
:10325000404622F0B4FB179B186002990B9822F0AD
:10326000CEFB041C391C2B9B9846181C22F0C7FB74
:10327000051C391C0B9822F0C2FB071C0299404622
:1032800022F0BDFB8046291C201C22F09DFB1699D4
:1032900008604146381C22F092FB1299086004999C
:1032A000259F381C22F0ABFB041C311C299B98463F
:1032B000181C22F0A4FB051C311C381C22F09FFBBB
:1032C000061C0499404622F09AFB071C291C201C6E
:1032D00022F07AFB109A1060391C301C22F06FFB30
:1032E000189B18604946249F381C22F088FB041C58
:1032F000039E311C289B9846181C22F080FB051C5D
:10330000311C381C22F07BFB061C4946404622F04B
:1033100076FB071C291C201C22F056FB159D2860FB
:10332000391C301C22F04BFB534618600198229B3D
:103330009C4660440190239B834200D976E52C9BF8
:1033400001332C93219A9A4200D92FE5D8462E9B1F
:10335000DB009BB22E932292FFF778FB31B0F0BCDA
:10336000BB46B246A946A046F0BDC046F304353F71
:10337000F0B5DE4657464E464546E0B587B00C00F0
:10338000150043690288013A00924F680821884677
:1033900098442168081C22F017FB061C391C381CB5
:1033A00022F012FB071C011C301C22F00DFBFC213B
:1033B000890522F024FB2860391C301C22F0FFFA1A
:1033C0002F000837FC21890522F019FB6860009B5B
:1033D000DE00A6190834B1464646A0461D004B46FD
:1033E0005C681A68434619685B68009330688346D6
:1033F00070688246083604910392101C22F0DFFAAE
:10340000019000990294201C22F0DEFA041C01991C
:10341000584622F0F4FA05900199504622F0EFFA4E
:103420000190211C584622F0EAFA8346211C50469E
:1034300022F0E5FA041C0499039822F0C5FA0599D4
:1034400022F0C2FA211C22F0BFFAFC21890522F0E9
:10345000D6FA38600299009822F0B1FA019922F068
:10346000B3FA594622F0ABFA3C000837FC21890533
:1034700022F0C5FA606008239C46E044103B9C465D
:10348000E144013D002DAADC07B0F0BCBB46B246CA
:10349000A946A046F0BDF0B5DE4657464E46454625
:1034A000E0B589B00D00160044690388013B9946D8
:1034B0000F684B6898460834191C381C22F084FAAF
:1034C000FC21890522F09BFA30604146381C22F02D
:1034D00076FA08239846B044FC21890522F08FFA39
:1034E00070604B46DF00EF1908353B002F00464661
:1034F00098465AE043465B680193424612683D682D
:10350000796802912068824608208446A444604677
:10351000059063689B460392111C0495281C22F0B9
:103520004EFA051C0299019822F04EFA041C291C3F
:10353000504622F064FA0690211C584622F05FFAA9
:103540000790291C584622F05AFA051C211C5046A7
:1035500022F055FA041C0499039822F035FA0699D2
:1035600022F02DFA079922F02AFAFC21890522F08F
:1035700046FA30600199029822F021FA291C22F0C3
:1035800023FA211C22F01BFA35000835FC2189059D
:1035900022F035FA7060083708235B429C46E0440D
:1035A00007339C46E144059C2E004B46002BA1DCD2
:1035B00009B0F0BCBB46B246A946A046F0BDF8B57E
:1035C00004000E0017001D1E08D0FFF764FF012342
:1035D0002A0039002000FFF7B0F9F8BD01232A00C6
:1035E000FFF7ABF93A0031002000FFF7C1FEF4E726
:1035F000102823D88000134B1B589F461248704751
:103600001248FCE71248FAE71248F8E71248F6E7D2
:103610001248F4E71248F2E71248F0E71248EEE7E2
:103620001248ECE71248EAE71248E8E71248E6E7F2
:103630001248E4E71248E2E71248E0E71248DEE702
:103640001248DCE748D1061040D10610BCD0061065
:10365000C4D00610CCD00610D4D00610DCD0061092
:10366000E4D00610ECD00610F4D00610FCD0061002
:1036700008D1061014D106101CD1061024D1061052
:103680002CD1061038D10610A4D00610B4D00610E4
:10369000F0B583B004000D0017001E0000220023C7
:1036A00020F0CCF9002804D000233B60336003B045
:1036B000F0BD32002000290068F0DAFD00221D4B29
:1036C00020F079F920F040FE20F04EFA04000D1EA3
:1036D00014DC00290ED080231B069C4210D0002D44
:1036E00026DC21D033681F3302DA00233360002444
:1036F0003C60DCE780231B069842ECD95AF088FB3B
:10370000002DECD1EA0F002312196B411C001300AD
:10371000E10700930194520811430C00019B5D10D6
:10372000336801333360DAE780231B069C42D9D328
:103730005AF06EFB0000E041F8B506000F001500DE
:103740001C000022094B20F097F9002809D0230023
:103750002A0030003900FFF79BFF2368002B02DBB3
:10376000F8BD5AF055FB5AF053FBC0460000F03F3D
:1037700030B585B020F01FF904000D008020000650
:10378000089BD84020F090F922002B0020F013F97C
:1037900000900191094A0A4B0292039320F06CF9C0
:1037A000002808D16B46186859680A9B099AFFF7E8
:1037B000C3FF05B030BD02ABF5E7C0460000C0FF57
:1037C000FFFFDF41F0B5C64600B503000C00012045
:1037D00098400138D21A20235B42D3182BD40125FC
:1037E0009D4001239340984620F05EF906000F00AB
:1037F0004046290020F0ACF902000B0030003900EF
:1038000020F0D9F806000F0020235B42E31817D4FC
:10381000012199400120A04020F09AF902000B00FC
:103820003000390020F0A9F820F0DCFD20F054F938
:1038300080BCB846F0BD20239B1A0125DD40D0E7AF
:1038400020231B1B0121D940E4E7000030B58BB0D9
:1038500001910092DD681C690395049401280AD047
:10386000032820D0022845D00E9B019A1A600F9B96
:10387000009A1A6013E0291C002022F0AAF822F016
:1038800091FA22F043F924180594019BA34208DB26
:1038900001AB1B680E9A13600F9B009A1A600BB065
:1038A00030BD05ABF5E7291C002022F092F822F08C
:1038B00079FA22F02BF920180690019B834215DB40
:1038C00001AB1B680E9A1360291C1E4822F081F878
:1038D00022F068FA22F01AF924180794009BA342F8
:1038E00006DC6B461B680F9A1360D8E706ABE8E767
:1038F00007ABF7E7291C144822F06BF822F052FAC4
:1039000022F004F920180890019B834216DB01ABDA
:103910001B680E9A1360291CFE20800522F059F8BE
:1039200022F040FA22F0F2F824180994009BA342F6
:1039300006DC6B461B680F9A1360B0E708ABE7E73D
:1039400009ABF7E70000C040000080BF10B50B686E
:1039500002CB002A10DB8A4210DA920099584B1CE5
:103960000ED000290EDB8368002B02D088011818C6
:1039700010BD036D9847FBE70020F9E70020F7E74B
:103980000020F5E70020F3E710B54B6802CB002AD2
:1039900010DB914210DD920099584B1C0ED000298B
:1039A0000EDB8368002B02D08801181810BD036D50
:1039B0009847FBE70020F9E70020F7E70020F5E74C
:1039C0000020F3E710B5FFF7C1FF10BDF0B5C64604
:1039D00000B582B080461D00C868D16822F00FF89B
:1039E000041C22F0D5F806000F000021201C22F054
:1039F0004DF8002810D0E86822F0CAF802000B0049
:103A0000300039001FF0B9FF089B18605960002092
:103A100002B080BCB846F0BD43465C695223044AFC
:103A20000092FF33034A04494046A0470120EFE7D4
:103A30001CD206108CD1061004D20610F0B5C64672
:103A400000B584B080460D0016001C000A9FC868AF
:103A500022F09EF802900391F06822F099F802009B
:103A60000B00029803991FF0A6FF02900391002C0F
:103A70001AD0E06822F08CF802000B00029803993B
:103A80001FF069FF02904C006408F86822F080F88B
:103A900002000B00029821001FF06FFF0E4A0F4B2F
:103AA0001FF0DAFF00280BD00B9B00933B00320085
:103AB00029004046FFF78AFF04B080BCB846F0BD3D
:103AC00043465C69A223064A00925B00054A064908
:103AD0004046A0470120EFE77B14AE47E17A943FD0
:103AE00038D206108CD1061004D2061030B583B03F
:103AF0000D0014001278032A0DD0092A0ED0072ACF
:103B000019D04469C2230D4A00925B000C4A0D494A
:103B1000A04701200DE0FF22002102E07F2280214A
:103B2000494206980190009323002800FFF78EFE7B
:103B3000002003B030BD044A0449F2E75CD206100D
:103B40008CD1061004D20610FF7F00000080FFFF1A
:103B5000F0B5DE4657464E464546E0B58DB004000A
:103B60000D00049205933023CE5C012E14D04569DC
:103B70002F3B039302967E4B01937E4B0093E023F1
:103B80007D4A7E49A847012630000DB0F0BCBB46F7
:103B9000B246A946A046F0BD3023049AD75C012F57
:103BA0000CD045692F3B03930297714B0193744BE3
:103BB0000093E223704A7149A847E5E7049B5B6BD9
:103BC000002B15D01A689146002A1AD01268934625
:103BD000012A5DDD0A78092A1CD0072A1AD0456916
:103BE000684B0093F223644A6749A8473E00CBE73D
:103BF0004569664B0093ED235F4A6349A8473E0041
:103C0000C2E74569624B0093EE235B4A5E49A847D1
:103C10003E00B9E7049A1278092A0ED06569092393
:103C2000039302925B4B01935B4B0093F423524A44
:103C300052492000A8473E00A6E71E9A93450ED0A1
:103C4000656903925B460293544B0193544B009376
:103C5000F523494A49492000A8473E0094E7049AC1
:103C6000926806929B689B00944663445B681E9A28
:103C700093420DD06569039302924A4B0193474BDF
:103C80000093F6233C4A3D492000A8473E007BE7CD
:103C9000EB680693169BDB689A464B460433079302
:103CA00000235F461E00A346A84623E04B46586803
:103CB00021F06EFF04000D00069821F069FF22003C
:103CC0002B001FF078FE04000D00504621F060FF2D
:103CD00002000B00200029001FF04FFE0AAB09AACA
:103CE000FFF7D6FCB3001C9A0999D1501D9A0A9986
:103CF000D15001361E9B9E4205DA012FD6DDB3005E
:103D0000079AD058D4E75C4645462B78032B08D059
:103D10002B78092B21D0032B1FD0072B1DD0002679
:103D200032E7002200230A920B930AAB0193169B01
:103D30000093059B049A41465846FFF77FFE061EF6
:103D400000D021E709AB189A0A980B99FFF7A0FC5D
:103D5000099B5B42199A1360DAE7179B19781B9B42
:103D600000931A9B169A2000FFF7C0FE06000BE78F
:103D700080D206109CD206108CD1061064D2061098
:103D8000B8D2061004D3061004D20610D4D20610FE
:103D9000E8D2061040D306104CD306105CD30610B0
:103DA0006CD3061090D3061070B582B005000E1EBD
:103DB0000DD0941B01940F2C0ED82868012C14D020
:103DC000002C14D02200310022F09AF90FE0914229
:103DD000EFD00B483AF0FAFF002201A9280045F085
:103DE000B7FF2860019BAB60E7E733780370019A67
:103DF0006A602B689B1800221A7002B070BDC04622
:103E0000D0D3061010B5002801D0006810BD59F0BD
:103E1000FFFF002800D00068704710B5002801D0CF
:103E2000006810BD59F0F4FF002800D0006870470A
:103E300010B5002801D0006810BD59F0E9FF002836
:103E400000D00068704770470840704708417047CD
:103E500040187047C043704710B5002802D00020BA
:103E6000FFF7F8FF10BD10B50123884200DB0023E7
:103E70001800FFF7F1FF10BD10B50123884200DCE8
:103E800000231800FFF7E8FF10BD0000012808D04C
:103E900003280BD002280ED00A4B0B600A4B13608C
:103EA00003E000230B60084B1360704700230B6096
:103EB000064B1360F9E7064B0B60FE239B0513606E
:103EC000F3E7C046FFFF7FFFFFFF7F7F0000C0409A
:103ED000000080BF10B5002801D0006810BD59F067
:103EE00097FF10B5836B002B02D03421984710BD8B
:103EF00059F08EFFF0B5DE4657464E464546E0B5D2
:103F0000A3B00F0003929B462D9B0A21425E1392A1
:103F10000C21425E14920E21425E05921021425EF7
:103F20000A920221425E15920421425E1692026BB1
:103F30001092426B0E923A68042A00D080E05A46F2
:103F40001268042A7ED12F9A12680092042A7BD12B
:103F50003A68002A7ADD052A7ADD7A6812682F9994
:103F60000968002976DD052976DD2F9949680968F9
:103F7000914274D121922F990968002971DD052998
:103F800071DD2F994968096820918A426EDC21AA67
:103F9000126817923A68032A6ADD052A6ADD7A6890
:103FA000D26859460968032966DD052966DD594648
:103FB0004968C968914264D11F925946096803292A
:103FC00061DD052961DD59464968C9681E918A424B
:103FD0005EDC1FAA126802925A461268002A59DD56
:103FE000052A59DD5A46526812682F990968032933
:103FF00055DD052955DD2F994968C968914253D18E
:104000001D922F990968032950DD052950DD2F994C
:104010004968C9681C918A424DDC1DAA12680F923A
:104020002E9A002A4ED01868052846DD5B680022CB
:104030000121904243DD9400E45861430132F8E7E6
:1040400059F0E6FE59F0E4FE59F0E2FE59F0E0FEC8
:104050007A6884E759F0DCFE2F99496888E759F0BF
:10406000D7FE59F0D5FE2F9949688DE720AA8FE732
:1040700059F0CEFE3A6994E759F0CAFE59460969EB
:1040800098E759F0C5FE59F0C3FE594609699DE706
:104090001EAA9FE759F0BCFE5A465268A5E759F0A0
:1040A000B7FE2F990969A9E759F0B2FE59F0B0FEA1
:1040B0002F990969AEE71CAAB0E70433B7E70F9B55
:1040C0008B423AD13B68012B39DD052B39DD7B680A
:1040D0005B6808933B68022B36DD052B36DD7B6879
:1040E0009B6807935B461B68012B32DD052B32DD95
:1040F0005B465B685B6809935B461B68022B2EDDA1
:10410000052B2EDD5B465B689B6804932F9B1B6829
:10411000012B2ADD052B2ADD2F9B5B685B68129340
:104120002F9B1B68022B26DD052B26DD2F9B5B6852
:104130009B681193002300933DE159F069FE59F00B
:1041400067FEBB680893C5E759F062FEFB680793FA
:10415000C8E759F05DFE5B469B680993CCE759F0D0
:1041600057FE5B46DB680493D0E759F051FE2F9B66
:104170009B681293D4E759F04BFE2F9BDB68119399
:10418000D8E759F045FE59F043FE59F041FE59F089
:104190003FFE59F03DFE59F03BFE59F039FE59F013
:1041A00037FE59F035FE59F033FE4346B046AB4674
:1041B0001E000136049B9E4266DA059D7543069BF0
:1041C000ED18F6D4079B9D42F3DA4B46002BF0DB4B
:1041D000089B9945EDDA0024320046465B46AB4623
:1041E0001D009046029B9C42DFDA3B68042BC8D13D
:1041F000009B002BC7DB7A689342C4DA4B46002B46
:10420000C3DBBB689945C0DA5A46002ABFDBF968B0
:104210008B45BCDA002CBCDB3A699442B9DA0098D1
:1042200043434B444B435B445343E3189B00039A83
:1042300098582B68042BAED1002EAEDB6B689E42E3
:10424000ABDA5346002BAADBAB689A45A7DA4246A5
:10425000002AA6DBE9688845A3DA002CA3DB2A69DB
:104260009442A0DA734353444B4343445343E3180B
:104270009B002C9A995821F0C2FB011C019821F057
:10428000A3FB01900134ADE701239C46E244099B66
:104290009A4507DA0A9B524653430B9A9146994432
:1042A000002687E72E9B002B54D043469B002E9A76
:1042B000D158019821F088FB2F9B1B680193042B98
:1042C0004AD1009B002B49DB2F9A526801929342FE
:1042D00044DA0C9B002B43DB2F9A9568AB423FDA04
:1042E0000D9B002B3EDB2F9AD1688B423ADA434676
:1042F000002B39DB2F9B1A69904535DA009B5D4313
:104300000C9B9C4665444D430D9B9C466544554320
:104310004544AD00309B9C466544199010991A9114
:104320000E9B1B9321F0A4FB00281FD119AC216820
:104330000E9821F09DFB00281AD123682B600123E1
:104340009C46E0440F9B984514DA00239A460023CC
:1043500001939CE70021ACE759F05AFD59F058FD54
:1043600059F056FD59F054FD59F052FD1AACDEE7F4
:104370001BACE2E70D9B01330D930D9A119B9A4202
:1043800007DA139B5343159A9B1A0693002398460A
:10439000D8E70C9B01330C930C9A129B9A4207DAD4
:1043A000149B5343169A9B1A0B9300230D93E4E737
:1043B000009B01330093009B179A934202DA00237B
:1043C0000C93E9E723B0F0BCBB46B246A946A04631
:1043D000F0BD000030B5044B020032CB32C232CB0C
:1043E00032C212CB12C230BD38D60610F0B5DE464E
:1043F00057464E464546E0B5A7B0139114921E00AD
:10440000319D339B426902920A21425E17920C2130
:10441000425E18920E21425E04921021425E099281
:104420000221425E19920421425E1A92C2691292DE
:10443000816A1F91C26A1E92914276DC3268042A18
:1044400075D12A68042A74D1359A12680092042A18
:1044500071D13268002A70DD052A70DD7268126839
:104460003599096800296CDD05296CDD35994968A5
:10447000096891426AD1259235990968002967DD5A
:10448000052967DD35994968096824918A4264DC09
:1044900025AA12681B923268032A60DD052A60DDB6
:1044A0007268D268296803295DDD05295DDD6968C8
:1044B000C96891425BD123922968032959DD0529F6
:1044C00059DD6968C96822918A4256DC23AA1268BC
:1044D00001922A68002A52DD052A52DD6A681268B4
:1044E0003599096803294EDD05294EDD359949685E
:1044F000C96891424CD1219235990968032949DD57
:10450000052949DD35994968C96820918A4246DC08
:1045100021AA12681192349A002A4DD018680528F1
:104520003FDD5B680022012141E059F071FC59F048
:104530006FFC59F06DFC59F06BFC59F069FC726826
:104540008EE759F065FC3599496892E759F060FCAF
:1045500059F05EFC3599496897E724AA99E759F024
:1045600057FC32699EE759F053FC2969A1E759F0DD
:104570004FFC59F04DFC2969A5E722AAA7E759F09D
:1045800047FC6A68ACE759F043FC35990969B0E724
:1045900059F03EFC59F03CFC35990969B5E720AA71
:1045A000B7E70433BEE79400E45861430132904218
:1045B000F9DC119B8B4238D13368012B37DD052B99
:1045C00037DD73685B6807933368022B34DD052B96
:1045D00034DD73689B6806932B68012B31DD052B56
:1045E00031DD6B685B6808932B68022B2EDD052B91
:1045F0002EDD6B689B680393359B1B68012B2ADDBE
:10460000052B2ADD359B5B685B681693359B1B6821
:10461000022B26DD052B26DD359B5B689B681593F9
:10462000002733003E001F00D6E159F0F1FB59F09E
:10463000EFFBB3680793C7E759F0EAFBF36806930B
:10464000CAE759F0E5FBAB680893CDE759F0E0FB0A
:10465000EB680393D0E759F0DBFB359B9B6816931F
:10466000D4E759F0D5FB359BDB681593D8E759F0B3
:10467000CFFB59F0CDFB59F0CBFB59F0C9FB59F0FA
:10468000C7FB59F0C5FB59F0C3FB59F0C1FB59F00A
:10469000BFFB59F0BDFBB146464680466046009BD5
:1046A0009C460130039B98426BDA04994143059B79
:1046B000C918F6D4069B9942F3DA002EF1DB079B6A
:1046C0009E42EEDA00220B0061460091844640468D
:1046D000B0464E469946019B9A42DCDA3B68042B71
:1046E000C5D100990029C4DB7B689942C1DA4346F1
:1046F000002BC0DBBB689845BDDA4C46002CBCDB08
:10470000FC68A246A145B8DA002AB8DB3C69A2429F
:10471000B5DA00994B43434451464B434B44634302
:10472000D3183099CC562B68042BAAD10028AADBC9
:104730006B689842A7DA002EA7DBAB689E42A4DA2A
:1047400061460029A3DBE9688B468C459FDA002A85
:104750009FDB29698A468A429BDA4343F31859460C
:104760004B43634451464B43D3183299CB5602997D
:104770008A4654445C431D9B9A4654441D9401321E
:10478000A9E701239A46D144089B994507DA099E77
:104790004B465E430E9B9A465644002082E766468F
:1047A00044463195349B002B06D0A300349A9B5885
:1047B0001D9A944663441D931D98A300139AD258E2
:1047C0001499CB58191E00DAB1E0002B00DCB0E0E0
:1047D00000239A468840824200D1ADE000239846EB
:1047E000C117D31721F0CEF802000B1E00DAADE09E
:1047F0008021C9050A91C9170B910A980B991218C3
:104800004B41D917490049080C9100210D910C9892
:104810000D9912184B4111005B00CA0F13439946C2
:104820004346002B00D093E05346002B00DA92E081
:104830001F2B00DD96E0012098400138FFF703FBB5
:1048400080460020FFF7FFFA00900120FFF7FBFAF7
:10485000834641464846FFF7F7FA050001214046E6
:10486000FFF7F4FA804600994846FFF7FCFA5946EC
:10487000FFF7EAFA01004046FFF7EAFA80465146A0
:104880004846FFF7E3FA814641462800FFF7F4FA6D
:104890005946FFF7D9FA01004846FFF7D9FA1D90AB
:1048A000129B9C4660441D901F9B984261DB1DAB90
:1048B0001B681D931E9A93425DDC1DAB1A681D9206
:1048C000359B1B680093042B57D1002E57DB359B7B
:1048D0005B6800939E4252DA0F99002951DB359BA9
:1048E0009B6899424DDA109900294CDB3598C068D5
:1048F000814248DA002C48DB359909698C4244DA58
:1049000073430F9DAC46634443431098844663440D
:104910004B43E3183699CA540134119B9C4236DA52
:1049200000231D939946B446A046319D2CE70021F3
:104930004BE75B429A464DE780231B06984202D024
:10494000002398464CE70123984649E7294951E757
:10495000294B994668E7B321284B294A4900294841
:104960001DF000FA6821284B254AFF3125481DF02B
:10497000F9F91FAB9CE71EABA0E759F049FA59F0D3
:1049800047FA59F045FA59F043FA59F041FAB3465B
:10499000319D109B01331093109A159B9A4209DAAE
:1049A000179B5343199A9B1A059300235E461C00DC
:1049B0003195B2E75E460F9B01330F930F9A169B1A
:1049C0009A4208DA189B53431A9A9B1A0E930023B3
:1049D0001093B346E0E701361B9B9E4202DA0023A8
:1049E0000F93EBE727B0F0BCBB46B246A946A04602
:1049F000F0BDC046010000C0FFFFFF7FFCD30610E2
:104A00000CD4061068D40610E0D40610F0B5DE46CB
:104A100057464E464546E0B5CFB005000F00A64BC1
:104A20001B6800284BD000294BD09B000A68944695
:104A300063445968436D98470600A04B1B68002DDE
:104A400041D0002F41D09B003A6894466344596896
:104A500028006B6D984780463B681B68032B36D057
:104A600000239946964B1B68002D44D0002F44D05C
:104A70009B007A6894466344596828006B6D984798
:104A80000400796900293AD03F69002F39D0307A83
:104A9000237A984237D06C6903930290894B019333
:104AA000894B0093894B8A4A8A492800A0470120F4
:104AB0004FB0F0BCBB46B246A946A046F0BD59F087
:104AC000A7F959F0A5F959F0A3F959F0A1F9824BCA
:104AD0001B68002D0BD0002F0BD09B003A6894462A
:104AE0006344596828006B6D98478146BAE759F0CE
:104AF0008FF959F08DF959F08BF959F089F959F07E
:104B000087F959F085F943461B7A984205D06B69BD
:104B10007249280098470120CAE701280BD00928CC
:104B20006ED06C69FEF764FD0200337A6C49280090
:104B3000A0470120BCE73A000AA800F005FB3100BD
:104B400018A801F037FB3000FFF75CF982464146B8
:104B50001EA801F02FFB4046FFF754F9070024ADD3
:104B60004946280001F026FB4846FFF74BF98046EE
:104B70002AAE2100300001F01DFB2000FFF749F9AB
:104B8000814630AC0021200001F014FB0023069385
:104B900005944B4604930396434602930195009770
:104BA0001EAB524618A90AA8FFF7A4F9309B052BA3
:104BB00004DD3198002801D021F0B4FA2A9B052B9E
:104BC00004DD2B98002801D021F0ACFA249B052BA2
:104BD00004DD2598002801D021F0A4FA1E9B052BA6
:104BE00004DD1F98002801D021F09CFA189B052BAA
:104BF00004DD1998002801D021F094FA002057E72D
:104C00003A000AA800F06EF87B6A9A46BB6A9B4697
:104C1000310036A801F0CEFA3000FFF7FEF8099017
:104C20003CAF4146380001F0C5FA4046FFF7F5F8C1
:104C3000804642AD4946280001F0BCFA4846FFF7DD
:104C400049F9814648AE2100300001F0B3FA200056
:104C5000FFF7EAF8069005964B4604930395434602
:104C600002930197099B009336AB5A4651460AA816
:104C7000FFF7BCFB489B052B04DD4998002801D0B9
:104C800021F050FA429B052B04DD4398002801D007
:104C900021F048FA3C9B052B04DD3D98002801D00B
:104CA00021F040FA369B052B04DD3798002801D00F
:104CB00021F038FA0020FBE6ECD70610F4D70610F6
:104CC000F0D7061060D5061070D506108A060000D1
:104CD000F0D4061064D20610E8D706107CD5061072
:104CE0001CD6061070B504000E00150013695B4257
:104CF000436153695B4283619369C361D369036212
:104D0000136A5B424362087801F07CFA20706B689A
:104D1000A3802B686380B368A38173686381736920
:104D200023823369E381EB6AA3622B6BE362200089
:104D300070BD0000F0B5DE4657464E464546E0B52C
:104D400093B004000D0016001F0021AB1B780B93DD
:104D50000B681B68032B0AD0022B08D04569834BD4
:104D600000935623824A8349A847012011E06B68CB
:104D70001B68012B14D065690122039202937E4BBC
:104D800001937E4B00935723794A7D492000A84721
:104D9000012013B0F0BCBB46B246A946A046F0BD08
:104DA00033789A46B36899467368984673699B4608
:104DB00033690D931D9A501E584301304346002B12
:104DC00017D05346012B04D0022B0AD000230C939A
:104DD00010E038004044013841461EF045FB0C907D
:104DE00008E03B004344181A41461EF03DFB0C907E
:104DF00000E00C931E9B581E5B46584301304B4607
:104E0000002B14D05346012B03D0022B08D00020D6
:104E10000EE01C984844013849461EF025FB07E087
:104E20001C9B4B44181A49461EF01EFB00E04846E6
:104E30001E9B013B5A465343013301384A465043B7
:104E40001B181C9A9B1A4AD401211940DA0FD31857
:104E50005B100F9311911D9B013B0D9A534301333E
:104E60000C980138424650431B18DB1B39D40121F2
:104E70001940DA0FD3185B100EAA0E931091229BE3
:104E800083CA83C312681A60002229002000FEF73B
:104E90005DFD8046002826D0012229002000FEF773
:104EA00055FD8146002828D0022229002000FEF767
:104EB00089FD0700002229002000FEF765FD051E80
:104EC00025D00B9B012B2CD143461B69229A1361E1
:104ED0004B461B6953612B699361002059E70023FE
:104EE000B2E70023C3E76569264B00936123204A9C
:104EF00020492000A84701204BE76569224B009319
:104F000063231B4A1B492000A847012041E765692C
:104F10001E4B00936723164A16492000A84701201C
:104F200037E74B469B685B680C36229A926A0B9275
:104F300008930792229B5B6A0B930693229B303364
:104F40000593229B2C330493229B20330393229BB3
:104F50001C330293019600903B004A4641462000D4
:104F6000FEF7F6FD0028AFD013E7C046D0D60610F6
:104F700058D6061004D20610DC3A0710F4D60610F4
:104F800064D2061008D706101CD7061030D70610BA
:104F9000F0B5DE4657464E464546E0B58FB00400B4
:104FA0000D000F69002F4CD04B699946002B4AD059
:104FB0000022FEF7E9FC8246002846D000222900A4
:104FC0002000FEF7C3FC061E50D00122290020005D
:104FD000FEF7BCFC8046002852D0B368DA6809921C
:104FE0009B680A938368DA680B929A680C9252461F
:104FF0009268D1680D91926893465B689B009A46CF
:1050000019002000A36B9847786251462000A36BDB
:105010009847B8623378092B6CD1302241468E5CB8
:10502000012E37D06569083B039302963B4B0193F1
:105030003B4B00939F233B4A3B492000A847012656
:105040000CE058F0E5FE58F0E3FE6569374B00933D
:105050008723344A36492000A847012630000FB084
:10506000F0BCBB46B246A946A046F0BD6569314BCF
:10507000009389232B4A2E492000A8470136EDE7EB
:1050800065692D4B00938B23264A29492000A847A8
:105090000126E3E74A6B002A16D01168002915D0D3
:1050A0005068002814D00A68012A13D04146896844
:1050B00049688A420ED06569204B0093A823194A9B
:1050C0001B492000A847C9E758F0A2FE58F0A0FEEF
:1050D00058F09EFE01688A420CD0656903910292E5
:1050E000174B0193174B0093AC230E4A0E49200037
:1050F000A847B3E7069705935B4604930D9B03937C
:105100000C9B02930B9B01930A9B0093099B4A46BD
:1051100029002000FFF70EFE06009FE780D2061050
:10512000B8D2061058D6061064D2061030D7061032
:1051300004D2061008D706101CD7061044D7061054
:10514000C0D706106CD3061070B504000D00160011
:10515000087B2200343221003031FEF797FE287898
:1051600001F050F82070336863807368A3806B6827
:105170006381AB68A3812B69E3816B692382200083
:1051800070BD10B5002801D0006810BD58F040FE79
:1051900010B5002802D01EF02FF910BD2020FCE72A
:1051A00030B50400C5170800C91700196941002966
:1051B0000BDB0122002312184B41D80F002180186D
:1051C0005941CB074008184330BD01225242D31742
:1051D000F1E7000070B50A00884219D00024C11719
:1051E000D31720F0CFFB02000B1E19DB8025ED0545
:1051F0002800E91712184B41DD176D0068080021DF
:10520000801859414B00C00F1843002C0AD170BDC3
:1052100080210906884201D00024E0E70124DEE76E
:10522000014DE5E70148F2E7010000C0FFFFFF7F05
:1052300010B5FEF70DFE10BD70B50A00884219D0FA
:105240000024C117D31720F09DFB02000B1E19DBB1
:105250008025ED052800E91712184B41DD176D0078
:1052600068080021801859414B00C00F1843002CDA
:105270000AD170BD80210906884201D00024E0E7F0
:105280000124DEE7014DE5E70148F2E7010000C037
:10529000FFFFFF7F7047401A704710B5FFF7FBFF15
:1052A00010BD000010B50200C31701208840C117CF
:1052B00020F068FB03004A1C09DB4A1C03D00029CC
:1052C0000CDC07D010BD802212069042F7D280205D
:1052D0000006F7E7802212069342F3D30048F1E775
:1052E000FFFFFF7F4840704770B504001600FEF7CF
:1052F000ABFD05002000FEF7ADFD3100FEF7A4FD7B
:1053000001002800FFF7EEFF70BD0000F0B5C646B3
:1053100000B5040080200006FEF795FD0600124847
:10532000FEF791FD80461148FEF78DFD010020003B
:10533000FEF7A2FD07000E48FEF785FD01002000E4
:10534000FEF791FD050002212000FFF7ABFF0200F0
:1053500041463800FFF7C8FF020031002800FFF780
:10536000C3FF80BCB846F0BDFFFFFF7FFFFFFF1FFC
:10537000010000E010B5FFF7C9FF10BDF0B5C6464B
:1053800000B5040080200006FEF75DFD060012480F
:10539000FEF759FD80461148FEF755FD010020003B
:1053A000FEF76AFD07000E48FEF74DFD01002000E4
:1053B000FEF759FD050001212000FFF773FF0200F1
:1053C00041463800FFF790FF020031002800FFF748
:1053D0008BFF80BCB846F0BDFFFFFF7FFFFFFF3FA4
:1053E000010000C010B5FFF7C9FF10BDF0B5D646EB
:1053F0004F464646C0B504005048FEF724FD010064
:105400002000FFF7CDFE06000020FEF71CFD050082
:105410000020FEF718FD80460120FEF714FD040071
:10542000474F29003800FEF70FFD81460121280073
:10543000FEF70CFD050041463800FEF714FD210083
:10544000FEF702FD01002800FEF702FD8046002164
:105450003800FEF7FBFC050041464846FEF70CFD10
:105460002100FEF7F1FC01002800FEF7F1FCFEF739
:10547000EAFC82460020FEF7E6FC05000020FEF76D
:10548000E2FC81460120FEF7DEFC04002D4F2900DE
:105490003800FEF7D9FC804601212800FEF7D6FC33
:1054A000050049463800FEF7DEFC2100FEF7CCFC83
:1054B00001002800FEF7CCFC814600213800FEF7F1
:1054C000C5FC050049464046FEF7D6FC2100FEF724
:1054D000BBFC01002800FEF7BBFCFEF7B4FC01009A
:1054E0003000FFF777FE01005046FFF7A1FE0400F1
:1054F000002517E021003000FFF76CFE0700802038
:105500008005FEF7A0FC3900FFF7C7FE0100200070
:10551000FFF792FEFFF72EFF01002000FFF788FE45
:1055200004000135022DE5DD2000FFF7B3FEFFF793
:1055300059FFE0BCBA46B146A846F0BDFFFFFF7F69
:105540005A5A5A5AC4C3C3C310B5836B002B02D036
:105550002021984710BD58F05BFC0000F0B5D646FE
:105560004F4680B587B005000C000B699946002BAB
:105570002DD04B699A46002B2BD0394B1A68FEF779
:10558000E5F9061E27D0374B1A6821002800FEF7E0
:10559000DDF9071E2DD0344B1A6821002800FEF7D4
:1055A00011FA0590314B1A6821002800FEF7ECF93A
:1055B000041E29D03078237898422FD13B78984226
:1055C00040D06B692A492800984701200CE058F028
:1055D0001FFC58F01DFC6C69264B0093264B274A94
:1055E00027492800A047012007B0C0BCBA46B146F1
:1055F000F0BD6C69A323234A0092DB001F4A2049B7
:105600002800A0470120EFE76C691F4B00931F4B58
:105610001A4A1B492800A0470120E5E76F69FDF7FA
:10562000E7FF06002078FDF7E3FF03900296184B92
:105630000193184B0093184B104A18492800B8479B
:105640000120D1E7534619784B4603930294059BFA
:105650000193009733000200280000F06CFDC3E7BF
:1056600060D9061068D906105CD9061064D90610F6
:1056700090D8061008D7061015050000F8D70610B8
:1056800004D206101CD7061030D706101C050000E7
:1056900060D5061070D506101E05000074D80610DF
:1056A00030B5044B020032CB32C232CB32C212CB05
:1056B00012C230BD3CD90610F0B5DE4657464E4604
:1056C0004546E0B593B090461C9A91461F990268F2
:1056D00092464268934682680C92C26808920269B8
:1056E000099244691194806910901A68012A2DDD8D
:1056F0000D68022D2CD184422CDC086800282BDD9B
:1057000005282BDD486800680D900868012828DD11
:10571000052828DD496849680791911E26D4186834
:10572000814225DA052825DD890058684158079807
:10573000814223DB013A23D419688A4222DA0529FF
:1057400022DD5B6892009C580027F8E058F060FB6F
:1057500058F05EFB58F05CFB58F05AFB48680D901F
:10576000D3E758F055FB89680791D6E758F050FB0E
:1057700058F04EFB890059184968D8E758F048FBA3
:1057800058F046FB58F044FB92009A185468DBE747
:1057900023007B439B184946CB5621006943891857
:1057A00040464156711853444B430F998C4663440D
:1057B0000F930132A242EBDBB3461E9B002B06D0B7
:1057C000AB001E9A9B580F9A944663440F930F9810
:1057D000099A131E00DA88E0099A002A00DC86E0A4
:1057E000002204929840089B834200D182E000236B
:1057F0000593C117089AD31720F0C4F802000B1EB6
:1058000000DA81E08021C9050091C9170191009853
:10581000019912184B41D9174900490802910021FA
:1058200003910298039912184B415E00D20F164360
:10583000059B002B6AD1049B002B69DB049B1F2B6B
:105840006DDC0120049B98400138FEF7FCFA0590BE
:105850000020FEF7F8FA0A900120FEF7F4FA06900D
:1058600005993000FEF7F0FA0B9001210598FEF73C
:10587000EDFA05900A993000FEF7F5FA0699FEF761
:10588000E3FA01000598FEF7E3FA05900499300069
:10589000FEF7DCFA060005990B98FEF7EDFA06997B
:1058A000FEF7D2FA01003000FEF7D2FA0F900C9BFF
:1058B0009C4660440F90119B984237DB0FAB1B68EE
:1058C0000F93109A934233DC0FAB1A680F92079B29
:1058D0007B435B192099CA540135079B9D4229DA05
:1058E00000230F9300225E4664E7002374E75242D0
:1058F000049277E780231B06984202D00023059389
:1059000077E70123059374E715497DE7154E92E784
:10591000B321154B154A490015481CF023FA68219C
:10592000144B124AFF3112481CF01CFA11ABC6E7A7
:1059300010ABCAE743461C93C846994601370D9BF6
:105940009F4205DA00254B461C93C1469846C4E7A2
:1059500013B0F0BCBB46B246A946A046F0BDC04657
:10596000010000C0FFFFFF7FFCD306100CD406101F
:1059700068D40610E0D40610F0B5DE4657464E4611
:105980004546E0B595B090461E001E9B9946219D68
:1059900003689A4643689B4683680C93C3680893E0
:1059A0000369099343691193816910913768012F45
:1059B00012DD2A68002A11DD8B4211DC2868013AC9
:1059C00010D482420EDA05280EDD6C680023012116
:1059D000AC46250014000DE058F01AFA58F018FAF9
:1059E00058F016FA58F014FA2C1DEFE79A00AA584E
:1059F00051430133984203DD9C42F7D10122F7E77E
:105A000022000D916546BB1E30D431688B422FDADF
:105A100005292FDD9B007168CB58002A2EDB2968F1
:105A20008A422DDA05292DDD910068684158994296
:105A30002CD11393002A2BDB29688A422ADA052904
:105A40002ADD696892008A581292934228DC13ABCF
:105A50001B680793013F25D433689F4224DA052B46
:105A600024DD7368BF00DC590027FAE058F0D0F954
:105A700058F0CEF99B00F3185B68CEE758F0C8F9F0
:105A800058F0C6F9910069184968D0E758F0C0F994
:105A900058F0BEF958F0BCF99200AA185268D3E742
:105AA00012ABD5E758F0B4F958F0B2F9BF00F719C6
:105AB0007C68D9E723007B439B184946CB5C2100D7
:105AC000694389184046415C711853444B430F9910
:105AD0008C4663440F930132A242EBDBB346209B1A
