:020000041000EA
:1000000000B5324B212058609868022188439860DF
:10001000D860186158612E4B002199600221596106
:100020000121F02299502B49196001219960352056
:1000300000F044F80222904214D00621196600F024
:1000400034F8196E01211966002018661A6600F04E
:100050002CF8196E196E196E052000F02FF8012189
:100060000842F9D1002199601B49196000215960AB
:100070001A491B48016001219960EB211966A021F2
:10008000196600F012F800219960164914480160C1
:100090000121996001BC002800D000471248134993
:1000A000086003C880F30888084703B5996A0420EC
:1000B0000142FBD001200142F8D103BD02B5186610
:1000C0001866FFF7F2FF186E186E02BD00000240BE
:1000D000000000180000070000035F00212200005C
:1000E000F4000018222000A00001001008ED00E03C
:1000F00000000000000000000000000074B24E7A12
:1001000000200420F7010010C3010010C5010010F9
:10011000C1010010C1010010C1010010C101001097
:10012000C1010010C1010010C1010010C701001081
:10013000C1010010C1010010C9010010CB01001065
:10014000CD010010CD010010CD010010CD01001037
:10015000CD010010CD010010CD010010CD01001027
:10016000CD010010CD010010CD010010CD01001017
:10017000CD010010CD010010CD010010CD01001007
:10018000CD010010CD010010CD010010CD010010F7
:10019000CD010010CD010010CD010010CD010010E7
:1001A000CD010010CD010010CD010010CD010010D7
:1001B000CD010010CD010010CD010010CD010010C7
:1001C00000BE00BE00BE00BE00BE00BE00F04BF888
:1001D000103800BEF2EB8871489D0710749D07101F
:1001E0003402001090A31AE700202149086006C8D5
:1001F00081F3088810471F48006800282FD10DA4FC
:100200000ECC002902D000F012F8F9E71A491B4A77
:10021000002000E001C19142FCD1194988471949E9
:1002200088471949884700BEFDE701C901C29A42C3
:10023000FBD37047749D0710C0000020702600207B
:1002400024C30710000004200000042024C307106A
:1002500000100420001004200000000070470B482C
:1002600027F080FA0047EFF30580C0B27047000026
:1002700008ED00E0000000D07026002004380320C4
:1002800049590210ED030010755A0210575600002C
:1002900006005250ABB36053CCEA06100600525031
:1002A000861C0302DCEA0610060052505422A29D6E
:1002B0009C9B061005005250DE65F46824C30710AD
:1002C000F8B5C04610B5064C2378002B07D1054B76
:1002D000002B02D0044800E000BF0123237010BDB2
:1002E0005828002000000000909B0610084B10B515
:1002F000002B03D00749084800E000BF0748036807
:10030000002B00D110BD064B002BFBD09847F9E71E
:10031000000000005C280020909B06107026002042
:100320000000000010B50CF03BFB1F4A04001F4901
:100330001F480CF087FB0DF0B7F8002830D00CF008
:10034000C3FF002828D00DF013FE002820D00CF0A9
:1003500079FF002802D117480CF074FB23682000B5
:100360009B689847236820005B6898478023226831
:100370000421D3582000984720000BF0F9FB0E4CC5
:1003800020600E480CF05EFB20681EF071FA10BD74
:100390000B480CF057FBDAE70A480CF053FBD2E7A6
:1003A00009480CF04FFBCAE7909B06109C9B061077
:1003B000A89B0610609C061094330020849C0610B5
:1003C000349C0610149C0610E49B061010B5FFF731
:1003D000A9FF054C0CF02AFBFF28FBD00100206888
:1003E0001EF0AEFCF6E7C0469433002000B517209F
:1003F00083B023F03DFDD02380221B0612045A62F5
:100400005A6129F0C9FB00202BF07CFB0028FAD0B0
:100410008022D02312041B069A61002380220193BC
:1004200001330093D2000023034904482DF0A8FFB4
:100430002EF078F9FEE7C046B09C0610CD03001000
:1004400010B502480CF0FEFA10BDC046B89C06106C
:1004500010B50CF0A5FA014B186010BD74280020EF
:10046000F0B55746DE464E464546E0B54B088FB0E0
:1004700007931E000133DD0006900F008C0028005A
:1004800001219A4602F008FC0590002800D122E1E3
:100490000121200002F000FC0490002800D11CE1A2
:1004A000002E12D00498069E84460100221F2800C8
:1004B0006244B4463300083860441E68043A40C1C0
:1004C0005E68083356609842F7D1FB0726D4202F88
:1004D0002ED03B004022403B93433FD080235B0023
:1004E0009F424AD07F4B804AFB18134236D07F4B45
:1004F0007F4AFB18134231D008AB0093002200233F
:100500000021380002F004FA041E25D0059A04994F
:1005100002F0CCFA200002F0C3FB65E0069B0499D0
:100520001B19043B1A68079B9B005A50202FD0D1FF
:10053000102308AE33806F4B20009A890121B281CD
:100540009A685B68B260029373606B4B3782736129
:1005500002F0A2FB041E24D1684C00E0684C049811
:1005600002F09EFB059802F09BFB20000FB03CBC04
:1005700090469946A246AB46F0BD802308AE338034
:10058000604B20009A890121B2819A685B68B26051
:10059000029373605C4B3782736102F07DFB041E33
:1005A000DAD0002322000499300004F0BBF905984A
:1005B000002384462168436001606268083D654409
:1005C0002A606B602200030001210798083208337B
:1005D000156801311D60556808325D600833884236
:1005E000F6D8200002F05CFB780027F009FC069B9F
:1005F000B94600241F0002900391059D200027F0BA
:10060000FFFB424A424B27F086FB029A039B27F0EE
:1006100064FB27F085FC061C28F04CFE8346301C4A
:1006200028F05AFE29688046584628F066FD696819
:10063000061C404628F061FD011C301C28F046FDD8
:10064000013401C70835A245D8D14F46A7423AD94F
:10065000059A304B9446FD18079BCA46ED1A9E003A
:10066000069BED0065449C466644B046029E039F8F
:10067000200027F0C5FB254A254B27F04CFB3B000B
:10068000320027F02AFB27F04BFC814628F012FEAF
:100690008346484628F020FE29688146584628F0BF
:1006A0002CFD69688346484628F027FD011C584602
:1006B00028F009FD4346586004239C460134083D58
:1006C000E044A245D4D1049802F0EAFA059802F079
:1006D000E7FA002449E7094C47E7059802F0E0FAF9
:1006E000064C42E700FEFFFFFFFDFFFF00F8FFFFA3
:1006F000FFF7FFFFECA706105CA7061016FCFFFF34
:1007000008FCFFFFDCA706105CA30610182D44545C
:10071000FB210940FFFFFF1FF0B5DE464E46454670
:100720005746E0B591B00E91842149008C4694441F
:1007300061461268050006921A9A1E00D400200035
:100740000F93059102F0A4FA0890002E00DC8BE0D4
:100750000F9B8446DA0009922200624404920E9AAA
:100760000B955A4300230A920C930D931A99089AF9
:100770000B9B002969DD0498099C190060C960C2BF
:100780001B199042F9D10C9B03930B9B9B460023B2
:1007900007935B46089D06CD06C31A9B012B46D0E6
:1007A0005B4600241E685B68D846A3461C1C039B5E
:1007B00006995B445A1A994200DD1A002B68934649
:1007C0009946D300059A4846944663441F686A6870
:1007D0005B68391C01929A4628F08FFC51460290C2
:1007E000019828F08AFC011C029828F06CFC011C7E
:1007F000301C28F06BFC434651461860061C4846E6
:1008000028F07BFC01998146381C28F076FC011CFD
:10081000484628F05BFC011C201C28F057FC43468E
:100820005860049B0835041CAB42C0D1C346099AEA
:100830000A999446E3448C46039A079B62440392C8
:100840001A9A013307939A42A3D10E990B9A8C46B8
:1008500008320B920C9A0D9B62440C920F9A013352
:100860000D939A4282D1089802F01AFA11B03CBC5A
:1008700090469946A246AB46F0BDC046F0B5DE466E
:1008800057464E464546E0B59DB01F00269B059253
:100890001A68834616000C00596803924E43F6000E
:1008A00017915E44012900D190E3100005995D463F
:1008B000CA00484317990492C900894608217A431F
:1008C0008846BB468246170098440695279B210020
:1008D000019343462800009352465B464D44FFF780
:1008E000CDFFE419AE42F1D1069B9B46039B032B3F
:1008F00000D17AE3032B00DC18E3042B00D1E8E1FC
:10090000052B01D000F04FFC179C059822004243B4
:100910002799D2000931FF318B181D680F955D684A
:100920009B181A685B6810921193E3009A462200A4
:100930001C00DA445444A4469C44260064466344A4
:10094000059506940393002A00DCBBE1844643002E
:10095000020163441A92DA000023D946D346B24614
:100960001B9242010A9119920791089109911893DB
:100970004B4659464A461B680E680B930A9B5268C1
:100980001C684D68301C211C5F680C9228F0B5FB78
:10099000391C8046281C28F0B0FB011C404628F07A
:1009A00092FB391C1290301C28F0A7FB291C061C56
:1009B000201C28F0A2FB011C301C28F087FB5146AC
:1009C000099A0E6814684D681390211C301C5768F2
:1009D00028F093FB391C8046281C28F08EFB011C54
:1009E000404628F070FB391C1490301C28F085FB21
:1009F000291C061C201C28F080FB011C301C28F040
:100A000065FB069B041C19685F6888460899404688
:100A10000D684E68291C0D9628F06FFB0D99061C79
:100A2000381C28F06AFB011C301C28F04CFB0D9987
:100A3000061C404628F061FB391C8046281C28F023
:100A40005CFB011C404628F041FB039A051C17681B
:100A5000381C079F159039687F68884651680E9743
:100A60000D91414628F049FB0E99071C0D9828F07E
:100A700044FB011C381C28F026FB0E99071C159816
:100A800028F03BFB0D990E90404628F036FB011CE8
:100A90000E9828F01BFB391C8046129828F016FB94
:100AA00041460D90139828F011FB391C0E901298B6
:100AB00028F009FB41461290139828F004FB311CE2
:100AC0001390149828F002FB291C8046201C28F063
:100AD000FDFA311C071C149828F0F5FA291C149013
:100AE000201C28F0F0FA0D9E41461590301C28F08D
:100AF000EDFA0B9C4D46211C28F0E8FA391C2860C1
:100B00000E9828F0E3FA0C9928F0E0FA68600F9D3F
:100B1000311C281C0D9628F0F0FA211C0B9428F0AB
:100B2000D5FA4146041C109828F0E7FA011C201C55
:100B300028F0CCFA0E99061C281C0F9528F0DDFA37
:100B40000C9928F0C3FA391C041C109828F0D5FA27
:100B5000011C201C28F0BAFA1399051C059828F0EE
:100B6000CCFA1599041C119828F0C7FA011C201C16
:100B700028F0ACFA802412991690059828F0BDFA56
:100B8000240604191499119828F0B7FA011C201CA6
:100B900028F099FA1699041C301C28F094FA5A4649
:100BA000211C1060281C28F08EFA5A4616995060B5
:100BB000301C28F08BFA039E211C3060281C28F082
:100BC00085FA109D70600D99281C039628F095FAFF
:100BD0000B9928F07BFA0F9E041C4146301C28F02C
:100BE0008CFA011C201C28F071FA0E99041C281C98
:100BF00028F083FA0C9928F069FA391C051C301C7E
:100C000028F07BFA011C281C28F060FA1599051CB5
:100C1000059828F072FA119B061C1399181C984627
:100C200028F06BFA011C301C28F04DFA1299061CB2
:100C3000404628F062FA1499071C059828F05DFADE
:100C4000011C381C28F03FFA311C071C201C28F01E
:100C50003DFA51460860391C281C28F037FA5146E5
:100C60004860311C201C28F02EFA069C391C20609C
:100C7000281C28F028FA6060082084462300049C81
:100C8000E144E344E244A446083306930A9B039AF2
:100C900063440A931A9B08329C4603921B9B099A51
:100CA000189862449C460899013061441890099252
:100CB0000891079F199B9C46179B6744079783429F
:100CC00000D055E61DB03CBC90469946A246AB46C6
:100CD000F0BD179B5C461A000A93279B0933FF332C
:100CE00019000393D300059A9A4610010E90100044
:100CF00099468446DA44D1444B44984652006244B3
:100D0000D2001092279AC3465268D0460F9206919D
:100D10000591CA4625E00C9B181C994628F0D3F98A
:100D20004346089F0D9E1860391C301C28F0CEF9F0
:100D30004346291C5860484628F0C8F95B46391CD0
:100D40001860301C28F0BFF908225B4694465860B2
:100D50000A9B0834013B0A93E044E244E344002B3D
:100D6000B0D0434642461F68039B56681D685A68C8
:100D7000291C381C914628F0C0F949460790301CC0
:100D800028F0BBF9011C079828F09DF94946089006
:100D9000381C28F0B2F9311C071C281C28F0ADF9CA
:100DA000011C381C28F092F95246514612684E68D0
:100DB000171C059A099015685168381C8946291C2A
:100DC000079728F09AF94946071C301C28F095F936
:100DD000011C381C28F077F94946071C079828F0B1
:100DE0008CF9311C8146281C28F087F9011C4846E3
:100DF00028F06CF959465B4609685B680D1C06993A
:100E0000061C086899464B680C90011C281C079327
:100E10000B9528F072F90799051C484628F06DF9E2
:100E2000011C281C28F04FF90799051C0B9828F085
:100E300064F9494607900C9828F05FF9011C07985F
:100E400028F044F907902068391C814628F03BF9C6
:100E50006368311C0C90181C0B9328F034F9494638
:100E60000D90381C28F032F90B9981462060301C17
:100E700028F02CF9291C0B906060089828F026F9BE
:100E80000799071C099828F021F9291C061C0898C5
:100E900028F019F907990890099828F014F9391CD5
:100EA000051C484628F00FF95346311C18600B9872
:100EB00028F009F953465860039B059A9946049B0C
:100EC00006999C46E1444B4603930E9B20689C4642
:100ED000109B62449C4661440691391C059228F09F
:100EE000F5F8311C2060606828F0F0F80F9B606016
:100EF000291C002B00D00EE70C9B181C994628F0EB
:100F0000E5F84346089F0D9E1860391C301C28F0F8
:100F1000DAF84346291C5860484628F0D4F85B4666
:100F2000391C1860301C28F0D1F80DE7022B00D0D6
:100F300039E1179B5E469946279DDC000935FF3550
:100F40005C4423686A689A462B68504698466368F2
:100F500041469346039328F0D0F85946071C03985E
:100F600028F0CBF8011C381C28F0ADF85946071CB6
:100F7000504628F0C2F803998246404628F0BDF852
:100F8000011C504628F0A2F8049B80469C4630681D
:100F9000391C654428F097F820607068414628F0B5
:100FA00092F860603068391C28F090F84146306053
:100FB000706828F08BF801235B429C46E1444B4665
:100FC000706008340836002BBBD17BE6059BDB0044
:100FD00004935F430300220003CA03C3E4199E4243
:100FE000F9D1039B032B00D084E42798179B8446F8
:100FF00005991A0009934B432133DB0063445B6876
:101000005D460A9303008420400084466344994669
:10101000D3000A010B925A469A46D4184B46CB4647
:10102000A24403932368676898465B461E685B6822
:10103000311C4046994628F060F849460590381C16
:1010400028F05BF8011C059828F03DF8494605900A
:10105000404628F052F8391C8046301C28F04DF8E4
:10106000011C404628F032F853461B685246984609
:10107000039B57681E685A68311C0690404691468B
:1010800028F03BF849460790381C28F036F8011C38
:10109000079828F018F849460790404628F02DF8A0
:1010A000391C8046301C28F028F8011C404628F0E6
:1010B0000DF807998146059828F008F849460890E8
:1010C000069828F003F8049A039B94460B9AE3448D
:1010D0009446634403938046286828F0D1F80600BC
:1010E00008980F0028F0CCF80022334B26F013FEAE
:1010F00002000B003000390026F0DDFD26F010FF65
:101100002060686828F0BCF8060040460F0028F010
:10111000B7F80022284B26F0FEFD02000B0030003D
:10112000390026F0C8FD26F0FBFE0799606005989F
:1011300027F0C9FF0A9F391C27F0DFFF4946061C2C
:10114000069827F0C0FF391C27F0D7FF0899071C25
:10115000286827F0BBFF41462860686827F0B6FF83
:1011600068602068391C27F0B1FF5346186060683A
:10117000311C27F0A8FF53465860391C206827F01F
:10118000A2FF311C2060606827F0A0FF082294466F
:10119000099B6060013B083509930834E244002B49
:1011A00000D03FE78EE50093279A179B0599584694
:1011B000FFF7B2FA86E5C0460000E03FF0B54E46C4
:1011C0004546DE46574689460100E0B5213185B0E7
:1011D000C90080460391002B00D1F2E1002A00D122
:1011E000E5E193461968039A8A4200D9CDE01A6076
:1011F0005B46002B00D18AE05B4642461A604A46B5
:101200005A60002A00D18FE04346002B00DCD2E177
:10121000404626F0F9FD84235B005B449A46002398
:1012200006000F009946484626F0EEFDB64AB74B39
:1012300026F071FD32003B0026F04FFD04000D004A
:1012400026F090FE26F06CFE534629001860200020
:1012500026F09EFE26F064FE5346586001239C460D
:101260000733E1449C46E244C845DCD130003900F4
:1012700026F062FE26F014FF5C4605000E000022F8
:10128000A34B08340095019626F090FD002800D16C
:10129000A3E08023280031000022DB0526F086FD34
:1012A00004254646002800D07FE0022399460133FA
:1012B00001269A4647462900380026F085FAA046BE
:1012C000002918D0022D0ED0042D00D124E10235C2
:1012D000280026F099FD02000B000098019926F0E5
:1012E00065FD0028E7D03D002900380026F06CFAA3
:1012F000A0460029E6D13800290026F065FA4446C8
:10130000434607001D60083458600128D3DC0E9B5B
:10131000002B01D0039A1A60584605B03CBC904699
:101320009946A246AB46F0BD4346002B00DC42E1A5
:10133000404626F069FD84235B005B4406000F00F5
:101340009A46484626F060FD6F4A724B26F0E3FC51
:1013500032003B0026F0C1FC04000D0026F002FE26
:1013600026F0DEFD534629001860200026F010FE0E
:1013700026F0D6FD5346586001239C460733E144CE
:101380009C46E244C845DCD170E700229346039AAC
:101390002DE73000290026F017FA2300060025600B
:1013A000083360600128B2DD1C002900300026F0FF
:1013B0000BFA0029EDD0022D0DD0042D0BD00235F3
:1013C000280026F021FD02000B000098019926F06C
:1013D000EDFC0028E9D03500E7E780232800310044
:1013E0000022DB0526F0E2FC04254646002833D126
:1013F000022301269A4647462900380026F0E4F9E0
:10140000002900D1E5E0022D00D106E1042D00D134
:10141000EEE00235280026F0F7FC02000B000098F1
:10142000019926F0C3FC0028E6D03D00E4E7022D38
:101430002DD0042D0FD0B04627000235280026F00D
:10144000E3FC3C0002000B0046460098019926F0A0
:10145000ADFC002800D035002900300026F0B4F99A
:1014600027000029E3D13000290026F0ADF93C0027
:1014700006003D6008347860012800DC47E7290059
:10148000300026F0A1F927000029ECD0CFE7032196
:10149000300026F099F900297BD10331300026F085
:1014A00093F903230500994623606060012800DC5E
:1014B0002DE727000321083726F086F9002966D199
:1014C0000931300026F080F94B468046A36008378A
:1014D000E060012800DC1AE7032126F075F90029F5
:1014E00063D130001B3126F06FF94B4606002361B3
:1014F00008376061012800DC09E7032126F064F960
:10150000002963D10325AEE7182D4454FB2119406F
:1015100000000840FB2119C0F917CA0FBB1833405F
:10152000934200D0DFE64A46FB0FDB195B102260D6
:101530006360012B00DCEAE6220008321E422CD157
:1015400053464A4625000B40DB199810A26010351F
:10155000E060012800D1DAE6DB0FC21832409A427F
:101560001FD1072319404B46236118239846C919F8
:10157000CF10A0446761012F00DCC8E6C90F7B18BB
:10158000334044468B4200D0ADE60225B3E63C0032
:101590002E000022754B052557E71F0014003D0063
:1015A000A2E607002C003D009EE6032545E7002249
:1015B00093460A001BE6404626F026FC06000F0074
:1015C00054E6080001F064FB834611E6B0460325AB
:1015D00033E7A0463800290026F0F6F84446434693
:1015E00007001D6008345860012800DD04E78EE61E
:1015F000F917CA0FBB18334093420ED15246FB0F66
:10160000DB195B1022606360012B00DC7FE62200A7
:1016100008321E4255D014001F000321380026F066
:10162000D3F8002924D00098019900224F4B26F0CE
:10163000BDFB002800D0F8E60521380026F0C4F8EC
:1016400000293CD13800052126F0BEF8052323608F
:10165000033398460700A0446060012800DC56E68A
:101660000521380026F0B0F8002927D10525B1E77B
:101670000321380026F0A8F80323050098462360CC
:101680006060012800DC42E6053399460321A1444D
:1016900026F09AF800293AD0009801990022334B9D
:1016A00026F084FB002848D10521280026F08CF87C
:1016B000002949D02F004C460525AAE644460525B9
:1016C000A7E650460323A06020000B40DB199A10C8
:1016D0001030E260012A00D119E6DB0FD518354041
:1016E0009D422ED1524622611822072390460B407C
:1016F000DB19DF10A0446761012F00DC07E6DB0F78
:10170000FA18324044469A4287D1022562E73800EF
:10171000092126F059F84346A36010239846070094
:10172000A044E060012800DCF1E5032126F04CF83C
:10173000002918D0444603256BE62F004C463D0097
:101740005AE60400170068E738000F2126F03CF83D
:101750000523A3600B3398460700A044E0600128EE
:1017600000DD7DE7D3E5032534E7C04600001440E3
:10177000F0B5DE4657464E464546E0B582469BB03C
:101780000C009346914201D100F046FCC368856885
:101790001F006F43FF0003935F44012B00D13BE226
:1017A000DB00984610235344160099465346019394
:1017B0004B4621000093300001232A004644FFF7E6
:1017C0005DF80834B742F1D1032D00D12CE2032D8E
:1017D00000DCD3E1042D00D104E3052D00D0F9E2B3
:1017E000564603990936CB00FF36F21810680E9062
:1017F0005068D2180490106852680F9010921A0026
:101800005A4494469C44140062469C440392E24627
:1018100062469A440592002900DCA8E11A00D146EC
:101820005244DA46A34609961692069607960896FB
:101830005346594652461B680E680A93099B5268E4
:101840001C684D68301C211C5F680B9227F055FC0A
:10185000391C8046281C27F050FC011C404627F00C
:1018600032FC391C1190301C27F047FC291C061C47
:10187000201C27F042FC011C301C27F027FC039B96
:10188000089A1E6814681290211C301C5D68576805
:1018900027F033FC391C8046281C27F02EFC011C45
:1018A000404627F010FC391C1390301C27F025FC13
:1018B000291C061C201C27F020FC011C301C27F0D2
:1018C00005FC059A041C116857688846079940462C
:1018D0000D684E68291C0C9627F00FFC0C99061C0D
:1018E000381C27F00AFC011C301C27F0ECFB0C997B
:1018F000061C404627F001FC391C8046281C27F0B6
:10190000FCFB4F46011C404627F0E0FB3F68051CEE
:10191000381C069F149039687F6888464946496894
:101920000D970C91414627F0E8FB0D99071C0C9888
:1019300027F0E3FB011C381C27F0C5FB0D99071CA1
:10194000149827F0DAFB0C990D90404627F0D5FB50
:10195000011C0D9827F0BAFB391C8046119827F01E
:10196000B5FB41460C90129827F0B0FB391C0D9046
:10197000119827F0A8FB41461190129827F0A3FB7D
:10198000311C1290139827F0A1FB291C8046201CC3
:1019900027F09CFB311C071C139827F094FB291C93
:1019A0001390201C27F08FFB0C9C41461490201CA8
:1019B00027F08CFB0A9E5546311C27F087FB391C0B
:1019C00028600D9827F082FB0B9927F07FFB686059
:1019D0000E9D211C281C0C9427F08FFB311C0A96AD
:1019E00027F074FB4146041C0F9827F086FB011C6E
:1019F000201C27F06BFB0D99061C281C0E9527F068
:101A00007CFB0B9927F062FB391C041C0F9827F014
:101A100074FB011C201C27F059FB1299051C04982B
:101A200027F06BFB1499041C109827F066FB011C2F
:101A3000201C27F04BFB802411991590049827F067
:101A40005CFB240604191399109827F056FB011C1F
:101A5000201C27F038FB1599041C301C27F033FBA1
:101A60005B46211C1860281C27F02DFB5B4615994E
:101A70005860301C27F02AFB4E46211C3060281C81
:101A800027F024FB0F9D70600C99281C27F035FB74
:101A90000A9927F01BFB0E9E041C4146301C27F0C0
:101AA0002CFB011C201C27F011FB0D99041C281C89
:101AB00027F023FB0B9927F009FB391C051C301C70
:101AC00027F01BFB011C281C27F000FB1499051CA8
:101AD000049827F012FB109B061C1299181C9846BC
:101AE00027F00BFB011C301C27F0EDFA1199061CA6
:101AF000404627F002FB1399071C049827F0FDFAD3
:101B0000011C381C27F0DFFA311C071C201C27F0B1
:101B1000DDFA039B391C1860281C27F0D7FA039BB9
:101B2000311C5860201C27F0CEFA059C391C20601F
:101B3000281C27F0C8FA6060082022008446039B16
:101B4000083208330393099B07990833069F0592CF
:101B5000089A0993169B103218312037E144E24469
:101B6000E344089207910697994500D060E61BB0C0
:101B70003CBC90469946A246AB46F0BD022D00D033
:101B800028E1039B564699465D460936DC00FF3640
:101B90005C44236872689A46336850469846636886
:101BA00041469346039327F0A8FA5946071C039829
:101BB00027F0A3FA011C381C27F085FA5946071CA8
:101BC000504627F09AFA03998246404627F095FA44
:101BD000011C504627F07AFA391C8046286827F005
:101BE00072FA20606868414627F06DFA60602868E4
:101BF000391C27F06BFA41462860686827F066FABE
:101C000001235B429C46E1444B4668600836083439
:101C10000835002BBDD1AAE7130006CC06C39F42AE
:101C2000FBD1032D00D0D2E55246039B5D460793BE
:101C30002133DB00D2185268093B099284225200FA
:101C4000524491465A46FF3BD4189A464B46CB46DF
:101C5000A24403932368676898465B461E685B68E6
:101C6000311C4046994627F048FA49460490381CF2
:101C700027F043FA011C049827F025FA49460490FE
:101C8000404627F03AFA391C8046301C27F035FAD6
:101C9000011C404627F01AFA53461B6852469846E4
:101CA000039B57681E685A68311C05904046914650
:101CB00027F023FA49460690381C27F01EFA011C2B
:101CC000069827F000FA49460690404627F015FA94
:101CD000391C8046301C27F010FA011C404627F0C2
:101CE000F5F90699061C049827F0F0F9311C814695
:101CF0000598089627F0EAF908229446039B804647
:101D000010332868E344039327F0BAFA06004846E4
:101D10000F0027F0B5FA0022BE4B25F0FCFF0200B1
:101D20000B003000390025F0C6FF26F0F9F82060DE
:101D3000686827F0A5FA060040460F0027F0A0FAD1
:101D40000022B44B25F0E7FF02000B003000390001
:101D500025F0B1FF26F0E4F806996060049827F0BA
:101D6000B2F9099F391C27F0C8F90899061C059893
:101D700027F0A9F9391C27F0C0F94946071C286843
:101D800027F0A4F941462860686827F09FF9686049
:101D90002068391C27F09AF9534618606068311C96
:101DA00027F091F9534658602068391C27F08BF9C9
:101DB000311C2060606827F089F908229446079B4F
:101DC0006060013B083507930834E244002B00D0E3
:101DD00040E7CCE60095039B524601215846FEF7AA
:101DE0009BFCC4E6039B5C4619000A9384235B00BA
:101DF00053441A000393CB0051469A469946DA445D
:101E0000D1444B44984653464968CA460D910592C1
:101E10000492C346994622E027F055F94B460C9EA2
:101E20001860291C301C27F051F94B464146586078
:101E3000381C27F04BF95B46291C1860301C27F032
:101E400042F908225B46944658600A9B0834013BDD
:101E50000A93E144E244E344002B00D187E64B4679
:101E60004A461F68039B56681D685A68291C381C1F
:101E7000904627F042F941460690301C27F03DF984
:101E8000011C069827F01FF941460890381C27F0DE
:101E900034F9311C071C281C27F02FF9011C381CB1
:101EA00027F014F95246514612684E689046049A3B
:101EB00009901568516840460691291C27F01DF9C4
:101EC0000699071C301C27F018F9011C381C27F054
:101ED000FAF80699071C404627F00FF9311C804696
:101EE000281C27F00AF9011C404627F0EFF8594654
:101EF0000968061C0D1C059908688046584640680C
:101F00000690486841460790281C0B9527F0F5F885
:101F10000799051C069827F0F0F8011C281C27F0EB
:101F2000D2F80799051C0B9827F0E7F80699079057
:101F3000404627F0E2F8011C079827F0C7F88046D2
:101F40002068391C069027F0BEF86368311C0B909E
:101F5000181C079327F0B7F806990C90381C27F047
:101F6000B5F8079906902060301C27F0AFF8291CBF
:101F700007906060089827F0A9F84146071C099867
:101F800027F0A4F8291C061C089827F09CF8414665
:101F9000051C099827F097F8391C8046069827F009
:101FA00092F85346311C1860079827F08CF8534676
:101FB00005995860049A039B183108331032059133
:101FC0002068391C0393049227F080F8311C2060AC
:101FD000606827F07BF80B9F0D9B60604146381CC2
:101FE000002B00D018E727F071F84B460C9E1860C4
:101FF000291C301C27F067F84B4641465860381CB6
:1020000027F061F85B46291C1860301C27F05EF849
:1020100017E7C0460000E03F0368D80000F038FE34
:1020200053469F68DB6884461E007E43F600169088
:1020300003936644012B00D17EE3DB009846102316
:10204000534405009946534601934B4621000093A3
:10205000280001233A004544FEF710FC0834AE4244
:10206000F1D1032F00D175E300DC0FE3042F00D181
:10207000DBE1052F00D065E35146169E0398B44678
:102080000931C300FF31CA1814689C440F94546886
:10209000D218049414685268059464469C441092C3
:1020A00062469C44039262460692D518002800DCE2
:1020B000AEE1EA18534618935B46A946A246B346DA
:1020C0000A91179207910891099119935B4651461D
:1020D0005A461B680E680B930A9B52681C684D6831
:1020E000301C211C5F680C9227F007F8391C8046D1
:1020F000281C27F002F8011C404626F0E4FF391C9A
:102100001190301C26F0F9FF291C061C201C26F01B
:10211000F4FF011C301C26F0D9FF039B099A1E68AE
:1021200014681290211C301C5D68576826F0E5FF8A
:10213000391C8046281C26F0E0FF011C404626F092
:10214000C2FF391C1390301C26F0D7FF291C061C37
:10215000201C26F0D2FF011C301C26F0B7FF069A87
:10216000041C116857688846089940460D684E68F7
:10217000291C0D9626F0C1FF0D99061C381C26F06F
:10218000BCFF011C301C26F09EFF0D99061C40462A
:1021900026F0B3FF391C8046281C26F0AEFF4F46C0
:1021A000011C404626F092FF3F68051C381C079F23
:1021B000149039687F688846494649680E970D91A2
:1021C000414626F09AFF0E99071C0D9826F095FFC0
:1021D000011C381C26F077FF0E99071C149826F076
:1021E0008CFF0D990E90404626F087FF011C0E983B
:1021F00026F06CFF391C8046119826F067FF414697
:102200000D90129826F062FF391C0E90119826F05E
:102210005AFF41461190129826F055FF311C12903A
:10222000139826F053FF291C8046201C26F04EFFF1
:10223000311C071C139826F046FF291C1390201C04
:1022400026F041FF0D9D41461490281C26F03EFFCC
:102250000B9E5C46311C26F039FF391C20600E981D
:1022600026F034FF0C9926F031FF291C0D950F9DA7
:102270006060281C26F041FF311C0B9626F026FFDB
:102280004146041C059826F038FF011C201C26F04E
:102290001DFF0E99061C281C0F9526F02EFF0C9989
:1022A00026F014FF391C041C059826F026FF011C9B
:1022B000201C26F00BFF1299051C049826F01DFF28
:1022C0001499041C109826F018FF011C201C26F0FD
:1022D000FDFE802411991590049826F00EFF240627
:1022E00004191399109826F008FF011C201C26F0F1
:1022F000EAFE1599041C301C26F0E5FE5346211C0D
:102300001860281C26F0DFFE534615995860301CD3
:1023100026F0DCFE4E46211C3060281C26F0D6FE3E
:102320000D997060059826F0E8FE0B9926F0CEFE18
:102330000F9E041C4146301C26F0DFFE011C201CB1
:1023400026F0C4FE0E99051C059826F0D6FE0C99C1
:1023500026F0BCFE391C041C301C26F0CEFE011CED
:10236000201C26F0B3FE1499041C049826F0C5FE28
:10237000109B061C1299181C984626F0BEFE011CE4
:10238000301C26F0A0FE1199071C404626F0B5FE31
:102390001399061C049826F0B0FE011C301C26F090
:1023A00092FE391C061C281C26F090FE039B311C53
:1023B0001860201C26F08AFE039B391C5860281CDC
:1023C00026F081FE069D311C2860201C26F07BFE35
:1023D000686008202A008446039B08320833089965
:1023E000079F039306920A9B099A0833103218310B
:1023F00020370A93099208910797179BE144E34419
:10240000E244994500D061E6189B9A46199B9B4689
:102410005346169C1A682100D200584627F084F9CA
:10242000200000F03DFCFFF7A2FB039B169819006B
:102430000B93842384465B0053441A000393CB0020
:102440009C44E146514699444B440693534649689F
:102450000E930D915B4661460400CB4607910592B1
:1024600004920F93039B079A1D6859681768884662
:10247000381C291C566826F040FE41468146301C17
:1024800026F03BFE011C484626F01DFE4146099001
:10249000381C26F032FE311C071C281C26F02DFEAD
:1024A000011C381C26F012FE59460968049A884619
:1024B000594615684E6851680A9089464046291C5D
:1024C00026F01BFE4946071C301C26F016FE011C98
:1024D000381C26F0F8FD4946071C404626F00DFE44
:1024E000311C8046281C26F008FE011C404626F0C0
:1024F000EDFD069D061C29688A46059908688046F8
:1025000068688146486841460890504626F0F5FDC7
:102510000899051C484626F0F0FD011C281C26F0F1
:10252000D2FD0899051C504626F0E7FD4946824633
:10253000404626F0E2FD011C504626F0C7FD8046CD
:102540002068391C814626F0BEFD08906068311C69
:10255000824626F0B8FD49460C90381C26F0B6FDA0
:10256000514681462060301C26F0B0FD291C824671
:102570006060099826F0AAFD4146071C0A9826F0DB
:10258000A5FD291C061C099826F09DFD41460990D1
:102590000A9826F098FD391C051C484626F093FD44
:1025A0005B46311C1860504626F08DFD5B46059950
:1025B0005860049A039B1831083310320591206843
:1025C000391C0393049226F081FD311C2060606861
:1025D00026F07CFD089B0D9E6060291C9946181C06
:1025E000002E2AD026F06FFD099B079E0C9F191C18
:1025F0003060381C984626F069FD291C70604846FA
:1026000026F064FD069D41462860381C26F05BFDDF
:10261000320008320792082294460B9B6860013B07
:10262000083508340B93E3440695002B00D019E7D6
:102630000E9B9A460F9B9B46EAE626F047FD099BB8
:10264000079E0C9F191C3060381C984626F03BFDF5
:10265000291C7060484626F036FD069D41462860DC
:10266000381C26F033FD0B9B6860013B19000B936F
:1026700033000833079308239C462B0008330834A3
:10268000E3440693002900D0ECE6D1E7022F59D1AC
:10269000039B169CDD00994653465646A446049378
:1026A0005B460936FF36654405932B6872689A4687
:1026B0003368504698466B6841469346039326F02C
:1026C0001CFD5946071C039826F017FD011C381CF9
:1026D00026F0F9FC5946071C504626F00EFD0399DA
:1026E0008246404626F009FD011C504626F0EEFCCD
:1026F000391C8046206826F0E6FC28606068414668
:1027000026F0E1FC68602068391C26F0DFFC4146B9
:102710002060606826F0DAFC01235B429C46E144BD
:102720004B466060083608350834002BBDD1049B49
:102730009A46059B9B466BE6030006CC06C39E4269
:10274000FBD18EE40097039B524601211698FDF7BA
:10275000E3FF5DE65246039B169908932133DB00A5
:10276000D218093BFF3BCC189946534652680A934E
:10277000099284225B460D00520052440392A14408
:1027800004920B93236867689846039B40461E6833
:102790005A68311C924626F0B0FC51468346381CDC
:1027A00026F0ABFC011C584626F08DFC51460590E6
:1027B000404626F0A2FC391C8046301C26F09DFCC9
:1027C000011C404626F082FC4A46494612684F6882
:1027D0009046049A06901668516840468B46311C14
:1027E00026F08BFC59468246381C26F086FC011CDC
:1027F000504626F068FC59468246404626F07DFC4D
:10280000391C8046301C26F078FC011C404626F01E
:102810005DFC51468046059826F058FC41468346AB
:10282000069826F053FC039B049A08331032079055
:1028300028680393049226F023FD060058460F00F3
:1028400026F01EFD0022314B25F065FA02000B0038
:102850003000390025F02FFA25F062FB206068680F
:1028600026F00EFD060007980F0026F009FD002255
:10287000264B25F050FA02000B003000390025F0FD
:102880001AFA25F04DFB51466060059826F01BFCB6
:10289000099F391C26F031FC4146061C069826F09B
:1028A00012FC391C26F029FC5946071C286826F022
:1028B0000DFC07992860686826F008FC68602068AD
:1028C000391C26F003FC4B4618606068311C26F06A
:1028D000FAFB4B4658602068391C26F0F4FB311C8B
:1028E0002060606826F0F2FB08229446089B606036
:1028F000013B083508930834E144002B00D041E740
:102900000A9B9A460B9B9B4682E5C0460000E03F2F
:10291000F0B5454657464E46DE46E0B51D0000235D
:1029200089B00793013303400F0016009846002B2F
:1029300000D0A6E044100093002207AB2000FEF771
:102940003DFC62001219D30F9B18079A5B10DB0045
:102950000C329B180593002D00D198E02A68B246EE
:10296000934200D989E02B605346002B4DD052464C
:1029700051460C321A60079B2000D3184B60E100CF
:102980005B1851468B6000233900009307ABFEF7BC
:1029900015FCE30F1B195B109B46002F3DD0002B4D
:1029A0002EDD200025F030FA53469B6806000F000C
:1029B000994601239C46E044404625F025FA320022
:1029C0003B0025F08AF90022334B25F07DF9334A8C
:1029D000334B25F0A0F904000D0025F0C3FA25F0D3
:1029E0009FFA4B4629001860200025F0D1FA25F007
:1029F00097FA4B46586008239C46E144D845D8D105
:102A0000129B002B01D0059A1A60504609B03CBCBD
:102A100090469946A246AB46F0BD002BF0DD200063
:102A200025F0F2F953469B680290039198460137CE
:102A3000380025F0E9F9029A039B25F04EF90022AF
:102A4000154B25F041F9154A164B25F064F90400A1
:102A50000D0025F087FA25F063FA43462900186037
:102A6000200025F095FA25F05BFA434658600823CC
:102A70009C46E0445F45DAD1C2E700239A46059BB5
:102A800071E7094809F0DEFF00239A46BDE7180008
:102A900000F0FEF8824667E70000E03F182D44543E
:102AA000FB210940FB2109C0F09C0610F0B54E4601
:102AB0004546DE465746E0B50600006887B04368E5
:102AC0000C001500002B00D0A8E0036872682100FC
:102AD0009846FEF74DFE77683B689A467B685046FD
:102AE000191C9B4626F0F2FA4346DC002B19994646
:102AF00028605946504626F0E6FA4B464A4618608A
:102B000000236B6053604346DB0F43445B10002B94
:102B10007DDD082291462200BB46083AB944934421
:102B2000B4682E005F46CB46DB00E3180836AD18CC
:102B300005935B461B687A689A465B465B6851461C
:102B400099463B689046181C019326F0BFFA41460F
:102B50000290484626F0B7FA01990490504626F0B4
:102B6000B2FA49468246404626F0B0FA23686268C7
:102B7000191C814650460192039326F0BEFA019932
:102B80008046484626F0B9FA011C404626F09BFADA
:102B900001998046504626F0B0FA0399824648468D
:102BA00026F0ABFA011C504626F090FA41468146C9
:102BB000029826F08BFAFC21890526F09EFA049BE8
:102BC00030604946181C9A4626F080FAFC21890597
:102BD00026F093FA41467060029826F074FAFC21C0
:102BE000890526F08AFA51462860484626F06BFA95
:102BF000FC21890526F081FA08239C466860059B24
:102C00000834E344083F0836083DA34291D107B099
:102C10003CBC90469946A246AB46F0BD024809F03E
:102C200011FF306851E7C046C89C0610002070476D
:102C300010B522F085F8002010BDC04610B522F076
:102C4000DBF9002905D1FA21890024F0E5FD0021F6
:102C500010BDFA220023920024F020FEF7E7C046C0
:102C600010B522F0C9F910BD10B50100014809F0F6
:102C7000E9FE10BD0C9D061010B526F001FB020008
:102C80000B00024809F0DEFE10BDC046109D061084
:102C900010B526F0CDFC10BD10B526F0E7FC10BD38
:102CA00010B526F023FD10BDF0B557464E46DE4662
:102CB0004546E0B543688BB000934B685268079374
:102CC000038844880693032323400293A308180033
:102CD0009246020003934B88A100089101010991DB
:102CE00099000E001B015A4305923300099A534480
:102CF00094460193009B63440493079B9946039B6E
:102D0000002B67D000274C46B8461F00009D216865
:102D1000286826F0F2F9414626F0D8F98046A41931
:102D20002168686826F0E9F9414626F0CFF9804627
:102D3000A4192168A86826F0E0F9414626F0C6F9F2
:102D400010238046A4192168E8689B4626F0D5F92F
:102D5000414626F0BBF9AB44013F80465D46A419CD
:102D6000002FD4D1059B071C4B441C00049B029AE6
:102D7000002A12D09846330015004646984621682E
:102D800001CE26F0BAF9011C381C26F09FF9013D4E
:102D9000071C4444002DF2D14646534680C39A4650
:102DA00004239C46019BE1445345A8D1089A009B0B
:102DB000944663440093069B019A013B0693924616
:102DC000002B92D100200BB03CBC90469946A24605
:102DD000AB46F0BD4C46009B0027C8E7F0B5DE4689
:102DE00057464E464546E0B5436883B09B46536818
:102DF00042889A4603880E1C5A4393080092019316
:102E000024D01F0055465C462068311C26F075F919
:102E100028606068311C26F070F96860A068311C79
:102E200026F06BF91023A860E06898469946311C9B
:102E300026F063F9A844A144013FE8604C464546AA
:102E4000002FE1D1019B1B019A449B440324009B6A
:102E50001C4018D05B46311C186826F04EF95346CA
:102E60001860012C0FD05B46311C586826F045F9DC
:102E700053465860022C06D05B46311C986826F0F9
:102E80003CF953469860002003B03CBC90469946FC
:102E9000A246AB46F0BDC046F0B557464E46454645
:102EA000DE46E0B503270388468844689800DB00C7
:102EB0001B1837401B18B60873434D689C462A18E8
:102EC0009046BB003201BB46924699462B00002E2D
:102ED00014D031002200176801391F6057681B1891
:102EE0001F6097681B181F60D7681B181F6010327F
:102EF0001B180029EFD163465444EB185A46002AA8
:102F000007D0210080C9013A1F601B18002AF9D19F
:102F10004C4404354545D9D100203CBC90469946E7
:102F2000A246AB46F0BDC046F0B557464546DE4624
:102F30004E46E0B587B00493031D9A460B00013B53
:102F400001939B08029103920568059300D1C4E0A8
:102F50005746012400269B00013300933B68291C3F
:102F6000181C994626F016F9C846002800D1A84634
:102F70004846291C26F00EF9A146002800D1B1468A
:102F80007D68631C291C40469B4626F0EDF82E1CEC
:102F9000002800D14646291C404626F0E5F85D464B
:102FA000002800D14D46BB68301C9946A31C4946F9
:102FB000984626F0D9F8CB46002800D1B3464946BA
:102FC000301C26F0D1F8002800D1A84610239946DD
:102FD000B944FF685846391C26F0C6F8E61C3D1C6B
:102FE000002800D15D46391C584626F0BDF800285F
:102FF00000D14646009B04344F469C42AED1059B0F
:103000001B019A440324019B1C403BD053461B6880
:10301000291C9946029B48461F1B26F0BBF8C84650
:10302000002851D0291C484626F0B4F83D0000285D
:1030300048D0631E2E00002B51D052465668029A8B
:10304000311CD31A4046994626F08EF8371C0028CA
:1030500030D0311C404626F087F8002828D04E4654
:10306000022C3ED053469C68391C201C26F092F856
:10307000251C002813D0391C201C26F08BF8019E3B
:1030800000280AD0039B1D60049B1E6007B03CBC57
:1030900090469946A246AB46F0BD4E46F2E7391C33
:1030A000201C26F077F83D1C019E0028EAD1F4E7A9
:1030B000A946D4E7311C4046474626F055F800287B
:1030C000CDD1F5E73500B4E7291C484626F062F873
:1030D000A8463D000028ACD1F4E7002692E745461B
:1030E000D0E73D1CCEE7C046F0B557464546DE4624
:1030F0004E46E0B587B00493031D9A460B00013B92
:1031000001939B08029103920568059300D1C4E0E6
:103110005746012400269B00013300933B68291C7D
:10312000181C994626F020F8C846002800D1A84669
:103130004846291C26F018F8A146002800D1B146BF
:103140007D68631C291C40469B4626F023F82E1CF4
:10315000002800D14646291C404626F01BF85D4653
:10316000002800D14D46BB68301C9946A31C494637
:10317000984626F00FF8CB46002800D1B3464946C2
:10318000301C26F007F8002800D1A84610239946E5
:10319000B944FF685846391C25F0FCFFE61C3D1C6D
:1031A000002800D15D46391C584625F0F3FF002861
:1031B00000D14646009B04344F469C42AED1059B4D
:1031C0001B019A440324019B1C403BD053461B68BF
:1031D000291C9946029B48461F1B25F0C5FFC8467F
:1031E000002851D0291C484625F0BEFF3D0000288C
:1031F00048D0631E2E00002B51D052465668029ACA
:10320000311CD31A4046994625F0C4FF371C0028CC
:1032100030D0311C404625F0BDFF002828D04E4656
:10322000022C3ED053469C68391C201C25F09CFF84
:10323000251C002813D0391C201C25F095FF019E69
:1032400000280AD0039B1D60049B1E6007B03CBC95
:1032500090469946A246AB46F0BD4E46F2E7391C71
:10326000201C25F081FF3D1C019E0028EAD1F4E7D7
:10327000A946D4E7311C4046474625F08BFF00287D
:10328000CDD1F5E73500B4E7291C484625F06CFFA1
:10329000A8463D000028ACD1F4E7002692E7454659
:1032A000D0E73D1CCEE7C046F8B5DE4657464E4651
:1032B00045468B08E0B580468A4693469946002BE2
:1032C0006DD01D00040000272168013D081C25F079
:1032D00014FF391C25F0FAFE6168061C081C25F055
:1032E0000CFF311C25F0F2FEA168061C081C25F01D
:1032F00004FF311C25F0EAFE071CE0682600011CD3
:1033000025F0FBFE391C25F0E1FE1036071C3400C9
:10331000002DD9D14B461B019844032453461C4031
:1033200021D043461968081C25F0E7FE011C381C13
:1033300025F0CCFE071C012C15D043465968081C0B
:1033400025F0DBFE011C381C25F0C0FE071C022CFA
:1033500009D043469868011C25F0CFFE011C381C9B
:1033600025F0B4FE071C504625F025FF0024011C63
:10337000381C25F0AEFE211C051C25F003FF00289B
:1033800007D15B461C603CBC90469946A246AB46C2
:10339000F8BD281C25F07EFF5B461860F3E7002788
:1033A000BBE7C046F0B5DE4657464E464546E0B55B
:1033B000930883B083468A4601929946002B36D003
:1033C00005001E000C000023E85E25F0F9FEE02158
:1033D000890525F092FE20600223E85E25F0F0FECC
:1033E000E021890525F089FE60600423E85E25F070
:1033F000E7FEE021890525F080FE1023A0609846B5
:103400000623E85E25F0DCFEE0212F00890525F08B
:1034100074FEA0440837013EE0603D004446002EA3
:10342000D1D14B461B019A444B46DB009B440324FD
:10343000019B1C4024D05B460020185E25F0C0FE96
:10344000E021890525F059FE53461860012C17D05C
:103450005B460220185E25F0B3FEE021890525F0C9
:103460004CFE53465860022C0AD05B460420185E7E
:1034700025F0A6FEE021890525F03FFE5346986021
:1034800003B03CBC90469946A246AB46F0BDC04650
:10349000F0B500291CD04C1E64080134A400A446D9
:1034A00094441188538889089B0889009B00C5189B
:1034B00046182C68376804310433346041182F6093
:1034C000C3180D681C6804320C601D609445E8D177
:1034D000F0BDC046F0B54E464546DE4657468C46E2
:1034E000E0B5038895B09A0062440C001191110078
:1034F00089460F924268139010925A0812929200D5
:10350000A5189144DB0800D11BE1A446109F0E00D2
:10351000CA46B8461B0163440E93E068A168029056
:10352000686862680B905046019129680092F268C1
:1035300000680491E9680392AA6837680C910690C4
:103540005146504605925246BB4623688968C0687A
:1035500052687768089109905946181C0792B94635
:103560000A9325F0B3FDB76849462060009825F01E
:10357000ADFD391C6060019825F0A8FD10239C4624
:10358000A4446346A060039902980D9325F09EFD24
:103590005946E0600A9825F096FD49468346009812
:1035A00025F091FD391C041C019825F08CFD039930
:1035B0000190029825F087FD06990290049825F065
:1035C00085FD0B9B28600799181C994625F07EFD08
:1035D000102768600899059825F078FDBC46AC4432
:1035E000674600970C9FA8600999381C25F06EFD6E
:1035F0000499E860069825F066FD4946039007980F
:1036000025F061FD05998146089825F05CFD391C7F
:103610000490099825F057FD424615680590291C2D
:103620005846576825F069FD391C0690201C25F086
:1036300064FD011C069825F049FD291C3060201C02
:1036400025F05BFD391C041C584625F056FD011C75
:10365000201C25F038FD039B7060391C181C9B460C
:1036600025F04BFD291C041C484625F046FD011C95
:10367000201C25F028FD5246391C1060484625F0D4
:103680003CFD291C041C584625F037FD011C201C5C
:1036900025F01CFD52461023506042464344946876
:1036A0009946019B211C181CD5689B4625F025FDD9
:1036B000029B071C291C181C984625F01EFD011CA6
:1036C000381C25F003FD211CB060404625F015FD97
:1036D000291C8046584625F010FD011C404625F067
:1036E000F2FC049BF060291C181C9B4625F005FD8C
:1036F000059B211C3700061C181C984625F0FDFC74
:10370000011C301C25F0DFFC5246291C906040460D
:1037100025F0F3FC211C051C584625F0EEFC56460E
:10372000011C281C25F0D2FC52460D9C0E9B103625
:103730001037B246D060009D3E00C8469C4200D083
:10374000EBE66B4648229B181C88109A21001198C2
:10375000022300F031FC139B21005A680F980223CA
:1037600000F02AFC15B03CBC90469946A246AB46F8
:10377000F0BDC0468C46F0B5DE4657464E4645463F
:103780000288E0B5520893009C4466469C44674614
:103790009C440C00614605008A46043BA5B09A444F
:1037A0006B68550821951D943D6824682290089106
:1037B000201C291C1A9325F089FC291C8046201CFA
:1037C00025F081FC1D997D684C680190291C201C06
:1037D000069725F07BFC291C071C201C25F073FC98
:1037E0003300089A1D6854688346A1461468291C52
:1037F0004046079325F06AFC211C25F067FC1D99C3
:10380000079B7668086008310991381C596825F0D3
:103810005DFC089A516825F059FC1D994860311CDF
:10382000019825F053FC494625F04DFC079B291CC7
:103830001A001860083258461B9225F044FC211CDF
:1038400025F044FC079B291C5860404625F03BFCB2
:10385000211C25F038FC069B311C18600833381CED
:10386000059325F030FC494625F02DFC069B311CC4
:103870005860019825F027FC494625F027FC089F51
:10388000291C3860380008301C900600584625F086
:103890001DFC211C25F017FC1A9B786019001800EC
:1038A000219D08311030AB1E1F912090590808301F
:1038B0001E902391002900D108E208235B42019366
:1038C00004331B9A0393083304930023D146934691
:1038D000B24612910293029B099E059FF458FD582F
:1038E000201C291C25F0F2FB291C0A90201C25F025
:1038F000EAFB04990B9074587D58201C291C0996EA
:10390000059725F0E3FB291C8046201C25F0DBFBF6
:103910005A46576852465668391C0C900B9825F049
:10392000D5FB311C25F0CFFB5A461568524614686A
:10393000291C0D900C9825F0C6FB211C25F0C6FB18
:10394000291C13900A9825F0BEFB211C25F0BBFB17
:10395000391C0E90404625F0B6FB311C25F0B3FB18
:10396000391C14900B9825F0AEFB311C25F0AEFBF2
:10397000291C0B900C9825F0A9FB211C25F0A3FB1A
:10398000291C15900A9825F0A1FB211C25F09EFB0F
:103990005E46029B099CE05071685646404625F001
:1039A00095FB716825F092FB0499079F019E089D85
:1039B0006050BC59AD59201C291C25F087FB0A908A
:1039C000201C3C00291C25F07EFB089A0797039FCA
:1039D0008046D559E459291C201C25F077FB291C69
:1039E0000C90201C25F06FFB069C0F90E5594C466F
:1039F0002468281C211C039725F065FB4246011C06
:103A000017904046169225F061FB0423069F5B4207
:103A10004B4418900196BF591E68391C0F98984660
:103A200025F051FB311C25F051FB391C10900A98F0
:103A300025F049FB311C25F046FB291C19900C98F8
:103A400025F041FB211C25F03EFB1699119017989B
:103A500025F039FB391C1690301C25F034FB0F99EA
:103A600025F031FB291C0F900C9825F02FFB211C11
:103A700025F02CFB079D039C019E28514446069F80
:103A80000A98B95925F022FB216825F01FFB019601
:103A9000A8511A9C029A0D9894466444A568E66859
:103AA000291C25F02AFB139B071C311C181C984667
:103AB00025F023FB011C381C25F008FB5B46291C64
:103AC0001860404625F019FB311C071C0D9825F0A5
:103AD00014FB011C381C25F0F6FA5B46311C5860BB
:103AE000109825F00AFB189B071C291C181C9846E7
:103AF00025F003FB011C381C25F0E5FA069F03990D
:103B00007850311C404625F0F8FA291C061C109804
:103B100025F0F3FA011C301C25F0D8FA029B019E17
:103B20009C46B851644425690E98291C25F0E5FA95
:103B30006669149B071C311C181C984625F0DDFA99
:103B4000011C381C25F0C2FA059A029B291CD05092
:103B5000404625F0D2FA311C071C0E9825F0CDFA0C
:103B6000011C381C25F0AFFA80231B069C46049AE2
:103B7000059F291CB850119F6744380025F0BDFAF5
:103B8000199B071C311C181C984625F0B6FA011C1D
:103B9000381C25F098FA089F03997850311C119829
:103BA00025F0ABFA291C061C404625F0A6FA011C9C
:103BB000301C25F088FA019EB851029F0B98BC4634
:103BC0006444A569E469291C25F097FA159B061C35
:103BD000211C181C984625F090FA011C301C25F079
:103BE00075FA5346291C1860404625F086FA211CB8
:103BF000061C0B9825F081FA011C301C25F063FA95
:103C00005346211C58600F9825F077FA169B061C26
:103C1000291C181C984625F070FA011C301C25F050
:103C200052FA4B46186008235B429C46211C4046D2
:103C3000E14425F062FA291C041C0F9825F05DFA76
:103C4000011C201C25F042FA4B46586008203A001F
:103C500084460832129B0399019E0292049A013B0A
:103C600008320839083E1293E344E2440492039177
:103C70000196002B00D02EE6099A23999446CB009A
:103C80009C44624609921F9A209894469C4462463E
:103C90001F921B9A94469C44624684461B920A01DA
:103CA000944462462092059A94469C4462468C460F
:103CB00005924A001E9962448C46D20094446246A2
:103CC0001E921C9A94469C4463461C93099E059F31
:103CD00034683D68201C291C25F0F8F9291C019046
:103CE000201C25F0F0F974687D688146291C201C91
:103CF0000996059725F0EAF9291C8246201C25F033
:103D0000E2F91B9C1C9B67685E688046391C48462C
:103D100025F0DCF9311C25F0D6F91C9A25681B9496
:103D200014680290291C404625F0CDF9211C25F08D
:103D3000CDF9291C8346019825F0C5F9211C25F0F1
:103D4000C2F9391C0390504625F0BDF9311C25F00D
:103D5000BAF9391C0490484625F0B5F9311C25F014
:103D6000B5F9291C8146404625F0B0F9211C25F003
:103D7000AAF9291C071C019825F0A8F9211C25F097
:103D8000A5F9099D1B9B28605968504625F09EF9AE
:103D90001C9A516825F09AF91F996860029B0D687A
:103DA0004C68181C291C984625F0A7F9211C061CF4
:103DB000584625F0A2F9011C301C25F087F91B9EFE
:103DC000291C3060584625F098F9211C051C4046F6
:103DD00025F093F9011C281C25F075F920997060D5
:103DE0000D68039B4C68181C291C9A4625F085F920
:103DF000049B061C211C181C984625F07EF9011C0A
:103E0000301C25F063F9059E291C3060404625F0E2
:103E100074F9211C051C504625F06FF9011C281C63
:103E200025F051F970601E9B48461D685C68291C8E
:103E300025F063F9211C061C381C25F05EF9011CD5
:103E4000301C25F043F91C9E291C3060381C25F0DD
:103E500054F9211C051C484625F04FF9011C281C6B
:103E600025F031F96B4684229B181C8870601A9AE1
:103E700021001D98042300F09FF8229D21006B680B
:103E800007980193019A042300F096F86B682100CB
:103E90000193019A0698042300F08EF86A680423BF
:103EA0002100089800F088F825B03CBC904699465F
:103EB000A246AB46F0BDC046F0B5C646060000B50A
:103EC0000C00170098460588012A59D080235B0012
:103ED0009D4249D03CD98023DB009D423FD05ED932
:103EE00080231B019D423FD080235B019D423FD137
:103EF000012372682900200000F05EF84346002B81
:103F000039D0B268B1892000FFF7C2FA012F34D14D
:103F1000280025F050F9011CFE20800525F0D9F875
:103F2000071C002D29D000262068391C25F0E5F853
:103F30008022120694466368206063441800391C8E
:103F400025F0DBF8013660600834B542ECD814E0A7
:103F5000202D09D028D9402DCAD0802D08D121008C
:103F60003000FFF7B7FA03E021003000FFF702FC52
:103F70004346002BC5D1012FCAD004BC9046F0BDEA
:103F80000B1D002D13D000218020000684461A68E6
:103F9000013162441A6008338D42F5D896E78023D8
:103FA0009B009D42A4D0E3E7102DD8D0E0E7434624
:103FB000002BE2D0A5E7C046F0B54546DE465746A1
:103FC0004E46E0B5B9B011930300050018910433D3
:103FD000189C35901A9136923793E308E2001992B3
:103FE000DA009446AB46E3449C46190103920191E2
:103FF0001100379A180090465A0012926244AC465B
:104000002C93D300043363440593C3005B420993AC
:1040100043015944009313010E00029343460A944E
:104020000493B24600E00A935A465146099BD4587D
:10403000019B201CCD58291C25F048F8291C061C82
:10404000201C25F040F85946009B0D68CF58089079
:10405000391C281C25F03AF8391C041C281C25F0B2
:1040600032F85146009B0D68C9580B90281C8846B1
:1040700025F02CF84146071C281C25F024F8594649
:10408000019A5D4689580C908846029940466958C5
:10409000894625F01BF84946051C404625F013F8D3
:1040A000391C0D90301C25F00EF8391C0E90301C78
:1040B00025F00CF8291C061C201C25F004F8291CEE
:1040C0000F90201C25F002F8041C011C301C24F069
:1040D000FDFF5F46099D211C7851301C24F0F3FF41
:1040E0005446019A049EA0503468009B201CF55849
:1040F000291C24F0EBFF071C201C5C46291C24F023
:10410000E2FF059A019D646855591090291C201CF6
:1041100024F0DCFF291C8146201C24F0D4FF5546E6
:1041200032000496029E6D689659041C311C281CAE
:1041300024F0CCFF311C8046281C24F0C4FF009BD7
:1041400005990690CE580D68311C281C24F0BEFF3E
:10415000311C0790281C24F0B6FF4146061C381C71
:1041600024F0B1FF4146051C381C24F0AFFF07992D
:104170008046484624F0A7FF0799071C484624F0CC
:10418000A5FF8146011C404624F0A0FF049A494641
:104190001060404624F097FF049A009B391CD050D1
:1041A0000E9B181C994624F091FF5346391C186049
:1041B000484624F088FF5746009BF8500F9B281C68
:1041C000191C984624F07FFF291C7860404624F093
:1041D0007DFF049A0B9B0D9F029D391C5051181CAA
:1041E000984624F070FF874924F087FF391C8146E8
:1041F000404624F06BFF834924F07FFF311C051CEF
:10420000201C24F060FF7F4924F077FF311C071C3D
:10421000201C24F05BFF7B4924F06FFF089C49467B
:104220000790201C24F04FFF49468046201C24F0B4
:104230004DFF0C9E291C0890301C24F044FF291CC3
:10424000041C301C24F042FF109B061C391C181C57
:10425000994624F038FF391C051C484624F036FFE7
:104260000799071C069824F02EFF079981460698A7
:1042700024F02CFF011C0690089824F027FF5B46D1
:1042800006991860089824F01EFF5946029BC850F2
:104290004946404624F01AFF5946009BC8504946FB
:1042A000404624F010FF5946019A8850311C381CB2
:1042B00024F009FF59464860391C301C24F006FFE1
:1042C000059F009B211CF850281C24F0FCFE019B3C
:1042D000291CF850201C24F0F9FE0A9D189BAC46BE
:1042E000199C6344A4463900049A614462440492D0
:1042F0001A9A3860E344E2440591AA4200D992E652
:104300002C9E072E00D803E3119A369DD300180087
:10431000349384462B001000634411019C44329175
:1043200061468446520062442B912A91D1000C00D0
:104330003191A446290061448446624429910100D8
:10434000D00004003090A446280060448C466244AB
:1043500028900800D1008C462C00644484466244B6
:104360002F910100D000844627942C0065448C4690
:104370006244D2009446269525006544B4462D92A9
:10438000359A039C08322492B2006244D20004920F
:10439000129A2E906244D2000592A21BD200109273
:1043A0000122239222000432259533921A685B6819
:1043B0000A922A9A0E93116853680B9129991E93B9
:1043C00008684B681B9028981F93046843680C94F6
:1043D000279C0F93256863681C95269D20932E6863
:1043E0006B681D96259E219337680D977368249EF0
:1043F0002293339BB4469846E044C246B346239B7F
:10440000099301E0F304353F5B465A461C68009B64
:10441000201CD558291C24F059FE291C071C201CDF
:1044200024F051FE59465D46039A12908C58049927
:10443000201C6E58311C24F049FE311C5E46051CC0
:10444000201C24F040FE5946019C13903459029ED2
:10445000201C8E59311C24F039FE311C8046201C52
:1044600024F031FE59465B46059C14900C59109976
:10447000201C5B58191C994624F028FE4946061C4E
:10448000201C24F020FE41461590381C24F01BFE11
:104490004146041C381C24F019FE311C071C281C42
:1044A00024F011FE311C1690281C24F00FFE051C70
:1044B000011C381C24F00AFE5B46291C1860381CBD
:1044C00024F001FE5D465346059F6D680690DE5957
:1044D000281C311C24F0FAFD071C281C5546311CF1
:1044E00024F0F1FD009B2E68ED580790291C301C2C
:1044F00024F0ECFDA846051C4146301C24F0E3FDE9
:1045000056465346039A0499B6585B581790191C9F
:10451000301C994624F0DAFD49468046301C24F0D0
:10452000D2FD5346019E08909B59029E99465346E0
:104530009B594846191C119324F0C8FD1199061C7B
:10454000484624F0C0FD41461190381C24F0BBFDC4
:1045500041468146381C24F0B9FD311C071C281C3B
:1045600024F0B1FD311C8046281C24F0AFFD4146EB
:10457000061C201C24F0AAFD4146051C201C24F02A
:10458000A2FD311C041C381C24F0A0FD5B46311C2C
:104590005860381C24F097FD169B071C191C4846D0
:1045A000984624F090FD4946061C404624F08EFDB6
:1045B000069980460C9824F0A0FD391C81460F987E
:1045C00024F09BFD011C484624F080FD5A46009BC8
:1045D000391CD0500C9824F090FD0699071C0F98B8
:1045E00024F08BFD011C381C24F06DFD5346059F03
:1045F000291CD8510B9824F080FD1E9B071C311CF0
:10460000181C994624F079FD011C381C24F05EFD2D
:104610005B46019F311CD8510B9824F06EFD291C7C
:10462000061C484624F069FD011C301C24F04BFD9B
:104630005546039A1D9FA850211C381C24F05DFD8F
:10464000219B051C4146181C994624F056FD011C6F
:10465000281C24F03BFD5E46029D41467051381CEB
:1046600024F04BFD211C051C484624F046FD011C8E
:10467000281C24F028FD5646159B139D0499984646
:104680007050191C281C24F01EFDA54924F035FD8E
:104690004146041C281C24F019FDA14924F02DFDDD
:1046A000119B051C9946191C179B181C984624F051
:1046B0000AFD9B4924F021FD4946071C404624F091
:1046C00005FD974924F019FD129E8146211C301CDE
:1046D00024F0F9FC211C8046301C24F0F7FC149EC9
:1046E000291C0690301C24F0EEFC291C041C301CF4
:1046F00024F0ECFC391C061C079824F0E4FC391C5F
:10470000051C079824F0E2FC4B46071C4946089814
:10471000079324F0D8FC07998146089824F0D6FC2A
:10472000011C0890069824F0D1FC0899079006987F
:1047300024F0C9FC49460690404624F0C7FC49468F
:104740000890404624F0BFFC311C8146381C24F000
:10475000BAFC391C8046301C24F0B8FC211C071C14
:10476000281C24F0B0FC291C061C201C24F0AEFCE4
:104770000799051C0A9824F0C0FC4146041C0E98B9
:1047800024F0BBFC011C201C24F0A0FC5C46039A16
:104790004146A0500A9824F0B0FC0799041C0E98DA
:1047A00024F0ABFC011C201C24F08DFC5246069921
:1047B00010600D9824F0A1FC229B041C391C181CCD
:1047C000984624F09AFC011C201C24F07FFC5C46D7
:1047D000109A391CA0500D9824F08FFC0699041CE7
:1047E000404624F08AFC011C201C24F06CFC52463C
:1047F0001C9F029C08991051381C24F07EFC209BC1
:10480000041C311C181C984624F077FC011C201C49
:1048100024F05CFC5C46049A311CA050381C24F047
:104820006CFC0899041C404624F067FC011C201C09
:1048300024F049FC5246009B1B9ED0504946301C38
:1048400024F05BFC1F9B041C291C181C984624F0B8
:1048500054FC011C201C24F039FC5B46059C291CDF
:104860001851301C24F049FC4946041C404624F0F1
:1048700044FC011C201C24F026FC5346189A019F7E
:104880009446D851099B6344099319991A9A8C4606
:10489000E344E2449A4200D9B6E532982A99844624
:1048A0003198614484462A9130982999239B614428
:1048B000844629912F9828992B9C614484462891FD
:1048C0002E98279901336144844627912D98269983
:1048D0001A006144844626912599239361442591C9
:1048E00024992300083124912C99914205D03499C0
:1048F00022008C4662442B9258E56B46D0229B18CE
:104900001B88359D11932C9B18931C00FFF765FBAA
:1049100039B03CBC90469946A246AB46F0BDC04675
:10492000F304353FF0B5DE4657464E464546E0B502
:1049300089B006900C0005920793002B00D094E0FC
:10494000050000220123FFF7B7FA21682B88081C15
:10495000013B9A4624F0BAFB61686E69051C081C8D
:1049600024F0B4FB071C011C281C24F0AFFBFC2125
:10497000890524F0C2FB059B391C1860281C24F013
:10498000A2FBFC21890524F0B8FB5346DB009846C6
:1049900008239B46059AA344A044350014005F46B3
:1049A0004646D34650600835083432682968914637
:1049B0003A686868924673687A6802910490514632
:1049C00048460192009324F07EFB019903900098E1
:1049D00024F07CFB03998046029824F08EFB51461C
:1049E0000590484624F072FB011C059824F06EFBEC
:1049F000049B81464146181C9A4624F07EFB011C0C
:104A0000484624F063FBFC21890524F076FB0399DA
:104A10002060504624F071FB00998146019824F0F3
:104A200052FB011C484624F051FB41468146029846
:104A300024F063FB011C484624F045FBFC2189055A
:104A400024F05BFB01235B429C46E3445B466060D1
:104A50000837083E08350834002BA6DC09B03CBCFA
:104A600090469946A246AB46F0BD0E684F68038853
:104A70004269013B391C301C99461500009224F014
:104A800025FBFC21890524F038FB059B391C1860A7
:104A9000301C24F018FBFC21890524F02EFB4B462A
:104AA000DB009B46059AA344083427004B461400BC
:104AB0000835506008345E46C846002B58DD326821
:104AC000296892463A686868934673687A680291E2
:104AD0000490514658460192009324F0F4FA01994B
:104AE0008146009824F0F2FA59460390504624F08B
:104AF000EDFA49468246029824F0FFFA011C50461E
:104B000024F0E1FA049B82460399181C9B4624F08A
:104B1000F4FA011C504624F0D6FAFC21890524F051
:104B2000ECFA49462060584624F0E7FA009981469D
:104B3000019824F0C8FA011C484624F0C7FA0399EA
:104B40008146029824F0D9FA011C484624F0BBFAA9
:104B5000FC21890524F0D1FA01235B429C46E04404
:104B6000434660600837083E08350834002BA6D15C
:104B70000123079A05990698FFF79EF96EE7C0464C
:104B8000102803D8024B8000C05870470148FCE74A
:104B9000FCA7061040A80610F8B515001C0000225E
:104BA000002306000F0023F0F9F8002803D00023AB
:104BB0002B602360F8BD22003000390064F0B0FFA4
:104BC0000022124B23F0A7F823F028FA23F07CF9F7
:104BD000002918DC13D080231B06984207D02368D5
:104BE0001F3302DA0023002023602860E2E7002957
:104BF000F5D180202368C00501332360F0E78023CE
:104C00001B069842E7D958F031FCC0460000E0414D
:104C1000F0B583B0009201931F23040001200D0022
:104C200008995B1A984023F0EFF8009A019B060060
:104C30000F002000290023F06EF802000B00300066
:104C4000390023F068F82B4A2B4B04000D0023F0A9
:104C5000C3F8061E15D10022284B2000290023F09E
:104C6000BBF8002830D0002200232000290023F0C8
:104C700095F800283AD0099B1E600A9B1E6003B07D
:104C8000F0BD1C481C490A9A64F04AFF00221C4BE4
:104C900023F041F823F0C2F923F016F9002913DCC0
:104CA0001FD080231B06984210D00A9B1B681A0055
:104CB0001F3205DA00230A9A1360099A1360DEE7AF
:104CC000099A1060002BDADA58F0D0FB0029ECD1F9
:104CD00080200A9B0A9A1B68C00500930133136069
:104CE000E5E780231B069842DBD9EDE72000290089
:104CF000C9E7C0460000C0FFFFFFDF410000F03FF2
:104D00000000E041F8B5CE46012381464746180031
:104D100098464B46984080B5013816000F0023F0A6
:104D200073F84B46F21A20235B4204000D00D3189F
:104D300026D44146994001263000904023F0B8F82F
:104D40000B0002002900200022F0E5FF20235B4237
:104D500004000D00FB1818D4310099400120B84020
:104D600023F0A6F802000B002000290022F0B5FF76
:104D700023F096F923F060F80CBC90469946F8BDF4
:104D8000202341469B1AD940D5E720233100DB1B65
:104D9000D940E3E710B5002A10DB096800230C684E
:104DA000A24209DA92008A185168002904DB83685C
:104DB000002B05D089015B18180010BD0023FBE70C
:104DC000036D98470300F7E710B5002A10DB496828
:104DD00000230C68944209DD92008A18516800296A
:104DE00004DB8368002B05D089015B18180010BD17
:104DF0000023FBE7036D98470300F7E710B5002A8F
:104E000010DB096800230C68A24209DA92008A18B4
:104E10005168002904DB8368002B05D089015B18E9
:104E2000180010BD0023FBE7036D98470300F7E768
:104E3000F0B5D6464F4680B5CD681C00D36883B028
:104E40008246281C994624F01BFA060048460F00AB
:104E500024F016FA02000B003000390022F05BFF4C
:104E600006000F00002C1BD0E06824F009FA0200B5
:104E70000B003000390022F01EFF0A9B0600D868A4
:104E80004C0024F0FDF9640802000B003000210002
:104E900022F023FF1D4A1E4B22F08EFF002821D056
:104EA0004946281C24F029F9041C24F0E9F90600DD
:104EB0000F00201C002124F065F900281ED00A9B59
:104EC000D86824F0DDF90B0002003900300022F030
:104ED00004FF0B9B18605960002003B00CBC914686
:104EE0009A46F0BD0B4B009353465C69A2235B00CE
:104EF0005046094A0949A0470120EEE7084B0093B4
:104F000053465C695223FF33F2E7C0467B14AE4739
:104F1000E17A943F80A90610E4A8061068A906105B
:104F2000A4A90610F0B5C64600B51C00137882B0DF
:104F3000032B5BD0092B1ED0072B12D1354E364DDB
:104F4000D3681769984601291DD0032931D0022959
:104F50004FD00020089B25601E6002B004BC904624
:104F6000F0BD2E4B2E4A0093C22344695B002D49AD
:104F7000A0470120F1E78025D3687F266D4298463F
:104F800017690129E1D1191C002024F0A2F824F0AE
:104F9000EFF924F037F9C719AF4204DB089B27600B
:104FA00000201E60D9E72F00089B276000201E60AC
:104FB000D3E7191C002024F08CF824F0D9F924F050
:104FC00021F9C019A84200DA28004146206016489D
:104FD00024F07FF824F0CCF924F014F9C719B74273
:104FE00000DD3700089B00201F60B6E7FF26002584
:104FF000A6E7191C0D4824F06CF824F0B9F924F048
:1050000001F9C019A84200DA28002060FE204146BC
:105010008005DDE7FF7F00000080FFFFC0A90610CC
:10502000E4A8061068A906100000C040000080BF78
:10503000F0B54E464546DE46574691463022E0B52D
:105040008DB005938B5C04000D00012B00D087E030
:1050500049468A5C012A6FD14B6B002B00D142E19B
:105060001A689046002A00D142E11168012900DC4B
:1050700089E0FD202A78073A024200D07AE04A46C9
:105080001278092A00D0B5E01E9A8A4200D0C4E006
:105090004A4692689B6894469B0063445B681E9AEC
:1050A0009A4200D0B0E0E86824F0EAF8169B089035
:1050B0000991D86824F0E4F804239C4600239B4619
:1050C0000BAB04930AAB22009A462B001C9EE044D3
:1050D0004446350090465E469B46069007911D9FCC
:1050E00001CC24F0CDF8089A099B22F014FE069A10
:1050F000079B22F0F2FD049B5246FFF74DFD0A9BF1
:10510000013608C50B9B08C71E9BB342E8D1444635
:105110005D462B78032B00D188E0092B02D00020BC
:10512000072B16D1179B169A19781B9B200000930A
:105130001A9BFFF7F7FE0CE003937A4B0292019360
:10514000794B0093E3234569784A79492000A847C1
:1051500001200DB03CBC90469946A246AB46F0BD3E
:105160000293704B2F3A0193724B0392009345695F
:10517000E123E9E7704B0093F32365696B4A6F49BC
:105180002000A847E4E7169BE868DE681E9B002B1A
:10519000BFDD24F075F806900791301C24F070F8FC
:1051A00000239B460BAB04930AAB22009A462B00CC
:1051B0005C46454693469846089009911C9E1D9F63
:1051C000686824F05DF8069A079B22F0A4FD089A0F
:1051D000099B22F082FD049B5246FFF7DDFC0A9BEF
:1051E000013408C60B9B08C71E9BA342E8D15C464E
:1051F00045468EE709230393514B02920193514B8D
:1052000000936569F4239FE703934F4B0292019348
:105210004E4B00936569F82396E74C4B039201933C
:105220004B4B029100936569F5238DE7EB68984637
:105230004B46DB684046994624F022F80600484673
:105240000F0024F01DF80B0002003900300022F09E
:1052500062FD059B06000F00002B1BD0D86824F0D0
:105260000FF802000B003000390022F024FD169BDD
:105270000700D8684E0024F003F8760802000B00FF
:105280003800310022F029FD324A334B22F094FDE0
:10529000002832D04946404623F02FFF804623F0B5
:1052A000EFFF06000F004046002123F06BFF0028AF
:1052B0002DD0169BD86823F0E3FF02000B003000CE
:1052C000390022F00AFD0BAB189AFFF765FC0B9B27
:1052D000199A5B4213602B78092B00D122E7032B2C
:1052E00000D11FE71BE71D4B00934569ED2345E700
:1052F0001B4B00934569EE2340E71A4B0B4A009382
:10530000A22365695B000D492000A84720E7164BE2
:10531000064A009352236569FF3308492000A847D5
:1053200016E7C046E4A906101CAA0610E4A8061059
:10533000C8A9061000AA061068AA061068A90610D7
:10534000A4AA0610B0AA0610F4AA0610C0AA061055
:10535000D0AA06107B14AE47E17A943F38AA061013
:105360004CAA061080A90610A4A9061010B5836BDC
:105370003421984710BDC046F0B5DE464546574635
:105380004E460A6889469446E0B5E24BE7B01B6892
:10539000040004939B0063445968436D98474A4650
:1053A0001268DD4B94461B68050004939B00634420
:1053B00059682000636D98474B461B6880461A6801
:1053C0000027032A09D1D54A2000126804929200CE
:1053D0009B185968636D984707004A465268D04B3E
:1053E00094461B68200004939B0063445968636DD6
:1053F00098474B4659691B69027A99462B7A0600F1
:10540000934201D000F072FC4246107A984201D0DB
:1054100000F066FC012800D154E2092800D041E2E6
:1054200058AC4A46200000F0C1FC4B465B6A29009C
:1054300022934B469B6A239340AB180014939946E2
:1054400001F0CAFD2A684146249246AA100017922C
:1054500001F0C2FD42461268390025924CAA1000A4
:10546000159201F0B9FD3A683100269252AA100057
:10547000169201F0B1FD3268469827926269924611
:105480000A21625E28920C21625E29920E21625EE0
:1054900093461021625E0F920221625E2A920421DD
:1054A000625E40992B92E2692C92A26A2D92E26A86
:1054B0002E92529A052900DCF1E14B465B681C688C
:1054C000169B5B68052A00DD1B6819949C4200DD71
:1054D0001993149B052900DCDFE15B68DB68179CEE
:1054E000052800DCD2E16468E7689F4200DD1F0008
:1054F0002468169B052A00DCC6E15B68DB681E9405
:105500009C4200DD1E93149B052900DCB7E15B681B
:1055100059689B680B910793179B052800DC9EE157
:105520005B6859689B680D919946169B052A00DCBB
:105530009AE158684368139383681D93199B002B65
:1055400000DC35E1139B002B00DC2DE100231293DE
:105550002B9B5B421F9300231C931D9B002B00DCA5
:1055600018E12A9B5B420E9300231B931E9B002B8A
:1055700000DC03E100235446CA461A9318930D9B9E
:10558000002B00DC60E1439B1F9D1900AC46449A50
:105590000F985143484342991190129808954143FE
:1055A00061444B430E9900258C46249963448C46F4
:1055B0004A995343894663440A93499B594310913E
:1055C00048994B4349464B4318994B4325998C4680
:1055D000634409935B465343069300230C9353465D
:1055E000002B2EDD0E9B099E9C46002398464B46C1
:1055F0000A9804936346002B17DB079B634514DD71
:10560000089B002B11DB0B9A9A420EDD002F0CDD5C
:10561000049B002199464256735612195343013197
:10562000ED18B942F7D14B46049301239946069BE6
:10563000C8449946049B48449946DC444E44C245BC
:10564000D8D111990A9A8C46109962448C460A92D4
:105650000F99099A0C9B62448C460992089A01336F
:10566000624408920D9A0C939342B8D1269B002B6A
:1056700004D01A9A9B589C46049365441A9B229A1C
:10568000D058239AD258D343DB171340002A00DCAA
:10569000D2E000220026914690469D40A84200D1CB
:1056A000B4E0C117EB172A0023F0F0FC002900DB5F
:1056B000A3E001231B4A5B420492059312184B415D
:1056C000D91749004908209100212191209821995A
:1056D00012184B415800D20F10430123C217064045
:1056E0001A40129B549D4A445D431C9B9C46559B0B
:1056F00065445D431B9B9C46569B65445D43279BCD
:105700001900189B9C4601236144B2420CDB002324
:105710000AE0C04664AD06106CAD061060AD061020
:1057200068AD0610010000C001225B4213404246F2
:1057300010412C9A1B1894462D986344834200DA3A
:1057400003002E98834200DD03001A9A4B55043261
:10575000189B1A921E9A01331893934200D00EE7B9
:1057600028990E9A8C461B9B62440E921D9A013317
:10577000D1461B93A246934200D0FBE629991F9A7B
:105780008C461C9B62441F92139A01331C939342D4
:1057900000D0E6E6129B199A01331293934200DA85
:1057A000D6E6529B052B05DD169B5868002801D0D4
:1057B00023F0CCFF4C9B052B05DD159B586800287A
:1057C00001D023F0C3FF469B052B05DD179B5868CE
:1057D000002801D023F0BAFF409B052B05DD149B68
:1057E0005868002801D023F0B1FF002067B03CBC0E
:1057F00090469946A246AB46F0BD80220023D205D2
:10580000801859414B00C00F184366E7E9172A007A
:105810000B00280023F03AFC00291ADB8022002329
:10582000D2050492059380231B069D420ED176007B
:1058300076080022204854E7012652429640013E55
:1058400090467210914628E700250FE7049A059BC1
:1058500034E70123194A5B4204920593E3E7996810
:10586000DB680D91994660E69A68DB6813921D9398
:10587000199B002B9EDD002A00DD67E69AE79968F8
:10588000DB680B91079347E61B6938E627699F425F
:1058900000DD1F00179B5C682BE61B691FE6149B4D
:1058A0005C680DE66669FFF76BF92B7A0200044924
:1058B0002000B047012099E7FFFFFF7F010000C0F3
:1058C000A0AC061058AC4A46200000F035FA29007A
:1058D0003AA801F081FB2B684146994640AB18007D
:1058E000149301F079FB43461B6839002D9346ABB6
:1058F0001800179301F070FB3B6831002E934CABFE
:105900001800159301F068FB33680021984652ABEC
:105910001800169301F060FB0A22A35E40992793BA
:105920000C22A35E28930E22A35E04931022A35E92
:1059300010930222A35E29930422A35E3A9A9C4606
:10594000236B2F93636B30934C9B1893052A00DCD9
:10595000C4E13B9B1868189B052B00DCBBE1159B41
:105960005B681B682590984200DD2593052A00DCC2
:10597000AFE13B9BDB681498052900DCA1E140689E
:10598000C4680E949C4200DD0E930068189B052BA2
:1059900000DC93E1159B5B68DB681B90984200DD9F
:1059A0001B93052A00DC84E13B9B5A689B680C92A0
:1059B0000893149B052900DC76E15B685A689B68B4
:1059C0000F929A46189B052B00DC67E1159B5B68DC
:1059D0005A689B6826921993259B002B00DC2AE1CC
:1059E000159B149FDE6818690696BE689A68B346D0
:1059F000269E3D693E9C3C993D9BFF68002E00DC45
:105A000019E1069E724392004243329242461C9232
:105A10000A005A43920062433192624652423992DE
:105A20005A43299EA100921B069E4A434643634364
:105A30004A441A92B2003492289A9B005A433392F5
:105A400082003692279A4A4335925A467A43920008
:105A50006A4338921B9A6F4392003792109A5A43C6
:105A6000BB001293049B13924B430793AB00069326
:105A70000E9B9B009B4600232C93199B002B00DC64
:105A8000C8E0399B1D931A9B1E931C9B1F930023F8
:105A90002B931B9B002B00DCA6E0299B5B42119300
:105AA0001E9B20931F9B229300232A932D9B2493BC
:105AB000002323930F9B002B00DCEDE01D9B0025B2
:105AC0000993249B0A93209B0B9300230D93534629
:105AD000002B36DD119B0A9F9846002399460B9EAA
